:020000040000FA
:100000000C945D000C9485000C9485000C94850084
:100010000C9485000C9485000C9485000C9485004C
:100020000C9485000C9485000C9485000C9485003C
:100030000C9485000C9485000C9485000C9485002C
:100040000C9472220C9485000C94E2220C94BC2235
:100050000C9485000C9485000C9485000C9485000C
:100060000C9485000C94850000000008000201003B
:100070000003040700000000000000000000000072
:10008000250028002B0000000000240027002A0083
:10009000040404040404040402020202020203032E
:1000A0000303030301020408102040800102040836
:1000B00010200102040810205F2311241FBECFEF7F
:1000C000D8E0DEBFCDBF12E0A0E0B1E0ECE4F1E5A6
:1000D00002C005900D92A639B107D9F726E0A6E92E
:1000E000B2E001C01D92AD3CB207E1F710E0CDE5F2
:1000F000D0E004C02197FE010E947328CC35D107BF
:10010000C9F70E94EF230C94A4280C94000090E0FF
:10011000FC01EC55FF4F249180579F4FFC018491C7
:10012000882399F090E0880F991FFC01EA57FF4F50
:10013000A591B491FC01E458FF4F859194918FB73C
:10014000F894EC91E22BEC938FBF089520E3FC012F
:1001500020833296862F82958F706F706A3030F4CC
:10016000605D6293682F8111F5CF0895695CF9CFC6
:1001700090E0FC01E859FF4F2491FC01EC55FF4F42
:100180003491FC01E057FF4FE491EE23C9F02223A4
:1001900039F0233001F1A8F4213019F1223029F18E
:1001A000F0E0EE0FFF1FE458FF4FA591B4918FB719
:1001B000F894EC91611126C030953E233C938FBF9B
:1001C00008952730A9F02830C9F0243049F78091EC
:1001D00080008F7D03C0809180008F7780938000A6
:1001E000DFCF84B58F7784BDDBCF84B58F7DFBCF28
:1001F0008091B0008F778093B000D2CF8091B00013
:100200008F7DF9CF3E2BDACF3FB7F89480917803FA
:1002100090917903A0917A03B0917B0326B5A89BB6
:1002200005C02F3F19F00196A11DB11D3FBFBA2F88
:10023000A92F982F8827BC01CD01620F711D811D48
:10024000911D42E0660F771F881F991F4A95D1F7CD
:1002500008958F929F92AF92BF92CF92DF92EF92CA
:10026000FF924B015C010E9404016B017C010E9422
:1002700004016C197D098E099F09683E7340810550
:100280009105A8F321E0821A9108A108B10888EE2F
:10029000C80E83E0D81EE11CF11C81149104A10456
:1002A000B10429F7FF90EF90DF90CF90BF90AF900F
:1002B0009F908F9008952FB7F89460917403709178
:1002C000750380917603909177032FBF0895AF92C5
:1002D000BF92CF92DF92EF92FF920F931F93CF9333
:1002E000DF936C017B018B01040F151FEB015E0195
:1002F000AE18BF08C017D10759F06991D601ED912A
:10030000FC910190F081E02DC6010995892B79F7C8
:10031000C501DF91CF911F910F91FF90EF90DF907A
:10032000CF90BF90AF900895FC01538D448D252F41
:1003300030E0842F90E0821B930B541710F0CF967F
:10034000089501970895FC01918D828D981761F0B1
:10035000A28DAE0FBF2FB11D5D968C91928D9F5FC8
:100360009F73928F90E008958FEF9FEF0895FC01A7
:10037000918D828D981731F0828DE80FF11D858D5A
:1003800090E008958FEF9FEF0895FC01918D228DED
:10039000892F90E0805C9F4F821B91098F73992772
:1003A000089580EA95E00E94C50121E0892B09F4B7
:1003B00020E0822F089580E090E0892B29F00E94B0
:1003C000D10181110C9400000895FC01A48DA80FA7
:1003D000B92FB11DA35ABF4F2C91848D90E0019687
:1003E0008F739927848FA689B7892C93A089B189A7
:1003F0008C91837080648C93938D848D981306C048
:100400000288F389E02D80818F7D80830895EF92AB
:10041000FF920F931F93CF93DF93EC0181E0888FBE
:100420009B8D8C8D98131AC0E889F989808185FF8E
:1004300015C09FB7F894EE89FF896083E889F98930
:1004400080818370806480839FBF81E090E0DF9132
:10045000CF911F910F91FF90EF900895F62E0B8D85
:1004600010E00F5F1F4F0F731127E02E8C8D8E1140
:100470000CC00FB607FCFACFE889F989808185FFA7
:10048000F5CFCE010E94E501F1CFEB8DEC0FFD2FF2
:10049000F11DE35AFF4FF0829FB7F8940B8FEA8962
:1004A000FB8980818062CFCFCF93DF93EC01888D71
:1004B0008823B9F0AA89BB89E889F9898C9185FDDF
:1004C00003C0808186FD0DC00FB607FCF7CF8C916D
:1004D00085FFF2CF808185FFEDCFCE010E94E5013F
:1004E000E9CFDF91CF9108958823E9F0A4E8B4E043
:1004F00025E014969C91149789130DC095E0899F6F
:10050000F0011124EC57FB4F848114968C931382D5
:10051000128214820895992331F0929FD001112400
:10052000AC57BB4FE6CF08958823A1F09091950575
:10053000992381F08F3F29F4809191059091920544
:10054000089595E0899FF0011124EC57FB4F8281BB
:100550009381089590E080E008958EBD00000DB471
:1005600007FEFDCF8EB508951F93CF93DF93182F0D
:10057000C62FD42F60E08AE00E94B8008C2F8F71C4
:10058000812B0E94AD028D2F0E94AD0261E08AE0B6
:10059000DF91CF911F910C94B800CF93DF93D82FA8
:1005A000D076909100019D17A1F0C82F43E06FE134
:1005B00080EA0E94B4024C2F50E085E055954795A3
:1005C0008A95E1F743706FE180E80E94B402D0930E
:1005D0000001DF91CF9108951F93CF93DF93C82F30
:1005E000162FD72F0E94CD02412F6C2F80E40E943E
:1005F000B40261E06C0F4D2F80E4DF91CF911F9129
:100600000C94B402EF92FF920F931F93CF93DF935A
:100610008B017A018F3F59F095E0899FE001112409
:10062000CC57DB4F68817981600F711F0FC06091DB
:100630008F0570919005600F711FCFE8D5E06115AF
:1006400088E0780778F37850CFE8D5E080E00E9422
:10065000EC028A819B81801B910BE816F90608F455
:10066000C701DF91CF911F910F91FF90EF900895F7
:10067000EF92FF920F931F93CF93DF93EB0170E004
:1006800060E00E9402038C0160E08AE00E94B800F2
:100690008AE30E94AD027E01E00EF11EEC16FD061B
:1006A00029F080E00E94AD028993F8CF61E08AE0F2
:1006B0000E94B800C801DF91CF911F910F91FF9068
:1006C000EF90089560918D0570918E05611571050B
:1006D00029F0615071098CE00C94EC026FEF77E027
:1006E000FACFCF93DF93C82FD62F0E94CD024D2F84
:1006F0006C2F80E4DF91CF910C94B402CF93DF9301
:10070000D82FC62F60E08AE00E94B8008C2F8F712E
:100710008D2B0E94AD02C7FF03C080E00E94AD0296
:1007200080E00E94AD02C82F61E08AE00E94B8001C
:100730008C2FDF91CF910895CF93C82F0E94CD02C7
:100740006C2F80E0CF910C947E03CF93DF93EB016D
:10075000682F84ED0E947103BE0186ED0E94EC02B9
:10076000CFE0D0E08AEE0E949C0380FF08C06AE0E0
:1007700070E080E090E00E942901219799F7DF91D5
:10078000CF910895CF93C62FBC0182E00E94EC0266
:1007900060E08AE00E94B8008AE70E94AD028C2FD8
:1007A0000E94AD0261E08AE0CF910C94B800CF9333
:1007B000BC0180E00E94EC0260E08AE00E94B80088
:1007C0008AE30E94AD0280E00E94AD02C82F61E082
:1007D0008AE00E94B8008C2FCF910895CF92DF92CB
:1007E000EF92FF920F931F93CF93DF936C018B01D6
:1007F0004130510579F4CB010E94D703682FC6011F
:10080000DF91CF911F910F91FF90EF90DF90CF90EC
:100810000C94C203EA01C60FD71F7E0181E0E81ADB
:10082000F10880E10E94EC02B60184E10E94EC0232
:100830000115184048F4E11488E0F80628F07E011C
:1008400081E0E81A88E0F80AB70182E10E94EC0230
:1008500040E16FE180EA0E94B40240E26FE180E88B
:100860000E94B4026FE180E00E947E0385FF07C012
:1008700061E070E080E090E00E942901F3CFDF9119
:10088000CF911F910F91FF90EF90DF90CF9008953F
:10089000CF92DF92EF92FF920F931F93CF93DF934C
:1008A0008C0160918404709185046150784EC12C54
:1008B00098E1D92EE4E8F4E020E0D0E0C0E045E0A3
:1008C0003481CB01332341F0439FC00111248C5765
:1008D0009B4FDC018D919C91E080F1808E199F09E6
:1008E0000280F381E02D8E1B9F0B8017910799F4F6
:1008F000B5E02B9FE0011124CC57DB4FE9E8F4E091
:1009000081E022813381232B09F453C035968F5F18
:100910008533B9F744C00817190748F48C159D05AD
:1009200030F4249FE0011124CC57DB4F6C013111CE
:1009300021C0209719F7C4E8D4E085E0D82E8C8137
:1009400028813981EA80FB808823D9F0E20EF31EEA
:100950008D9DE0011124CC57DB4F68817981E6162B
:10096000F70669F34A815B81C7010E94EE03F982B1
:10097000E882E5CF349FF0011124EC57FB4F232F81
:100980009FCF8091840490918504821B930B8E19D4
:100990009F098150984E8017910708F0AFCF80E0F3
:1009A000DF91CF911F910F91FF90EF90DF90CF904B
:1009B0000895288139814A815B81240F351F318355
:1009C0002083138302839C8194838C83E9CF0F93CC
:1009D0001F93DB01E42FA80190E0EF3FE1F065E019
:1009E000E69FF0011124EC57FB4F60817181620F8B
:1009F000731F01C0785025E0289FF001299FF00D5A
:100A00001124EC57FB4F808191818A0F9B1F1F910E
:100A10000F910C94EE0360918F0570919005620F19
:100A2000731F6115E8E07E0728F7EFE8F5E0DDCFFA
:100A3000CF92DF92EF92FF920F931F93CF93DF93AA
:100A40006B018A01790195E0899FE0011124CC575F
:100A5000DB4F688179816C0D7D1D82E00E94EC0284
:100A60000A80DB81C02DCC19DD09EC16FD0608F4E7
:100A7000E70160E08AE00E94B8008AE70E94AD02C8
:100A80007801EC0EFD1EE016F10631F0F8018191BF
:100A90008F010E94AD02F7CF61E08AE00E94B800AA
:100AA000CE01DF91CF911F910F91FF90EF90DF90DA
:100AB000CF900895DC011C96ED91FC91309731F0B8
:100AC00086819781982789279827089590E080E06C
:100AD0000895CF93DF93FC01EB01AC85BD851097A2
:100AE000A9F012969C91129713968C9113973C91B2
:100AF00011962C9141E851E0518340833283238346
:100B000094838583CF01DF91CF91089581E891E0AF
:100B1000918380831282138214821582F3CFCF9344
:100B2000DF931F92CDB7DEB7DC01ED91FC91048C11
:100B3000F58DE02D41E050E0BE016F5F7F4F0995DC
:100B40001816190634F4898190E00F90DF91CF9147
:100B500008958FEF9FEFF9CFCF93DF93EC018A8950
:100B6000882379F09A01AB016E857F850E94180574
:100B70002E853F85280F391F3F872E87DF91CF9124
:100B8000089590E080E0FACFCF93DF931F92CDB726
:100B9000DEB76983DC01ED91FC910280F381E02DE9
:100BA00041E050E0BE016F5F7F4F09950F90DF91EC
:100BB000CF91089580E00895CF93DF931F92CDB732
:100BC000DEB76983DC01ED91FC910280F381E02DB9
:100BD00041E050E0BE016F5F7F4F09950F90DF91BC
:100BE000CF910895762767277627DC0115967C93A9
:100BF0006E931497ED91FC910084F185E02D09949A
:100C0000089590E080E00895FB0141505109460F9E
:100C1000571FE417F50778F4208130E0322F2227A0
:100C20006181260F311D820F931F8217930708F4ED
:100C300001963296EECFE417F50751F4208130E0AB
:100C4000322F2227820F931F8217930708F40196F1
:100C50000895CF92DF92EF92FF920F931F93CF935D
:100C6000DF93C82FE090D102F12CFE2CEE244091AE
:100C7000D2024451550BE40EF51E48E050E06BEDF6
:100C800072E0C7018C0F911D0E94040608E0C1317B
:100C900029F00091EF02069506950C7310E0A8016B
:100CA00063EE72E00E940406EC010E151F0508F0C9
:100CB00049C0A701401B510B8091980262E270E08D
:100CC00081FF02C063E270E0600F711F80919902A2
:100CD0000E94020301977C0160E08AE00E94B80054
:100CE0008AE30E94AD02D12CC12CCE14DF04B8F4EB
:100CF00080E00E94AD02082F10E0102F002780E056
:100D00000E94AD02800F912F911DC80FD91FC817E7
:100D1000D90708F4219682E0C80ED11CE6CFEC1466
:100D2000FD0461F480E00E94AD0290E0982F8827D6
:100D3000C80FD91FC817D90708F4219661E08AE0C7
:100D40000E94B8009C2F8D2FCD2B11F48FEF9FEFB9
:100D5000DF91CF911F910F91FF90EF90DF90CF9097
:100D6000089544E150E06FEC72E090E080E00E9472
:100D70000406009721F098278927982708958FEF78
:100D80009FEF0895CF93DF93EC01AC81BD81E7E243
:100D9000F3E08A819B8191838083B383A283FA01EC
:100DA00084819581E9EBF2E0DA0112964D915C9134
:100DB0005183408393838283E9018C819D81EDEB94
:100DC000F2E02A813B813183208393838283FB017C
:100DD00082819381A481B58180939E0690939F0622
:100DE000A093A006B093A106DF91CF910895FF9242
:100DF0000F931F93CF93DF93C0919802C1FF66C0FA
:100E00002091960230E041EC52E061E070E0809188
:100E100099020E941805CD7FC0939802F090990224
:100E200080919505882309F444C085E0F89EF0017F
:100E30001124EC57FB4F00811181C281D381C00F77
:100E4000D11F60E0C8010E94C203B80184E00E9483
:100E5000EC02BE016850710986E00E94EC021AE0C3
:100E6000249740E86FE180E80E94B40240E86FE117
:100E700080EA0E94B4024AE06CE180EA0E94B40277
:100E800048E06FE180E80E94B4028CE10E949C037C
:100E9000082F8A70D1F348E06FE180EA0E94B40223
:100EA00001FF2DC0CE010E94D70385FF02C0115063
:100EB000C1F6C0E08F2D0E947402109299028C2F0F
:100EC000DF91CF911F910F91FF900895C091B102D2
:100ED000D091B202CE01089621F410929902C0E09E
:100EE000EECF0E944804809399028823C1F39E01AB
:100EF00041EC52E061E070E00E9418058FCFC1E044
:100F0000D9CF0F931F93CF93DF93EC018C010B5F2D
:100F10001F4F89910E947402FE0131971082C01701
:100F2000D107B9F7DF91CF911F910F910895CF931A
:100F3000DF93EC0188810E947402FE01CE010496C9
:100F400021812193E817F907D9F71C82DF91CF910E
:100F50000895CF93DF93EC01E881F981008CF18D46
:100F6000E02D0995882339F08C859D850296DF91C7
:100F7000CF910C948107DF91CF9108950F931F9328
:100F8000CF93DF931F92CDB7DEB78C01DC01ED91DB
:100F9000FC91008CF18DE02D09958823B1F0D801EA
:100FA0001C96ED91FC918281882379F041E050E01C
:100FB000BE016F5F7F4F0E943803898190E00F90E0
:100FC000DF91CF911F910F9108958FEF9FEFF7CF92
:100FD000CF93DF931F92CDB7DEB7DC01ED91FC918B
:100FE0000288F389E02D41E050E0BE016F5F7F4F42
:100FF00009951816190634F4898190E00F90DF9155
:10100000CF9108958FEF9FEFF9CF6F927F928F92DC
:101010009F92AF92BF92CF92DF92EF92FF920F9387
:101020001F93CF93DF938C014B01EA01DC01ED911B
:10103000FC91008CF18DE02D0995882309F47BC08B
:10104000D8011C96ED91FC918281882309F476C029
:101050007E018EE1682EBE016E197F09680D791D33
:10106000D8011C96ED91FC91A70182810E94380362
:101070006C01F801A484B584D50112967C90872D6B
:101080000E949402C816D906E9F5EC18FD08C501BE
:1010900002960E949707F801A485B585EC916E9E93
:1010A000F0011124ED5FFB4F818D84FF09C0119683
:1010B0008C911197982F967019F4886011968C93E3
:1010C000D8011C96ED91FC911D97828181112EC053
:1010D000818182FF05C011821D961C921E921C9771
:1010E000CE018E199F09DF91CF911F910F91FF9033
:1010F000EF90DF90CF90BF90AF909F908F907F90B8
:101100006F900895B5E07B9EF0011124EC57FB4FE2
:10111000808191818C0D9D1D91838083828193813B
:101120008C199D0993838283CE01DDCFE114F104F4
:1011300009F091CFF9CF8FEF9FEFD5CF90E080E00E
:10114000D2CFEF92FF920F931F93CF93DF93EC01D7
:10115000E881F981008CF18DE02D09958823E1F07B
:101160000C851D85780182E0E80EF11C095F1F4F98
:10117000D0E0C0E0F70181917F010E949402C80F86
:10118000D91FE016F106B1F7CE01DF91CF911F9183
:101190000F91FF90EF900895D0E0C0E0F5CFFC01F3
:1011A000448555854115510551F0FB012485358550
:1011B0002115310521F081E04217530709F080E045
:1011C0000895DC011C96ED91FC91309731F08281FD
:1011D000811105C081818170089580E0089581E0CA
:1011E0000895DC01ED91FC91028CF38DE02D0995C1
:1011F00091E089270895DC01ED91FC91048CF58D37
:10120000E02D0994CF93DF930E945B0166507F4FDE
:101210008F4F9F4F60939C0570939D0580939E0513
:1012200090939F0580919505811145C08AE00E94A9
:10123000870061E08AE00E94B800CFB7F8948091FF
:101240009405811124C0EAE9F0E08491EEEAF0E02F
:101250009491E82FF0E0EE0FFF1FEA57FF4FA591A2
:10126000B491EC91E92321F461E08AE00E94B80096
:101270008AE00E9487008CB580618CBD8CB580644B
:101280008CBD8DE00E9487008BE00E9487008091DA
:1012900094058F5F80939405CFBF8CB58C7F8CBDF8
:1012A0008DB581608DBD82E70E949C038F3F09F45C
:1012B00040C0809395051092900510928F05109272
:1012C000920510929105E4E8F4E089E091E0DF01F5
:1012D0009C011D9221503040E1F781E098E090930D
:1012E0008504809384044FEF60E08FEF0E94B40286
:1012F00062E070E080E090E00E94290162E370E02B
:1013000080E090E00E94290110928E0510928D05D8
:10131000C0E1D0E06DE180E00E947E0381110CC04D
:10132000219751F06AE070E080E090E00E9429018E
:10133000F1CF10929505BFCF70E060E088E00E9489
:10134000EC0270E060E08CE00E94EC026FEF77E06E
:101350008AE00E94EC0261EB88E30E9471036FE374
:1013600070E388E20E94EC0269EF77EF80E30E946D
:10137000EC026DE070E080EC0E94EC0242E362EC73
:1013800080E80E94B40262E17CE086EC0E94EC02FC
:1013900062E184EC0E9471036CED75E08AEC0E94BE
:1013A000EC026091010184EE0E94710360910201E0
:1013B00085EE0E9471036091030182EE0E94710329
:1013C0006091040183EE0E9471036091050180EE3B
:1013D0000E9471036091060181EE0E94710360E03A
:1013E00071E080E10E94A5038FE10E94CD0240ECF4
:1013F0006BE180E80E94B40244E06FE180E80E9463
:10140000B40266E774E084E10E94A50380910101C3
:101410008093960580910201809397058091030146
:10142000809398058091040180939905809105012E
:1014300080939A058091060180939B0510927C040D
:1014400010927B0410927E0410927D04109280040E
:1014500010927F04109282041092810410921C0456
:1014600010923A04109258041092760480E094E0AE
:1014700090930204809301041092DA031092D9032E
:101480001092E5031092E4031092F0031092EF0320
:101490001092FB031092FA0384E08093830410926D
:1014A000D4039BE024E08091D403883018F0DF91CE
:1014B000CF910895899FF0011124E458FC4FDF017A
:1014C000322F1D923A95E9F78F5F8093D403EBCFCB
:1014D0001F93CF93DF93CDB7DEB7C455D1090FB6B5
:1014E000F894DEBF0FBECDBFFC0182819381A48141
:1014F000B58165968CAF9DAFAEAFBFAF659711E07C
:1015000065961FAF659765964CAD5DAD6EAD7FADD1
:10151000659729964CAF5DAF6EAF7FAF2997239645
:101520008CAF9DAFAEAFBFAF239723961FAF23976E
:1015300023964CAD5DAD6EAD7FAD239749AF5AAFED
:101540006BAF7CAF29961FAF299729964CAD5DAD47
:101550006EAD7FAD29974BAB5CAB6DAB7EAB1CAF7B
:1015600049AD5AAD6BAD7CAD4FA358A769A77AA71B
:101570001EAB4BA95CA96DA97EA949A35AA36BA375
:101580007CA38B8F9C8FAD8FBE8F0E94020981E858
:1015900091E09C8B8B8B2FEF2D8B2E8B2F8B188EAE
:1015A0009E878D871AA74FA158A569A57AA54F8751
:1015B000588B698B7A8B98878F831CA349A15AA17A
:1015C0006BA17CA149875A876B877C879A83898323
:1015D0008B8D9C8DAD8DBE8D8B839C83AD83BE83A7
:1015E0009E012D5E3F4FAE01435F5F4FBE01695FBD
:1015F0007F4FCE0101960E94C206CC5ADF4F0FB634
:10160000F894DEBF0FBECDBFDF91CF911F9108953B
:101610000F931F93CF93DF93DC012091010430914E
:1016200002042F5F3F4F21158DE7380710F020E0AF
:1016300030E1522F432FE5EDF3E0EF0180E08430FD
:10164000A1F4309302042093010430E020E0243020
:10165000310599F484E080938304F0E0E0E0CF0169
:10166000DF91CF911F910F9108950C811D818F5FA4
:101670002B960417150719F7D4CFC481D581C9015A
:1016800001963B96CD2B09F5209383048BE0829F36
:10169000F001839FF00D1124EB52FC4F55834483DE
:1016A00077836683109799F484E0DF011D928A9511
:1016B000E9F78BE0829FD001839FB00D1124AB52DC
:1016C000BC4F80E418968C93CACF9C01C0CF8D91FB
:1016D0009C9111979183808312968D919C91938315
:1016E0008283E7CF0F931F93CF93DF93EC018B019E
:1016F0008C859D85892B41F470E060E090E080E06E
:101700000E94080B9D878C87EC85FD8580E03097D3
:1017100049F0102701271027158304832E96D287BE
:10172000C18781E0DF91CF911F910F910895CF93F1
:10173000DF93DC011C96ED91FC913097B1F0EC0148
:1017400015821482128611861D861C8689890E9444
:10175000740288890E9474028A890E9474022E96FB
:1017600086E0FE0111928A95E9F7DF91CF91089505
:10177000FC011382128288EE93E0A0E0B0E0848343
:101780009583A683B7838FE091E09183808315864C
:1017900014863E9686E0DF011D928A95E9F708954A
:1017A000DC0181E891E08D939D9384E0FB01019041
:1017B0000D928A95E1F70895EF92FF920F931F9390
:1017C000CF93DF93FC011092D403CCE7D3E0DE018A
:1017D00030E020E02830310569F490E0983009F0DD
:1017E00042C01092B0021092AF021092D4032CE7C4
:1017F00033E044C0CD018C5793400D911C9111975B
:101800000115110561F112964D915C9113974115E7
:10181000510529F1E080F1800E151F0501F50281C7
:10182000138140175107D9F42093D403DC01A05849
:10183000BC4F86E0FB0101900D928A95E1F78BE0A9
:10184000829FF001839FF00D1124E458FC4F128613
:10185000DF91CF911F910F91FF90EF9008952F5F2F
:101860003F4F1B96B7CF9E0148815981452BB1F45C
:101870004A815B81452B91F49093D40384E0D90194
:1018800001900D928A95E1F7D901149686E0FB014B
:1018900001900D928A95E1F7F901D9CF9F5F2B96C0
:1018A0009DCFEF92FF920F931F93CF93DF9300D0C2
:1018B00000D000D0CDB7DEB74091DF025091E002FA
:1018C0004F3F540731F48091E1029091E20201967A
:1018D00019F180912703909128036091BD027091C6
:1018E000BE029B0120953095282B392B42175307B8
:1018F000A9F52091BF023091C00220953095E0916A
:101900002903F0912A032E2B3F2BE091E102F09165
:10191000E202E217F30711F586E0E3E3F1E0A1EC60
:10192000B2E001900D928A95E1F786E0E6E9F5E0F4
:10193000A7ECB2E001900D928A95E1F788E090E083
:101940009093CE028093CD028091B1029091B20229
:101950000E969093B2028093B102A5C0842795277A
:1019600086239723892B99F42091E1023091E2029A
:101970008091290390912A03822793276091BF02C7
:101980007091C00286239723892B09F499C0809116
:10199000B9029091BA029093B6028093B5028091F9
:1019A000BB029091BC029093B8028093B702E09082
:1019B000B502F090B6020091B7021091B802ECE7C0
:1019C000F3E080E0883009F084C08093D40346E0DF
:1019D00050E06FEF70E081EC92E00E94962886E084
:1019E000E1EEF2E0DF01282F1D922A95E9F7E6E902
:1019F000F5E0A7ECB2E0982F01900D929A95E1F7EF
:101A0000E6E9F5E0A7EDB2E0982F01900D929A95E6
:101A1000E1F7F092E802E092E7021093EA02009305
:101A2000E90220912703309128033093DE022093AE
:101A3000DD022091290330912A033093E0022093A4
:101A4000DF0220E031E03093D6022093D5023093BC
:101A5000D0022093CF0228E030E03093D2022093CE
:101A6000D1028093D30294E09093D40228E036E030
:101A70003093CE022093CD0227EF32E03093B402B0
:101A80002093B3022AE230E03093B2022093B102F5
:101A9000BE016F5F7F4FDB011D928A95E9F785EBF1
:101AA00092E00E94DC0B26960FB6F894DEBF0FBEC4
:101AB000CDBFDF91CF911F910F91FF90EF900895CF
:101AC0005093B6024093B5023093B8022093B70208
:101AD0006ECF20813181E216F306E1F42281338159
:101AE00002171307B9F49481911103C095819923CA
:101AF00029F08093D403349686E011CF968191111A
:101B0000F8CF97819111F5CF90859111F2CF918502
:101B10009111EFCF8F5F3B9655CFCF93DF93EC01C1
:101B20000E94510C8091B1029091B2028A9759F4AF
:101B300010929902809198028D7F80939802DF9194
:101B4000CF910C94F7060E94F7061D821C82DF914C
:101B5000CF9108959C01AB017093AE026093AD02EA
:101B60001616170654F48091AB029091AC028217BE
:101B7000930719F0B9010C948D280895EF92FF9204
:101B80000F931F93CF93DF93E091A202F091A302F2
:101B9000C185D285209709F456C0E090A802E1FEE5
:101BA0001FC08A8181111CC08091E3029091E402E0
:101BB000978386838091DB029091DC0291838083FE
:101BC0008091DD029091DE02938382838091E7020F
:101BD0009091E802982789279827089709F51A8293
:101BE000E3FE31C08D81882371F18C81809399024D
:101BF000809198028260809398028AE28093960294
:101C0000688179816B5271098091B3029091B4021D
:101C1000DF91CF911F910F91FF90EF900C94AA0D3F
:101C20000E944804F82E8A838823D1F20E949402ED
:101C30008C012AE230E04091970270E060E08F2D45
:101C40000E94E704CDCFDF91CF911F910F91FF90BC
:101C5000EF900895AF92BF92CF92DF92EF92FF92F2
:101C60000F931F93CF93DF93E090A902F090AA0205
:101C7000F701C48DD58DD090A802209761F5D6FCD0
:101C800003C0F12CE12CC1C0EBE2F3E090E080E076
:101C9000218121117CC022E1289FE001299FD00DE4
:101CA0001124C55DDC4FFE0111922A95E9F7C701A9
:101CB00083509440959587954FEE5EEE849F9001FA
:101CC000859F300D949F300D1124288381E08983F6
:101CD000F701D58FC48FD1FE32C00091B1021091AF
:101CE000B2020115110559F189818823A9F181FDFD
:101CF00026C05E01F2E0AF0EB11CC12CF50181914E
:101D00005F0181114BC0C8010E944804F501319761
:101D10008083882309F442C02091B3023091B40239
:101D2000215C32404091970270E060E00E94E7043D
:101D3000F4E0CF1204C0F701818D8061818F898129
:101D400083FF0AC0877F89838D2D82608093A802DC
:101D5000F701818D8F7E818F8091A80284FD04C060
:101D600087FD02C085FF26C0CE0107960E9481072D
:101D70008A818823E9F0F7018481958198878F8390
:101D8000898184608983F701158E148E7ACF01963C
:101D900072968430910509F07BCF73CFC394F5E040
:101DA000CF12ACCF809198028E7F80939802C3CFE0
:101DB0001982E9CF80FF3FC0CE0107960E949707A6
:101DC0008F818823D1F19885911145C0EC84FD84E1
:101DD000E114F10409F455CF95E0899FF001112435
:101DE000EC57FB4FF382E2820091B3021091B402F0
:101DF000015C1240009396021127C80108968E0DCF
:101E00009F1D009779F510929902B7018091B30256
:101E10009091B4020E94AA0DF092B202E092B10237
:101E2000DF91CF911F910F91FF90EF90DF90CF90B6
:101E3000BF90AF9008958C7019F6898181FF21CFF2
:101E40008F81811124C01982F701158E148E80E1D3
:101E50008093A80216CF0E9494027C01892B09F47A
:101E600010CFC2CF0E94480480939902882369F260
:101E7000B8016F5F7F4F870130E020E04F810E9403
:101E8000E70480919802826080939802BECFF701A8
:101E9000818D8061818FF5CEAF92BF92CF92DF921C
:101EA000EF92FF921F93CF93DF93843009F458C1D0
:101EB000C091A902D091AA0227EF32E03093B40278
:101EC0002093B3023093AC022093AB028330C9F469
:101ED000898D8F70833009F044C088899989892B56
:101EE00009F03FC088E08093A8020E942A0E8091EA
:101EF000A80285FF13C61092AE021092AD02198E91
:101F000051C0823009F005C18091A7028F5F809394
:101F1000A702811113C08091A6028F5F8093A60251
:101F200081110CC08091A5028F5F8093A502811161
:101F300005C08091A4028F5F8093A4021092B20228
:101F40001092B1021092AE021092AD02898D982FBC
:101F50009D7F953059F48A8D8F5F8A8F883709F479
:101F6000198E1092B2021092B10231C28823C9F3C5
:101F700028893989232B09F4C7C09A8D2FEF290F9F
:101F80002A8F9111EECF9B8D983031F02FEF280FD3
:101F9000223050F4953041F4198E80E88093A802E5
:101FA0000E942A0E84E184C0392F953008F034E075
:101FB00023E001C0220F3A95EAF72A8F9F5F9B8F9B
:101FC0008F70833009F47DC008F06AC0813009F455
:101FD00006C4823031F61092F0028091F0028260E5
:101FE0008093F00282E08093F70294E09093F802ED
:101FF0008093F9021092FA028CE290E09093B20280
:102000008093B10280E68093EF0288858093EB0293
:1020100089858093EC028A858093ED028B8580937D
:10202000EE028C858093E7028D858093E8028E8591
:102030008093E9028F858093EA0286E08093D8023C
:102040008C819D819093E4028093E3028E819F8135
:102050009093E6028093E5028091270390912803F4
:102060009093DC028093DB028091290390912A03F4
:102070009093DE028093DD02888199819093E00243
:102080008093DF028A819B819093E2028093E10238
:10209000898D84FFC9C51092F2021092F102D5C257
:1020A000863029F0883019F0843009F05ACF81E168
:1020B0008093F00288E290E09093B2028093B102A4
:1020C00021C084E08093A8020E942A0E8091AB0276
:1020D0009091AC029093B4028093B3028091AD02D0
:1020E0009091AE02892B09F44AC588899989009795
:1020F00009F445C588969093B2028093B10288E1B5
:102100008093F00280E57FCF8F70833009F029CF74
:10211000E9CE853009F0A9C0E091A202F091A302B6
:1021200084819581892B09F41CCF1092AA02109208
:10213000A9028BEE92E09093B4028093B302909345
:10214000AC028093AB021092AE021092AD021092DC
:10215000B2021092B10288E08093A8020E94BE0DE4
:102160008091AD029091AE02009709F4FACE9C01E5
:10217000245E3F4F3093B2022093B1023093D102DC
:102180002093D202E091A202F091A3022085209335
:10219000D70221E12093D80208969827892798270B
:1021A0009093E8028093E7021092EA021092E9020B
:1021B000848195819093E4028093E30286819781E4
:1021C0009093E6028093E502809127039091280383
:1021D0009093DC028093DB028091290390912A0383
:1021E0009093DE028093DD02808191819093E002E2
:1021F0008093DF02828193819093E2028093E102D7
:1022000087EF92E09093B4028093B30281E10E9441
:10221000290680959095009709F45BC19093EA0296
:102220008093E90285E48093CF021092D00210924D
:10223000D6021092D50280919A0290919B0201964B
:1022400090939B0280939A029093D3028093D4023E
:102250001092DA021092D9020E94B10680959095F0
:102260009093DA028093D902B2C08091CF02853474
:1022700009F077CEC090D102D12CDC2CCC248091F7
:10228000D202C80ED11C8091B1029091B2028C157D
:102290009D0508F466CED092B202C092B102809140
:1022A000D5028F7309F05DCE1091D602111159CE6F
:1022B000A0902703B0902803A114B10439F48091B1
:1022C000290390912A03892B09F441C02091DF0250
:1022D0003091E0028091D802813149F52F3F3207D9
:1022E00039F48091E1029091E202019609F47DC0F7
:1022F0008091BD029091BE02809590958A299B297C
:1023000082179307A1F48091BF029091C00280953B
:1023100090954091290350912A03842B952B40914D
:10232000E1025091E2024817590709F45EC0A21673
:10233000B30609F016CE2091E1023091E2028091BD
:10234000290390912A032817390709F00ACE0E9421
:10235000B106019609F005CE8091D802863009F4C5
:10236000BBC0813109F441C0813009F0FACD8091C0
:10237000E302883009F0F5CD1092E3028091E50286
:102380009091E602873F4FEF940768F1099690938A
:10239000E6028093E5028091DB029091DC0290934B
:1023A000E0028093DF028091DD029091DE02909343
:1023B000E2028093E102B092DC02A092DB02809103
:1023C000290390912A039093DE028093DD021092FC
:1023D000A802DF91CF911F91FF90EF90DF90CF90F7
:1023E000BF90AF9008950896D2CF8CE1C81AD1085B
:1023F000D092B202C092B1028BEE92E09093B402FE
:102400008093B3028091E9029091EA02892BE1F472
:102410004091E5025091E6026091E3027091E4027E
:10242000A091DB02B091DC02C091DD02D091DE020E
:10243000E5EDF3E021E034E02E173F0761F430933F
:10244000A3022093A2028DCD81E10E94290601966C
:1024500009F087CDDDCF848195810097C1F1841784
:102460009507A9F586819781009719F08617970738
:1024700071F5808191810097D1F4E280F380EF289B
:10248000F1F4F093A302E093A2021092AA02109238
:10249000A90282E08093A8028BEE92E09093AC02B6
:1024A0008093AB021092AE021092AD0257CE8F3FD6
:1024B000980729F4E280F380EF20E09411F38A1763
:1024C0009B0729F482819381C817D907D1F23B96E3
:1024D000B3CF8FEF9FEFA2CE86E00E942906019630
:1024E00009F03FCD4091E5025091E6026091E30290
:1024F0007091E4028091DB029091DC02E091DD02B8
:10250000F091DE02C3E0D4E0298D2223A9F0AC8152
:10251000BD814A175B0781F4AE81BF816A177B07D3
:1025200059F4A881B9818A179B0731F4AA81BB812C
:10253000EA17FB0709F45BC16E9624E0CD35D2079C
:1025400019F310F38091F0028F73823061F450938D
:10255000A1024093A002EBE7F4E080E0843009F0B0
:1025600091C0809383048091F00282FDFACC84E1D3
:102570008093F00288E290E09093B2028093B102DF
:1025800080E58093EF023091EA028091EE02809321
:10259000EA022091E9028091ED028093E902209302
:1025A000ED029091E8028091EC028093E802909312
:1025B000EC028091E702809383044091EB02409308
:1025C000E7028093EB023F5F3093EE0231110DC0C2
:1025D0002F5F2093ED02211108C09F5F9093EC02C2
:1025E000911103C08F5F8093EB028091E302909181
:1025F000E4029093A1028093A0022091E502309121
:10260000E6023093E4022093E3029093E602809383
:10261000E5028091DB029091DC029093E0028093CE
:10262000DF028091DD029091DE029093E2028093BE
:10263000E102B092DC02A092DB028091290390912A
:102640002A039093DE028093DD0280E48093D70218
:102650008091B1029091B2029093D1028093D20204
:102660001092F6021092F5021092F4021092F30208
:1026700086E00E942906809590959093F4028093BD
:10268000F302D0CD219131918F5F4217530709F0AA
:1026900065CF10928304E3E0F4E090E080E0D0E0C6
:1026A000C0E08430910531F484E080938304209766
:1026B00081F457CC3E2F2F2FA18DA11163C08093A1
:1026C00083042EE1289FE001299FD00D1124CD5FC6
:1026D000DB4FD093AA02C093A90283E08A8F888F30
:1026E0001E8A84E08F8B1B8E5D834C837F836E8379
:1026F0008091DB029091DC02998388838091DD02D6
:102700009091DE029B838A8381E0898F8091A4026D
:102710008C878091A5028D878091A6028E878091FB
:10272000A7028F8781E090E0998B888B8091EA02E5
:102730008B878091E9028A878091E802898780915E
:10274000E702888781E090E00E9447238091EF02B2
:10275000982F907F913508F442C082958F708550F4
:10276000990B880F991F880F991FE12FF0E0E81748
:10277000F9072CF4EF53FD4F36A9311112C0109315
:1027800083042DC0A73031F4209731F0B28DAA8D8B
:10279000AB1710F03C2F2D2F01967E96C32FD22F12
:1027A00080CF313011F41F5FE0CF27A93230D9F448
:1027B0002430C9F41093830480AD91AD8927982704
:1027C00089279093A1028093A002813042E0940770
:1027D00010F080E092E09B8B8A8B9D8B8C8B80E14C
:1027E0008093F002FACB222351F2120FBECFD09386
:1027F000AA02C093A9021092A8029091F00292FF3F
:1028000007C0198E80E28093A8020E942A0EA9CBED
:102810008091EF0282958F70880F880F80938304D8
:10282000C81AD108760184E1E81AF108F092B202E0
:10283000E092B1022F70223021F4892F8F73823100
:10284000D1F0E114F10419F4892F8370A1F03985D6
:102850002A858B855091E70248855413C0C1409169
:10286000E8024313BCC13091E9023213B8C1209190
:10287000EA022813B4C194FF49C0688979896115B7
:10288000710509F443C0CE010C960E9414233091C7
:10289000EB0280919C02381339C02091EC028091A8
:1028A0009D02281333C09091ED0280919E029813EF
:1028B0002DC08091EE0240919F02841327C03C8777
:1028C0002D879E878F87988D8B8D811118C08E895B
:1028D0002A8D921B282F269526952695921B890FC7
:1028E0008E8B97FD91952F89322F36953695231B28
:1028F000920F9F8B869586958695890F888F81E0AC
:102900008093A802888D8A8F198A188A298DE22FD0
:10291000EF70E150E83008F024CBF0E0EE56FB4ECB
:102920000C9473289A14B3141D15D215FB150C16AC
:10293000EF15CB158091A80280FF13CB83E0898F20
:1029400080E48093A802198A188AE114F10431F016
:1029500082E48093A802C7010E9447231092AE022E
:102960001092AD02C2CA8091A80280FF5FC0809120
:10297000F0028F73823109F059C08091EF02982FD5
:10298000907F913598F182958F708550990B880FC3
:10299000991F880F991FE12FF0E0E817F9072CF431
:1029A000EF53FD4F36A9311103C0109383041EC0AD
:1029B000313011F41F5FEFCF27A9323099F5243061
:1029C00089F51093830480AD91AD892798278927D5
:1029D0009093A1028093A002813012E0910710F041
:1029E00080E092E09B8B8A8B9D8B8C8B83E0898F20
:1029F0008091E70288878091E80289878091E902C7
:102A00008A878091EA028B8781E090E00E944723C9
:102A100082E48093A802198A188A1092B202109256
:102A2000B1029CCF222309F2120FB5CF80E280932E
:102A3000A8020E942A0E198E96CD8091F00280FF86
:102A400020C024FD1EC088899989892B09F089CA74
:102A5000C60143970E9447238091A802982F906156
:102A60009093A802EF2819F082618093A8020E9437
:102A70002A0E81E090E0998B888B88E0898F1B8EED
:102A800016CB85FF14C08091F5029091F60298272D
:102A900089279827AC0149505D4F5093B402409369
:102AA000B302E81AF90AF092B202E092B102409140
:102AB000B1025091B2029091A8024115510541F026
:102AC00024FD06C092609093A802CA010E94472389
:102AD0008091F102282F30E0322F22278091F202DC
:102AE000820F932F911D9093A1028093A0022C89B5
:102AF0003D892817390710F0892B21F43093A10262
:102B00002093A0028091A0029091A1029B8B8A8BBE
:102B10008091A802837009F424CA20CF84FF0AC0E0
:102B20001092AE021092AD0281E090E0998B888BFA
:102B300084E0A4CF2091AD023091AE022115310581
:102B4000B9F080FF02C0198A188A8889998900978C
:102B500089F48A899B898217930720F49093AE02A7
:102B60008093AD028091AD029091AE02998B888BDB
:102B70001B8EACCA9093AE028093AD02F9CF8091C8
:102B8000A80281FFEEC988E290E09093B2028093A0
:102B9000B10280E1B5CA8091A80280FFE2C9198E16
:102BA00080E131CEE114F10419F0C7010E944723FE
:102BB0008091A80281709091F00290FF15C0882347
:102BC00081F087E0898F1A8E198A188A81E090E057
:102BD0000E94472380E18093A8020E942A0E80E190
:102BE00067CA86E0898FF2CF882399F085E0898FC4
:102BF000198A188AB6C9E114F10419F0C7010E94B4
:102C000047238091F00280FF04C087E0898F1A8EED
:102C1000DDCFEF2821F7A5C98091A80280FFA1C9C7
:102C200087E0898F1A8E9DC982E08093F10210920D
:102C3000F2020BCDCF93DF93EC012C853D8521155E
:102C4000310529F490E080E0DF91CF910895EA8981
:102C5000EE23C1F381E08B8B85E0E89FF001112426
:102C6000EC57FB4F8E859F85079693838283309325
:102C7000A3022093A20285E00E944C0F8091B10232
:102C80009091B202892BF1F2CE010E960E948D0D29
:102C900081E090E0D9CF8F929F92AF92BF92CF9276
:102CA000DF92EF92FF92CF93DF9380919505882377
:102CB00009F41FC1D0919702D11151C089E30E943C
:102CC0009C03882309F449C060918D0570918E059D
:102CD0006B0126E0C20ED11CC11438E0D30628F0E7
:102CE0006B014AEFC41A47E0D40A80E00E94EC026C
:102CF00060E08AE30E947E03E82E60E08AE30E949F
:102D00007E03F82EF0928E05E0928D0560E08AE356
:102D10000E947E03B82E60E08AE30E947E03C82FE3
:102D200060E08AE30E947E03A82E40E46EE180E822
:102D30000E94B402A7FEE8C0E11458E0F50608F0CE
:102D4000E3C0D0929005C0928F059C2F8B2D0497E5
:102D50009093920580939105DFEFD0939702F090C6
:102D60009702FF2009F472C081E0809398028F2DB2
:102D70000E949402EC019093B2028093B102892BDD
:102D800009F4EFC042E650E061EC72E08F2D0E9442
:102D90003803C090CD02D090CE0288E0C816D1048E
:102DA00009F0CDC0F09299022E97D093B202C09351
:102DB000B1022091DB023091DC02E0912703F09117
:102DC0002803C9018E279F274091BD025091BE0262
:102DD00084239523892B49F54091DD025091DE0231
:102DE0006091290370912A03CA0186279727A09131
:102DF000BF02B091C0028A239B23892BB1F480913A
:102E0000DF029091E002E817F90709F080C0809195
:102E1000E1029091E2026817790709F078C067EC47
:102E200072E08BED92E00E94DC0B81E00E944C0F7F
:102E30008091B1029091B202892B21F00E94510C35
:102E40000E94F7068091980280FD8BC00E945B0172
:102E50006B017C0180919C0590919D05A0919E0540
:102E6000B0919F0546015701881A990AAA0ABB0A20
:102E7000C3E0D4E0D093AA02C093A902B7FC08C172
:102E800082E00E944C0F8091B1029091B202892B96
:102E900021F00E94510C0E94F7066E9634E0CB3769
:102EA000D30741F7B7FC25C04AEFC40ED11CE11C83
:102EB000F11CC0929C05D0929D05E0929E05F09277
:102EC0009F05C5EDD3E0D093A302C093A20285E095
:102ED0000E944C0F8091B1029091B202892B21F097
:102EE00089859A850E948D0D2B9654E0C130D507B7
:102EF00051F7DF91CF91FF90EF90DF90CF90BF908F
:102F0000AF909F908F9008950E94620326CFECE7C8
:102F1000F3E080E0883019F48093D40386CF608199
:102F200071812617370741F462817381461757076D
:102F300019F48093D40373CF8F5F3B96EBCF28E0D7
:102F4000C21626E0D20669F41092B2021092B102C3
:102F5000AA9760F48091B1029091B202892B09F096
:102F60006FCF0E9462031092970270CF8091D502BA
:102F70009091D602811531E0930701F181159240BD
:102F800049F72091E7023091E80280912703909160
:102F9000280328173907F1F62091E9023091EA0257
:102FA0008091290390912A032817390799F667ED34
:102FB00072E08DED92E00E94DC0BCCCFE090E70256
:102FC000F090E8028091270390912803E816F90613
:102FD00009F6C091E902D091EA028091290390910B
:102FE0002A03C817D90709F0B5CF67ED72E08DED58
:102FF00092E00E94DC0B80E092E09093D6028093F6
:10300000D50286E0E7EDF2E0A1EEB2E001900D928C
:103010008A95E1F786E0E6E9F5E0A7EDB2E00190F8
:103020000D928A95E1F786E0E6E9F5E0A7ECB2E0DB
:1030300001900D928A95E1F786E0E1EEF2E0A1ECD5
:10304000B2E001900D928A95E1F78091DD029091B6
:10305000DE029093E8028093E7028091DF02909174
:10306000E0029093EA028093E902F092DE02E0929D
:10307000DD02D093E002C093DF02D092CE02C09274
:10308000CD028AE290E09093B2028093B10262CFC7
:10309000EC8DFD8D309709F400CF86859785A0894A
:1030A000B189A7019601281B390B4A0B5B0BDA018A
:1030B000C901B7FDF2CE83E00E944C0F0E945B0174
:1030C000E091A902F091AA02048CF58DE02D665FD3
:1030D0007F4F8F4F9F4F66877787808B918BD3CEA3
:1030E000CF93DF93EC010E944B1689890E947402F2
:1030F000198ADF91CF9108950F931F93CF93DF9398
:103100001F92CDB7DEB78C010E944B16F801818962
:10311000882389F041E050E0BE016F5F7F4F0E943D
:103120003803019741F4898190E00F90DF91CF91AE
:103130001F910F9108958FEF9FEFF7CFEF92FF92BE
:103140000F931F93CF93DF937C018B01EA010E94C1
:103150004B16F7018189882369F1AE01B8010E94FD
:1031600038038C01F701C1898C2F0E9494028017CB
:10317000910769F48C2F0E947402F701118AC8012B
:10318000DF91CF911F910F91FF90EF90089585E00F
:10319000C89FF0011124EC57FB4F80819181800F73
:1031A000911F9183808382819381801B910B9383F4
:1031B0008283E5CF80E090E0E3CFCF93DF93EC0113
:1031C0000E944B168989DF91CF910C949402CF9382
:1031D000DF93EC010E944B16898981110E947402D1
:1031E0008889898B188ADF91CF910C949402CF92B1
:1031F000DF92EF92FF920F931F93CF93DF9300D054
:1032000000D0CDB7DEB78C017B016A010E944B165E
:10321000D70112968C91129781110EC013968C9142
:103220001397811109C014968C911497811104C0D1
:1032300015968C918823E9F0C114D104D1F0D801FE
:103240001C96ED91FC91D70112962D913C9113970C
:103250003A83298314968D919C919C838B837C2D3A
:103260006D2D309779F17783668331832083938343
:103270008283F80184859585892BB1F1828981113A
:1032800033C08EE096E00E944804D80152968C9399
:1032900052972BE230E01F963C932E931E9721E02D
:1032A00090E0811101C020E0822F0F900F900F90CD
:1032B0000F90DF91CF911F910F91FF90EF90DF90D2
:1032C000CF900895CE0101960E94080BF8019587D2
:1032D0008487009749F09801225F3F4FDC011A96DE
:1032E0003C932E931997C5CF80E090E0DECF4F92AC
:1032F0005F926F927F928F929F92AF92BF92CF9286
:10330000DF92EF92FF920F931F93CF93DF93CDB78E
:10331000DEB763970FB6F894DEBF0FBECDBF6C016A
:103320007B013A01FB01DB018D91882309F444C044
:103330008E32D1F380538A30B8F3F6014281538143
:10334000648175818091B0069091B106A091B2061A
:10335000B091B306481759076A077B0709F455C2AD
:103360008601085F1F4F0E945B016F7077277C5FAB
:10337000C8010E94720B813009F04CC281E891E0D3
:103380009A838983F60182819381A481B5818B839D
:103390009C83AD83BE8345E350E0BE016F5F7F4FEA
:1033A000C8010E94F718892B09F057C0F12CE12CB5
:1033B000C8010E94970B39C030E020E090E080E027
:1033C0005AE04191442309F1843091050CF0B5CFC6
:1033D0004E3271F42F3F310511F00CF0AECFD30116
:1033E000A80FB91F12962C93019630E020E0E9CF88
:1033F000529FB001539F700D1124242F440F330BA3
:1034000020533109260F371FDCCF2F3F310511F034
:103410000CF093CF843091050CF08FCF680E791E9D
:10342000F3012283EE24E394F12CC70163960FB6D7
:10343000F894DEBF0FBECDBFDF91CF911F910F91EA
:10344000FF90EF90DF90CF90BF90AF909F908F90C4
:103450007F906F905F904F9008950E945B01F601FE
:103460007783668342E050E0B6016A5F7F4FC80110
:103470000E94AC0581E090E09A83898342E050E0AD
:10348000BE016F5F7F4FC8010E94AC0580E091E0F4
:103490009A83898342E050E0BE016F5F7F4FC8018D
:1034A0000E94AC051A82198242E050E0BE016F5FB3
:1034B0007F4FC8010E94AC0542E050E0BE016F5F43
:1034C0007F4FC8010E94AC0542E050E0BE016F5F33
:1034D0007F4FC8010E94AC055701F7018081882306
:1034E00001F17501F70181912F01882311F08E32CE
:1034F000B1F447018A189B081814190474F48D86D6
:1035000041E050E0BE01635F7F4FC8010E94AC05FF
:10351000A401B501C8010E94AC055201DECF7201C1
:10352000E1CF1D8641E050E0BE01635F7F4FC801DF
:103530000E94AC05E12CFF24F394FA82E98242E078
:1035400050E0BE016F5F7F4FC8010E94AC05FA8258
:10355000E98242E050E0BE016F5F7F4FC8010E94E8
:10356000AC05C8010E941A16892B09F41FCFA3E0ED
:10357000AA2EB12C230122E0420E511C26C0F601D6
:103580006280738084809580B801CE0101960E948C
:1035900069058B819C81AD81BE81681679068A069A
:1035A0009B0629F4C8010E945A05C59759F1FEEF00
:1035B000EF2EFF24FA94E1E0AE1AB10809F4F8CE38
:1035C000FFEFEF16FF0609F0F3CE0E945B013B010F
:1035D0004C01C8010E94E7181816190684F20E94CF
:1035E0005B01661977098809990969387341810572
:1035F000910508F001C162E370E080E090E00E9474
:103600002901E7CFC8010E94DD180C970CF4F8C01F
:103610004CE050E0BE016F5F7F4FC8010E94FB0885
:103620008B819C819827892798279A8B898BF60113
:103630004681578129813A814217530711F497FD3A
:1036400008C0C8010E947018ECEFEE2EFF24FA9417
:10365000B2CF8F709270892B41F0C8010E94701810
:103660007BEFE72EFF24FA94A6CF6F807884762430
:1036700067247624F12CE12C61147104D1F4C80183
:103680000E9470186AEFE62EFF24FA9494CF8D857D
:10369000811117C0C8010E948F05C8010E948F05C3
:1036A000C8010E948F05C8010E948F05FFEFEF1A25
:1036B000FF0A8D819E81982789279827E816F906A9
:1036C000A8F441E050E0BE01635F7F4FC8010E9453
:1036D000FB088D858823D9F28D859FEF980F9D87F4
:1036E0008823A9F2C8010E948F05F6CF912C812C66
:1036F00041E050E0BE016D5E7F4FC8010E94FB08B3
:103700008B89982F907C61F4882389F08B899FEFB7
:10371000980F9B8B882341F0C8010E948F05F6CF3C
:10372000C8010E948F051B8A8B898111E1CF42E07D
:1037300050E0BE01615F7F4FC8010E94FB0842E07C
:1037400050E0BE01635F7F4FC8010E94FB08C801C3
:103750000E948F05C8010E948F05C8010E948F0535
:10376000C8010E948F0542E050E0BE016F5E7F4FAE
:10377000C8010E94FB088F85988981159140E1F46A
:103780008D859E8581159140B9F489899A89811525
:10379000944041F0C8010E94701857EFE52EFF24B5
:1037A000FA9409CF44E050E0B201C8010E94FB083E
:1037B000EE24E394F12CFFCEF12CE12C89899A8937
:1037C000982789279827E816F90638F4C8010E9437
:1037D0008F052FEFE21AF20AF1CF8FEF881A980ABD
:1037E0008614970409F084CFC8010E94701836EF40
:1037F000E32EFF24FA94DFCEEE24EA94FE2CDBCEF7
:103800009DEFE92EFF24FA94D6CE8EEFE82EFF240A
:10381000FA940BCEF12CE12C08CEAF92BF92CF924E
:10382000DF92EF92FF920F931F93CF93DF93CDB769
:10383000DEB7A8970FB6F894DEBF0FBECDBF7C01F0
:103840005B016A0101E811E01A8309831B821C8273
:103850001D821E82CE0109960E94B80B1CA30BA3E9
:103860001DA21EA21FA218A680919E0690919F06DF
:10387000A091A006B091A1068F8F98A3A9A3BAA387
:103880008B839C83AD83BE8318861F82AE014D5D02
:103890005F4FB501CE0101960E94771981309105E5
:1038A000B1F4D701ED91FC910488F589E02D1E8FCC
:1038B0000D8F8DA19EA1AFA1B8A58F8F98A3A9A3AD
:1038C000BAA3A601BE01635E7F4FC7010995A89602
:1038D0000FB6F894DEBF0FBECDBFDF91CF911F9121
:1038E0000F91FF90EF90DF90CF90BF90AF90089531
:1038F000AF92BF92CF92DF92EF92FF920F931F93FE
:10390000CF93DF93CDB7DEB7A8970FB6F894DEBF9D
:103910000FBECDBF7C015B016A0101E811E01A8393
:1039200009831B821C821D821E82CE0109960E9481
:10393000B80B1CA30BA31DA21EA21FA218A6809148
:103940009E0690919F06A091A006B091A1068B8340
:103950009C83AD83BE8318861F82AE014D5D5F4F91
:10396000B501CE0101960E94771981309105B1F41D
:10397000D701ED91FC910684F785E02D1E8F0D8F08
:103980008DA19EA1AFA1B8A58F8F98A3A9A3BAA31B
:10399000A601BE01635E7F4FC7010995A8960FB6C9
:1039A000F894DEBF0FBECDBFDF91CF911F910F9175
:1039B000FF90EF90DF90CF90BF90AF900895CF939E
:1039C000DF93EC014C815D81ABE7B4E090E080E0F7
:1039D000282F8430910521F484E0809383040EC065
:1039E000FC016D917D910196672B91F720938304E3
:1039F000EE0FFF1FE558FB4F518340830E944B168B
:103A000081E08E83DF91CF910895CF93DF93EC0116
:103A10000E944B16EC85FD8587818823D9F0DF0154
:103A2000189621E08D91811110C0215030E0322F85
:103A30002227330F84859585280F391F80E09AE06F
:103A4000821B930BDF91CF9108952F5F253051F7A3
:103A500024E0ECCF80E09AE0F5CFAF92BF92CF9216
:103A6000DF92EF92FF920F931F93CF938C015B0134
:103A70007A016A010E944B160115110509F45DC017
:103A8000F8018181882309F458C0867009F055C077
:103A90003896C1E08191811133C0C150F801EC0F1B
:103AA000F11D878181110DC080E092E00E944804E1
:103AB000F801EC0FF11D87838823E1F2F8011586E8
:103AC0001486A7014C195D094A0D5B1DF801648538
:103AD00075859601EC0FF11D87810E941805C81AA3
:103AE000D90AF80124853585820F931F958784872D
:103AF0001C141D0454F4C43009F4BCCFCF5FD4CFE0
:103B0000CF5FC53039F6C4E0C9CF0E945B01665F64
:103B10007F4F8F4F9F4FF80166877787808B918B00
:103B2000C7018C199D09CF911F910F91FF90EF90C4
:103B3000DF90CF90BF90AF90089590E080E0F3CFFA
:103B40009F92AF92BF92CF92DF92EF92FF920F932C
:103B50001F93CF93DF938C017B016A01CBE2D3E00B
:103B6000B12CA12C8EE1982E898180FF15C0E881AF
:103B70009E9EF0011124ED5FFB4F24813581F801F9
:103B8000848195812817390739F4A601B701CE0140
:103B90000E942D1DA80EB91E6296F3E0C337DF0701
:103BA00018F3C501DF91CF911F910F91FF90EF9016
:103BB000DF90CF90BF90AF909F900895FC018485D7
:103BC00095850C942D1DCF93DF931F92CDB7DEB753
:103BD000698341E050E0BE016F5F7F4FFC01848547
:103BE00095850E942D1D0F90DF91CF910895CF9361
:103BF000DF93EC010E944B16EC85FD85309739F080
:103C0000818182FF08C081E09281911101C080E032
:103C1000DF91CF91089581E0FBCFCF93DF93EC014B
:103C20008C859D85009769F0FC012181222349F054
:103C300002960E948107EC85FD85818182FF07C085
:103C400011821D861C86DF91CF910C944B168260E9
:103C50008183F7CFCF92DF92EF92FF920F931F9362
:103C6000CF93DF938C01EB016A01DC01ED91FC91B4
:103C70000488F589E02D0995EA80FB806C817D81BF
:103C80005C2D4D2D809101049091020401968115C7
:103C9000BDE79B0710F080E090E1382F292FE3E08B
:103CA000F4E0DF01C0E0C430D1F4909302048093CB
:103CB00001041092830480E0D0E0C0E08430F1F48D
:103CC00080938304209711F590E080E0DF91CF91FD
:103CD0001F910F91FF90EF90DF90CF90089559962C
:103CE000DC915997DD2339F01496CD90DC9015972F
:103CF000C216D30659F2CF5F5E96D5CFAE2F9F2F57
:103D0000B18DB1113CC080938304EF0182E0898FB3
:103D10008091A4028C878091A5028D878091A60254
:103D20008E878091A7028F8780E092E09B8B8A8BA1
:103D30009D8B8C8B81E090E0998B888B1B8E8A8F7A
:103D400083E0888F1E8A80E18F8B3D832C835F8385
:103D50004E83F982E8827B836A83898D8F7009F4B0
:103D6000B3CF0E944B16898D8F708330B1F78C8D45
:103D70009D8DF8019587848781E090E0A7CFB730CB
:103D800031F4209731F0D28CBA8DBD1510F0AC2FE4
:103D90009D2F8F5F7E96CA2FD92F90CFFB01019068
:103DA0000020E9F73197AF01461B570BDC01ED917D
:103DB000FC910280F381E02D09948F929F92AF9243
:103DC000BF92EF92FF920F931F93CF93DF93CDB7E4
:103DD000DEB7A1970FB6F894DEBF0FBECDBF7C0152
:103DE000FA01CB0119A2223008F42AE08E010F5DFE
:103DF0001F4F822E912CB12CA12CBF01A501940143
:103E00000E944228F901CA016A300CF5605DD801B0
:103E10006E938D01232B242B252B79F790E080E0E6
:103E2000109721F0BD01C7010E94CE1EA1960FB6CA
:103E3000F894DEBF0FBECDBFDF91CF911F910F91E0
:103E4000FF90EF90BF90AF909F908F900895695C26
:103E5000DECF0F931F93CF93DF93EC010E94CE1E12
:103E60008C0163E871E0CE010E94CE1E800F911F8D
:103E7000DF91CF911F910F9108958F929F92AF92F2
:103E8000BF92CF92DF92EF92FF920F931F93CF9347
:103E9000DF937C01EB016C0182E0C80ED11C47016D
:103EA000E5E08E0E911C10E000E0F60141916F01FB
:103EB00050E070E060E02AE0CE010E94DD1E5C016F
:103EC000E881F9810190F081E02D6EE2CE01099543
:103ED0008A0D9B1D080F191FC814D90431F7F7016B
:103EE000458150E070E060E02AE0CE010E94DD1ED6
:103EF000800F911FDF91CF911F910F91FF90EF9055
:103F0000DF90CF90BF90AF909F908F9008952F92A9
:103F10003F924F925F926F927F928F929F92AF9259
:103F2000BF92DF92EF92FF920F931F93CF93DF9395
:103F3000CDB7DEB7C254D1090FB6F894DEBF0FBEBD
:103F4000CDBF7C015B010E945B012B013C0187011D
:103F5000015C1F4FC8010E94E718181619069CF053
:103F60000E945B016419750986099709613A7F40CF
:103F70008105910508F0A5C162E370E080E090E062
:103F80000E942901E7CF42E250E0BE016F5F7F4F00
:103F9000C8010E94FB088981823009F08DC1C801E7
:103FA0000E945A058334910509F086C16D817E8196
:103FB0008F8198850E9479282B013C01F501408270
:103FC00051826282738246E050E0B701685F7F4FA2
:103FD000CE014D960E948028892B99F4F7018081AB
:103FE0009181A281B381481659066A067B0648F082
:103FF00084819581A681B78184159505A605B705AD
:10400000F0F4C8010E947018D12C8D2DCE5BDF4FCB
:104010000FB6F894DEBF0FBECDBFDF91CF911F91D9
:104020000F91FF90EF90DF90BF90AF909F908F9097
:104030007F906F905F904F903F902F900895898967
:104040009A89AB89BC8986879787A08BB18B8EECC8
:10405000A82EB12CC8010E948F05F1E0AF1AB1085B
:10406000C9F7D12CC70182969CAF8BAFF701B696EA
:10407000FEAFEDAF089621969FAF8EAF2197570107
:104080009AE1A90EB11C74972396FFAFEEAF239768
:104090001701F6E12F0E311C27012EE1420E511CB3
:1040A000C8010E94DD18181619060CF006C1C801D7
:1040B0000E948F058333910509F4E4C09CF581309B
:1040C000910509F480C074F4892B51F3C8010E9452
:1040D0008F05982E9A94FFEF9F1611F3C8010E9446
:1040E0008F05F8CF8330910509F47AC0069771F7F0
:1040F000C8010E948F05882E44E050E0B201C8013B
:104100000E94FB08712C612CE82DE450FF0B4F013D
:10411000681479042CF6C8010E948F05FFEF6F1A0E
:104120007F0AF6CF8A33910509F47EC0DCF585332A
:10413000910509F440C0C69749F6C8010E948F0551
:10414000982E1FAA18AE19AE1AAEB501CE018F96E1
:104150000E94D00B4FA958AD69AD7AAD89A99AA933
:10416000ABA9BCA9481759076A077B07B9F0B80182
:10417000CE0189960E946905B501CE0183960E9401
:10418000D00B4DA15EA16FA178A58BA59CA5ADA577
:10419000BEA5481759076A077B07E9F544E050E0D8
:1041A000B5011AC08B33910509F454C08F3F9105B6
:1041B00009F476CF8BCFC8010E948F05C8010E94F9
:1041C0008F05D82E6DCFC8010E948F0544E050E0C6
:1041D00023966EAD7FAD2397C8010E94FB0860CF88
:1041E000C8010E948F05882E44E050E0B101C8014B
:1041F0000E94FB08712C612C882D8450990B4C0176
:10420000681479040CF04CCFC8010E948F059FEF11
:10421000691A790AF5CF9A942FEF921609F440CFD4
:10422000C8010E948F05F7CFC8010E948F0544E0A6
:1042300050E06DAD7EADC8010E94FB08F70166A19C
:1042400077A180A591A50E94792866A377A380A76E
:1042500091A726CFC8010E948F0544E050E0219627
:104260006EAD7FAD2197C8010E94FB08F70162A5E2
:1042700073A584A595A50E94792862A773A784A732
:1042800095A70ECFC8010E948F0544E050E06BADAA
:104290007CADC8010E94FB08F70162A173A184A153
:1042A00095A10E94792862A373A384A395A366A70E
:1042B00077A780AB91ABF4CED12CC8010E947018C7
:1042C000A4CEDD24DA94A1CE7F928F929F92AF92FA
:1042D000BF92CF92DF92EF92FF920F931F93CF93F3
:1042E000DF93CDB7DEB7A6970FB6F894DEBF0FBE4B
:1042F000CDBF8C01762E942E852E20E2A22ECE01EB
:1043000001967C01DC01EA2D1D92EA95E9F768012E
:10431000FFE3CF0ED11C81E891E09AA389A38FEF30
:104320008BA38CA38DA38EA343E450E0BE016F5DED
:104330007F4FC6010E94F718019609F4BFC081E0C3
:1043400089838A8386E0B82EBB821C82D8011496AA
:104350006D917D918D919C9117970E9479286D8325
:104360007E838F83988789869A8680E890E09C87F1
:104370008B874CE150E0B701C6010E94AC05FE01FD
:1043800037968AE1DF011D928A95E9F74801B8E086
:104390008B0E911CF401D70101900D92BA94E1F7B4
:1043A00040E150E0B701C6010E94AC05F70111924F
:1043B000AA94E9F796E0A92EB12C40E250E0B701AB
:1043C000C6010E94AC05F1E0AF1AB108B1F783E66F
:1043D000898392E89A8393E59B838C8385E38D831D
:1043E00081E08E837F829DE3988797E099878A8713
:1043F00086E0F401DE011B9601900D928A95E1F7AB
:104400008CE0898B8A8B66E871E0CE0143960E942E
:104410009D28D8011B966C91CE0149960E94A6005A
:10442000F8016485CE014B960E94A600D8011D9626
:104430006C91CE014D960E94A6004EE150E0B7016E
:10444000C6010E94AC05B3E07B121EC082E38983E3
:1044500084E08A83F80196859B8397859C83908965
:104460009D8391899E8396E39F838887828D898728
:10447000838D8A87848D8B87858D8C874CE050E077
:10448000B701C6010E94AC0587E3898386E08A8371
:1044900091E09B8393E09C838D838FE08E838AE3FE
:1044A0008F838BE388878FEF898749E050E0B701DE
:1044B000C6010E94AC05C6010E941A16A6960FB648
:1044C000F894DEBF0FBECDBFDF91CF911F910F914A
:1044D000FF90EF90DF90CF90BF90AF909F908F9024
:1044E0007F9008951F920F920FB60F9211242F9371
:1044F0003F938F939F93AF93BF9380917403909159
:104500007503A0917603B09177033091730323E094
:10451000230F2D3758F50196A11DB11D209373036C
:104520008093740390937503A0937603B0937703FD
:104530008091780390917903A0917A03B0917B03E5
:104540000196A11DB11D8093780390937903A093E8
:104550007A03B0937B03BF91AF919F918F913F916D
:104560002F910F900FBE0F901F90189526E8230FE4
:104570000296A11DB11DD2CF1F920F920FB60F92BE
:1045800011242F933F934F935F936F937F938F9358
:104590009F93AF93BF93EF93FF9380EA95E00E94C0
:1045A000E501FF91EF91BF91AF919F918F917F9125
:1045B0006F915F914F913F912F910F900FBE0F9090
:1045C0001F9018951F920F920FB60F9211242F93E0
:1045D0008F939F93EF93FF93E091B005F091B10516
:1045E0008081E091B605F091B70582FD1BC09081F6
:1045F0008091B9058F5F8F732091BA05821741F0C2
:10460000E091B905F0E0E056FA4F958F8093B90537
:10461000FF91EF919F918F912F910F900FBE0F906F
:104620001F9018958081F4CFFC013381360F3093B1
:104630009F02A72FBB2792819A0F90939E02218100
:1046400020939D02408140939C029A171B0648F4D8
:1046500081E0820F80939D02811103C04F5F4093E0
:104660009C0277273617170688F49F5F90939E0267
:1046700091110CC080919D028F5F80939D028111EA
:1046800005C080919C028F5F80939C020895CF9318
:10469000DF93C091A902D091AA02BC01CE01089675
:1046A0000E941423ECE9F2E0808188878181898768
:1046B00082818A8783818B87DF91CF910895CF9301
:1046C000DF93E0EAF5E01382128288EE93E0A0E047
:1046D000B0E084839583A683B7838FE591E09183CF
:1046E000808385EC90E09587848784EC90E09787C1
:1046F000868780EC90E0918B808B81EC90E0938BAF
:10470000828B82EC90E0958B848B86EC90E0978B8B
:10471000868B118E128E138E148EEDE3F6E0C1E8B7
:10472000D1E0D183C0831282138214821582E3E424
:10473000F6E0D183C0831282138214821582E2EAEA
:10474000F6E0D183C0831282138214821582ECE9D1
:10475000F6E0D183C083128213821482158288E826
:1047600096E00E94B80BE8EAF6E0D183C08312829B
:10477000138214821582EEEAF6E0D183C08312829E
:10478000138214821582E4EBF6E0D183C083128297
:10479000138214821582E7ECF6E0D183C083128283
:1047A000138214821582E1ECF6E0D183C08380ECA1
:1047B000828388EA838381E0848381EB8583EAEBCB
:1047C000F6E01382128281E791E09183808380E09A
:1047D00090E5958384831682DF91CF910895CF93DE
:1047E000DF93CDB7DEB7A0970FB6F894DEBF0FBE4C
:1047F000CDBF789484B5826084BD84B5816084BD6A
:1048000085B5826085BD85B5816085BD80916E006E
:10481000816080936E00109281008091810082609F
:1048200080938100809181008160809381008091DC
:1048300080008160809380008091B10084608093CB
:10484000B1008091B00081608093B00080917A00C7
:10485000846080937A0080917A00826080937A00ED
:1048600080917A00816080937A0080917A008068DC
:1048700080937A001092C100E091B005F091B105EB
:1048800082E08083E091AC05F091AD051082E0916B
:10489000AE05F091AF058FEC80831092B805E091E2
:1048A000B405F091B50516E01083E091B205F091E2
:1048B000B305808180618083E091B205F091B305FA
:1048C000808188608083E091B205F091B30580819A
:1048D00080688083E091B205F091B30580818F7D7F
:1048E000808389E496E090932603809325030E94B9
:1048F000020910926B0610926C0610926D061092CF
:104900006E0610926F061092700610927106109249
:104910007206109273061092740610927506109229
:10492000760610927F0610928006109281061092F1
:104930008206E7E5F6E084E1DF011D928A95E9F75A
:10494000E1E0F1E0A1E5B6E001900D921A95E1F702
:10495000109287060E94B8272FEC37E040E050E025
:104960000E941028DC01CB010196A11DB11D80938E
:104970004D0690934E06A0934F06B0935006809339
:10498000490690934A06A0934B06B0934C0688E8DC
:1049900096E00E94970B64E470E088E896E00E943D
:1049A000720B882309F47DC20E945B016B017C01BC
:1049B000A8EE4A2EA3E05A2E612C712CB3E09B2E58
:1049C00002E0B12CA12C809187068330B9F18111CE
:1049D0006FC180914D0690914E06A0914F06B09107
:1049E00050060196A11DB11D80934D0690934E0671
:1049F000A0934F06B09350060E945B016C197D098D
:104A00008E099F09A30192010E944228A90161E039
:104A100089E496E00E94642181E08093870691E01A
:104A2000A916B10481F20E945B016C197D098E09FF
:104A30009F0961367A4E8105910518F288E896E063
:104A40000E94970B80914D0690914E06A0914F06C3
:104A5000B09150060196A11DB11D80934D06909313
:104A60004E06A0934F06B0935006AA94AB2809F0C7
:104A700018C20091250310912603B8016E5E7F4F86
:104A8000CE014B960E94D00BB8016A5E7F4FCE01DB
:104A900045960E94D00BB801625E7F4FCE010F9603
:104AA0000E94D00BB801625F7F4FCE0101960E9439
:104AB000D00B9E01255E3F4FAE014B5E5F4FBE01A6
:104AC000615F7F4FCE0101960E94C2068AEB96E09D
:104AD0000E94DF1C6DE871E080EA95E00E94CE1E26
:104AE00030912703209128039091290380912A0374
:104AF00041E851E05A8349833B832C839D838E8315
:104B000060EA75E0CE0101960E943D1F63E871E006
:104B100080EA95E00E94CE1E8EE1D82E90E0E92E2C
:104B200090E0F92E28EE422E23E0522E612C712CBB
:104B30000DE311E00E944B168091BE069091BF06D6
:104B4000EBE2F3E02281222309F495C1218120FFC9
:104B50000CC0A081DA9ED0011124AD5FBB4F14962A
:104B60004D915C914817590741F022FF84C127817C
:104B700030858217930709F07EC11C821B824D820B
:104B80005E826F8278861A830983FE87ED87CE0165
:104B900001960E94F71D382E882309F47DC069E92B
:104BA00071E080EA95E00E94291F0E945B014B01A1
:104BB0005C01C32CCE0101960E94E108882309F410
:104BC0005DC00E945B01681979098A099B096031FF
:104BD00077428105910508F051C0CE0101960E94EF
:104BE000A108892B39F3CE0101960E94E8078A308B
:104BF00009F052C1CC20E9F26EEA71E0CE010196D3
:104C00000E94291F6EEB71E0CE0101960E94291FC0
:104C100066ED71E0CE0101960E94291F63E871E004
:104C2000CE0101960E94CE1E68EE71E0CE01019683
:104C30000E94291F68EF71E0CE0101960E94291F92
:104C40006FEF71E0CE0101960E94291F6AE272E0C7
:104C5000CE0101960E94291F61E372E0CE01019608
:104C60000E94291F64E572E0CE0101960E94291F6F
:104C70006CE572E0CE0101960E94291FCE010196DB
:104C80000E94A907CE0101960E940D1E64E672E003
:104C900080EA95E00E94291FE114F10409F44ACF4B
:104CA0000E94D101882309F445CF0E94000042CF21
:104CB000843031F580914D0690914E06A0914F06BB
:104CC000B09150060196A11DB11D80934D069093A1
:104CD0004E06A0934F06B09350060E945B016C19DC
:104CE0007D098E099F09A30192010E944228A90112
:104CF00063E089E496E00E946421009387068FCEEA
:104D0000813051F5BE016F5F7F4F89E496E00E94CC
:104D1000871F182F823009F0AAC089819A81AB8140
:104D2000BC8180934D0690934E06A0934F06B0939E
:104D300050060E945B016C197D098E099F09A30131
:104D400092010E944228A90163E089E496E00E9452
:104D500064211093870663CE823009F060CEBE01D5
:104D60006F5F7F4F89E496E00E94871F182F853080
:104D700009F078C09092870680916B0690916C063E
:104D8000A0916D06B0916E06892B8A2B8B2B61F456
:104D900084E893E0A0E0B0E080936B0690936C060B
:104DA000A0936D06B0936E0680916F069091700689
:104DB000A0917106B0917206892B8A2B8B2BA1F4DE
:104DC00080916B0690916C06A0916D06B0916E0675
:104DD000B695A7959795879580936F0690937006E3
:104DE000A0937106B093720680916F069091700641
:104DF000A0917106B09172064091730650917406AD
:104E00006091750670917606452B462B472B71F401
:104E1000AC01BD01440F551F661F771F40937306F9
:104E200050937406609375067093760680937706A8
:104E300090937806A0937906B0937A0680917306D2
:104E400090917406A0917506B091760680937B06CA
:104E500090937C06A0937D06B0937E06AA24A3942B
:104E6000B12CDDCD863019F410928706D8CD1F3FC6
:104E700009F0D5CDF9CF729623E0E337F20708F4B5
:104E800061CE1C821B824D825E826F8278861A837D
:104E900009831E861D867BCE8D3009F48BCEC12CF6
:104EA00089CE68E772E080EA95E00E94291F81E8D8
:104EB00091E09A8389838091C3069091C406A09162
:104EC000C506B091C6068B839C83AD83BE83CE019D
:104ED00001960E94680AFACD8F929F92AF92BF927C
:104EE000CF92DF92EF92FF92CF93DF93EC01688134
:104EF00079818A819B81611571058105910521F474
:104F000064E279ED8BE597E02DE133EF41E050E08D
:104F10000E94102849015A019B01AC01A7EAB1E4A3
:104F20000E942F286B017C01ACEEB4EFA501940127
:104F30000E943D28C60ED71EE81EF91EF7FE06C0C9
:104F400081E0C81AD108E10880E8F80AC882D9824D
:104F5000EA82FB82C701B6019F77DF91CF91FF9074
:104F6000EF90DF90CF90BF90AF909F908F9008957B
:104F70008F929F92AF92BF92CF92DF92EF92FF9269
:104F800060910701709108018091090190910A01D7
:104F9000611571058105910521F464E279ED8BE5D8
:104FA00097E02DE133EF41E050E00E9410284901E5
:104FB0005A019B01AC01A7EAB1E40E942F286B01C2
:104FC0007C01ACEEB4EFA50194010E943D28C60E11
:104FD000D71EE81EF91EF7FE06C081E0C81AD108E8
:104FE000E10880E8F80AC0920701D0920801E09237
:104FF0000901F0920A01C701B6019F77FF90EF9077
:10500000DF90CF90BF90AF909F908F900895609366
:105010000701709308018093090190930A01089594
:10502000052E97FB1EF400940E94272857FD07D0F9
:105030000E94422807FC03D04EF40C942728509578
:105040004095309521953F4F4F4F5F4F0895909574
:105050008095709561957F4F8F4F9F4F08950E9467
:105060006428A59F900DB49F900DA49F800D911D65
:1050700011240895B7FF0C942F280E942F28821B1B
:10508000930B0895A1E21A2EAA1BBB1BFD010DC0B4
:10509000AA1FBB1FEE1FFF1FA217B307E407F507E8
:1050A00020F0A21BB30BE40BF50B661F771F881FC4
:1050B000991F1A9469F760957095809590959B015A
:1050C000AC01BD01CF010895A29FB001B39FC00103
:1050D000A39F700D811D1124911DB29F700D811D24
:1050E0001124911D0895EE0FFF1F0590F491E02DFE
:1050F00009946927962769277827872778270895AD
:10510000FB01DC0104C08D910190801921F4415014
:105110005040C8F7881B990B0895FB01DC0102C0C1
:1051200001900D9241505040D8F70895DC0101C024
:105130006D9341505040E0F70895FB01DC01019070
:105140000D920020E1F70895F894FFCFFFDEADBE89
:10515000EFFEED0100000000000000C405AC0501F9
:10516000067018DD188F057C18720BDA05970BF79F
:10517000180D1C1A16E7189E18FB0869055A05FF3A
:10518000FFFFFFFFFF00000000E31DDE1D051DA95E
:1051900007A108E807BE072A1E781C05080D1EE1B6
:1051A00008F71DCF08F1080000000007026701940E
:1051B000015402C501A301B70100000000DC05A0F5
:1051C0001D01060006DF1CF205000000003D1F0D5A
:1051D0000A00454E4332384A0053657276657220A4
:1051E00049503A20004E657720636C69656E7420E3
:1051F000636F6E6E656374656400485454502F315C
:105200002E3120323030204F4B00436F6E74656E6C
:10521000742D547970653A20746578742F68746DB4
:105220006C00436F6E6E656374696F6E3A20636CD9
:105230006F7365003C21444F4354595045206874B6
:105240006D6C3E003C68746D6C3E003C686561644A
:105250003E3C7469746C653E41726475696E6F2082
:105260005365727665723C2F7469746C653E3C2F91
:10527000686561643E003C626F64793E003C683161
:105280003E48656C6C6F20576F726C642066726F5D
:105290006D2041726475696E6F213C2F68313E004C
:1052A0003C2F626F64793E003C2F68746D6C3E0049
:1052B000436C69656E7420646973636F6E6E6563B9
:1052C0007465640044484350206661696C65642CD1
:1052D000207573696E672073746174696320495027
:0252E0000000CC
:107E0000112484B714BE81FFF0D085E080938100F7
:107E100082E08093C00088E18093C10086E0809377
:107E2000C20080E18093C4008EE0C9D0259A86E02C
:107E300020E33CEF91E0309385002093840096BBD3
:107E4000B09BFECF1D9AA8958150A9F7CC24DD24C4
:107E500088248394B5E0AB2EA1E19A2EF3E0BF2EE7
:107E6000A2D0813461F49FD0082FAFD0023811F036
:107E7000013811F484E001C083E08DD089C08234E0
:107E800011F484E103C0853419F485E0A6D080C0E4
:107E9000853579F488D0E82EFF2485D0082F10E0AE
:107EA000102F00270E291F29000F111F8ED06801E7
:107EB0006FC0863521F484E090D080E0DECF843638
:107EC00009F040C070D06FD0082F6DD080E0C81688
:107ED00080E7D80618F4F601B7BEE895C0E0D1E017
:107EE00062D089930C17E1F7F0E0CF16F0E7DF06D8
:107EF00018F0F601B7BEE89568D007B600FCFDCFD4
:107F0000A601A0E0B1E02C9130E011968C91119780
:107F100090E0982F8827822B932B1296FA010C0160
:107F200087BEE89511244E5F5F4FF1E0A038BF0790
:107F300051F7F601A7BEE89507B600FCFDCF97BE46
:107F4000E89526C08437B1F42ED02DD0F82E2BD052
:107F50003CD0F601EF2C8F010F5F1F4F84911BD097
:107F6000EA94F801C1F70894C11CD11CFA94CF0C13
:107F7000D11C0EC0853739F428D08EE10CD085E9AC
:107F80000AD08FE07ACF813511F488E018D01DD067
:107F900080E101D065CF982F8091C00085FFFCCF94
:107FA0009093C60008958091C00087FFFCCF809118
:107FB000C00084FD01C0A8958091C6000895E0E648
:107FC000F0E098E1908380830895EDDF803219F02E
:107FD00088E0F5DFFFCF84E1DECF1F93182FE3DFCA
:107FE0001150E9F7F2DF1F91089580E0E8DFEE27F6
:047FF000FF270994CA
:027FFE00040479
:00000001FF
