:100000000C943D010C946E010C946E010C946E01E5
:100010000C946E010C946E010C946E010C946E01A4
:100020000C946E010C946E010C946E010C946E0194
:100030000C946E010C946E010C946E010C946E0184
:100040000C946E010C946E010C946E010C946E0174
:100050000C946E010C946E010C946E010C94C0070C
:100060000C946E010C946E010C946E010C946E0154
:100070000C946E010C946E010C946E010C946E0144
:100080000C946E010C946E010C946E010C946E0134
:100090000C946E010C946E010C946E010C946E0124
:1000A0000C946E010C946E010C946E010C946E0114
:1000B0000C946E010C946E010C946E010C946E0104
:1000C0000C946E010C946E010C946E010C946E01F4
:1000D0000C946E010C946E010C946E010C946E01E4
:1000E0000C946E010C94BA070C94EC010C94B607B6
:1000F0000C94F6010C94CD010C942E040C94000287
:100100000C94DD010C94F2010C94AB060C940E02DD
:100110000C94E9010C94E5010C940A020C94E101A1
:100120000C94BA090C949B030C94B3070C9411071C
:100130000C94C8010C94FC010C94B0070C94EE03D1
:100140000C941C020C94A5060C9412020C94BE078D
:100150000C9404020C9418020000200023002600D6
:1001600029002C002F0032000001000003010601CD
:10017000090100000A0B02090C0D0E080703040117
:10018000000000000000000000000000000000006F
:10019000000000000000000000000000000012113C
:1001A000100000000000000000000000000000003F
:1001B00000000000000000000000220025002800D0
:1001C0002B002E003100340002010000050108015F
:1001D0000B0100002100240027002A002D00300020
:1001E000330001010000040107010A0105050505AE
:1001F000070508080808020202020A0A080804049F
:1002000004040101010101010101030303030303CC
:100210000303040707070C0C0C0C0C0C0C0C02025B
:10022000020206060606060606060B0B0B0B0B0B58
:100230000B0B0102102020080810204010204080E5
:10024000020102010804020101020408102040809A
:100250008040201008040201800402018040201028
:100260000804020108040201010204081020408071
:100270000102040810204080BA0911241FBECFEFEC
:10028000D1E2DEBFCDBF00E00CBF22E0A8E3B2E0C8
:1002900001C01D92A83DB207E1F712E0A0E0B2E074
:1002A000EEE9F4E100E00BBF02C007900D92A83325
:1002B000B107D9F711E0CDE3D1E000E006C0219706
:1002C0000109802FFE010E94040ACC33D10780E08F
:1002D0000807A9F70E940A080C944D0A0C94000024
:1002E000CF93DF9390E0FC01EE5CFD4F24918451AD
:1002F0009E4FFC0184918823C1F090E0880F991FE4
:10030000FC01EE52FE4FC591D491FC01E854FE4F22
:10031000A591B4919FB7F8943881822F809583235B
:100320008883EC91E22BEC939FBFDF91CF910895EE
:10033000282F30E0F901EE58FE4F9491F901EE5C60
:10034000FD4F449124513E4FF9012491222309F499
:1003500077C0992311F191509231F8F4E92FF0E030
:100360008827EA54FE4F8F4F0C94040AE501E901F7
:10037000C801DD01E101CD01EC01F201F601FC0152
:10038000000204020A020E02CD01120218021C022F
:10039000809180008F7780938000E22FF0E0EE0F55
:1003A000FF1FE85AFE4FA591B491EC91E42381E040
:1003B00090E009F047C080E00895809180008F7D33
:1003C000EACF80918000877FE6CF84B58F7784BDA8
:1003D000E4CF84B58F7DFBCF8091B0008F77809381
:1003E000B000DBCF8091B0008F7DF9CF809190007D
:1003F0008F7780939000D1CF809190008F7DF9CF3F
:1004000080919000877FF5CF8091A0008F778093B7
:10041000A000C3CF8091A0008F7DF9CF8091A00074
:10042000877FF5CF809120018F7780932001B5CF12
:10043000809120018F7DF9CF80912001877FF5CFBA
:1004400080E090E008953FB7F894809197029091F2
:100450009802A0919902B0919A0226B5A89B05C076
:100460002F3F19F00196A11DB11D3FBFBA2FA92F33
:10047000982F8827BC01CD01620F711D811D911D30
:1004800042E0660F771F881F991F4A95D1F708959C
:10049000AF92BF92DF92EF92FF920F931F93CF9391
:1004A000DF93D82E8091A8029091A902A091AA0270
:1004B000B091AB02892B8A2B8B2BD9F00E9423029F
:1004C0000091D4021091D5022091D6023091D7022A
:1004D000601B710B820B930B0091A8021091A90273
:1004E0002091AA023091AB0260177107820793072F
:1004F000C8F20E9423026093D4027093D5028093C5
:10050000D6029093D702E091B002F091B1023097F9
:1005100059F04091AC025091AD026091AE027091E1
:10052000AF028D2D1995D82EC091D202D091D30251
:1005300082EBE82E82E0F82E8701209749F182E0D5
:10054000023D180729F18D858823F1F0E881F981B2
:10055000A284B3840680F781E02DCE011995BC01F9
:10056000CE01F5011995F801918380838091A6024F
:100570009091A7028436910508F41C860C80DD81D9
:10058000C02D0E5F1F4FD9CFF80111821082EECF20
:10059000C091D202D091D30200E110E02097A9F0DF
:1005A0008D85882361F04E855F856A817B81E88136
:1005B000F9810280F381E02D2D2DCE0119950C805B
:1005C000DD81C02D0150110949F7C091D202D091AF
:1005D000D3022097C9F0F2EDEF16F2E0FF06A1F08A
:1005E0008D85882351F0F70160817181E881F9815F
:1005F0000484F585E02DCE0119950C80DD81C02D98
:10060000F2E0EF0EF11CE5CF8091A3029091A402DD
:100610009C012F5F3F4F3093A4022093A302499780
:100620000CF44AC08FB7F89420919B0230919C0241
:1006300040919D0250919E028FBF80919F029091A8
:10064000A002A091A102B091A202281B390B4A0B73
:100650005B0B21F421E030E040E050E0E091A302A8
:10066000F091A40288EE93E0E89FB001E99F700D3D
:10067000F89F700D1124072E000C880B990B0E9417
:10068000E2093093A7022093A6021092A4021092CE
:10069000A3022FB7F89480919B0290919C02A091A5
:1006A0009D02B0919E022FBF80939F029093A00263
:1006B000A093A102B093A202DF91CF911F910F915D
:1006C000FF90EF90DF90BF90AF9008958F929F9230
:1006D000AF92BF92CF92DF92EF92FF920E942302DD
:1006E0004B015C0188ECC82ED12CE12CF12C0E942E
:1006F0002302681979098A099B09683E73408105BC
:100700009105A8F321E0C21AD108E108F10888EEAA
:10071000880E83E0981EA11CB11CC114D104E10411
:10072000F10429F7FF90EF90DF90CF90BF90AF904A
:100730009F908F90089580E991E00895AF92BF92C5
:10074000CF92DF92EF92FF920F931F93CF93DF939D
:1007500000D0CDB7DEB75A0119821A821B828823D6
:1007600061F18B01E1E0F0E0E82EF12CD8012D9150
:100770008D012223F1F06F01B1E0CB1AD108D50130
:10078000AC0DBD1D4C914423A1F030E02F5F3F4FD5
:10079000D7010E940C0AA42FB0E011969B01AC0176
:1007A0000E94220AA1E0B0E0AC0FBD1FAC0DBD1D40
:1007B0008C933196E430F105C9F669817A818B8199
:1007C0000F900F900F90DF91CF911F910F91FF909D
:1007D000EF90DF90CF90BF90AF90089581E090E0D0
:1007E00008950F931F93CF93DF9320913D022F5FC6
:1007F000322F377030933D0220FF2BC020E831FDAF
:100800002064347009F02062205FFC01EC01239623
:1008100000E011E06785662329F070E0C8010E94BE
:10082000CE096F5F6187822F869F080E80E0811D51
:100830001124811110C01682662311F06150618766
:100840003196EC17FD0731F7DF91CF911F910F9192
:10085000089520E0D4CF81508683EECF4F925F92EF
:100860007F928F929F92AF92BF92CF92DF92EF9240
:10087000FF920F931F93CF93DF932C01EB010E9404
:100880002302F20126893789621B730B6A307105D6
:10089000B0F3F8948A819B81181619060CF0EAC10E
:1008A000E881F98160910201686030910201377F2F
:1008B00030930201DA848F812D2D281B822F2F8304
:1008C0004C85042E000C550BAA81BB817889FF84CE
:1008D000E98888248394870EF394E3949E81988416
:1008E000B984AB841181C12C7C2D0C2D2C2D218140
:1008F000112788942111280F08F42FEF81958894EF
:1009000080FC120F1795889481FC120F179588941C
:1009100082FC120F1795889483FC120F1795889408
:1009200084FC120F1795889485FC120F17958894F4
:1009300086FC120F1795889487FC120F17958894E0
:10094000722F8110712F8D0D172F002C60930201D3
:10095000002C17FF3093020120817727889400C074
:1009600000C0309302012111290F00C060930201E1
:10097000002C16FF3093020108F42FEF9195889414
:1009800000C000C030930201F0FC720F00C0609301
:100990000201002C15FF3093020177958894F1FC39
:1009A000720F00C000C0309302017795889400C098
:1009B00060930201002C14FF30930201F2FC720FCD
:1009C0007795889400C000C030930201F3FC720F49
:1009D00000C060930201002C13FF30930201779551
:1009E0008894F4FC720F00C000C030930201779528
:1009F000889400C060930201002C12FF3093020122
:100A0000F5FC720F7795889400C000C03093020106
:100A1000F6FC720F00C060930201002C11FF3093AE
:100A2000020177958894F7FC720F00C000C03093E4
:100A300002017795889400C060930201002C10FF9A
:100A400030930201122FF110172F9B0D00C000C030
:100A50003093020100C000C060930201002C17FF18
:100A60003093020122817727889400C000C0309320
:100A700002012111290D00C060930201002C16FF14
:100A80003093020108F42FEFE40FF51F00C000C0FF
:100A900030930201E0FC720F00C060930201002C51
:100AA00015FF3093020177958894E1FC720F00C026
:100AB00000C0309302017795889400C060930201D2
:100AC000002C14FF30930201E2FC720F779588949A
:100AD00000C000C030930201E3FC720F00C06093BD
:100AE0000201002C13FF3093020177958894E4FCF7
:100AF000720F00C000C0309302017795889400C047
:100B000060930201002C12FF30930201E5FC720F8A
:100B10007795889400C000C030930201E6FC720F04
:100B200000C060930201002C11FF30930201779501
:100B30008894E7FC720F00C000C0309302017795E3
:100B4000889400C060930201002C10FF30930201D2
:100B5000122FE110172F919400C000C030930201B2
:100B60009A0C00C0002C60930201002C17FF3093F8
:100B7000020121817727889400C000C030930201D0
:100B80002111280F00C060930201002C16FF309342
:100B9000020108F42FEF8195889400C000C03093C3
:100BA000020180FC720F00C060930201002C15FF4F
:100BB000309302017795889481FC720F00C000C0C9
:100BC000309302017795889400C060930201002C55
:100BD00014FF3093020182FC720F7795889400C055
:100BE00000C03093020183FC720F00C060930201C9
:100BF000002C13FF309302017795889484FC720FC8
:100C000000C000C0309302017795889400C06093C3
:100C10000201002C12FF3093020185FC720F7795C0
:100C2000889400C000C03093020186FC720F00C09F
:100C300060930201002C11FF309302017795889494
:100C400087FC720F00C000C0309302017795889432
:100C500000C060930201002C10FF30930201122F9C
:100C60008110172F8D0D00C000C030930201119725
:100C700009F06CCEEA81FB812EE130E0DF010E94B9
:100C80001B0A30E020E0A901AAE9EA9F0E0E411DEF
:100C9000FA9F400D511D11244F0F511DDC01CB0156
:100CA000840F951FA11DB11D893E43E09407A10546
:100CB000B10508F434C0885E9340A109B10942E04F
:100CC000B695A795979587954A95D1F747E0849F64
:100CD000080E211D949F200D311D1124290F311D57
:100CE00060913C0270E0860F971F820F931F409126
:100CF0009B0250919C0260919D0270919E02292F4F
:100D00003327420F531F611D711D40939B02509367
:100D10009C0260939D0270939E0280933C027894A3
:100D20000E942302F201778B668BDF91CF911F9196
:100D30000F91FF90EF90DF90CF90BF90AF909F907A
:100D40008F907F905F904F900895E1E0F1E0808177
:100D50008860808308956F927F928F92CF92DF9206
:100D6000EF92FF920F931F93CF93DF93CDB7DEB730
:100D700062970FB6F894DEBF0FBECDBF8C016B013A
:100D80007A01822FA801475F5F4FB8016A5F7F4FEA
:100D90000E949E033B01882ED8011C962C91C7010E
:100DA000F7FE04C0882799278E199F09DA82C98225
:100DB0009C838B839E838D83688A798A8A8A21307B
:100DC00049F5CE0101960E94F10383E08D871F86CD
:100DD0001E86F7FE02C08DEF8D87D801ED91FC9144
:100DE0000088F189E02DBE016F5F7F4FC801199522
:100DF00062960FB6F894DEBF0FBECDBFDF91CF91E4
:100E00001F910F91FF90EF90DF90CF908F907F9088
:100E10006F9008951C861B861A86198618861F8275
:100E2000D4CFCF92DF92EF92FF920F931F93CF9385
:100E3000DF93CDB7DEB762970FB6F894DEBF0FBE73
:100E4000CDBF8C016B017A01822FA801475F5F4FF4
:100E5000B8016A5F7F4F0E949E039B01482FD80113
:100E60001C968C91DA82C982FC82EB82FE82ED8232
:100E7000288B398B4A8B813009F5CE0101960E946F
:100E8000F1031D861F861E86D801ED91FC91008816
:100E9000F189E02DBE016F5F7F4FC8011995629601
:100EA0000FB6F894DEBF0FBECDBFDF91CF911F917B
:100EB0000F91FF90EF90DF90CF9008951C861B86D6
:100EC0001A86198618861F82DCCF0895E0E6F2E0C4
:100ED000DC012D913D914C91219331934193B2E0EE
:100EE000E039FB07A9F78091A5020C9448022091F4
:100EF0000002309101022817390741F580919502CF
:100F0000811119C081E080939502809390022FB7E0
:100F1000F89480919B0290919C02A0919D02B091C7
:100F20009E022FBF8093910290939202A09393020E
:100F3000B0939402089510929502C901880F991FE9
:100F4000820F931F845D9D4F0C946607909301025E
:100F500080930002109295029C01220F331FF0CF64
:100F600090E080E00895FC0164870895FC01848589
:100F700090E00895FC018685978508950E94410AB6
:100F80001F920F920FB60F9211242F933F938F93BE
:100F90009F93AF93BF9380919B0290919C02A091ED
:100FA0009D02B0919E023091960223E0230F2D37CF
:100FB00058F50196A11DB11D2093960280939B02C6
:100FC00090939C02A0939D02B0939E028091970201
:100FD00090919802A0919902B0919A020196A11D58
:100FE000B11D8093970290939802A0939902B093B9
:100FF0009A02BF91AF919F918F913F912F910F9046
:101000000FBE0F901F90189526E8230F0296A11D82
:10101000B11DD2CFCF93DF9300D0CDB7DEB7789498
:1010200084B5826084BD84B5816084BD85B58260ED
:1010300085BD85B5816085BD80916E00816080939E
:101040006E00109281008091810082608093810007
:101050008091810081608093810080918000816017
:10106000809380008091B10084608093B100809172
:10107000B00081608093B000809191008260809385
:101080009100809191008160809391008091900007
:101090008160809390008091A10082608093A10084
:1010A0008091A10081608093A1008091A000816067
:1010B0008093A00080912101826080932101809122
:1010C00021018160809321018091200181608093C2
:1010D000200180917A00846080937A0080917A0068
:1010E000826080937A0080917A00816080937A0098
:1010F00080917A00806880937A001092C10080917C
:101100005802811157C010924302109242028FEF91
:10111000809346028093470280934802809349025D
:1011200080934A0280934B0281E080934C0280932B
:101130004D0210924F0210924E0280E797E1909379
:1011400051028093500283E090E090935302809389
:1011500052021092550210925402109245021092BF
:1011600044028091D2029091D302892B31F480E421
:1011700092E09093D3028093D202E0913E02F091EC
:101180003F02309721F080E492E09583848380E4ED
:1011900092E090933F0280933E0210925702109289
:1011A00056028AE192E0909341028093400281E0EE
:1011B000809358028091010188608093010180E64C
:1011C00092E0909343028093420280E190E09093FA
:1011D0004F0280934E028091A8029091A902A091A3
:1011E000AA02B091AB02843C29E09207A105B105A7
:1011F00020F484EC99E0A0E0B0E08093A802909302
:10120000A902A093AA02B093AB020091D20210915E
:10121000D30201151105A1F0F80182819381009795
:1012200059F026853785A901440F551F420F531FDA
:1012300070E060E00E94460AF80104811581E9CF60
:101240008091A5020E94480282E00E94700183E022
:101250000E94700184E00E94700185E00E9470018C
:1012600019821A821B82CE0101960E946607FF2412
:10127000F39400E010E082E00E949801892B09F0CD
:1012800055C090E080E00E9477070E94660380913D
:101290009502882309F469C08091000290910102AF
:1012A000039709F462C02FB7F89480919B02909144
:1012B0009C02A0919D02B0919E022FBF409191028D
:1012C0005091920260919302709194025C016D01C1
:1012D000A41AB50AC60AD70AB601A501443F51406F
:1012E00061057105E0F08093910290939202A093C2
:1012F0009302B0939402809190028F258093900284
:10130000882369F12091000230910102C901880F00
:10131000991F820F931F845D9D4F0E9466070115E0
:10132000110509F4A8CF0E940000A5CF83E00E9418
:101330009801892B19F481E090E0A5CF84E00E9408
:101340009801892B19F482E090E09DCF85E00E94FE
:101350009801892B09F09BCF83E090E094CF19820C
:101360001A821B82CE010196D8CF8091A5020E94DD
:101370004802D5CFE5EAF2E08FEF80831282118236
:10138000148613868FEF9FEFDC0187839087A187F8
:10139000B2871382148215821682089597FB072E56
:1013A00016F4009407D077FD09D00E942D0A07FC9F
:1013B00005D03EF4909581959F4F08957095619565
:1013C0007F4F0895A1E21A2EAA1BBB1BFD010DC081
:1013D000AA1FBB1FEE1FFF1FA217B307E407F507E5
:1013E00020F0A21BB30BE40BF50B661F771F881FC1
:1013F000991F1A9469F760957095809590959B0157
:10140000AC01BD01CF010895EE0FFF1F881F8BBFF8
:101410000790F691E02D1994A29FB001B39FC001EF
:10142000A39F700D811D1124911DB29F700D811D10
:101430001124911D08950E940C0AB7FF0895821B84
:10144000930B08950E940C0AA59F900DB49F900DD8
:10145000A49F800D911D11240895AA1BBB1B51E16F
:1014600007C0AA1FBB1FA617B70710F0A61BB70B14
:10147000881F991F5A95A9F780959095BC01CD01B9
:10148000089581E090E0F8940C944D0ADC0101C0CD
:0E1490006D9341505040E0F70895F894FFCF5F
:10149E00030000000000BE07BE07BE07BA07EE033A
:1014AE00B607B307B007000000001107AB06A5068C
:1014BE00BA07EE03B607B3079B032E04008000FFA6
:0814CE00FF00FF000000000018
:00000001FF
