:020000040000FA
:100000000C943D010C946E010C946E010C946E01E5
:100010000C946E010C946E010C946E010C946E01A4
:100020000C946E010C946E010C946E010C946E0194
:100030000C946E010C946E010C946E010C946E0184
:100040000C946E010C946E010C946E010C946E0174
:100050000C946E010C946E010C946E010C94C0070C
:100060000C946E010C946E010C946E010C946E0154
:100070000C946E010C946E010C946E010C946E0144
:100080000C946E010C946E010C946E010C946E0134
:100090000C946E010C946E010C946E010C946E0124
:1000A0000C946E010C946E010C946E010C946E0114
:1000B0000C946E010C946E010C946E010C946E0104
:1000C0000C946E010C946E010C946E010C946E01F4
:1000D0000C946E010C946E010C946E010C946E01E4
:1000E0000C946E010C94BA070C94EC010C94B607B6
:1000F0000C94F6010C94CD010C942E040C94000287
:100100000C94DD010C94F2010C94AB060C940E02DD
:100110000C94E9010C94E5010C940A020C94E101A1
:100120000C94BA090C949B030C94B3070C9411071C
:100130000C94C8010C94FC010C94B0070C94EE03D1
:100140000C941C020C94A5060C9412020C94BE078D
:100150000C9404020C9418020000200023002600D6
:1001600029002C002F0032000001000003010601CD
:10017000090100000A0B02090C0D0E080703040117
:10018000000000000000000000000000000000006F
:10019000000000000000000000000000000012113C
:1001A000100000000000000000000000000000003F
:1001B00000000000000000000000220025002800D0
:1001C0002B002E003100340002010000050108015F
:1001D0000B0100002100240027002A002D00300020
:1001E000330001010000040107010A0105050505AE
:1001F000070508080808020202020A0A080804049F
:1002000004040101010101010101030303030303CC
:100210000303040707070C0C0C0C0C0C0C0C02025B
:10022000020206060606060606060B0B0B0B0B0B58
:100230000B0B0102102020080810204010204080E5
:10024000020102010804020101020408102040809A
:100250008040201008040201800402018040201028
:100260000804020108040201010204081020408071
:100270000102040810204080BA0911241FBECFEFEC
:10028000D1E2DEBFCDBF00E00CBF22E0A8E3B2E0C8
:1002900001C01D92A83DB207E1F712E0A0E0B2E074
:1002A000EEE9F4E100E00BBF02C007900D92A83325
:1002B000B107D9F711E0CDE3D1E000E006C0219706
:1002C0000109802FFE010E94040ACC33D10780E08F
:1002D0000807A9F70E940A080C944D0A0C94000024
:1002E000CF93DF9390E0FC01EE5CFD4F24918451AD
:1002F0009E4FFC0184918823C1F090E0880F991FE4
:10030000FC01EE52FE4FC591D491FC01E854FE4F22
:10031000A591B4919FB7F8943881822F809583235B
:100320008883EC91E22BEC939FBFDF91CF910895EE
:10033000282F30E0F901EE58FE4F9491F901EE5C60
:10034000FD4F449124513E4FF9012491222309F499
:1003500077C0992311F191509231F8F4E92FF0E030
:100360008827EA54FE4F8F4F0C94040AE501E901F7
:10037000C801DD01E101CD01EC01F201F601FC0152
:10038000000204020A020E02CD01120218021C022F
:10039000809180008F7780938000E22FF0E0EE0F55
:1003A000FF1FE85AFE4FA591B491EC91E42381E040
:1003B00090E009F047C080E00895809180008F7D33
:1003C000EACF80918000877FE6CF84B58F7784BDA8
:1003D000E4CF84B58F7DFBCF8091B0008F77809381
:1003E000B000DBCF8091B0008F7DF9CF809190007D
:1003F0008F7780939000D1CF809190008F7DF9CF3F
:1004000080919000877FF5CF8091A0008F778093B7
:10041000A000C3CF8091A0008F7DF9CF8091A00074
:10042000877FF5CF809120018F7780932001B5CF12
:10043000809120018F7DF9CF80912001877FF5CFBA
:1004400080E090E008953FB7F894809197029091F2
:100450009802A0919902B0919A0226B5A89B05C076
:100460002F3F19F00196A11DB11D3FBFBA2FA92F33
:10047000982F8827BC01CD01620F711D811D911D30
:1004800042E0660F771F881F991F4A95D1F708959C
:10049000AF92BF92DF92EF92FF920F931F93CF9391
:1004A000DF93D82E8091A8029091A902A091AA0270
:1004B000B091AB02892B8A2B8B2BD9F00E9423029F
:1004C0000091D4021091D5022091D6023091D7022A
:1004D000601B710B820B930B0091A8021091A90273
:1004E0002091AA023091AB0260177107820793072F
:1004F000C8F20E9423026093D4027093D5028093C5
:10050000D6029093D702E091B002F091B1023097F9
:1005100059F04091AC025091AD026091AE027091E1
:10052000AF028D2D1995D82EC091D202D091D30251
:1005300082EBE82E82E0F82E8701209749F182E0D5
:10054000023D180729F18D858823F1F0E881F981B2
:10055000A284B3840680F781E02DCE011995BC01F9
:10056000CE01F5011995F801918380838091A6024F
:100570009091A7028436910508F41C860C80DD81D9
:10058000C02D0E5F1F4FD9CFF80111821082EECF20
:10059000C091D202D091D30200E110E02097A9F0DF
:1005A0008D85882361F04E855F856A817B81E88136
:1005B000F9810280F381E02D2D2DCE0119950C805B
:1005C000DD81C02D0150110949F7C091D202D091AF
:1005D000D3022097C9F0F2EDEF16F2E0FF06A1F08A
:1005E0008D85882351F0F70160817181E881F9815F
:1005F0000484F585E02DCE0119950C80DD81C02D98
:10060000F2E0EF0EF11CE5CF8091A3029091A402DD
:100610009C012F5F3F4F3093A4022093A302499780
:100620000CF44AC08FB7F89420919B0230919C0241
:1006300040919D0250919E028FBF80919F029091A8
:10064000A002A091A102B091A202281B390B4A0B73
:100650005B0B21F421E030E040E050E0E091A302A8
:10066000F091A40288EE93E0E89FB001E99F700D3D
:10067000F89F700D1124072E000C880B990B0E9417
:10068000E2093093A7022093A6021092A4021092CE
:10069000A3022FB7F89480919B0290919C02A091A5
:1006A0009D02B0919E022FBF80939F029093A00263
:1006B000A093A102B093A202DF91CF911F910F915D
:1006C000FF90EF90DF90BF90AF9008958F929F9230
:1006D000AF92BF92CF92DF92EF92FF920E942302DD
:1006E0004B015C0188ECC82ED12CE12CF12C0E942E
:1006F0002302681979098A099B09683E73408105BC
:100700009105A8F321E0C21AD108E108F10888EEAA
:10071000880E83E0981EA11CB11CC114D104E10411
:10072000F10429F7FF90EF90DF90CF90BF90AF904A
:100730009F908F90089580E991E00895AF92BF92C5
:10074000CF92DF92EF92FF920F931F93CF93DF939D
:1007500000D0CDB7DEB75A0119821A821B828823D6
:1007600061F18B01E1E0F0E0E82EF12CD8012D9150
:100770008D012223F1F06F01B1E0CB1AD108D50130
:10078000AC0DBD1D4C914423A1F030E02F5F3F4FD5
:10079000D7010E940C0AA42FB0E011969B01AC0176
:1007A0000E94220AA1E0B0E0AC0FBD1FAC0DBD1D40
:1007B0008C933196E430F105C9F669817A818B8199
:1007C0000F900F900F90DF91CF911F910F91FF909D
:1007D000EF90DF90CF90BF90AF90089581E090E0D0
:1007E00008950F931F93CF93DF9320913D022F5FC6
:1007F000322F377030933D0220FF2BC020E831FDAF
:100800002064347009F02062205FFC01EC01239623
:1008100000E011E06785662329F070E0C8010E94BE
:10082000CE096F5F6187822F869F080E80E0811D51
:100830001124811110C01682662311F06150618766
:100840003196EC17FD0731F7DF91CF911F910F9192
:10085000089520E0D4CF81508683EECF4F925F92EF
:100860007F928F929F92AF92BF92CF92DF92EF9240
:10087000FF920F931F93CF93DF932C01EB010E9404
:100880002302F20126893789621B730B6A307105D6
:10089000B0F3F8948A819B81181619060CF0EAC10E
:1008A000E881F98160910201686030910201377F2F
:1008B00030930201DA848F812D2D281B822F2F8304
:1008C0004C85042E000C550BAA81BB817889FF84CE
:1008D000E98888248394870EF394E3949E81988416
:1008E000B984AB841181C12C7C2D0C2D2C2D218140
:1008F000112788942111280F08F42FEF81958894EF
:1009000080FC120F1795889481FC120F179588941C
:1009100082FC120F1795889483FC120F1795889408
:1009200084FC120F1795889485FC120F17958894F4
:1009300086FC120F1795889487FC120F17958894E0
:10094000722F8110712F8D0D172F002C60930201D3
:10095000002C17FF3093020120817727889400C074
:1009600000C0309302012111290F00C060930201E1
:10097000002C16FF3093020108F42FEF9195889414
:1009800000C000C030930201F0FC720F00C0609301
:100990000201002C15FF3093020177958894F1FC39
:1009A000720F00C000C0309302017795889400C098
:1009B00060930201002C14FF30930201F2FC720FCD
:1009C0007795889400C000C030930201F3FC720F49
:1009D00000C060930201002C13FF30930201779551
:1009E0008894F4FC720F00C000C030930201779528
:1009F000889400C060930201002C12FF3093020122
:100A0000F5FC720F7795889400C000C03093020106
:100A1000F6FC720F00C060930201002C11FF3093AE
:100A2000020177958894F7FC720F00C000C03093E4
:100A300002017795889400C060930201002C10FF9A
:100A400030930201122FF110172F9B0D00C000C030
:100A50003093020100C000C060930201002C17FF18
:100A60003093020122817727889400C000C0309320
:100A700002012111290D00C060930201002C16FF14
:100A80003093020108F42FEFE40FF51F00C000C0FF
:100A900030930201E0FC720F00C060930201002C51
:100AA00015FF3093020177958894E1FC720F00C026
:100AB00000C0309302017795889400C060930201D2
:100AC000002C14FF30930201E2FC720F779588949A
:100AD00000C000C030930201E3FC720F00C06093BD
:100AE0000201002C13FF3093020177958894E4FCF7
:100AF000720F00C000C0309302017795889400C047
:100B000060930201002C12FF30930201E5FC720F8A
:100B10007795889400C000C030930201E6FC720F04
:100B200000C060930201002C11FF30930201779501
:100B30008894E7FC720F00C000C0309302017795E3
:100B4000889400C060930201002C10FF30930201D2
:100B5000122FE110172F919400C000C030930201B2
:100B60009A0C00C0002C60930201002C17FF3093F8
:100B7000020121817727889400C000C030930201D0
:100B80002111280F00C060930201002C16FF309342
:100B9000020108F42FEF8195889400C000C03093C3
:100BA000020180FC720F00C060930201002C15FF4F
:100BB000309302017795889481FC720F00C000C0C9
:100BC000309302017795889400C060930201002C55
:100BD00014FF3093020182FC720F7795889400C055
:100BE00000C03093020183FC720F00C060930201C9
:100BF000002C13FF309302017795889484FC720FC8
:100C000000C000C0309302017795889400C06093C3
:100C10000201002C12FF3093020185FC720F7795C0
:100C2000889400C000C03093020186FC720F00C09F
:100C300060930201002C11FF309302017795889494
:100C400087FC720F00C000C0309302017795889432
:100C500000C060930201002C10FF30930201122F9C
:100C60008110172F8D0D00C000C030930201119725
:100C700009F06CCEEA81FB812EE130E0DF010E94B9
:100C80001B0A30E020E0A901AAE9EA9F0E0E411DEF
:100C9000FA9F400D511D11244F0F511DDC01CB0156
:100CA000840F951FA11DB11D893E43E09407A10546
:100CB000B10508F434C0885E9340A109B10942E04F
:100CC000B695A795979587954A95D1F747E0849F64
:100CD000080E211D949F200D311D1124290F311D57
:100CE00060913C0270E0860F971F820F931F409126
:100CF0009B0250919C0260919D0270919E02292F4F
:100D00003327420F531F611D711D40939B02509367
:100D10009C0260939D0270939E0280933C027894A3
:100D20000E942302F201778B668BDF91CF911F9196
:100D30000F91FF90EF90DF90CF90BF90AF909F907A
:100D40008F907F905F904F900895E1E0F1E0808177
:100D50008860808308956F927F928F92CF92DF9206
:100D6000EF92FF920F931F93CF93DF93CDB7DEB730
:100D700062970FB6F894DEBF0FBECDBF8C016B013A
:100D80007A01822FA801475F5F4FB8016A5F7F4FEA
:100D90000E949E033B01882ED8011C962C91C7010E
:100DA000F7FE04C0882799278E199F09DA82C98225
:100DB0009C838B839E838D83688A798A8A8A21307B
:100DC00049F5CE0101960E94F10383E08D871F86CD
:100DD0001E86F7FE02C08DEF8D87D801ED91FC9144
:100DE0000088F189E02DBE016F5F7F4FC801199522
:100DF00062960FB6F894DEBF0FBECDBFDF91CF91E4
:100E00001F910F91FF90EF90DF90CF908F907F9088
:100E10006F9008951C861B861A86198618861F8275
:100E2000D4CFCF92DF92EF92FF920F931F93CF9385
:100E3000DF93CDB7DEB762970FB6F894DEBF0FBE73
:100E4000CDBF8C016B017A01822FA801475F5F4FF4
:100E5000B8016A5F7F4F0E949E039B01482FD80113
:100E60001C968C91DA82C982FC82EB82FE82ED8232
:100E7000288B398B4A8B813009F5CE0101960E946F
:100E8000F1031D861F861E86D801ED91FC91008816
:100E9000F189E02DBE016F5F7F4FC8011995629601
:100EA0000FB6F894DEBF0FBECDBFDF91CF911F917B
:100EB0000F91FF90EF90DF90CF9008951C861B86D6
:100EC0001A86198618861F82DCCF0895E0E6F2E0C4
:100ED000DC012D913D914C91219331934193B2E0EE
:100EE000E039FB07A9F78091A5020C9448022091F4
:100EF0000002309101022817390741F580919502CF
:100F0000811119C081E080939502809390022FB7E0
:100F1000F89480919B0290919C02A0919D02B091C7
:100F20009E022FBF8093910290939202A09393020E
:100F3000B0939402089510929502C901880F991FE9
:100F4000820F931F845D9D4F0C946607909301025E
:100F500080930002109295029C01220F331FF0CF64
:100F600090E080E00895FC0164870895FC01848589
:100F700090E00895FC018685978508950E94410AB6
:100F80001F920F920FB60F9211242F933F938F93BE
:100F90009F93AF93BF9380919B0290919C02A091ED
:100FA0009D02B0919E023091960223E0230F2D37CF
:100FB00058F50196A11DB11D2093960280939B02C6
:100FC00090939C02A0939D02B0939E028091970201
:100FD00090919802A0919902B0919A020196A11D58
:100FE000B11D8093970290939802A0939902B093B9
:100FF0009A02BF91AF919F918F913F912F910F9046
:101000000FBE0F901F90189526E8230F0296A11D82
:10101000B11DD2CFCF93DF9300D0CDB7DEB7789498
:1010200084B5826084BD84B5816084BD85B58260ED
:1010300085BD85B5816085BD80916E00816080939E
:101040006E00109281008091810082608093810007
:101050008091810081608093810080918000816017
:10106000809380008091B10084608093B100809172
:10107000B00081608093B000809191008260809385
:101080009100809191008160809391008091900007
:101090008160809390008091A10082608093A10084
:1010A0008091A10081608093A1008091A000816067
:1010B0008093A00080912101826080932101809122
:1010C00021018160809321018091200181608093C2
:1010D000200180917A00846080937A0080917A0068
:1010E000826080937A0080917A00816080937A0098
:1010F00080917A00806880937A001092C10080917C
:101100005802811157C010924302109242028FEF91
:10111000809346028093470280934802809349025D
:1011200080934A0280934B0281E080934C0280932B
:101130004D0210924F0210924E0280E797E1909379
:1011400051028093500283E090E090935302809389
:1011500052021092550210925402109245021092BF
:1011600044028091D2029091D302892B31F480E421
:1011700092E09093D3028093D202E0913E02F091EC
:101180003F02309721F080E492E09583848380E4ED
:1011900092E090933F0280933E0210925702109289
:1011A00056028AE192E0909341028093400281E0EE
:1011B000809358028091010188608093010180E64C
:1011C00092E0909343028093420280E190E09093FA
:1011D0004F0280934E028091A8029091A902A091A3
:1011E000AA02B091AB02843C29E09207A105B105A7
:1011F00020F484EC99E0A0E0B0E08093A802909302
:10120000A902A093AA02B093AB020091D20210915E
:10121000D30201151105A1F0F80182819381009795
:1012200059F026853785A901440F551F420F531FDA
:1012300070E060E00E94460AF80104811581E9CF60
:101240008091A5020E94480282E00E94700183E022
:101250000E94700184E00E94700185E00E9470018C
:1012600019821A821B82CE0101960E946607FF2412
:10127000F39400E010E082E00E949801892B09F0CD
:1012800055C090E080E00E9477070E94660380913D
:101290009502882309F469C08091000290910102AF
:1012A000039709F462C02FB7F89480919B02909144
:1012B0009C02A0919D02B0919E022FBF409191028D
:1012C0005091920260919302709194025C016D01C1
:1012D000A41AB50AC60AD70AB601A501443F51406F
:1012E00061057105E0F08093910290939202A093C2
:1012F0009302B0939402809190028F258093900284
:10130000882369F12091000230910102C901880F00
:10131000991F820F931F845D9D4F0E9466070115E0
:10132000110509F4A8CF0E940000A5CF83E00E9418
:101330009801892B19F481E090E0A5CF84E00E9408
:101340009801892B19F482E090E09DCF85E00E94FE
:101350009801892B09F09BCF83E090E094CF19820C
:101360001A821B82CE010196D8CF8091A5020E94DD
:101370004802D5CFE5EAF2E08FEF80831282118236
:10138000148613868FEF9FEFDC0187839087A187F8
:10139000B2871382148215821682089597FB072E56
:1013A00016F4009407D077FD09D00E942D0A07FC9F
:1013B00005D03EF4909581959F4F08957095619565
:1013C0007F4F0895A1E21A2EAA1BBB1BFD010DC081
:1013D000AA1FBB1FEE1FFF1FA217B307E407F507E5
:1013E00020F0A21BB30BE40BF50B661F771F881FC1
:1013F000991F1A9469F760957095809590959B0157
:10140000AC01BD01CF010895EE0FFF1F881F8BBFF8
:101410000790F691E02D1994A29FB001B39FC001EF
:10142000A39F700D811D1124911DB29F700D811D10
:101430001124911D08950E940C0AB7FF0895821B84
:10144000930B08950E940C0AA59F900DB49F900DD8
:10145000A49F800D911D11240895AA1BBB1B51E16F
:1014600007C0AA1FBB1FA617B70710F0A61BB70B14
:10147000881F991F5A95A9F780959095BC01CD01B9
:10148000089581E090E0F8940C944D0ADC0101C0CD
:101490006D9341505040E0F70895F894FFCF03005A
:1014A00000000000BE07BE07BE07BA07EE03B6077E
:1014B000B307B007000000001107AB06A506BA0786
:1014C000EE03B607B3079B032E04008000FFFF0066
:0614D000FF000000000017
:020000040003F7
:10E000000D9489F10D94B2F10D94B2F10D94B2F129
:10E010000D94B2F10D94B2F10D94B2F10D94B2F1F0
:10E020000D94B2F10D94B2F10D94B2F10D94B2F1E0
:10E030000D94B2F10D94B2F10D94B2F10D94B2F1D0
:10E040000D94B2F10D94B2F10D94B2F10D94B2F1C0
:10E050000D94B2F10D94B2F10D94B2F10D94B2F1B0
:10E060000D94B2F10D94B2F10D94B2F10D94B2F1A0
:10E070000D94B2F10D94B2F10D94B2F10D94B2F190
:10E080000D94B2F10D94B2F10D94B2F10D94B2F180
:10E090000D94B2F10D94B2F10D94B2F10D94B2F170
:10E0A0000D94B2F10D94B2F10D94B2F10D94B2F160
:10E0B0000D94B2F10D94B2F10D94B2F10D94B2F150
:10E0C0000D94B2F10D94B2F10D94B2F10D94B2F140
:10E0D0000D94B2F10D94B2F10D94B2F10D94B2F130
:10E0E0000D94B2F141546D656761323536300041AF
:10E0F000726475696E6F206578706C6F72657220DE
:10E1000073746B3530305632206279204D4C530099
:10E11000426F6F746C6F616465723E004875683F52
:10E1200000436F6D70696C6564206F6E203D200048
:10E130004350552054797065202020203D20005FF9
:10E140005F4156525F415243485F5F3D2000415658
:10E1500052204C696243205665723D20004743437C
:10E160002056657273696F6E203D20004350552024
:10E1700049442020202020203D20004C6F7720663D
:10E18000757365202020203D20004869676820665F
:10E190007573652020203D200045787420667573D6
:10E1A00065202020203D20004C6F636B2066757336
:10E1B000652020203D20004D617220203720323024
:10E1C000313300312E362E3800342E332E350056A2
:10E1D00023202020414444522020206F7020636F70
:10E1E00064652020202020696E73747275637469E1
:10E1F0006F6E2061646472202020496E74657272B3
:10E20000757074006E6F20766563746F7200726A49
:10E210006D702020006A6D70200057686174207056
:10E220006F72743A00506F7274206E6F7420737541
:10E2300070706F72746564004D7573742062652030
:10E2400061206C6574746572002000577269747483
:10E25000696E672045450052656164696E672045B7
:10E26000450045452065727220636E743D00504F35
:10E27000525400303D5A65726F2061646472003FF1
:10E280003D43505520737461747300403D454550C3
:10E29000524F4D207465737400423D426C696E6B41
:10E2A000204C454400453D44756D70204545505215
:10E2B0004F4D00463D44756D7020464C415348001B
:10E2C000483D48656C70004C3D4C69737420492F83
:10E2D0004F20506F72747300513D51756974005234
:10E2E0003D44756D702052414D00563D73686F7707
:10E2F00020696E7465727275707420566563746FF0
:10E30000727300593D506F727420626C696E6B00BD
:10E310002A0011241FBECFEFD1E2DEBFCDBF01E046
:10E320000CBF12E0A0E0B2E0EEE1FDEF03E00BBFB6
:10E3300002C007900D92A030B107D9F712E0A0E01B
:10E34000B2E001C01D92AE30B107E1F70F9460F367
:10E350000D948DFE01E20EBF0FEF0DBF11241FBE05
:10E360000D9460F30D9400F020E030E040ED57E0B4
:10E3700005C0FA013197F1F72F5F3F4F2817390792
:10E38000C0F308959C01260F311DC901A0E0B0E043
:10E390002F5F3F4FABBFFC018791882361F08093D3
:10E3A000C6008091C00086FFFCCF8091C0008064D1
:10E3B0008093C000EACF08958DE08093C6008091DD
:10E3C000C00086FFFCCF8091C00080648093C000B5
:10E3D0008AE08093C6008091C00086FFFCCF8091C8
:10E3E000C00080648093C00008950F94C2F10F9420
:10E3F000DCF10895FC019081992359F09093C600B7
:10E400008091C00086FFFCCF8091C0008064809323
:10E41000C0003196992379F70895282F982F929567
:10E420009F70892F805D8A3308F0895F8093C600D2
:10E430008091C00086FFFCCF8091C00080648093F3
:10E44000C000822F8F70982F905D9A3308F0995FEB
:10E450009093C6008091C00086FFFCCF8091C000E1
:10E4600080648093C00008959C01FB01853691056E
:10E470001CF46330710594F0C90164E670E00F94F8
:10E480002EFE605D7F4F6093C6008091C00086FFC6
:10E49000FCCF8091C00080648093C0002B30310598
:10E4A00014F43297B4F0C90164E670E00F942EFEC4
:10E4B0006AE070E00F942EFE605D7F4F6093C600AF
:10E4C0008091C00086FFFCCF8091C0008064809363
:10E4D000C000C9016AE070E00F942EFEC0968093E0
:10E4E000C6008091C00086FFFCCF8091C000806490
:10E4F0008093C00008951F93182F8EE692EE60E07F
:10E500000F94C2F11093C6008091C00086FFFCCF2B
:10E510008091C00080648093C0000F94DCF11F9153
:10E5200008952F923F924F925F926F927F928F92B7
:10E530009F92AF92BF92CF92DF92EF92FF920F9392
:10E540001F93DF93CF93CDB7DEB762970FB6F894E2
:10E55000DEBF0FBECDBF382E622ECA01DB015C01CB
:10E560006D01772420E2222E2E010894411C511CBB
:10E570008BC081E0A81680E0B80681E0C80680E084
:10E58000D80628F0C601AA27BB270F940DF2BB2797
:10E59000AD2D9C2D8B2D0F940DF28A2D0F940DF225
:10E5A0002092C6008091C00086FFFCCF8091C00001
:10E5B00080648093C0009DE29093C6008091C0006B
:10E5C00086FFFCCF8091C00080648093C0002092C1
:10E5D000C6008091C00086FFFCCF8091C00080649F
:10E5E0008093C00019828601750188249924A1E0D6
:10E5F0003A1651F03A1620F0B2E03B1661F409C029
:10E600000BBFF701779007C0C7010F9477FE782EF4
:10E6100002C0F7017080872D0F940DF22092C60082
:10E620008091C00086FFFCCF8091C0008064809301
:10E63000C000872D8052F401EF70F0708F3520F408
:10E64000E40DF51D708204C0E40DF51D8EE280839B
:10E650000894E11CF11C011D111D0894811C911CE2
:10E6600090E18916910409F0C2CF80E190E0A0E02A
:10E67000B0E0A80EB91ECA1EDB1E198AC2010F9493
:10E68000FAF10F94DCF16A94662009F072CF629679
:10E690000FB6F894DEBF0FBECDBFCF91DF911F91B3
:10E6A0000F91FF90EF90DF90CF90BF90AF909F9031
:10E6B0008F907F906F905F904F903F902F90089534
:10E6C0002F923F924F925F926F927F928F929F9282
:10E6D000AF92BF92CF92DF92EF92FF920F931F9370
:10E6E000DF93CF93CDB7DEB7CD53D1400FB6F894BB
:10E6F000DEBF0FBECDBF01E20EBF0FEF0DBF94B75F
:10E70000F894A89514BE80916000886180936000A1
:10E7100010926000789493FF05C0E0910002F091A0
:10E7200001021995279A2F9A8091C00082608093E8
:10E73000C00080E18093C40088E18093C1000000A4
:10E74000EE24FF24870144E0A42EB12CCC24DD2448
:10E7500024C0C5010197F1F70894E11CF11C011DCB
:10E76000111D21E2E2162EE4F20620E0020720E06D
:10E77000120718F031E0C32ED12CC801B70127ECE5
:10E780003BE140E050E00F9441FE611571058105C9
:10E79000910519F485B1805885B98091C00087FD35
:10E7A00003C0C114D104A9F2A6014F5F5F4FC25E3E
:10E7B000DE4F59834883CE51D140C25EDE4F8881FF
:10E7C0009981CE51D140019711F00D9410FEC05D9A
:10E7D000DE4F19821882C053D14060E0C15DDE4F28
:10E7E0001882CF52D14088249924C35DDE4F19820C
:10E7F0001882CD52D140C05EDE4F188219821A8233
:10E800001B82C052D140CE5CDE4F188219821A8220
:10E810001B82C253D140EE24FF2487010BBFF701B6
:10E8200007911691C45CDE4F19830883CC53D14005
:10E830000D940BFEC25EDE4F28813981CE51D1404E
:10E840002130310509F52091C600C25EDE4F1982E4
:10E850001882CE51D14022C02F5F3F4F4F4F5F4FA4
:10E86000213082E138078AE7480780E0580780F0C6
:10E87000C45CDE4FE881F981CC53D140EF5FFF4F9C
:10E8800019F0EE27FF27099420E030E040E050E047
:10E890008091C00087FFE0CF2091C600C35DDE4FAE
:10E8A00048815981CD52D1404F5F5F4FC35DDE4FEC
:10E8B00059834883CD52D140213209F063C64A3092
:10E8C000510508F05FC60894811C911C53E0851621
:10E8D000910409F059C600E010E018C081E280936D
:10E8E000C6008091C00086FFFCCF8091C00080648C
:10E8F0008093C0002F5F3F4F2931310579F70F9486
:10E90000DCF10F5F1F4F0530110519F020E030E0FA
:10E91000E5CF10920A0210920B0210920C02109294
:10E920000D02109206021092070210920802109235
:10E930000902109202021092030210920402109235
:10E9400005028FEE90EE60E00F94F5F180E191EE1C
:10E9500060E00F94C2F18091C00087FFFCCF9091DE
:10E96000C600903608F09F759032B8F09093C600BC
:10E970008091C00086FFFCCF8091C00080648093AE
:10E98000C000A0E2A093C6008091C00086FFFCCF2B
:10E990008091C00080648093C000983409F4D7C18E
:10E9A0009934B8F4923409F459C1933458F490333B
:10E9B00019F1903308F4E3C59F33A1F1903409F0C5
:10E9C000DEC5BDC0953409F470C1963409F0D7C5D1
:10E9D00098C1923509F42BC2933538F49C3409F46C
:10E9E000F5C1913509F0CBC518C2963509F445C279
:10E9F000993509F0C4C567C483E792EE62E00F94CD
:10EA0000F5F110920602109207021092080210927D
:10EA1000090210920A0210920B0210920C0210923C
:10EA20000D0213C18FE792EE62E00F94F5F18FEEC5
:10EA300090EE60E00F94F5F181E291EE60E00F94CA
:10EA4000C2F187EB91EE60E00F94F5F180E391EE77
:10EA500060E00F94C2F184EE90EE60E00F94F5F167
:10EA60008FE391EE60E00F94C2F186E090E061E008
:10EA700070E00F9434F20F94DCF18DE591EE60E0DC
:10EA80000F94C2F189EC91EE60E00F94F5F18EE401
:10EA900091EE60E00F94C2F183EC91EE60E00F9490
:10EAA000F5F18CE691EE60E00F94C2F18EE10F94E7
:10EAB0000DF288E90F940DF281E00F940DF20F949E
:10EAC000DCF18BE791EE60E00F94C2F119E0E0E039
:10EAD000F0E010935700E4918E2F0F940DF20F94F5
:10EAE000DCF18AE891EE60E00F94C2F1E3E0F0E03F
:10EAF00010935700E4918E2F0F940DF20F94DCF1D8
:10EB000089E991EE60E00F94C2F1E2E0F0E0109349
:10EB10005700E4918E2F0F940DF20F94DCF188EAE8
:10EB200091EE60E00F94C2F1E1E0F0E01093570045
:10EB30001491812F0F940DF20F94DCF107CF8BE825
:10EB400092EE62E00F94F5F18BE492EE60E00F94A8
:10EB5000F5F10F94DCF100E010E019C0C8016F2D51
:10EB60000F947FFEFF2031F489E492EE60E00F9471
:10EB7000C2F10BC0F092C6008091C00086FFFCCFAE
:10EB80008091C00080648093C0000F5F1F4FC80158
:10EB900081519F41A0E0B0E0ABBFFC01F790BAE229
:10EBA000FB1621F0E2E000301E07C1F60F94DCF105
:10EBB0000F94DCF187E592EE60E00F94F5F10F948D
:10EBC000DCF1CC24DD2400E010E01EC0C8010F946D
:10EBD00077FEF82E882331F489E492EE60E00F94FA
:10EBE000C2F10BC08093C6008091C00086FFFCCFAD
:10EBF0008091C00080648093C000FE1419F00894D6
:10EC0000C11CD11C0F5F1F4FC80181519F41A0E063
:10EC1000B0E0ABBFFC01E790FAE2EF1621F022E092
:10EC20000030120799F60F94DCF10F94DCF182E6C4
:10EC300092EE60E00F94C2F1C60161E070E00F94C3
:10EC400034F20F94DCF10F94DCF110920202109276
:10EC50000302109204021092050278CE89E992EE26
:10EC600062E00F94F5F1279A2F9A16C02F9880E052
:10EC700090E0E0EDF7E03197F1F7019684369105E9
:10EC8000C1F72F9A80E090E0E0EDF7E03197F1F7DF
:10EC9000019684369105C1F78091C00087FFE6CFC9
:10ECA0008091C00087FFFCCF64C485EA92EE62E0E9
:10ECB0000F94F5F140910202509103026091040219
:10ECC0007091050281E020E10F9491F2809102029F
:10ECD00090910302A0910402B091050280509F4FD1
:10ECE000AF4FBF4F8093020290930302A0930402A0
:10ECF000B093050280509041A040B04008F426CE69
:10ED0000A4CF83EB92EE62E00F94F5F140910602FE
:10ED100050910702609108027091090280E020E1A1
:10ED20000F9491F28091060290910702A09108023F
:10ED3000B091090280509F4FAF4FBF4F80930602A2
:10ED400090930702A0930802B0930902FFCD80ECD4
:10ED500092EE62E00F94F5F183E792EE60E00F949B
:10ED6000F5F18FE792EE60E00F94F5F18BE892EE0B
:10ED700060E00F94F5F189E992EE60E00F94F5F10F
:10ED800085EA92EE60E00F94F5F183EB92EE60E09D
:10ED90000F94F5F180EC92EE60E00F94F5F187ECC2
:10EDA00092EE60E00F94F5F188ED92EE60E00F9442
:10EDB000F5F18FED92EE60E00F94F5F18AEE92EEB0
:10EDC00060E00F94F5F183E093EEBDCD87EC92EE19
:10EDD00062E00F94F5F181E40F947BF282E40F94EA
:10EDE0007BF283E40F947BF284E40F947BF285E45E
:10EDF0000F947BF286E40F947BF287E40F947BF20E
:10EE000088E40F947BF28AE40F947BF28BE40F94F6
:10EE10007BF28CE40F947BF299CD88ED92EE62E068
:10EE20000F94F5F1772473948824992409C48FED05
:10EE300092EE62E00F94F5F140910A0250910B02BC
:10EE400060910C0270910D0282E020E10F9491F22A
:10EE500080910A0290910B02A0910C02B0910D02D8
:10EE600080509F4FAF4FBF4F80930A0290930B0289
:10EE7000A0930C02B0930D0269CD8AEE92EE62E08F
:10EE80000F94F5F184EE90EE60E00F94F5F18FECC5
:10EE900091EE60E00F94F5F1662477244301CC5D98
:10EEA000DE4F19821882C452D140D401C301B695F5
:10EEB000A79597958795CA5DDE4F88839983AA8326
:10EEC000BB83C652D140CC5DDE4FA881B981C4520C
:10EED000D1401196CC5DDE4FB983A883C452D14096
:10EEE000CD0162E070E00F9434F2B0E2B093C6005E
:10EEF0008091C00086FFFCCF8091C0008064809329
:10EF0000C000EDE2E093C6008091C00086FFFCCF18
:10EF10008091C00080648093C000F0E2F093C6004E
:10EF20008091C00086FFFCCF8091C00080648093F8
:10EF3000C000CA5DDE4FE880F9800A811B81C6529D
:10EF4000D140BB27A12F902F8F2D0F940DF2CA5DBA
:10EF5000DE4F8881C652D1400F940DF2B0E2FB2EF5
:10EF6000F092C6008091C00086FFFCCF8091C00067
:10EF700080648093C0000DE30093C6008091C000C0
:10EF800086FFFCCF8091C00080648093C00010E2B7
:10EF90001093C6008091C00086FFFCCF8091C00016
:10EFA00080648093C0008BBEF3012791C65DDE4F65
:10EFB0002883CA52D140A22EBB24CC24DD2408943D
:10EFC000611C711C811C911C8BBEF3018791282E42
:10EFD0003324442455240894611C711C811C911C09
:10EFE0008BBEF3013791C55DDE4F3883CB52D140E4
:10EFF0000894611C711C811C911C8BBEF30147910C
:10F00000C45DDE4F4883CC52D140ADEFEA2EAFEF66
:10F01000FA2EAFEF0A2FAFEF1A2F6E0C7F1C801E57
:10F02000911E142D032DF22CEE24EA0CFB1C0C1D5A
:10F030001D1D0F940DF220E22093C6008091C000A8
:10F0400086FFFCCF8091C00080648093C000C65DC5
:10F05000DE4F8881CA52D1400F940DF230E23093D6
:10F06000C6008091C00086FFFCCF8091C000806404
:10F070008093C000C45DDE4F8881CC52D1400F9494
:10F080000DF240E24093C6008091C00086FFFCCFA5
:10F090008091C00080648093C000C55DDE4F888190
:10F0A000CB52D1400F940DF250E25093C6008091A4
:10F0B000C00086FFFCCF8091C00080648093C000B8
:10F0C0008FEFE8168FEFF80680E0080780E018075A
:10F0D00031F484E092EE60E00F94C2F1DFC0D80119
:10F0E000C7018070907CA070B0708050904CA040A0
:10F0F000B040D1F52FEF3FE340E050E0E222F322B1
:10F1000004231523CA5DDE4FA880B980CA80DB8046
:10F11000C652D140AE0CBF1CC01ED11EAA0CBB1CD7
:10F12000CC1CDD1C8EE092EE60E00F94C2F1BB2798
:10F13000A12F902F8F2D0F940DF28E2D0F940DF285
:10F1400030E23093C6008091C00086FFFCCF8091F2
:10F15000C00080648093C0004EE34093C60080915D
:10F16000C00086FFFCCF87C08EE09EEFA0E0B0E03D
:10F17000E822F9220A231B239CE0E91694E9F90608
:10F1800090E0090790E0190709F088C0C45DDE4FE0
:10F19000A881CC52D140EA2EFF2400E010E0102FCD
:10F1A0000F2DFE2CEE24C55DDE4FB881CB52D14031
:10F1B000EB0EF11C011D111DD601C501817090706F
:10F1C000A070B070DC0199278827E80EF91E0A1F8D
:10F1D0001B1F20EF30E040E050E0A222B322C42207
:10F1E000D52241E1AA0CBB1CCC1CDD1C4A95D1F7F1
:10F1F000EA0CFB1C0C1D1D1D81E090E0A0E0B0E0BE
:10F20000282239224A225B2235E1220C331C441C7D
:10F21000551C3A95D1F7E20CF31C041D151D57013E
:10F220006801AA0CBB1CCC1CDD1C85E192EE60E0E1
:10F230000F94C2F1C801AA27BB270F940DF2BB2778
:10F24000A12F902F8F2D0F940DF28E2D0F940DF274
:10F2500090E29093C6008091C00086FFFCCF809121
:10F26000C00080648093C000AEE3A093C60080918C
:10F27000C00086FFFCCF8091C00080648093C000F6
:10F28000C601AA27BB270F940DF2BB27AD2D9C2DDD
:10F290008B2D0F940DF28A2D0F940DF20F94DCF14B
:10F2A000CC5DDE4FE881F981C452D140F99709F471
:10F2B0004DCBF4E0EF2EF12C012D112D6E0C7F1CA7
:10F2C000801E911EF2CD83E093EE62E00F94F5F183
:10F2D0008AE192EE60E00F94C2F18091C00087FF56
:10F2E000FCCF1091C6001F751093C6008091C0001E
:10F2F00086FFFCCF8091C00080648093C0000F9493
:10F30000DCF1812F81548A3108F036C1163409F4BA
:10F3100095C0173490F4133409F44EC0143430F40B
:10F320001134F1F0123409F01DC130C0143409F465
:10F3300059C0153409F016C16BC01A3409F4C4C0A1
:10F340001B3438F4173409F48FC0183409F00AC19B
:10F35000A1C01B3409F4D2C01C3409F003C1E8C0B9
:10F360008FEF81B90DC082B1809582B980E090E0C5
:10F37000E0EDF7E03197F1F70196883C9105C1F790
:10F380008091C00087FFEFCF12B8EFC08FEF84B934
:10F390000DC085B1809585B980E090E0E0EDF7E0A3
:10F3A0003197F1F70196883C9105C1F78091C00033
:10F3B00087FFEFCF15B8D9C08FEF87B90DC088B1DF
:10F3C000809588B980E090E0E0EDF7E03197F1F7C3
:10F3D0000196883C9105C1F78091C00087FFEFCF6F
:10F3E00018B8C3C08FEF8AB90DC08BB180958BB9A7
:10F3F00080E090E0E0EDF7E03197F1F70196883C8E
:10F400009105C1F78091C00087FFEFCF1BB8ADC059
:10F410008FEF8DB90DC08EB180958EB980E090E0F0
:10F42000E0EDF7E03197F1F70196883C9105C1F7DF
:10F430008091C00087FFEFCF1EB897C08FEF80BBD1
:10F440000DC081B3809581BB80E090E0E0EDF7E0F6
:10F450003197F1F70196883C9105C1F78091C00082
:10F4600087FFEFCF11BA81C08FEF83BB0DC084B38C
:10F47000809584BB80E090E0E0EDF7E03197F1F714
:10F480000196883C9105C1F78091C00087FFEFCFBE
:10F4900014BA6BC08FEF809301010FC080910201FD
:10F4A00080958093020180E090E0E0EDF7E03197F5
:10F4B000F1F70196883C9105C1F78091C00087FF64
:10F4C000EDCF1092020151C08FEF809304010FC065
:10F4D0008091050180958093050180E090E0E0ED4A
:10F4E000F7E03197F1F70196883C9105C1F78091DB
:10F4F000C00087FFEDCF1092050137C08FEF8093DA
:10F5000007010FC08091080180958093080180E079
:10F5100090E0E0EDF7E03197F1F70196883C910536
:10F52000C1F78091C00087FFEDCF109208011DC088
:10F530008FEF80930A010FC080910B01809580931B
:10F540000B0180E090E0E0EDF7E03197F1F70196F4
:10F55000883C9105C1F78091C00087FFEDCF1092E4
:10F560000B0103C085E292EEEEC98091C00087FFD7
:10F57000FCCF8091C600EAC988E392EEE4C98CE131
:10F5800091EEE1C988249924933011F1943028F444
:10F59000913089F09230B8F408C0953061F195301F
:10F5A000F0F0963009F048C043C02B3109F042C951
:10F5B00091E06BE13FC96227C15DDE4F2883CF52E6
:10F5C000D14092E037C9B22FA0E0622793E032C960
:10F5D000822F90E0A82BB92B622794E02BC92E3004
:10F5E00009F039C3622795E0C05DDE4F19821882A9
:10F5F000C053D1401FC9E1E0F0E0EC0FFD1FC05D3A
:10F60000DE4F08811981C053D140E00FF11F2083E4
:10F610000F5F1F4FC05DDE4F19830883C053D14079
:10F6200062270A171B0709F005C9D80196E002C92D
:10F63000261709F010C303C0973009F0FBC87724E0
:10F640009981933109F412C19431C8F4963009F4C8
:10F65000D8C0973050F4923009F406C1933009F4C1
:10F660006DC0913009F059C253C0913109F477C08F
:10F67000923108F0BBC0903109F04FC2F5C098310B
:10F6800009F487C0993150F4953109F4EFC09531F0
:10F6900008F4C6C1963109F040C2C2C19A3109F4DA
:10F6A0006CC09A3108F491C09B3109F45BC09D3164
:10F6B00009F033C29D81903359F48F81882311F46E
:10F6C0009EE11CC0813011F091E018C098E916C08D
:10F6D000892F807591F0903539F4E0E0F0E089E011
:10F6E0008093570094910AC0983539F4E3E0F0E034
:10F6F00089E080935700949101C090E01A821B82A8
:10F700008D818C831D829E831F8227E030E009C299
:10F710001A8288E08B8381E48C8386E58D8382E581
:10F720008E8389E48F8383E5888780E589878FE5E9
:10F730008A8782E38B872BE030E0F3C18A818139AD
:10F7400041F0823941F0803911F48FE005C080E04A
:10F7500003C082E001C08AE01A828B8344C0772410
:10F76000739482C08D81882311F48EE12CC0813086
:10F7700011F081E028C088E926C01A82E1E0F0E0BB
:10F7800089E08093570084918B831C8224E030E0D1
:10F79000C8C18B81803589F48C81883039F4E2E0EE
:10F7A000F0E089E08093570084910DC0E0E0F0E044
:10F7B00089E080935700849106C0E3E0F0E089E09F
:10F7C0008093570084911A82DFCF8D81836C99E0FA
:10F7D000E1E0F0E0082E90935700E89507B600FCB2
:10F7E000FDCF1A821B8223E030E09BC180EC8A832C
:10F7F000CE5CDE4F188219821A821B82C253D1401E
:10F800008EC18A8190E0A0E0B0E0582F44273327D2
:10F8100022278B8190E0A0E0B0E0DC0199278827C7
:10F82000282B392B4A2B5B2B8D8190E0A0E0B0E098
:10F83000282B392B4A2B5B2B8C8190E0A0E0B0E089
:10F84000BA2FA92F982F8827282B392B4A2B5B2BCF
:10F85000220F331F441F551FC05EDE4F288339839C
:10F860004A835B83C052D1401A8259C13A81C95C34
:10F87000DE4F3883C753D140CA5CDE4F1882C6536F
:10F88000D1408B81C82EDD24CA5CDE4F488159816E
:10F89000C653D140C42AD52A933109F082C0CE5C28
:10F8A000DE4F88819981AA81BB81C253D1408050AB
:10F8B000904CA340B04030F583E0CE5CDE4FE88052
:10F8C000F9800A811B81C253D140F70100935B008C
:10F8D00080935700E89507B600FCFDCFCE5CDE4F65
:10F8E000088119812A813B81C253D14000501F4FAA
:10F8F0002F4F3F4FCE5CDE4F088319832A833B8313
:10F90000C253D140C05EDE4F488159816A817B81FC
:10F91000C052D140DE011B9631E08C9111962C91A2
:10F9200011971296C75CDE4F2883C953D140C85C3B
:10F93000DE4F1882C853D14090E0C85CDE4FE881AA
:10F94000F981C853D1408E2B9F2B0C01FA01609393
:10F950005B0030935700E89511244E5F5F4F6F4F67
:10F960007F4F0EEFE02E0FEFF02ECE0CDF1CC114F8
:10F97000D10499F685E0C05EDE4F088119812A81A5
:10F980003B81C052D140F80120935B008093570027
:10F99000E89507B600FCFDCF81E180935700E8951C
:10F9A00035C0C05EDE4F88819981AA81BB81C0527B
:10F9B000D140B695A795979587957C018601ABE0D8
:10F9C000AA2EB12CAC0EBD1E0BC0D5016D915D01F0
:10F9D000C7010F947FFE0894E11CF11C01501040F8
:10F9E0000115110591F7A60160E070E0440F551F65
:10F9F000661F771FC05EDE4FE880F9800A811B8199
:10FA0000C052D1404E0D5F1D601F711F1A82C05E33
:10FA1000DE4F488359836A837B83C052D1407FC0C5
:10FA2000FA80C55CDE4FF882CB53D140C65CDE4F16
:10FA30001882CA53D1408B81C82EDD24C65CDE4FAC
:10FA400008811981CA53D140C02AD12A1A828981DA
:10FA5000BE016D5F7F4F843121F59601C05EDE4FA0
:10FA6000E880F9800A811B81C052D1400BBFF701A9
:10FA700087919691DB018C9311969C936E5F7F4FDB
:10FA8000D801C7010296A11DB11DC05EDE4F88835B
:10FA90009983AA83BB83C052D14022503040F1F6F3
:10FAA00036C0C05EDE4F288139814A815B81C052F9
:10FAB000D1400894C108D108760100E010E0089414
:10FAC000C11CD11C0894E11CF11C011D111DE20E8A
:10FAD000F31E041F151F21BDBB27A52F942F832FB5
:10FAE00082BD2F5F3F4F4F4F5F4FF89A80B5DB01CC
:10FAF0008D93BD012E153F054007510761F7C05E8C
:10FB0000DE4F288339834A835B83C052D1409601FC
:10FB10002D5F3F4FFB01108204C080EC8A8322E0FE
:10FB200030E08BE18093C6008091C00086FFFCCF5F
:10FB30008091C00080648093C000C15DDE4FF88179
:10FB4000CF52D140F093C6008091C00086FFFCCF19
:10FB50008091C00080648093C000432F3093C60022
:10FB60008091C00086FFFCCF8091C00080648093AC
:10FB7000C000922F2093C6008091C00086FFFCCF6A
:10FB80008091C00080648093C0008EE08093C600A6
:10FB90008091C00086FFFCCF8091C000806480937C
:10FBA000C00065E1C15DDE4FE880CF52D1406E25D7
:10FBB00069276427FE01319610C090819093C6009A
:10FBC0008091C00086FFFCCF31968091C000806498
:10FBD0008093C0006927215030402115310569F715
:10FBE0006093C6008091C00086FFFCCF8091C0006A
:10FBF00080648093C00085B1805885B9772081F4F6
:10FC0000C15DDE4F0881CF52D1400F5FC15DDE4F35
:10FC10000883CF52D14090E0A0E0B0E00D941AF4F8
:10FC200027982F9880E090E020ED37E0F901319798
:10FC3000F1F7019684369105C9F700008091C00064
:10FC40008D7F8093C00081E180935700E895EE2777
:10FC5000FF270994FFCF90E00D941AF497FB092E2B
:10FC600007260AD077FD04D02ED006D000201AF443
:10FC7000709561957F4F0895F6F7909581959F4F08
:10FC80000895A1E21A2EAA1BBB1BFD010DC0AA1FDD
:10FC9000BB1FEE1FFF1FA217B307E407F50720F0F5
:10FCA000A21BB30BE40BF50B661F771F881F991F70
:10FCB0001A9469F760957095809590959B01AC01B9
:10FCC000BD01CF010895AA1BBB1B51E107C0AA1FAC
:10FCD000BB1FA617B70710F0A61BB70B881F991FED
:10FCE0005A95A9F780959095BC01CD010895F99991
:10FCF000FECF92BD81BDF89A992780B50895262F31
:10FD0000F999FECF1FBA92BD81BD20BD0FB6F89400
:0EFD1000FA9AF99A0FBE01960895F894FFCF63
:00000001FF
