:100000000C942D020C945E020C945E020C945E0221
:100010000C945E020C945E020C945E020C945E02E0
:100020000C945E020C945E020C945E020C945E02D0
:100030000C945E020C945E020C945E020C945E02C0
:100040000C945E020C945E020C945E020C945E02B0
:100050000C945E020C945E020C945E020C94500BA5
:100060000C945E020C94C40B0C949A0B0C945E02DC
:100070000C945E020C945E020C945E020C945E0280
:100080000C945E020C945E020C945E020C945E0270
:100090000C945E020C945E020C945E020C94FA0BBB
:1000A0000C945E020C945E020C945E020C945E0250
:1000B0000C945E020C945E020C945E020C945E0240
:1000C0000C945E020C945E020C945E020C945E0230
:1000D0000C945E020C945E020C945E020C945E0220
:1000E0000C945E020C94160B0C944C050C94ED02CF
:1000F0000C9420080C9460050C94DF020C94E90227
:100100000C94B6020C94A6050C94C4020C94DD0663
:100110000C94BC020C94B4060C943D050C94F702AC
:100120000C9410050C94FB020C944B060C94DB020F
:100130000C94DD080C94C0020C94D1020C94F602CD
:100140000C94B3060C94C8020C946E050C940A0728
:100150000C94C3060C941A0D0C94CB020C94D5028B
:100160000C94D6060C94F3050C94F1020C944C06F6
:100170000C94E3025B4248313735305D20455252E2
:100180004F523A20756E646566696E6564206572CB
:10019000726F72005B4248313735305D20455252F4
:1001A0004F523A206F74686572206572726F7200E8
:1001B0005B4248313735305D204552524F523A202C
:1001C0007265636569766564204E41434B206F6EAE
:1001D000207472616E736D6974206F66206461743F
:1001E00061005B4248313735305D204552524F52F5
:1001F0003A207265636569766564204E41434B2001
:100200006F6E207472616E736D6974206F66206109
:10021000646472657373005B4248313735305D202A
:100220004552524F523A20746F6F206C6F6E6720A8
:10023000666F72207472616E736D69742062756688
:10024000666572005B4248313735305D2045525259
:100250004F523A20756E646566696E6564206572FA
:10026000726F72005B4248313735305D2045525223
:100270004F523A206F74686572206572726F720017
:100280005B4248313735305D204552524F523A205B
:100290007265636569766564204E41434B206F6EDD
:1002A000207472616E736D6974206F66206461746E
:1002B00061005B4248313735305D204552524F5224
:1002C0003A207265636569766564204E41434B2030
:1002D0006F6E207472616E736D6974206F66206139
:1002E000646472657373005B4248313735305D205A
:1002F0004552524F523A20746F6F206C6F6E6720D8
:10030000666F72207472616E736D697420627566B7
:10031000666572005B4248313735305D2044657652
:10032000696365206973206E6F7420636F6E666900
:100330006775726564210000002100240027002AEF
:10034000002D003000330001010000040107010A04
:100350000100002200250028002B002E003100346F
:100360000002010000050108010B0100000A0B0258
:10037000090C0D0E08070304010000000000000036
:10038000000000000000000000000000000000006D
:10039000000000000000001211100000000000002A
:1003A000000000000000000000000000000000004D
:1003B00000000020002300260029002C002F00321E
:1003C00000000100000301060109010505050507FC
:1003D0000508080808020202020A0A0808040404C0
:1003E00004010101010101010103030303030303EC
:1003F00003040707070C0C0C0C0C0C0C0C0202027B
:100400000206060606060606060B0B0B0B0B0B0B6D
:100410000B0102102020080810204010204080020C
:10042000010201080402010102040810204080803A
:1004300040201008040201800402018040201008BE
:100440000402010804020101020408102040800196
:1004500002040810204080001A0D11241FBECFEFA7
:10046000D1E2DEBFCDBF00E00CBF12E0A0E0B2E001
:10047000E8EEFCE200E00BBF02C007900D92A83D41
:10048000B107D9F724E0A8EDB2E001C01D92AD3864
:10049000B207E1F712E0CDE2D2E000E006C021971A
:1004A0000109802FFE010E943115CC32D10780E076
:1004B0000807A9F70E94BC0D0C9472160C9400005A
:1004C000CF92DF92EF92FF92CF93DF93B0917D04B2
:1004D000A0E08111AB2F80917E0490E0880F991FDE
:1004E000AC014F545C4FC0908304D0908404E090E2
:1004F0008504F090860430E020E0FA01C591D491A3
:10050000E881B90190E080E0EB23EA130AC02F5F95
:100510003F4F6C157D058E059F0578F36FEF7FEFDC
:10052000CB01DF91CF91FF90EF90DF90CF900895B6
:100530008150823108F05AC0E82FF0E08827EC554E
:10054000FD4F8F4F0C943115C402C802B602BC0295
:10055000C002F602CB02D102D502DB02DF02E302C7
:10056000E902ED02F602F102F702FB02809180003F
:100570008F77809380000895809180008F7DF9CFE0
:1005800080918000877FF5CF84B58F7784BD0895F3
:1005900084B58F7DFBCF8091B0008F778093B000C2
:1005A00008958091B0008F7DF9CF809190008F7772
:1005B000809390000895809190008F7DF9CF809175
:1005C0009000877FF5CF8091A0008F778093A00067
:1005D00008958091A0008F7DF9CF8091A000877F42
:1005E000F5CF809120018F7780932001089580912D
:1005F00020018F7DF9CF80912001877FF5CFCF93A8
:10060000DF93282F30E0F901E559FC4F8491F9017F
:10061000EF5EFB4FD491F901E553FC4FC491CC231D
:10062000A1F081110E949802EC2FF0E0EE0FFF1F65
:10063000EF54FC4FA591B491EC91ED2381E090E053
:1006400009F480E0DF91CF91089580E090E0FACF47
:100650001F93CF93DF93282F30E0F901E559FC4F2A
:100660008491F901EF5EFB4FD491F901E553FC4F02
:10067000C491CC23A9F0162F81110E949802EC2F6F
:10068000F0E0EE0FFF1FEF5AFC4FA591B4918FB72A
:10069000F894EC91111108C0D095DE23DC938FBF44
:1006A000DF91CF911F910895DE2BF8CFCF93DF9389
:1006B00090E0FC01EF5EFB4F249185539C4FFC01C1
:1006C00084918823C9F090E0880F991FFC01E95CB0
:1006D000FC4FA591B491FC01EF5AFC4FC591D49108
:1006E00061110DC09FB7F8948C91209582238C9353
:1006F0008881282328839FBFDF91CF91089562309E
:1007000051F49FB7F8943C91822F809583238C936A
:10071000E8812E2BEFCF8FB7F894EC912E2B2C93F2
:100720008FBFEACF90917B00977F90937B00865399
:10073000806480937C0080917A00806480937A004A
:1007400080917A0086FDFCCF8091780090917900AD
:1007500008953FB7F8948091920390919303A091EC
:100760009403B091950326B5A89B05C02F3F19F0BF
:100770000196A11DB11D3FBFBA2FA92F982F882721
:10078000BC01CD01620F711D811D911D42E0660FFC
:10079000771F881F991F4A95D1F708958F929F92CE
:1007A000AF92BF92CF92DF92EF92FF926B017C01EA
:1007B0000E94A9034B015C01C114D104E104F104BE
:1007C000B9F00E94A903681979098A099B09683E52
:1007D00073408105910580F321E0C21AD108E10838
:1007E000F10888EE880E83E0981EA11CB11CE4CFAE
:1007F000FF90EF90DF90CF90BF90AF909F908F9041
:100800000895CF92DF92EF92FF920F931F93CF93B1
:10081000DF93CDB7DEB7C054D1400FB6F894DEBF3A
:100820000FBECDBF2FB7F894809196039091970398
:10083000A0919803B09199032FBF40917F045091EC
:10084000800460918104709182048C019D01041BDD
:10085000150B260B370BB901A801403D5740610528
:10086000710590F480918704C05CDE4F0FB6F89458
:10087000DEBF0FBECDBFDF91CF911F910F91FF90D3
:10088000EF90DF90CF90089580937F049093800441
:10089000A0938104B093820410927A041092790498
:1008A00010927804109277041092760462E080919E
:1008B0007B040E94560361E070E080E090E00E94BB
:1008C000CE0361E080917B040E94560360E080913A
:1008D0007B040E94280380917C048551823020F59E
:1008E0008BE291E10197F1F762E080917B040E9435
:1008F00056038091880490E08230910538F0880F8B
:10090000991F880F991F05970197F1F7F89480E0D8
:100910000E9460026F3F7F4F8F4F9F4F61F4109294
:100920008704789480E0A0CF64E170E080E090E0FC
:100930000E94CE03D9CF81E00E9460026F3F7F4FBB
:100940008F4F9F4F61F38E010F5F1F4F6E018FEB33
:10095000C81A8EEFD80A780180E00E946002F70181
:10096000608371838283938381E00E946002F70138
:100970006483758386839783F8E0EF0EF11CEC1493
:10098000FD0451F7789430E020E0F801C080D18078
:10099000E280F3804481558166817781FFEFCF1635
:1009A000DF06EF06FF0631F04F3F8FEF580768076D
:1009B000780719F410928704B5CFF90183E0F59513
:1009C000E7958A95E1F7EA58FB4F8081880FC416B6
:1009D000D506E606F70610F180832F5F3F4F085FCC
:1009E0001F4F2832310589F640917A042091760410
:1009F00080917704280F3327331F80917804280FC4
:100A0000311D80917904820F932F911D99274817EA
:100A1000190681F681E08093870426CF8160DCCFC0
:100A2000AF92BF92CF92DF92EF92FF920F931F93FC
:100A3000CF93DF936C017B018B01040F151FEB013A
:100A40005E01AE18BF08C017D10759F06991D601F1
:100A5000ED91FC910190F081E02DC6011995892B53
:100A600079F7C501DF91CF911F910F91FF90EF9022
:100A7000DF90CF90BF90AF900895FC01538D448DCF
:100A8000252F30E0842F90E0821B930B541710F039
:100A9000CF96089501970895FC01918D828D981746
:100AA00061F0A28DAE0FBF2FB11D5D968C91928D1E
:100AB0009F5F9F73928F90E008958FEF9FEF08954F
:100AC000FC01918D828D981731F0828DE80FF11D18
:100AD000858D90E008958FEF9FEF0895FC01918D33
:100AE000228D892F90E0805C9F4F821B91098F732C
:100AF000992708958AE993E00E946E0521E0892BE9
:100B000009F420E0822F0895FC01A48DA80FB92FCD
:100B1000B11DA35ABF4F2C91848D90E001968F7325
:100B20009927848FA689B7892C93A089B1898C9144
:100B3000837080648C93938D848D981306C0028893
:100B4000F389E02D80818F7D80830895EF92FF925D
:100B50000F931F93CF93DF93EC0181E0888F9B8DE0
:100B60008C8D98131AC0E889F989808185FF15C09A
:100B70009FB7F894EE89FF896083E889F9898081BD
:100B80008370806480839FBF81E090E0DF91CF918C
:100B90001F910F91FF90EF900895F62E0B8D10E0AE
:100BA0000F5F1F4F0F731127E02E8C8D8E110CC01D
:100BB0000FB607FCFACFE889F989808185FFF5CF68
:100BC000CE010E948405F1CFEB8DEC0FFD2FF11DBE
:100BD000E35AFF4FF0829FB7F8940B8FEA89FB89A5
:100BE00080818062CFCFCF93DF93EC01888D882303
:100BF000B9F0AA89BB89E889F9898C9185FD03C080
:100C0000808186FD0DC00FB607FCF7CF8C9185FF64
:100C1000F2CF808185FFEDCFCE010E948405E9CF20
:100C2000DF91CF91089580E090E0892B29F00E9418
:100C30007A0581110E94000080E090E0892B49F044
:100C400080E090E0892B29F00E94000081110E9431
:100C5000000080E090E0892B49F080E090E0892B53
:100C600029F00E94000081110E94000080E090E0C5
:100C7000892B49F080E090E0892B29F00E94000048
:100C800081110C9400000895DC01ED91FC9101901C
:100C9000F081E02D1994089508951F93CF93DF9369
:100CA000C1E0C093F802882399F1D091B800109167
:100CB000BA008091BC008A7B8093BC0060E084E134
:100CC0000E94280360E085E10E94280310926603D9
:100CD000C09365031092600361E084E10E942803E1
:100CE00061E085E10E9428038091B9008E7F8093A6
:100CF000B9008091B9008D7F8093B90088E480931A
:100D0000B80085E48093BC001093BA00D093B8007B
:100D1000DF91CF911F91089520911903260F33275A
:100D2000331F21323105ECF420916603FC0190E081
:100D300080E0243069F082E00895A09119032191A8
:100D4000AC0147505D4FA40FB52FB11D2C930196F8
:100D5000861798F380911903680F6093190380E058
:100D6000089581E008950895E0916D0380916C03EA
:100D7000E81730F4F0E0E259FC4F808190E00895EC
:100D80008FEF9FEF089590916D0380916C032FEF8B
:100D90003FEF981748F4E92FF0E0E259FC4F20812B
:100DA00030E09F5F90936D03C901089580916C03BB
:100DB00090916D03891B990B0895CF92DF92EF926A
:100DC000FF920F931F93CF93DF937C01CB018A0196
:100DD00020913F03222389F0EB016B01C40ED51E45
:100DE000CC15DD0569F06991D701ED91FC91019079
:100DF000F081E02DC7011995F3CF642F0E948C0676
:100E0000C801DF91CF911F910F91FF90EF90DF907C
:100E1000CF900895CF93DF931F92CDB7DEB769834C
:100E200020913F032223F9F020913C03203258F017
:100E300021E030E0FC013383228390E080E00F90DA
:100E4000DF91CF91089580913D03E82FF0E0E852C3
:100E5000FD4F998190838F5F80933D0380933C0386
:100E600081E090E0ECCF61E0CE0101960E948C061B
:100E7000F7CFCF92DF92EF92FF920F931F93CF9312
:100E8000DF93D0913C0381E0D13208F09CC0C09147
:100E90003E030E94A9036B017C01809166038111CE
:100EA0006CC082E08093660381E0809365038FEFDE
:100EB0008093640310926303D0936203A8EDB2E0C1
:100EC000E0E4F3E080E0D8138DC0109261038091DC
:100ED0006103CC0FC82BC093610380916003813004
:100EE00009F084C0109260030E94A9036B017C0189
:100EF000809161038093BB008091680390916903A6
:100F0000A0916A03B0916B03892B8A2B8B2BA1F0E4
:100F10000E94A903009168031091690320916A035C
:100F200030916B036C197D098E099F09061717070D
:100F30002807390708F442C08091BC0083FDD8CF50
:100F400085EC8093BC000E94A9036B017C01809119
:100F50006603823009F44CC0809164038F3F09F42A
:100F600069C080916403803209F466C08091640393
:100F7000803309F463C084E026C0809168039091B7
:100F80006903A0916A03B0916B03892B8A2B8B2B89
:100F900009F483CF0E94A9030091680310916903AB
:100FA00020916A0330916B036C197D098E099F09AA
:100FB000061717072807390708F06FCF80916703D6
:100FC0000E944D0685E010923D0310923C03109262
:100FD0003F03DF91CF911F910F91FF90EF90DF9032
:100FE000CF9008959D9191938F5F6DCF85EEA9CF9E
:100FF0008091680390916903A0916A03B0916B039B
:10100000892B8A2B8B2B09F4A2CF0E94A903009174
:1010100068031091690320916A0330916B036C1986
:101020007D098E099F09061717072807390708F059
:101030008ECFC4CF80E0C7CF82E0C5CF83E0C3CFDF
:1010400090E080E00895FF920F931F93CF93DF937A
:10105000F82E062FC7E0D0E010E061E0802F0E945C
:1010600028038F2D0E94FF020C2E01C0880F0A94C6
:10107000EAF7182B60E0802F0E942803219768F779
:10108000812FDF91CF911F910F91FF900895CF9302
:10109000DF93EC0160E08E810E94280361E08E8185
:1010A0000E94280360E08E810E9428038BE891E073
:1010B0000197F1F7DF91CF910895CF92DF92EF92F0
:1010C000FF920F931F93CF93DF936C017C0187E016
:1010D000E80EF11CD0E0C0E0062F10E0B8010C2EA5
:1010E00002C0759567950A94E2F76170F7018191E6
:1010F0007F010E9428032196C430D10579F7C601EB
:10110000DF91CF911F910F91FF90EF90DF90CF90E3
:101110000C944708CF92DF92EF92FF920F931F93A8
:10112000CF93DF93EC01F62E642F8C810E9428036D
:101130008D818F3F19F060E00E9428030F2D10E091
:101140008F8584FF25C06E0187E0C80ED11CF12C6D
:10115000E12CB8010E2C02C0759567950A94E2F750
:101160006170F60181916F010E942803FFEFEF1A71
:10117000FF0A88E0E816F10461F7CE01DF91CF9114
:101180001F910F91FF90EF90DF90CF900C94470844
:10119000B80184E0759567958A95E1F7CE010E94C4
:1011A0005D086F2DCE01DF91CF911F910F91FF90C0
:1011B000EF90DF90CF900C945D0841E00E948A0888
:1011C00081E090E0089540E0682F83E494E00C947F
:1011D0008A0881E00E94E3088BE39FE10197F1F721
:1011E0000895CF93DF93823029F490915204986050
:1011F00090935204809356041092570480E4809395
:10120000580480E18093590480E580935A0461E09A
:10121000809147040E945603809148048F3F19F043
:1012200061E00E94560361E0809149040E945603E8
:10123000C3E4D4E09E01235434408091520484FDE1
:101240000BC084E090E021962817390744F461E050
:101250008E810E945603EECF88E090E0F4CF8BE3BE
:101260009DE00197F1F760E0809147040E94280318
:1012700060E0809149040E942803809148048F3FD8
:1012800019F060E00E9428038091520484FD34C06C
:1012900063E083E494E00E945D08CBE4D6E4CE01F1
:1012A0000197F1F763E083E494E00E945D082197E1
:1012B000F1F763E083E494E00E945D0883E592E047
:1012C0000197F1F762E083E494E00E945D08809169
:1012D000520480620E94E30884E0809353048CE00F
:1012E0000E94E3080E94E90882E08093540486E0AB
:1012F000DF91CF910C94E30880620E94E3088BE4B5
:1013000096E40197F1F78091520480620E94E3080D
:1013100083E592E00197F1F78091520480620E9488
:10132000E308D5CF90915604891710F08FEF890FFD
:10133000E82FF0E0ED5BFB4F848980680C94E308B4
:10134000FB0101900020E9F73197AF01461B570BD5
:10135000DC01ED91FC910280F381E02D19948F92D4
:101360009F92AF92BF920F931F93CF93DF93CDB70E
:10137000DEB7A1970FB6F894DEBF0FBECDBF19A29E
:10138000423008F44AE08E010F5D1F4F842E912CED
:10139000B12CA12CA50194010E940F15E62FB901D3
:1013A000CA01EA3004F5E05DD801EE938D01232BEC
:1013B000242B252B79F790E080E0109729F0BD01D0
:1013C00083E494E00E94A009A1960FB6F894DEBFD2
:1013D0000FBECDBFDF91CF911F910F91BF90AF9006
:1013E0009F908F900895E95CDFCFCF92DF92EF92CC
:1013F000FF926B017C0141E06DE283E494E00E9486
:101400008A0866277727CB016C197D098E099F0909
:101410004AE00E94AF090196FF90EF90DF90CF90D5
:101420000895BC0183E494E00C94A0090F931F93EA
:10143000CF93DF938C01D0E0C0E0F801EC0FFD1FEB
:101440006491662341F08AE993E00E94A605892B06
:1014500011F02196F2CF6EE372E08AE993E00E94E8
:10146000A0098C0F9D1FDF91CF911F910F910895BF
:101470004F925F926F927F928F929F92AF92BF92A4
:10148000CF92DF92EF92FF920F931F93CF936B0156
:101490007C01742EAC019B010E94F61461E472E0A1
:1014A000811126C046015701E894B7F82FEF3FEFAE
:1014B0004FE75FE7C501B4010E94F61481110CC02B
:1014C0002FEF3FEF4FE75FE7C501B4010E942C13F8
:1014D00065E472E0181664F02FEF3FEF4FE75FE42A
:1014E000C701B6010E9484141816ACF469E472E0D6
:1014F00083E494E0CF911F910F91FF90EF90DF90E4
:10150000CF90BF90AF909F908F907F906F905F90A3
:101510004F900C94A0092FEF3FEF4FE75FECC7010E
:10152000B6010E942C1387FDE1CF20E030E0A90135
:10153000C701B6010E942C1310E000E087FF0CC029
:1015400041E06DE283E494E00E948A08F7FAF094A7
:10155000F7F8F09401E010E0C0E060E070E080E0B7
:101560009FE37C1641F020E030E040E251E40E942D
:101570003113CF5FF6CFA70196010E94C0124B0135
:101580005C010E94A3132B013C014AE00E94AF09B9
:10159000080F191FCC23C9F1C301B2010E94D21355
:1015A0009B01AC01C501B4010E94BF124B015C015B
:1015B00041E06EE283E494E00E948A080F5F1F4FCF
:1015C000C15018F120E030E040E251E4C501B4011F
:1015D0000E9489142B013C010E94A3134B01B12CE2
:1015E000A12C4AE0C501B4010E94AF09080F191FE0
:1015F000C501B4010E94D2139B01AC01C301B20129
:101600000E94BF124B015C01DBCFC801CF911F913B
:101610000F91FF90EF90DF90CF90BF90AF909F9091
:101620008F907F906F905F904F9008950C94E91584
:1016300085ED8093BC008091680390916903A0912F
:101640006A03B0916B030796A11DB11D23E0B69507
:10165000A795979587952A95D1F72091BC0024FDF1
:1016600003C0109266030895409168035091690386
:1016700060916A0370916B03452B462B472B69F3EE
:101680000097A105B10541F02AE22A95F1F700C0C3
:101690000197A109B109E1CF809167030C944D0630
:1016A0001F920F920FB60F9211242F933F938F9397
:1016B0009F93AF93BF938091960390919703A091CE
:1016C0009803B09199033091910323E0230F2D37B4
:1016D00058F50196A11DB11D2093910380939603A7
:1016E00090939703A0939803B093990380919203EA
:1016F00090919303A0919403B09195030196A11D3D
:10170000B11D8093920390939303A0939403B0939D
:101710009503BF91AF919F918F913F912F910F9022
:101720000FBE0F901F90189526E8230F0296A11D5B
:10173000B11DD2CF1F920F920FB60F9211240BB68C
:101740000F922F933F934F935F936F937F938F935A
:101750009F93AF93BF93EF93FF938AE993E00E9427
:101760008405FF91EF91BF91AF919F918F917F91F0
:101770006F915F914F913F912F910F900BBE0F9002
:101780000FBE0F901F9018951F920F920FB60F92D9
:1017900011240BB60F922F938F939F93EF93FF9388
:1017A000E091AA03F091AB038081E091B003F09146
:1017B000B10382FD1DC090818091B3038F5F8F7351
:1017C0002091B403821741F0E091B303F0E0E656B4
:1017D000FC4F958F8093B303FF91EF919F918F9171
:1017E0002F910F900BBE0F900FBE0F901F9018956A
:1017F0008081F2CF1F920F920FB60F9211240BB679
:101800000F922F933F934F935F936F937F938F9399
:101810009F93AF93BF93EF93FF938091B900887F1D
:10182000803609F44DC008F040C0883209F4A7C0E2
:1018300028F5803109F49BC0C8F4882309F4F7C067
:10184000883009F494C0FF91EF91BF91AF919F91BF
:101850008F917F916F915F914F913F912F910F9059
:101860000BBE0F900FBE0F901F901895883109F492
:1018700086C0803241F78093640314C0803409F439
:101880009BC040F48033B9F38833E9F68093640356
:1018900085ECAEC0803509F483C0883509F494C066
:1018A000883489F60E94180BCECF883909F48AC093
:1018B00038F5883729F050F4883611F0803719F65A
:1018C00083E08093660310923B0355C0883809F487
:1018D00079C0803919F0803809F0B5CF80913B0389
:1018E000803208F06FC0E0913B0381E08E0F80935F
:1018F0003B038091BB00F0E0E55EFC4F80833BC082
:10190000803B39F0D0F4803A09F477C0883A09F086
:101910009ACF84E08093660310921A031092190301
:10192000F0E0E0E019958091190381110FC081E08A
:10193000809319031092F90209C0803C09F4A8CFE2
:10194000883C09F4A5CF883B09F07DCFE0911A03CC
:1019500081E08E0F80931A03F0E0E750FD4F808105
:101960008093BB0090911A038091190329C0809144
:1019700061038093BB0085EC8093BC0064CF9091A1
:10198000630380916203981758F5E091630381E047
:101990008E0F80936303F0E0E05CFC4F8081E9CF21
:1019A000E091630381E08E0F809363038091BB001D
:1019B000F0E0E05CFC4F80839091630380916203D0
:1019C0009817C8F285E8D8CFE091630381E08E0FC5
:1019D000809363038091BB00F0E0E05CFC4F808368
:1019E0008091650381115ECF81E08093600384EA7A
:1019F0008093BC001092660326CF85EC8093BC00D8
:101A00001092660380913B03803230F4E0913B03F7
:101A1000F0E0E55EFC4F108260913B0370E08BE1EB
:101A200093E0F0E0E0E0199510923B030CCF1092A8
:101A3000640338CFCF93DF93EAE9F3E01382128295
:101A400088EE93E0A0E0B0E084839583A683B7831B
:101A50002AE032E03183208325EC30E0358724878B
:101A600024EC30E03787268720EC30E0318B208B68
:101A700021EC30E0338B228B22EC30E0358B248B51
:101A800026EC30E0378B268B118E128E138E148E3F
:101A9000C7E3D4E01B821A828C839D83AE83BF830D
:101AA0008CE192E099838883A6E7B4E083E0159601
:101AB0008C93159786E116968C931697E4E1F4E0E3
:101AC000E4911796EC931797EEECF3E0E4911896F7
:101AD000EC93189740E85EE360E070E01D964D934C
:101AE0005D936D937C935097E9E6F4E08AE392E08E
:101AF00091838083158216821782108680E090E0A1
:101B0000A0E8BFE381879287A387B487EBE5F4E081
:101B100085E481838AE999E9A9E9BFE38283938314
:101B2000A483B5831782168283E28083D187C0871E
:101B3000E3E4F4E0138212828EE292E091838083E8
:101B400086E0848382E1858387E0868388E08783DB
:101B500089E080878AE081878BE082878EE08387B7
:101B60008FE0848780E1858791E19687878781E090
:101B7000DF91CF910C94F108789484B5826084BD94
:101B800084B5816084BD85B5826085BD85B5816081
:101B900085BD80916E00816080936E0010928100FF
:101BA00080918100826080938100809181008160BA
:101BB000809381008091800081608093800080917B
:101BC000B10084608093B1008091B0008160809307
:101BD000B00080919100826080939100809191008B
:101BE000816080939100809190008160809390004B
:101BF0008091A10082608093A1008091A10081600A
:101C00008093A1008091A00081608093A0008091CA
:101C10002101826080932101809121018160809364
:101C200021018091200181608093200180917A00C0
:101C3000846080937A0080917A00826080937A0039
:101C400080917A00816080937A0080917A00806828
:101C500080937A001092C100E091AA03F091AB0347
:101C600082E08083E091A603F091A7031082E091C7
:101C7000A803F091A9038FEC80831092B203E09146
:101C8000AE03F091AF0386E08083E091AC03F09166
:101C9000AD03808180618083E091AC03F091AD035E
:101CA000808188608083E091AC03F091AD038081F6
:101CB00080688083E091AC03F091AD0380818F7DDB
:101CC000808360E082E00E94560362E080917B04A2
:101CD0000E9456032FB7F894809196039091970332
:101CE000A0919803B09199032FBF805D9740A109FF
:101CF000B10980937F0490938004A0938104B093F2
:101D0000820487E38093880485E080936B0484E0F9
:101D100080936C0461E085E00E94560360E080914E
:101D20006C040E945603D1E0D0936D0423E220930B
:101D30005B048091630490916404D0933F032093EB
:101D40003E0310923D0310923C03DC01ED91FC91A7
:101D50000190F081E02D60E11995809163049091EC
:101D600064040E943907C82F6AE070E080E090E0C8
:101D70000E94CE03C23009F49AC048F4CC2391F0FB
:101D800087EE92E0C13059F084E492E008C080E828
:101D900092E0C33021F084E692E0C430A9F70E94BB
:101DA000160A8BC080E190E09093620480936104F6
:101DB0002FB7F8948091960390919703A091980380
:101DC000B09199032FBF8093650490936604A0930C
:101DD0006704B09368048091630490916404209137
:101DE0005B04D0933F0320933E0310923D03109277
:101DF0003C0362E470E00E94440680916304909189
:101E000064040E943907C82F809163049091640490
:101E100020915B04D0933F0320933E0310923D0337
:101E200010923C0365E670E00E94440680916304D2
:101E3000909164040E943907C82B809163049091AB
:101E4000640420915B04D0933F0320933E031092DF
:101E50003D0310923C0360916104709162040E9402
:101E6000440680916304909164040E943907C82B52
:101E70006AE070E080E090E00E94CE03C23009F496
:101E80006BC050F4CC23B1F087E192E0C13009F48B
:101E900086CF84E791E083CF80EB91E0C33009F4F3
:101EA0007ECF84E991E0C43009F479CFF2CF82EBA0
:101EB00092E075CF85E480935C0482E00E94F10893
:101EC0000E94E9088EE592E00E94110A60ED77E039
:101ED00080E090E00E94CE030E94E908A6E0AA2ECE
:101EE000B12CC1E033243A94B5EE8B2ED5EC9D2E67
:101EF00086E30E9492037C0180918E0390918F0370
:101F0000B0E9EB16B1E0FB0654F520919003019681
:101F1000222379F180E9E81A81E0F80AA9ECEA16AF
:101F2000F10410F41092900380918E0390918F032E
:101F30008230910509F480C044F5009709F44BC044
:101F4000019709F45FC068EC70E080E090E00E94C7
:101F5000CE030E941306CCCF82EE91E020CF29E57C
:101F6000E21622E0F206B4F2209190032111D2CFC2
:101F70000596B5010E94FB1490938F0380938E0306
:101F8000C09390030E94E908C5CF8430910509F4FD
:101F900048C10CF42FC10597B1F680E00E94920968
:101FA00082EC92E00E94110A81E00E9492098091E5
:101FB0006C040E94FF02892B09F0DEC280916C0440
:101FC0000E94FF02892B09F48CC260E070E0CB0113
:101FD0000E94CE03F3CF80E00E9492098EE692E049
:101FE0000E94110A81E00E94920982E00E94FF0291
:101FF000892B29F08DE492E00E94110AA4CF85E597
:1020000092E0FACF80E00E9492098DE792E00E9470
:10201000110A81E00E94920989E892E00E94110A67
:1020200086E30E949203BC01990F880B990B97FFDE
:102030009FC20E94F50987CF0E940104882349F0BE
:1020400080917C048B3028F08D3050F085518230A7
:10205000C0F1412C512CF0EC6F2EFFE77F2E1EC0FB
:102060006091770470E090E080E00E94D4132DEC42
:102070003CEC4CEC5DE30E9489146B017C016091A7
:10208000760470E090E080E00E94D4139B01AC01E4
:10209000C701B6010E94C0122B013C010E9401043D
:1020A000882341F080917C048C3009F47EC0D8F400
:1020B0008B3091F1C12CD12C60ECE62E6FE7F62E1F
:1020C00055C060917604709177047627672776274C
:1020D00090E080E00E94D2132DEC3CEC4CEC5DE3F0
:1020E0000E948914D9CF8551823020F7D09178048D
:1020F0006D2F70E0762F662766277F7780917904B1
:10210000682B90E080E00E94D2132DEC3CEC4CEC6C
:102110005DE30E94891465C06091780470E090E0EE
:1021200080E00E94D2136B017C01D0917904D7FF2B
:102130000AC0AC019B0160E070E080E89FEB0E9468
:10214000BF126B017C01DF706D2F70E090E080E0CA
:102150000E94D4132DEC3CEC4CEC5DE30E948914FE
:10216000A70196010E94C0126B017C0180E00E94D1
:10217000920981E992E00E94110A42E0C701B6018A
:102180000E94380A88E992E00E94110A81E00E94C8
:1021900092098AE992E00E94110A42E0C301B20169
:1021A0000E94380A80EA92E027CFD09178046D2F00
:1021B00070E090E080E00E94D2136B017C0160919E
:1021C00079046F7070E090E080E00E94D4132DECF1
:1021D0003CEC4CEC5DE30E948914A70196010E943F
:1021E000C0126B017C01D7FFC1CFF7FAF094F7F86A
:1021F000F094BCCF87E30E9492037C0180E00E94B0
:10220000920982EA92E00E94110A81E00E949209FA
:1022100089E892E00E94110AB701FF0C880B990B24
:1022200006CF8091610490916204892BD9F484E1F6
:1022300093E00E94160AC12CD12CE12C50ECF52E13
:1022400080E00E94920981EB92E00E94110A81E0F5
:102250000E94920942E0C701B6010E94380A8EEB43
:1022600092E0CACED0915B040E94A9036B017C016D
:1022700080916603811162C0C0936603C0936503B9
:102280003092640310926303C0936203C0936103AE
:1022900080916103DD0FD82BD0936103809160039F
:1022A000813009F0F7C0109260030E94A9036B010E
:1022B0007C01809161038093BB00809168039091C1
:1022C0006903A0916A03B0916B03892B8A2B8B2B36
:1022D000A1F00E94A90340906803509069036090A8
:1022E0006A0370906B036C197D098E099F0946166D
:1022F00057066806790608F442C08091BC0083FD49
:10230000D8CF9092BC000E94A9036B017C01809100
:102310006603813009F4C1C080916303823008F004
:10232000DEC080916303E0E4F3E0AEE6B3E090E06A
:10233000981751F121912D939F5FFACF80916803F7
:1023400090916903A0916A03B0916B03892B8A2B4A
:102350008B2B09F48DCF0E94A90340906803509005
:10236000690360906A0370906B036C197D098E0994
:102370009F09461657066806790608F079CF8091BE
:1023800067030E944D0680E010926D0380936C03FA
:10239000C12CD12C40E8E42E4FEBF42E823009F50D
:1023A0008091630490916404DC01ED91FC910284BE
:1023B000F385E02D1995182F00E08091630490912A
:1023C0006404DC01ED91FC910284F385E02D199504
:1023D000802B912BBC0190E080E00E94D2136B0116
:1023E0007C012FB7F8948091960390919703A09168
:1023F0009803B09199032FBF80936504909366046E
:10240000A0936704B093680420E030E040E85FEBFD
:10241000C701B6010E942C13882309F411CF6091E3
:102420005C046534A9F070E090E080E00E94D21373
:102430009B01AC0160E070E08AE892E40E943113F5
:102440009B01AC01C701B6010E9489146B017C019C
:1024500080916104909162048132910511F041975D
:1024600051F420E030E040E05FE3C701B6010E9494
:1024700089146B017C0120915D0430915E044091D0
:102480005F0450916004C701B6010E9431136B01D3
:102490007C01D6CE8092BC0036CF809168039091AB
:1024A0006903A0916A03B0916B03892B8A2B8B2B54
:1024B00009F42DCF0E94A90340906803509069034E
:1024C00060906A0370906B036C197D098E099F09F7
:1024D000461657066806790608F019CF50CF82E0F5
:1024E00022CF7FB6F89460916B0480916C040E94B7
:1024F0002308D82F60916B0480916C040E942308FC
:10250000C82E60916B0480916C040E942308D82E21
:10251000F12CE12C80916D048E151F0479F070F080
:1025200061E080916B040E94280360E080916B045D
:102530000E942803BFEFEB1AFB0AECCF7FBE6C2D85
:1025400070E090E080E0982F872F762F66278D2B04
:102550006D29DD0FDD0BCD2ED12CF12CE12CFC2CC7
:10256000EE24DD24CC246C297D298E299F295FCD82
:102570004AE00E94AF09E7CC8DEC92E03DCD505887
:10258000BB27AA270E94D7120C944A140E943C141D
:1025900038F00E94431420F039F49F3F19F426F4D8
:1025A0000C9439140EF4E095E7FB0C943314E92FE6
:1025B0000E945B1458F3BA176207730784079507E4
:1025C00020F079F4A6F50C947D140EF4E0950B2E12
:1025D000BA2FA02D0B01B90190010C01CA01A00175
:1025E0001124FF27591B99F0593F50F4503E68F1D0
:1025F0001A16F040A22F232F342F4427585FF3CF11
:10260000469537952795A795F0405395C9F77EF4E1
:102610001F16BA0B620B730B840BBAF09150A1F02A
:10262000FF0FBB1F661F771F881FC2F70EC0BA0FB0
:10263000621F731F841F48F4879577956795B79538
:10264000F7959E3F08F0B0CF9395880F08F0992733
:10265000EE0F9795879508950E940F1408F481E076
:1026600008950E9445130C944A140E94431458F094
:102670000E943C1440F029F45F3F29F00C9433147D
:1026800051110C947E140C9439140E945B1468F35D
:102690009923B1F3552391F3951B550BBB27AA271B
:1026A00062177307840738F09F5F5F4F220F331F55
:1026B000441FAA1FA9F335D00E2E3AF0E0E832D01D
:1026C00091505040E695001CCAF72BD0FE2F29D020
:1026D000660F771F881FBB1F261737074807AB07F2
:1026E000B0E809F0BB0B802DBF01FF2793585F4F67
:1026F0003AF09E3F510578F00C9433140C947E14FC
:102700005F3FE4F3983ED4F3869577956795B79548
:10271000F7959F5FC9F7880F911D9695879597F953
:102720000895E1E0660F771F881FBB1F62177307CC
:102730008407BA0720F0621B730B840BBA0BEE1FE1
:1027400088F7E09508950E94631488F09F5798F0E9
:10275000B92F9927B751B0F0E1F0660F771F881FA6
:10276000991F1AF0BA95C9F714C0B13091F00E94C0
:102770007D14B1E008950C947D14672F782F88277D
:10278000B85F39F0B93FCCF3869577956795B395E7
:10279000D9F73EF490958095709561957F4F8F4F56
:1027A0009F4F0895E89409C097FB3EF4909580955B
:1027B000709561957F4F8F4F9F4F9923A9F0F92F07
:1027C00096E9BB279395F695879577956795B79585
:1027D000F111F8CFFAF4BB0F11F460FF1BC06F5F6B
:1027E0007F4F8F4F9F4F16C0882311F096E911C07D
:1027F000772321F09EE8872F762F05C0662371F09E
:1028000096E8862F70E060E02AF09A95660F771FB1
:10281000881FDAF7880F9695879597F90895990F8D
:102820000008550FAA0BE0E8FEEF16161706E8079A
:10283000F907C0F012161306E407F50798F0621BBB
:10284000730B840B950B39F40A2661F0232B242B90
:10285000252B21F408950A2609F4A140A6958FEFAF
:10286000811D811D089597F99F6780E870E060E001
:1028700008959FEF80EC089500240A941616170619
:1028800018060906089500240A9412161306140661
:1028900005060895092E0394000C11F4882352F0C4
:1028A000BB0F40F4BF2B11F460FF04C06F5F7F4F7C
:1028B0008F4F9F4F089557FD9058440F551F59F063
:1028C0005F3F71F04795880F97FB991F61F09F3F1D
:1028D00079F087950895121613061406551FF2CF46
:1028E0004695F1DF08C0161617061806991FF1CF96
:1028F00086957105610508940895E894BB276627BD
:102900007727CB0197F908950E940F1408F48FEFF1
:1029100008950E949C140C944A140E943C1438F0B0
:102920000E94431420F0952311F00C9433140C945E
:10293000391411240C947E140E945B1470F3959F3B
:10294000C1F3950F50E0551F629FF001729FBB27A6
:10295000F00DB11D639FAA27F00DB11DAA1F649F42
:102960006627B00DA11D661F829F2227B00DA11DF5
:10297000621F739FB00DA11D621F839FA00D611D7B
:10298000221F749F3327A00D611D231F849F600D9C
:10299000211D822F762F6A2F11249F5750409AF0C5
:1029A000F1F088234AF0EE0FFF1FBB1F661F771F51
:1029B000881F91505040A9F79E3F510580F00C941C
:1029C00033140C947E145F3FE4F3983ED4F3869561
:1029D00077956795B795F795E7959F5FC1F7FE2BBC
:1029E000880F911D9695879597F908950E940F1469
:1029F000880B990B089597FB072E16F4009407D0C7
:102A000077FD09D00E94391507FC05D03EF490955A
:102A100081959F4F0895709561957F4F0895A1E22C
:102A20001A2EAA1BBB1BFD010DC0AA1FBB1FEE1F48
:102A3000FF1FA217B307E407F50720F0A21BB30B93
:102A4000E40BF50B661F771F881F991F1A9469F70F
:102A500060957095809590959B01AC01BD01CF016B
:102A60000895EE0FFF1F881F8BBF0790F691E02D92
:102A70001994AA1BBB1B51E107C0AA1FBB1FA617B5
:102A8000B70710F0A61BB70B881F991F5A95A9F717
:102A900080959095BC01CD0108950F931F93CF931E
:102AA000DF938230910510F482E090E0E0918B0496
:102AB000F0918C0430E020E0B0E0A0E0309799F491
:102AC0002115310509F44AC0281B390B2430310582
:102AD000D8F58A819B816115710589F1FB0193838A
:102AE0008283FE0111C04081518102811381481708
:102AF0005907E0F04817590799F4109761F01296BA
:102B00000C93129713961C933296CF01DF91CF91BD
:102B10001F910F91089500938B0410938C04F4CFB0
:102B20002115310551F04217530738F0A901DB0197
:102B30009A01BD01DF01F801C1CFEF01F9CF9093F8
:102B40008C0480938B04CDCFFE01E20FF31F8193A1
:102B500091932250310939832883D7CF209189045A
:102B600030918A04232B41F4209102023091030218
:102B700030938A042093890420910002309101024D
:102B80002115310541F42DB73EB740910402509113
:102B90000502241B350BE0918904F0918A04E217A9
:102BA000F307A0F42E1B3F0B2817390778F0AC0170
:102BB0004E5F5F4F2417350748F04E0F5F1F50934D
:102BC0008A0440938904819391939FCFF0E0E0E0E1
:102BD0009CCFCF93DF930097E9F0FC0132971382EB
:102BE0001282A0918B04B0918C04ED0130E020E0C2
:102BF0001097A1F420813181820F931F20918904C5
:102C000030918A042817390709F061C0F0938A04CB
:102C1000E0938904DF91CF910895EA01CE17DF0791
:102C2000E8F54A815B819E0141155105B1F7E90143
:102C3000FB83EA8349915991C40FD51FEC17FD0717
:102C400061F4808191810296840F951FE901998337
:102C50008883828193819B838A83F0E0E0E01296EF
:102C60008D919C9113970097B9F52D913C911197F7
:102C7000CD010296820F931F2091890430918A041E
:102C80002817390739F6309751F510928C041092B5
:102C90008B04B0938A04A0938904BCCFD383C283EE
:102CA00040815181840F951FC817D90761F44E5F89
:102CB0005F4F88819981480F591F518340838A81D2
:102CC0009B81938382832115310509F0B0CFF09366
:102CD0008C04E0938B049ECFFD01DC01C0CF1382F6
:082CE0001282D7CFF894FFCF58
:102CE80000008D04800000000000A60510053D05C9
:102CF800F3056E054C056005000000000A07DD06B7
:102D08002008B306D606C306B40600000000DD0896
:102D1800100520084C06000000004B06160B0D0A93
:102D2800006E616E00696E66006F766600414354FE
:102D38004956452000494E41435449564500496E7D
:102D4800697469616C697A696E672E2E2E00546FFA
:102D58007563682053656E736F723A20004A6F7905
:102D6800737469636B20593A0056616C75653A2033
:102D78000054656D703A2000430048756D3A200094
:102D880025004D51382048322053656E736F723AD2
:102D980000496C6C756D696E616E63653A00206CF4
:102DA80078004C6F61642043656C6C3A004E6F7418
:082DB8002072656164790000DE
:00000001FF
