:020000040000FA
:100000000C944A020C947B020C947B020C947B02AD
:100010000C947B020C947B020C947B020C947B026C
:100020000C947B020C945F0D0C945F0D0C945F0D8F
:100030000C947B020C947B020C947B020C947B024C
:100040000C947B020C947B020C947B020C947B023C
:100050000C947B020C947B020C947B020C94B50CE8
:100060000C947B020C94290D0C94FF0C0C947B02D5
:100070000C947B020C947B020C947B020C947B020C
:100080000C947B020C947B020C947B020C947B02FC
:100090000C947B020C947B020C947B020C94DB0D81
:1000A0000C947B020C947B020C947B020C947B02DC
:1000B0000C947B020C947B020C947B020C947B02CC
:1000C0000C947B020C947B020C947B020C947B02BC
:1000D0000C947B020C947B020C947B020C947B02AC
:1000E0000C947B020C9459160C94D9020C9437058D
:1000F0000C9439050C9406030C9459150C9439157D
:100100000C9485060C941F150C9438050C946D0600
:100110000C9419070C94F8020C941C060C9414030C
:100120000C94D3020C9472080C9441160C94E206C1
:100130000C940A030C9426170C940E030C940317CA
:100140000C94CF050C94DD020C94F2020C945F0821
:100150000C9497050C9486060C94F8060C94EE0209
:100160000C9475050C94B5090C941A070C94FF0EA9
:100170000C94C80A0C9472170C94FC020C947B0C1F
:100180000C94E8020C9413030C9450080C9466052C
:100190000C9430050C9489050C94E5020C949F088E
:1001A0000C9400030C94E1020C9418035B42483158
:1001B0003735305D204552524F523A20756E646596
:1001C00066696E6564206572726F72005B424831C9
:1001D0003735305D204552524F523A206F74686572
:1001E00072206572726F72005B4248313735305D44
:1001F000204552524F523A207265636569766564B4
:10020000204E41434B206F6E207472616E736D6996
:1002100074206F662064617461005B424831373539
:10022000305D204552524F523A20726563656976BF
:100230006564204E41434B206F6E207472616E7373
:100240006D6974206F662061646472657373005B0E
:100250004248313735305D204552524F523A207472
:100260006F6F206C6F6E6720666F72207472616EA4
:10027000736D697420627566666572005B42483111
:100280003735305D204552524F523A20756E6465C5
:1002900066696E6564206572726F72005B424831F8
:1002A0003735305D204552524F523A206F746865A1
:1002B00072206572726F72005B4248313735305D73
:1002C000204552524F523A207265636569766564E3
:1002D000204E41434B206F6E207472616E736D69C6
:1002E00074206F662064617461005B424831373569
:1002F000305D204552524F523A20726563656976EF
:100300006564204E41434B206F6E207472616E73A2
:100310006D6974206F662061646472657373005B3D
:100320004248313735305D204552524F523A2074A1
:100330006F6F206C6F6E6720666F72207472616ED3
:10034000736D697420627566666572005B42483140
:100350003735305D20446576696365206973206EAA
:100360006F7420636F6E6669677572656421000043
:10037000002100240027002A002D00300033000156
:10038000010000040107010A0100000A0B02090C28
:100390000D0E08070304010000000000000000002B
:1003A000000000000000000000000000000000004D
:1003B000000000000012111000000000000000000A
:1003C000000000000000000000000000000000002D
:1003D0000020002300260029002C002F00320000FE
:1003E0000100000301060109010000220025002888
:1003F000002B002E0031003400020100000501082E
:10040000010B010505050507050808080802020299
:10041000020A0A080804040404010101010101019F
:10042000010303030303030303040707070C0C0C76
:100430000C0C0C0C0C02020202060606060606064E
:10044000060B0B0B0B0B0B0B0B01021020200808EB
:100450001020401020408002010201080402010126
:10046000020408102040808040201008040201800F
:100470000402018040201008040201080402010166
:10048000020408102040800102040810204080006F
:10049000FF0E721711241FBECFEFD1E2DEBFCDBF1A
:1004A00000E00CBF25E0A2E8B3E001C01D92A63A2F
:1004B000B207E1F713E0A0E0B2E0E4EEF8E300E019
:1004C0000BBF02C007900D92A238B107D9F712E016
:1004D000C9E4D2E000E006C021970109802FFE01A7
:1004E0000E942E1AC834D10780E00807A9F70E949D
:1004F0006D100C94601C0C940000CF92DF92EF9270
:10050000FF92CF93DF93B0919605A0E08111AB2FBE
:100510008091970590E0880F991FAC0141535C4F83
:10052000C0909C05D0909D05E0909E05F0909F05A1
:1005300030E020E0FA01C591D491E881B90190E062
:1005400080E0EB23EA130AC02F5F3F4F6C157D0557
:100550008E059F0578F36FEF7FEFCB01DF91CF9191
:10056000FF90EF90DF90CF9008958150823108F096
:100570005AC0E82FF0E08827EF53FD4F8F4F0C94BF
:100580002E1AE102E502D302D902DD021303E802CA
:10059000EE02F202F802FC02000306030A03130350
:1005A0000E0314031803809180008F7780938000DE
:1005B0000895809180008F7DF9CF80918000877FA2
:1005C000F5CF84B58F7784BD089584B58F7DFBCF3B
:1005D0008091B0008F778093B00008958091B00033
:1005E0008F7DF9CF809190008F7780939000089550
:1005F000809190008F7DF9CF80919000877FF5CF1B
:100600008091A0008F778093A00008958091A00032
:100610008F7DF9CF8091A000877FF5CF8091200159
:100620008F77809320010895809120018F7DF9CFED
:1006300080912001877FF5CFCF93DF93282F30E083
:10064000F901E757FC4F8491F901E75BFB4FD49127
:10065000F901ED5FFB4FC491CC23A1F081110E9401
:10066000B502EC2FF0E0EE0FFF1FE153FC4FA59118
:10067000B491EC91ED2381E090E009F480E0DF910A
:10068000CF91089580E090E0FACF1F93CF93DF934E
:10069000282F30E0F901E757FC4F8491F901E75B1F
:1006A000FB4FD491F901ED5FFB4FC491CC23A9F02E
:1006B000162F81110E94B502EC2FF0E0EE0FFF1F04
:1006C000E751FC4FA591B4918FB7F894EC911111BB
:1006D00008C0D095DE23DC938FBFDF91CF911F91AF
:1006E0000895DE2BF8CFCF93DF9390E0FC01E75B1A
:1006F000FB4F24918D5F9B4FFC0184918823C9F0AF
:1007000090E0880F991FFC01E159FC4FA591B4912D
:10071000FC01E751FC4FC591D49161110DC09FB709
:10072000F8948C91209582238C93888128232883A8
:100730009FBFDF91CF910895623051F49FB7F89435
:100740003C91822F809583238C93E8812E2BEFCFD1
:100750008FB7F894EC912E2B2C938FBFEACF90910A
:100760007B00977F90937B008653806480937C000E
:1007700080917A00806480937A0080917A0086FD6F
:10078000FCCF809178009091790008953FB7F8945C
:100790008091490490914A04A0914B04B0914C047B
:1007A00026B5A89B05C02F3F19F00196A11DB11DCC
:1007B0003FBFBA2FA92F982F8827BC01CD01620F08
:1007C000711D811D911D42E0660F771F881F991FC3
:1007D0004A95D1F708958F929F92AF92BF92CF9290
:1007E000DF92EF92FF926B017C010E94C6034B01E6
:1007F0005C01C114D104E104F104B9F00E94C60304
:10080000681979098A099B09683E73408105910539
:1008100080F321E0C21AD108E108F10888EE880EC1
:1008200083E0981EA11CB11CE4CFFF90EF90DF90F5
:10083000CF90BF90AF909F908F9008952FB7F8946E
:10084000609145047091460480914704909148045A
:100850002FBF0895CF92DF92EF92FF920F931F93D5
:10086000CF93DF93CDB7DEB7C054D1400FB6F89425
:10087000DEBF0FBECDBF0E941E04009198051091EF
:10088000990520919A0530919B056B017C01C01A56
:10089000D10AE20AF30A97018601003D17402105BB
:1008A000310590F48091A005C05CDE4F0FB6F8943E
:1008B000DEBF0FBECDBFDF91CF911F910F91FF9093
:1008C000EF90DF90CF90089560939805709399050D
:1008D00080939A0590939B05109293051092920530
:1008E000109291051092900510928F0562E0809110
:1008F00094050E94730361E070E080E090E00E9444
:10090000EB0361E0809194050E94730360E08091A5
:1009100094050E944503809195058551823020F50C
:100920008BE291E10197F1F762E0809194050E94DA
:1009300073038091A10590E08230910538F0880F13
:10094000991F880F991F05970197F1F7F89480E098
:100950000E947D026F3F7F4F8F4F9F4F61F4109237
:10096000A005789480E0A0CF64E170E080E090E0A2
:100970000E94EB03D9CF81E00E947D026F3F7F4F41
:100980008F4F9F4F61F38E010F5F1F4F6E012FEB53
:10099000C21A2EEFD20A780180E00E947D02F70190
:1009A000608371838283938381E00E947D02F701DB
:1009B0006483758386839783F8E0EF0EF11CEC1453
:1009C000FD0451F7789430E020E0F801C080D18038
:1009D000E280F3804481558166817781FFEFCF16F5
:1009E000DF06EF06FF0631F04F3F8FEF580768072D
:1009F000780719F41092A005B5CFF90183E0F595B9
:100A0000E7958A95E1F7E157FA4F8081880FC41680
:100A1000D506E606F70610F180832F5F3F4F085F8B
:100A20001F4F2832310589F64091930520918F059B
:100A300080919005280F3327331F80919105280F4F
:100A4000311D80919205820F932F911D9927481790
:100A5000190681F681E08093A00526CF8160DCCF66
:100A60008091320490913304891B990B0895089565
:100A70000895AF92BF92CF92DF92EF92FF920F93C1
:100A80001F93CF93DF936C017B018B01040F151F24
:100A9000EB015E01AE18BF08C017D10759F069918C
:100AA000D601ED91FC910190F081E02DC6011995E0
:100AB000892B79F7C501DF91CF911F910F91FF909D
:100AC000EF90DF90CF90BF90AF900895FC01538DD1
:100AD000448D252F30E0842F90E0821B930B541718
:100AE00010F0CF96089501970895FC01918D828DA5
:100AF000981761F0A28DAE0FBF2FB11D5D968C913E
:100B0000928D9F5F9F73928F90E008958FEF9FEF7C
:100B10000895FC01918D828D981731F0828DE80F38
:100B2000F11D858D90E008958FEF9FEF0895FC01F2
:100B3000918D228D892F90E0805C9F4F821B9109BF
:100B40008F739927089589E994E00E94970521E021
:100B5000892B09F420E0822F0895FC01A48DA80FB1
:100B6000B92FB11DA35ABF4F2C91848D90E00196EF
:100B70008F739927848FA689B7892C93A089B1890F
:100B80008C91837080648C93938D848D981306C0B0
:100B90000288F389E02D80818F7D80830895EF9214
:100BA000FF920F931F93CF93DF93EC0181E0888F27
:100BB0009B8D8C8D98131AC0E889F989808185FFF7
:100BC00015C09FB7F894EE89FF896083E889F98999
:100BD00080818370806480839FBF81E090E0DF919B
:100BE000CF911F910F91FF90EF900895F62E0B8DEE
:100BF00010E00F5F1F4F0F731127E02E8C8D8E11A9
:100C00000CC00FB607FCFACFE889F989808185FF0F
:100C1000F5CFCE010E94AD05F1CFEB8DEC0FFD2F8E
:100C2000F11DE35AFF4FF0829FB7F8940B8FEA89CA
:100C3000FB8980818062CFCFCF93DF93EC01888DD9
:100C40008823B9F0AA89BB89E889F9898C9185FD47
:100C500003C0808186FD0DC00FB607FCF7CF8C91D5
:100C600085FFF2CF808185FFEDCFCE010E94AD05DB
:100C7000E9CFDF91CF91089580E090E0892B29F0B2
:100C80000E94A30581110E94000080E090E0892B62
:100C900049F080E090E0892B29F00E94000081114A
:100CA0000E94000080E090E0892B49F080E090E015
:100CB000892B29F00E94000081110E94000080E031
:100CC00090E0892B49F080E090E0892B29F00E9488
:100CD000000081110C9400000895209128043091A7
:100CE00029042817390771F490912604809127046C
:100CF000981741F0E0912604F0E0EA51FC4F808122
:100D000090E008958FEF9FEF08950895EF92FF927E
:100D10000F931F93CF93DF93DC015C96ED90FC90D3
:100D20005D97E114F10479F481E090E013969C93CF
:100D30008E93129790E080E0DF91CF911F910F91F9
:100D4000FF90EF9008955196ED91FC915297509637
:100D50008C915097982F90950FB75E962C915E9737
:100D6000122F127021FD6095F8942081112319F142
:100D7000282B2083E7012197F1F728E0462F50E048
:100D8000308160FF1AC0382B3083E7012197F1F7DB
:100D9000BA0175956795215089F7112381F08081FB
:100DA000892380830FBF5C968D919C910197F1F709
:100DB00081E090E0C1CF2923DCCF3923E5CF9081BA
:100DC000892BEFCF20912804309129042817390767
:100DD00061F4809127042091260490E0805C9F4F6D
:100DE000821B91098F739927089590E080E0089500
:100DF000209128043091290428173907B9F49091DB
:100E0000260480912704981789F0E0912604F0E0E9
:100E1000EA51FC4F80812091260430E02F5F3F4F44
:100E20002F7333272093260490E008958FEF9FEFD0
:100E30000895089508952091C303260F3327331F83
:100E400021323105ECF420919304FC0190E080E024
:100E5000243069F082E00895A091C3032191AC0190
:100E60004D555C4FA40FB52FB11D2C9301968617DD
:100E700098F38091C303680F6093C30380E00895E3
:100E800081E008951092930481E08093720410929F
:100E90006D0461E084E10E94450361E085E10E9408
:100EA0004503E9EBF0E080818E7F808380818D7F38
:100EB000808388E48093B80085E48093BC00089523
:100EC000CF93DF9391E09093A2038823B9F0C09170
:100ED000B800D091BA008091BC008A7B8093BC009E
:100EE00060E084E10E94450360E085E10E944503E3
:100EF0000E944207D093BA00C093B800DF91CF910F
:100F00000895CF92DF92EF92FF920F931F93CF93AA
:100F1000DF93D82FC62F613208F098C00E94C60315
:100F20006B017C018091930481116BC081E08093FF
:100F30009304809372049FEF909371041092700455
:100F40009C0F90936F0480936E0480916E04DD0F6C
:100F5000D82BD0936E0480916D04813009F078C055
:100F600010926D040E94C6036B017C0180916E0497
:100F70008093BB008091950490919604A091970472
:100F8000B0919804892B8A2B8B2BA1F00E94C60369
:100F90000091950410919604209197043091980443
:100FA0006C197D098E099F0906171707280739074D
:100FB00008F448C08091BC0083FDD8CF85EC8093B5
:100FC000BC000E94C6036B017C01809193048130B8
:100FD00009F440C0809170048C1710F4C091700423
:100FE000EDE4F4E0A3E7B4E080E08C1355C08C2F6F
:100FF000DF91CF911F910F91FF90EF90DF90CF90F5
:1010000008958091950490919604A0919704B091D1
:101010009804892B8A2B8B2B09F484CF0E94C6035A
:1010200000919504109196042091970430919804B2
:101030006C197D098E099F090617170728073907BC
:1010400008F070CF809194040E946007C0E0CFCF79
:1010500085EEB5CF8091950490919604A091970468
:10106000B0919804892B8A2B8B2B09F4AECF0E9468
:10107000C603009195041091960420919704309135
:1010800098046C197D098E099F0906171707280710
:10109000390708F09ACFD6CF91919D938F5FA5CF56
:1010A000E091330480913204E81730F4F0E0ED5819
:1010B000FB4F808190E008958FEF9FEF089590910E
:1010C0003304809132042FEF3FEF981748F4E92F53
:1010D000F0E0ED58FB4F208130E09F5F90933304A8
:1010E000C9010895CF92DF92EF92FF920F931F9361
:1010F000CF93DF937C01CB018A012091310422231D
:1011000089F0EB016B01C40ED51ECC15DD0569F02D
:101110006991D701ED91FC910190F081E02DC7011B
:101120001995F3CF642F0E941B07C801DF91CF915F
:101130001F910F91FF90EF90DF90CF900895CF9384
:10114000DF931F92CDB7DEB769832091310422234C
:10115000F9F020912E04203258F021E030E0FC011B
:101160003383228390E080E00F90DF91CF91089548
:1011700080912F04E82FF0E0EE57FC4F9981908387
:101180008F5F80932F0480932E0481E090E0ECCF5A
:1011900061E0CE0101960E941B07F7CFCF92DF924C
:1011A000EF92FF920F931F93CF93DF93D0912E0472
:1011B00081E0D13208F09CC0C09130040E94C60387
:1011C0006B017C018091930481116CC082E080935B
:1011D000930481E0809372048FEF809371041092E6
:1011E0007004D0936F04A2E8B3E0EDE4F4E080E093
:1011F000D8138DC010926E0480916E04CC0FC82B52
:10120000C0936E0480916D04813009F084C0109207
:101210006D040E94C6036B017C0180916E04809373
:10122000BB008091950490919604A0919704B09191
:101230009804892B8A2B8B2BA1F00E94C603009166
:1012400095041091960420919704309198046C199C
:101250007D098E099F09061717072807390708F423
:1012600042C08091BC0083FDD8CF85EC8093BC0048
:101270000E94C6036B017C0180919304823009F4C3
:101280004CC0809171048F3F09F469C08091710452
:10129000803209F466C080917104803309F463C020
:1012A00084E026C08091950490919604A0919704C3
:1012B000B0919804892B8A2B8B2B09F483CF0E9441
:1012C000C6030091950410919604209197043091E3
:1012D00098046C197D098E099F09061717072807BE
:1012E000390708F06FCF809194040E94600785E071
:1012F00010922F0410922E0410923104DF91CF919E
:101300001F910F91FF90EF90DF90CF9008959D91E6
:1013100091938F5F6DCF85EEA9CF809195049091C9
:101320009604A0919704B0919804892B8A2B8B2B5B
:1013300009F4A2CF0E94C60300919504109196046F
:1013400020919704309198046C197D098E099F09AA
:10135000061717072807390708F08ECFC4CF80E09B
:10136000C7CF82E0C5CF83E0C3CF90E080E008958F
:10137000DC01ED91FC910190F081E02D1994FC01CC
:10138000248131E0309331042093300410922F04F3
:1013900010922E048485682B70E086E395E00E940D
:1013A000B80986E395E00C94CE08FF920F931F9343
:1013B000CF93DF93F82E062FC7E0D0E010E061E076
:1013C000802F0E9445038F2D0E941C030C2E01C00C
:1013D000880F0A94EAF7182B60E0802F0E944503DB
:1013E000219768F7812FDF91CF911F910F91FF9087
:1013F0000895EF92FF920F931F93CF93DF93809105
:1014000085050E941C03892B31F060E070E0CB0160
:101410000E94EB03F4CFDFB7F894609184058091CC
:1014200085050E94D509082F609184058091850566
:101430000E94D509C82F60918405809185050E947E
:10144000D509182FF12CE12C809186058E151F04EB
:1014500079F070F061E0809184050E94450360E0BE
:10146000809184050E9445038FEFE81AF80AECCFBB
:10147000DFBF6C2F70E090E080E0982F872F762FF1
:101480006627802B612B000F000B10E030E020E07E
:10149000302F222711270027602B712B822B932BB3
:1014A000DF91CF911F910F91FF90EF9008950F93CF
:1014B0001F93CF938C01C62F0E94BF096C2F6460CD
:1014C000C8010E94BF096C2F6B7FC8010E94BF0931
:1014D00083EC90E00197F1F7CF911F910F91089560
:1014E0000F931F93CF93DF938C01D62FC42F607F70
:1014F000642B0E94570A80E1D89FB00111246C2B05
:10150000C801DF91CF911F910F910C94570ACF938F
:10151000DF9300D000D01F921F92CDB7DEB798E0C6
:10152000E6E0F2E0DE01119601900D929A95E1F766
:1015300090916F05981708F48FEF90E0880F991F2E
:1015400021E030E02C0F3D1F820F931FFC016081D2
:10155000606840E087E695E028960FB6F894DEBF15
:101560000FBECDBFDF91CF910C94700A40E061E0D7
:1015700087E695E00E94700A8BE39FE10197F1F7FF
:1015800080917005882319F080E00C94870A0895F3
:1015900041E00E94700A81E090E00895FB01019013
:1015A0000020E9F73197AF01461B570BDC01ED91A5
:1015B000FC910280F381E02D19948F929F92AF925B
:1015C000BF92EF92FF920F931F93CF93DF93CDB70C
:1015D000DEB7A1970FB6F894DEBF0FBECDBF7C017A
:1015E000FA01CB0119A2223008F42AE08E010F5D26
:1015F0001F4F822E912CB12CA12CBF01A50194016B
:101600000E94ED19F901CA016A300CF5605DD8013C
:101610006E938D01232B242B252B79F790E080E00E
:10162000109721F0BD01C7010E94CE0AA1960FB606
:10163000F894DEBF0FBECDBFDF91CF911F910F9108
:10164000FF90EF90BF90AF909F908F900895695C4E
:10165000DECFCF92DF92EF92FF926B017C0141E0EF
:101660006DE287E695E00E94700A44275527BA018B
:101670004C195D096E097F092AE087E695E00E9412
:10168000DD0A0196FF90EF90DF90CF900895AC01B6
:10169000990F660B770B77FF04C0CB01BA010C944E
:1016A000290B2AE087E695E00C94DD0A0F931F933F
:1016B000CF93DF938C01D0E0C0E0F801EC0FFD1F69
:1016C0006491662341F089E994E00E94CF05892B5B
:1016D00011F02196F2CF68E572E089E994E00E946A
:1016E000CE0A8C0F9D1FDF91CF911F910F9108950E
:1016F000CF93DF93BC0188E495E00E94CE0AEC0111
:1017000068E572E088E495E00E94CE0A8C0F9D1F88
:10171000DF91CF9108952F923F924F925F926F92F7
:101720007F928F929F92AF92BF92CF92DF92EF9271
:10173000FF921F93CF93DF93EC016A017B01722E1E
:10174000AB019601CB01B6010E94D4196BE572E0A2
:10175000811126C046015701E894B7F82FEF3FEFFB
:101760004FE75FE7C501B4010E94D41981110CC095
:101770002FEF3FEF4FE75FE7C501B4010E949617D7
:101780006FE572E0181664F02FEF3FEF4FE75FE46C
:10179000C701B6010E94CF191816B4F463E672E0CF
:1017A000CE01DF91CF911F91FF90EF90DF90CF900E
:1017B000BF90AF909F908F907F906F905F904F9071
:1017C0003F902F900C94CE0A2FEF3FEF4FE75FEC46
:1017D000C701B6010E94961787FDE0CF20E030E0F8
:1017E000A901C701B6010E949617312C212C87FF51
:1017F0000DC0E881F9810190F081E02D6DE2CE010C
:1018000019951C01F7FAF094F7F8F09410E060E0F5
:1018100070E080E09FE3711641F020E030E040E2AC
:1018200051E40E9427191F5FF6CFA70196010E947D
:10183000BB182B013C010E94A0194B015C012AE05E
:10184000BC01A401CE010E94DD0A7C01E20CF31C64
:101850001123E1F1C501B4010E949B179B01AC016A
:10186000C301B2010E94BA184B015C01E881F98101
:101870000190F081E02D6EE2CE011995E80EF91E7F
:10188000115020F120E030E040E251E4C501B40104
:101890000E94FC172B013C010E94A0194B01B12CA6
:1018A000A12C2AE0B501A401CE010E94DD0AE80EB8
:1018B000F91EC501B4010E949B179B01AC01C30135
:1018C000B2010E94BA184B015C01DACFC701DF9167
:1018D000CF911F91FF90EF90DF90CF90BF90AF908E
:1018E0009F908F907F906F905F904F903F902F9040
:1018F00008950C94CE0A0C94E61A85ED8093BC00F2
:101900008091950490919604A0919704B0919804C9
:101910000796A11DB11D23E0B695A79597958795CC
:101920002A95D1F72091BC0024FD03C010929304A6
:101930000895409195045091960460919704709198
:101940009804452B462B472B69F30097A105B10559
:1019500041F02AE22A95F1F700C00197A109B109E7
:10196000E1CF809194040C9460071F920F920FB600
:101970000F9211242F933F938F939F93AF93BF9315
:101980008091450490914604A0914704B091480489
:101990003091440423E0230F2D3758F50196A11D03
:1019A000B11D209344048093450490934604A09372
:1019B0004704B09348048091490490914A04A0914F
:1019C0004B04B0914C040196A11DB11D80934904B4
:1019D00090934A04A0934B04B0934C04BF91AF91F1
:1019E0009F918F913F912F910F900FBE0F901F905D
:1019F000189526E8230F0296A11DB11DD2CF1F9284
:101A00000F920FB60F9211240BB60F922F933F93A4
:101A10004F935F936F937F938F939F93AF93BF93F6
:101A2000EF93FF9389E994E00E94AD05FF91EF9158
:101A3000BF91AF919F918F917F916F915F914F91E6
:101A40003F912F910F900BBE0F900FBE0F901F90E4
:101A500018951F920F920FB60F9211240BB60F928A
:101A60002F938F939F93EF93FF93E091A904F091AD
:101A7000AA048081E091AF04F091B00482FD1DC002
:101A800090818091B2048F5F8F732091B30482178D
:101A900041F0E091B204F0E0E756FB4F958F809360
:101AA000B204FF91EF919F918F912F910F900BBEF8
:101AB0000F900FBE0F901F9018958081F2CF1F924C
:101AC0000F920FB60F9211240BB60F922F933F93E4
:101AD0004F935F936F937F938F939F93AF93BF9336
:101AE000EF93FF93E0912804F0912904309749F097
:101AF000A685B7858585968D91FF16C09C91892313
:101B0000B1F4FF91EF91BF91AF919F918F917F9130
:101B10006F915F914F913F912F910F900BBE0F905E
:101B20000FBE0F901F9018959C91892351F7A389A0
:101B3000B4899C918589809589238C93868997891E
:101B40000197F1F7608D718DA685B785558538E0D1
:101B500020E0CB010197F1F7822F90E095958795D2
:101B6000282F4C91452309F02068315091F7868D3C
:101B700081FD20958091270490E001968F7399272D
:101B800030912604381799F0A0912704B0E0AA51AB
:101B9000BC4F2C9380932704828D938D0197F1F78E
:101BA000A389B4898C919589892B8C93AACF868D32
:101BB0008160868FF1CF1F920F920FB60F92112482
:101BC0000BB60F922F933F934F935F936F937F9337
:101BD0008F939F93AF93BF93EF93FF938091B9003F
:101BE000887F803609F44DC008F040C0883209F47F
:101BF000A9C028F5803109F49DC0C8F4882309F4F0
:101C0000FBC0883009F496C0FF91EF91BF91AF916E
:101C10009F918F917F916F915F914F913F912F9104
:101C20000F900BBE0F900FBE0F901F90189588312C
:101C300009F488C0803241F78093710414C0803465
:101C400009F49DC040F48033B9F38833E9F68093FA
:101C5000710485ECB0C0803509F485C0883509F47D
:101C600096C0883489F60E947D0CCECF883909F45D
:101C70008CC038F5883729F050F4883611F0803759
:101C800019F683E0809393041092E50357C08838D7
:101C900009F47BC0803919F0803809F0B5CF809104
:101CA000E503803208F071C0E091E50381E08E0F1A
:101CB0008093E5038091BB00F0E0EB53FC4F808301
:101CC0003DC0803B39F0E0F4803A09F479C0883AAD
:101CD00009F09ACF84E0809393041092C403109289
:101CE000C303E0912A04F0912B0419958091C3035A
:101CF00081110FC081E08093C3031092A30309C038
:101D0000803C09F4A6CF883C09F4A3CF883B09F0B6
:101D10007BCFE091C40381E08E0F8093C403F0E099
:101D2000ED55FC4F80818093BB009091C40380915E
:101D3000C30329C080916E048093BB0085EC80931F
:101D4000BC0062CF9091700480916F04981758F591
:101D5000E091700481E08E0F80937004F0E0E35B0B
:101D6000FB4F8081E9CFE091700481E08E0F80937A
:101D700070048091BB00F0E0E35BFB4F80839091A7
:101D8000700480916F049817C8F285E8D8CFE0916D
:101D9000700481E08E0F809370048091BB00F0E0AE
:101DA000E35BFB4F80838091720481115CCF81E003
:101DB00080936D0484EA8093BC001092930424CF36
:101DC00085EC8093BC00109293048091E5038032EF
:101DD00030F4E091E503F0E0EB53FC4F10826091AA
:101DE000E50370E0E0912C04F0912D0485EC93E084
:101DF00019951092E50308CF1092710434CF109218
:101E00009C0410929B0488EE93E0A0E0B0E08093E5
:101E10009D0490939E04A0939F04B093A00422E19C
:101E200032E030939A042093990425EC30E030930B
:101E3000A6042093A50424EC30E03093A80420935A
:101E4000A70420EC30E03093AA042093A90421ECED
:101E500030E03093AC042093AB0422EC30E03093BC
:101E6000AE042093AD0426EC30E03093B004209310
:101E7000AF041092B2041092B3041092B404109202
:101E8000B504109239051092380580933A05909365
:101E90003B05A0933C05B0933D0524E232E030932E
:101EA00037052093360523E02093940526E12093FF
:101EB0009505ECE4F4E0E491E0939605E6E0F4E0C7
:101EC000E491E093970540E85EE360E070E04093C2
:101ED0009C0550939D0560939E0570939F0524E596
:101EE00032E030938305209382051092870510928B
:101EF00088051092890510928A0540E050E060E85C
:101F00007FE340938B0550938C0560938D05709310
:101F10008E0525E4209375054AE959E969E97FE3CF
:101F20004093760550937705609378057093790513
:101F300010927B0510927A0523E22093740526E324
:101F400035E030937D0520937C0510926A05109250
:101F5000690528E432E03093680520936705109204
:101F6000700527E220936B0520E12093710522E0A4
:101F7000209372051092730510924B0510924A053A
:101F800080934C0590934D05A0934E05B0934F055B
:101F900086E392E0909349058093480510925F058F
:101FA00010925E0510926105109260051092630513
:101FB00010926205109265051092640560916605A5
:101FC0006E7F6D7F609366056695617081E068271E
:101FD00087E00E94450361E087E00E947303E0E52B
:101FE000F4E0E491E0935805EAE0F4E0E491F0E0F5
:101FF000EE0FFF1FE751FC4F8591949190935A0586
:102000008093590560E086E00E9473038091660525
:1020100081FD04C061E086E00E94450386E0809374
:102020005405EFE4F4E0E491E0935505E9E0F4E0D1
:10203000E491F0E0EE0FFF1FE153FC4F8591949186
:1020400090935705809356051092430510924205D0
:1020500010924505109244051092470510924605CE
:102060006CE070E090E080E00E946F1B009701F14F
:1020700090934305809342052BE030E03093450573
:10208000209344052091460530914705232B11F4F8
:10209000FC0110828BE090E0909347058093460509
:1020A00067E672E080914205909143050C94591CBB
:1020B0008091420590914305009711F00E94E61A25
:1020C0001092430510924205109247051092460562
:1020D00010924505109244050895789484B5826065
:1020E00084BD84B5816084BD85B5826085BD85B5BC
:1020F000816085BD80916E00816080936E0010923A
:1021000081008091810082608093810080918100B4
:102110008160809381008091800081608093800045
:102120008091B10084608093B1008091B0008160A3
:102130008093B000809191008260809391008091A3
:1021400091008160809391008091900081608093E4
:1021500090008091A10082608093A1008091A100F5
:1021600081608093A1008091A00081608093A00095
:102170008091210182608093210180912101816001
:1021800080932101809120018160809320018091C2
:102190007A00846080937A0080917A0082608093D4
:1021A0007A0080917A00816080937A0080917A0031
:1021B000806880937A001092C100E091A904F091A8
:1021C000AA0482E08083E091A504F091A604108225
:1021D000E091A704F091A8048FEC80831092B104E1
:1021E000E091AD04F091AE0486E08083E091AB0411
:1021F000F091AC04808180618083E091AB04F09128
:10220000AC04808188608083E091AB04F091AC04E1
:10221000808180688083E091AB04F091AC04808180
:102220008F7D808310926305109262051092610584
:102230001092600510925F0510925E058DE991E0A5
:1022400090936505809364058091540596EF980FEF
:10225000943048F02EEC280F243028F022EC280F80
:10226000283008F061C02DEB30E030935F052093FB
:102270005E052BE931E030936105209360052CE287
:1022800031E03093630520936205943050F02EECDA
:10229000280F243030F022EC280FF0E0E0E0283066
:1022A00010F4E8E6F0E02081943028F032EC380FAA
:1022B000383008F4F9C031E0232B943048F09EEC1C
:1022C000980F943028F08E53F0E0E0E0883010F45E
:1022D000E8E6F0E020832091540536EF320F3430E9
:1022E00008F4E4C08EEC820F843008F4DFC082EC86
:1022F000820F883008F0DDC08DE690E090935C0599
:1023000080935B05343008F0D7C02650330B81E052
:1023100001C0880F2A95EAF780935D0580916405D6
:10232000909165050197F1F78091620590916305A1
:10233000892B49F1E0912804F091290425E0E83443
:10234000F20709F1309739F0A389B4899C91858906
:10235000809589238C93809166058E7F8093660596
:10236000109227041092260488E495E090932904A3
:1023700080932804E0915B05F0915C058081909149
:102380005D05892B808360E082E00E94730362E038
:10239000809194050E9473030E941E04605D774043
:1023A00081099109609398057093990580939A0526
:1023B00090939B0587E38093A10585E08093840536
:1023C00084E08093850561E085E00E94730360E00E
:1023D000809185050E94730381E08093860580E0EB
:1023E00090E0A0E8BFE380938B0590938C05A093C9
:1023F0008D05B0938E051AE0C12CD12C76010E9478
:10240000F909C60ED71EE81EF91E60E070E0CB0188
:102410000E94EB03115099F7C701B6012AE030E0A2
:1024200040E050E00E940F1ACA01B9010E949D17B6
:102430000E94991960938705709388058093890598
:1024400090938A0523E22093740580917C059091F6
:102450007D0501E0009331042093300410922F0495
:1024600010922E04DC01ED91FC910190F081E02DA1
:1024700060E1199580917C0590917D050E94CE08C0
:10248000182F6AE070E080E090E00E94EB031230C9
:1024900009F4AEC030F5112379F18FE193E01130EA
:1024A00041F18CE792E025C034E006CF8BE690E066
:1024B00025CF90E080E022CF88E0223309F42CCFB2
:1024C00084E0233309F428CF82E0243309F424CFB5
:1024D00082EC820F883018F42E53330B18CF81E032
:1024E0001BCF88EB92E0133021F08CE992E014309E
:1024F000C1F60E94560B82C080E190E090937B056C
:1025000080937A050E941E0460937E0570937F0578
:10251000809380059093810580917C0590917D0545
:1025200020917405009331042093300410922F04FD
:1025300010922E0462E470E00E94B80980917C053C
:1025400090917D050E94CE08182F80917C05909176
:102550007D0520917405009331042093300410927E
:102560002F0410922E0465E670E00E94B809809155
:102570007C0590917D050E94CE08182B80917C05EA
:1025800090917D05209174050093310420933004CF
:1025900010922F0410922E0460917A0570917B05A1
:1025A0000E94B80980917C0590917D050E94CE081B
:1025B000182B6AE070E080E090E00E94EB0312309C
:1025C00009F41FC250F41123B1F08FE492E01130EE
:1025D00009F48FCF8CEA91E08CCF88EE91E0133034
:1025E00009F487CF8CEC91E0143009F482CFF2CF5C
:1025F0008AEE92E07ECF85E48093750510923304D5
:102600001092320410922F0410922E040E9442075E
:1026100087E395E090932B0480932A0488E395E068
:1026200090932D0480932C0410926C058091720578
:10263000823018F098E090936C0580936F0562E308
:1026400070E080E090E00E94EB036091730587E604
:1026500095E00E94BF0968EE73E080E090E00E9480
:10266000EB0360E387E695E00E94570A0BE416E46B
:10267000C8010197F1F760E387E695E00E94570AE9
:10268000C8010197F1F760E387E695E00E94570AD9
:1026900083E592E00197F1F760E287E695E00E941A
:1026A000570A60916C05606240E087E695E00E9401
:1026B000700A84E080936D0540E06CE087E695E069
:1026C0000E94700A0E94B60A82E080936E0540E084
:1026D00066E087E695E00E94700A40E062E087E6E7
:1026E00095E00E94700A8BE39FE10197F1F788E083
:1026F0008093730560E087E695E00E94BF0964E877
:1027000072E087E695E00E94790C68EE73E080E065
:1027100090E00E94EB0384E992E00E94780B64EF62
:1027200071E080E090E00E94EB0387E992E00E9474
:10273000780B64EF71E080E090E00E94EB0381EAA7
:1027400092E00E94780B64EF71E080E090E00E94DC
:10275000EB03109233041092320410922F04109263
:102760002E040E94420787E395E090932B04809308
:102770002A0488E395E090932D0480932C0460ED67
:1027800077E080E090E00E94EB030E94B60A07E049
:1027900010E0BB24B39470E4A72E86E30E94AF033D
:1027A0007C018039B1E09B070CF02EC1809143047D
:1027B000811110C080914104909142040196B801AA
:1027C0000E94D9199093420480934104B09243042B
:1027D0000E94B60A30E9E31A31E0F30A49ECE41644
:1027E000F10410F410924304809185050E941C03AB
:1027F000892B09F447C30E941E04C0903904D0906D
:102800003A04E0903B04F0903C046C197D098E0979
:102810009F09643F71408105910508F4DDC00E9465
:102820001E046093390470933A0480933B049093A0
:102830003C04B0923104A092300410922F04109204
:102840002E046EE570E086E395E00E94B80986E309
:1028500095E00E94CE0861E070E080E090E00E9488
:10286000EB0362E080E40E948107109233048093BE
:102870003204C12CD12C50E8E52E5FEBF52E8230CE
:1028800028F186E395E00E945F087C0186E395E0ED
:102890000E945F0864E0EE0CFF1C6A95E1F7A0EF70
:1028A000EA22AFE0FA22BC016F7077276E297F29F8
:1028B000072E000C880B990B0E949D1720E030E03A
:1028C00040E85DE30E94FC176B017C01C092350477
:1028D000D0923604E0923704F092380420E030E0E1
:1028E000A901C701B6010E94CF1918160CF09AC0B1
:1028F00020E030E040EA51E4C701B6010E9496179B
:1029000087FF90C08091340481118CC00E94B60A68
:1029100063EB72E087E695E00E94790C87E992E02C
:102920000E94780B64EF71E080E090E00E94EB037E
:1029300062EC72E088E495E00E94790C40914605D3
:1029400050914705609142057091430588E495E0F8
:102950000E9439058AEC92E00E94780B64EF71E0E6
:1029600080E090E00E94EB036CEC72E088E495E07C
:102970000E94790C22E0B701A60188E495E00E944C
:102980008B0B89EE92E00E94780B8EEE92E00E9413
:10299000780B64EF71E080E090E00E94EB036AE165
:1029A00088E495E00E94860664EF71E080E090E0A4
:1029B0000E94EB030E94B60A68E073E087E695E0A8
:1029C0000E94790C60ED77E080E090E00E94EB03DC
:1029D0000E94B60AB0923404E0914104F09142049E
:1029E000E730F10508F05CC08827E650FB4E8F4FBA
:1029F0000C942E1A1F15391559154116591603171F
:102A000026178AE192E075CD893592400CF4E2CE2A
:102A1000809143048111DECE809141049091420463
:102A20000696CDCE20E030E040EA51E4C701B60181
:102A30000E94CF1987FDD0CF10923404CDCF80E013
:102A40000E94870A62E173E087E695E00E94790CB4
:102A500081E00E94870A82E00E941C0363E772E023
:102A6000892B11F46BE772E087E695E00E94790C00
:102A700017C080E00E94870A61E273E087E695E074
:102A80000E94790C81E00E94870A6DE273E087E67C
:102A900095E00E94790C86E30E94AF030E94470BE9
:102AA00068EC70E080E090E00E94EB030E943C063E
:102AB00074CE0E942A04882349F0809195058B30BA
:102AC00028F08D3050F085518230C0F1412C512CCE
:102AD00040EC642E4FE7742E1EC06091900570E0AC
:102AE00090E080E00E949D172DEC3CEC4CEC5DE307
:102AF0000E94FC176B017C0160918F0570E090E0F3
:102B000080E00E949D179B01AC01C701B6010E94A5
:102B1000BB182B013C010E942A04882341F08091BC
:102B200095058C3009F488C0D8F48B3091F1C12C14
:102B3000D12C20ECE22E2FE7F22E55C060918F05AC
:102B40007091900576276727762790E080E00E94B5
:102B50009B172DEC3CEC4CEC5DE30E94FC17D9CFAD
:102B60008551823020F790909105692D70E0762F85
:102B7000662766277F7780919205682B90E080E03A
:102B80000E949B172DEC3CEC4CEC5DE30E94FC1783
:102B90006FC06091910570E090E080E00E949B170B
:102BA0006B017C019090920597FE0AC0AC019B01DD
:102BB00060E070E080E89FEB0E94BA186B017C0136
:102BC000692D6F7070E090E080E00E949D172DEC01
:102BD0003CEC4CEC5DE30E94FC17A70196010E94BF
:102BE000BB186B017C0180E00E94870A65E373E0FB
:102BF00087E695E00E94790C22E0B701A60187E6FE
:102C000095E00E948B0B6CE373E087E695E00E94F1
:102C1000790C81E00E94870A6EE373E087E695E015
:102C20000E94790C22E0B301A20187E695E00E94A0
:102C30008B0B64E473E018CF90909105692D70E0E0
:102C400090E080E00E949B176B017C0160919205EF
:102C50006F7070E090E080E00E949D172DEC3CECDE
:102C60004CEC5DE30E94FC17A70196010E94BB1883
:102C70006B017C0197FEB7CFF7FAF094F7F8F09468
:102C8000B2CF87E30E94AF037C0180E00E94870AF5
:102C900066E473E087E695E00E94790C81E00E948B
:102CA000870A6DE273E087E695E00E94790CC70120
:102CB000F5CE80917A0590917B05892BF9F48CE40F
:102CC00093E00E94560BC12CD12CE12C90ECF92EF4
:102CD00080E00E94870A65E573E087E695E00E9440
:102CE000790C81E00E94870A22E0B701A60187E6FD
:102CF00095E00E948B0B62E673E0B6CE62E08091B5
:102D000074050E948107109233048093320482304C
:102D100009F072C080917C0590917D05DC01ED91F8
:102D2000FC910284F385E02D1995D82FB0E0CB2FCC
:102D300080917C0590917D05DC01ED91FC910284F0
:102D4000F385E02D19958C2B9D2BBC0190E080E044
:102D50000E949B176B017C010E941E0460937E05FC
:102D600070937F05809380059093810520E030E08B
:102D700040E85FEBC701B6010E949617882309F46B
:102D8000A7CF609175056534A9F070E090E080E010
:102D90000E949B179B01AC0160E070E08AE892E41E
:102DA0000E9427199B01AC01C701B6010E94FC17C4
:102DB0006B017C0180917A0590917B0581329105B0
:102DC00011F0419751F420E030E040E05FE3C701AB
:102DD000B6010E94FC176B017C01209176053091B1
:102DE00077054091780550917905C701B6010E9499
:102DF00027196B017C016CCFC12CD12C80E8E82E07
:102E00008FEBF82EA9CF80E00E94870A66E673E078
:102E100087E695E00E94790C81E00E94870A409144
:102E20003D0450913E0460913F047091400477FF4F
:102E300007C0CB01BA010E94290B61E773E014CEF1
:102E40002AE087E695E00E94DD0AF7CF80E00E9445
:102E5000870A64E773E087E695E00E94790C81E0D9
:102E60000E94870A409135045091360460913704DE
:102E70007091380422E087E695E00E948B0B6EE7A4
:102E800073E0F2CD0E94F9096B017C0160E070E013
:102E9000CB010E94EB038091870590918805A0915A
:102EA0008905B0918A05A7019601281B390B4A0BA9
:102EB0005B0BCA01B9010E949D1720918B053091CF
:102EC0008C0540918D0550918E050E9427190E9416
:102ED000991960933D0470933E0480933F0490934E
:102EE000400489CC8091420590914305009711F0F0
:102EF0000E94E61A86E392E0909349058093480584
:102F000080912804909129048854954071F4E091AF
:102F10005B05F0915C05908180915D05809589232A
:102F20008083109229041092280408950E94D817D3
:102F300008F481E00895E89409C097FB3EF4909569
:102F40008095709561957F4F8F4F9F4F9923A9F082
:102F5000F92F96E9BB279395F69587957795679511
:102F6000B795F111F8CFFAF4BB0F11F460FF1BC055
:102F70006F5F7F4F8F4F9F4F16C0882311F096E9E8
:102F800011C0772321F09EE8872F762F05C0662396
:102F900071F096E8862F70E060E02AF09A95660F4F
:102FA000771F881FDAF7880F9695879597F9089508
:102FB000990F0008550FAA0BE0E8FEEF161617064A
:102FC000E807F907C0F012161306E407F50798F0B2
:102FD000621B730B840B950B39F40A2661F0232BCB
:102FE000242B252B21F408950A2609F4A140A69547
:102FF0008FEF811D811D08950E940F180C94801879
:103000000E94721838F00E94791820F0952311F070
:103010000C9469180C946F1811240C94B4180E9425
:10302000911870F3959FC1F3950F50E0551F629F63
:10303000F001729FBB27F00DB11D639FAA27F00D11
:10304000B11DAA1F649F6627B00DA11D661F829F38
:103050002227B00DA11D621F739FB00DA11D621F1D
:10306000839FA00D611D221F749F3327A00D611D3A
:10307000231F849F600D211D822F762F6A2F11241C
:103080009F5750409AF0F1F088234AF0EE0FFF1F4F
:10309000BB1F661F771F881F91505040A9F79E3FA6
:1030A000510580F00C9469180C94B4185F3FE4F358
:1030B000983ED4F3869577956795B795F795E795FC
:1030C0009F5FC1F7FE2B880F911D9695879597F905
:1030D000089597F99F6780E870E060E008959FEF9A
:1030E00080EC089500240A9416161706180609069F
:1030F000089500240A94121613061406050608956E
:10310000092E0394000C11F4882352F0BB0F40F4F5
:10311000BF2B11F460FF04C06F5F7F4F8F4F9F4F35
:10312000089557FD9058440F551F59F05F3F71F0B7
:103130004795880F97FB991F61F09F3F79F087951E
:103140000895121613061406551FF2CF4695F1DFA7
:1031500008C0161617061806991FF1CF8695710537
:10316000610508940895E894BB2766277727CB016B
:1031700097F908955058BB27AA270E94D2180C949B
:1031800080180E94721838F00E94791820F039F4E3
:103190009F3F19F426F40C946F180EF4E095E7FBAA
:1031A0000C946918E92F0E94911858F3BA17620716
:1031B00073078407950720F079F4A6F50C94B318EB
:1031C0000EF4E0950B2EBA2FA02D0B01B901900142
:1031D0000C01CA01A0011124FF27591B99F0593F86
:1031E00050F4503E68F11A16F040A22F232F342FCE
:1031F0004427585FF3CF469537952795A795F0401C
:103200005395C9F77EF41F16BA0B620B730B840B30
:10321000BAF09150A1F0FF0FBB1F661F771F881FE8
:10322000C2F70EC0BA0F621F731F841F48F4879540
:1032300077956795B795F7959E3F08F0B0CF939532
:10324000880F08F09927EE0F9795879508950E94AB
:103250003B190C9480180E94791858F00E9472183B
:1032600040F029F45F3F29F00C94691851110C9437
:10327000B4180C946F180E94911868F39923B1F355
:10328000552391F3951B550BBB27AA27621773078C
:10329000840738F09F5F5F4F220F331F441FAA1F20
:1032A000A9F335D00E2E3AF0E0E832D091505040DC
:1032B000E695001CCAF72BD0FE2F29D0660F771F8A
:1032C000881FBB1F261737074807AB07B0E809F070
:1032D000BB0B802DBF01FF2793585F4F3AF09E3FF5
:1032E000510578F00C9469180C94B4185F3FE4F31E
:1032F000983ED4F3869577956795B795F7959F5F38
:10330000C9F7880F911D9695879597F90895E1E083
:10331000660F771F881FBB1F621773078407BA07E2
:1033200020F0621B730B840BBA0BEE1F88F7E0953D
:1033300008950E94A0196894B1110C94B4180895CE
:103340000E94991888F09F5798F0B92F9927B75184
:10335000B0F0E1F0660F771F881F991F1AF0BA9539
:10336000C9F714C0B13091F00E94B318B1E00895CC
:103370000C94B318672F782F8827B85F39F0B93FBE
:10338000CCF3869577956795B395D9F73EF49095EC
:103390008095709561957F4F8F4F9F4F08950E9444
:1033A000D81708F48FEF08950E94D817880B990B4F
:1033B000089597FB072E16F4009407D077FD09D0E7
:1033C0000E94361A07FC05D03EF4909581959F4FD8
:1033D0000895709561957F4F0895A1E21A2EAA1B5A
:1033E000BB1BFD010DC0AA1FBB1FEE1FFF1FA217B5
:1033F000B307E407F50720F0A21BB30BE40BF50BB2
:10340000661F771F881F991F1A9469F7609570953A
:10341000809590959B01AC01BD01CF010895052ECB
:1034200097FB1EF400940E94261A57FD07D00E94B5
:10343000ED1907FC03D04EF40C94261A50954095D4
:10344000309521953F4F4F4F5F4F08959095809550
:10345000709561957F4F8F4F9F4F0895EE0FFF1F1F
:10346000881F8BBF0790F691E02D1994AA1BBB1BF8
:1034700051E107C0AA1FBB1FA617B70710F0A61B74
:10348000B70B881F991F5A95A9F780959095BC0195
:10349000CD0108950F931F93CF93DF938230910551
:1034A00010F482E090E0E091A405F091A50530E0F1
:1034B00020E0B0E0A0E0309799F42115310509F43F
:1034C0004AC0281B390B24303105D8F58A819B81ED
:1034D0006115710589F1FB0193838283FE0111C09F
:1034E000408151810281138148175907E0F0481744
:1034F000590799F4109761F012960C93129713964E
:103500001C933296CF01DF91CF911F910F910895B7
:103510000093A4051093A505F4CF2115310551F0B2
:103520004217530738F0A901DB019A01BD01DF0101
:10353000F801C1CFEF01F9CF9093A5058093A405C1
:10354000CDCFFE01E20FF31F8193919322503109F9
:1035500039832883D7CF2091A2053091A305232B4F
:1035600041F420910202309103023093A30520938D
:10357000A20520910002309101022115310541F48C
:103580002DB73EB74091040250910502241B350B24
:10359000E091A205F091A305E217F307A0F42E1B1A
:1035A0003F0B2817390778F0AC014E5F5F4F2417A7
:1035B000350748F04E0F5F1F5093A3054093A205B7
:1035C000819391939FCFF0E0E0E09CCFCF93DF9386
:1035D0000097E9F0FC01329713821282A091A405B2
:1035E000B091A505ED0130E020E01097A1F4208115
:1035F0003181820F931F2091A2053091A3052817D6
:10360000390709F061C0F093A305E093A205DF91AB
:10361000CF910895EA01CE17DF07E8F54A815B8173
:103620009E0141155105B1F7E901FB83EA834991F8
:103630005991C40FD51FEC17FD0761F4808191816A
:103640000296840F951FE901998388838281938173
:103650009B838A83F0E0E0E012968D919C91139712
:103660000097B9F52D913C911197CD010296820FEB
:10367000931F2091A2053091A3052817390739F629
:10368000309751F51092A5051092A405B093A305AB
:10369000A093A205BCCFD383C28340815181840F04
:1036A000951FC817D90761F44E5F5F4F88819981D4
:1036B000480F591F518340838A819B819383828362
:1036C0002115310509F0B0CFF093A505E093A405CD
:1036D0009ECFFD01DC01C0CF13821282D7CF4F9263
:1036E0005F926F927F928F929F92AF92BF92CF9292
:1036F000DF92EF92FF920F931F93CF93DF938C0192
:10370000009799F4CB01DF91CF911F910F91FF901A
:10371000EF90DF90CF90BF90AF909F908F907F9071
:103720006F905F904F900C944A1AFC01E60FF71FC0
:103730009C0122503109E217F30708F4AEC0D90109
:10374000CD91DC911197C617D70720F1C530D1056F
:1037500078F0CE0104978617970750F0C61BD70B59
:103760002297C193D1936D937C93CF010E94E61A67
:10377000C801DF91CF911F910F91FF90EF90DF90E3
:10378000CF90BF90AF909F908F907F906F905F9001
:103790004F9008955B01AC1ABD0A4C018C0E9D1E22
:1037A000A091A405B091A505512C412CF12CE12C40
:1037B000109731F58091A2059091A3058815990580
:1037C00009F05CC04616570608F058C08091000208
:1037D00090910102009741F48DB79EB74091040289
:1037E00050910502841B950BE817F90708F055C0A6
:1037F000F093A305E093A205F90171836083B8CF2C
:103800008D919C91119712966C90129713967C90C3
:103810001397A815B90559F56C0142E0C40ED11CE7
:10382000CA14DB0420F1AC014A195B09DA011296D3
:10383000159780F06282738251834083D9016D9322
:103840007C93E114F10471F0D7011396FC93EE938D
:1038500012978ECF22968C0F9D1FF9019183808342
:10386000F301EFCFF093A505E093A40581CF4816AF
:10387000590608F42C017D01D3019ACFCB010E9497
:103880004A1A7C01009749F0AE01B8010E94501C11
:10389000C8010E94E61A87016BCF10E000E068CFF4
:1038A000FB01DC0102C001900D9241505040D8F75D
:1038B0000895FB01DC0101900D920020E1F70895CD
:1038C00012E0C9E4D2E000E006C0802FFE010E94B1
:1038D0002E1A2196011DCA34D10780E00807A9F7E6
:1038E000F894FFCF0000A6058000000040001400FF
:1038F000540000000000CF05390566051C06970539
:1039000075058905000000009F087208B509850645
:1039100030055F0850080000000086063905B5092B
:103920008506E206F8066D0600000000C80A3905A3
:10393000B5091A070000000019077B0C0D0A006E7C
:10394000616E00696E66006F7666002B313233342B
:1039500035363738393000414354495645200049FF
:103960004E41435449564500496E697469616C691A
:103970007A696E672E2E2E0041540041542B434D20
:1039800047463D310041542B434E4D493D312C3289
:103990002C302C302C300053656E64696E672053D8
:1039A0004D532E2E2E0041542B434D47533D2200A4
:1039B0005741524E494E473A204F626A6563742020
:1039C0006465746563746564206174200020636DB0
:1039D0002100506C6561736520636865636B2079B5
:1039E0006F75722073797374656D2E00534D53207B
:1039F00053656E742100546F7563682053656E7350
:103A00006F723A20004A6F79737469636B20593A78
:103A10000056616C75653A200054656D703A20005F
:103A2000430048756D3A200025004D51382048323A
:103A30002053656E736F723A00496C6C756D696ED8
:103A4000616E63653A00206C78004C6F61642043BE
:103A5000656C6C3A0020670044697374616E63653D
:063A60003A0020636D0036
:020000040003F7
:10E000000D9489F10D94B2F10D94B2F10D94B2F129
:10E010000D94B2F10D94B2F10D94B2F10D94B2F1F0
:10E020000D94B2F10D94B2F10D94B2F10D94B2F1E0
:10E030000D94B2F10D94B2F10D94B2F10D94B2F1D0
:10E040000D94B2F10D94B2F10D94B2F10D94B2F1C0
:10E050000D94B2F10D94B2F10D94B2F10D94B2F1B0
:10E060000D94B2F10D94B2F10D94B2F10D94B2F1A0
:10E070000D94B2F10D94B2F10D94B2F10D94B2F190
:10E080000D94B2F10D94B2F10D94B2F10D94B2F180
:10E090000D94B2F10D94B2F10D94B2F10D94B2F170
:10E0A0000D94B2F10D94B2F10D94B2F10D94B2F160
:10E0B0000D94B2F10D94B2F10D94B2F10D94B2F150
:10E0C0000D94B2F10D94B2F10D94B2F10D94B2F140
:10E0D0000D94B2F10D94B2F10D94B2F10D94B2F130
:10E0E0000D94B2F141546D656761323536300041AF
:10E0F000726475696E6F206578706C6F72657220DE
:10E1000073746B3530305632206279204D4C530099
:10E11000426F6F746C6F616465723E004875683F52
:10E1200000436F6D70696C6564206F6E203D200048
:10E130004350552054797065202020203D20005FF9
:10E140005F4156525F415243485F5F3D2000415658
:10E1500052204C696243205665723D20004743437C
:10E160002056657273696F6E203D20004350552024
:10E1700049442020202020203D20004C6F7720663D
:10E18000757365202020203D20004869676820665F
:10E190007573652020203D200045787420667573D6
:10E1A00065202020203D20004C6F636B2066757336
:10E1B000652020203D20004D617220203720323024
:10E1C000313300312E362E3800342E332E350056A2
:10E1D00023202020414444522020206F7020636F70
:10E1E00064652020202020696E73747275637469E1
:10E1F0006F6E2061646472202020496E74657272B3
:10E20000757074006E6F20766563746F7200726A49
:10E210006D702020006A6D70200057686174207056
:10E220006F72743A00506F7274206E6F7420737541
:10E2300070706F72746564004D7573742062652030
:10E2400061206C6574746572002000577269747483
:10E25000696E672045450052656164696E672045B7
:10E26000450045452065727220636E743D00504F35
:10E27000525400303D5A65726F2061646472003FF1
:10E280003D43505520737461747300403D454550C3
:10E29000524F4D207465737400423D426C696E6B41
:10E2A000204C454400453D44756D70204545505215
:10E2B0004F4D00463D44756D7020464C415348001B
:10E2C000483D48656C70004C3D4C69737420492F83
:10E2D0004F20506F72747300513D51756974005234
:10E2E0003D44756D702052414D00563D73686F7707
:10E2F00020696E7465727275707420566563746FF0
:10E30000727300593D506F727420626C696E6B00BD
:10E310002A0011241FBECFEFD1E2DEBFCDBF01E046
:10E320000CBF12E0A0E0B2E0EEE1FDEF03E00BBFB6
:10E3300002C007900D92A030B107D9F712E0A0E01B
:10E34000B2E001C01D92AE30B107E1F70F9460F367
:10E350000D948DFE01E20EBF0FEF0DBF11241FBE05
:10E360000D9460F30D9400F020E030E040ED57E0B4
:10E3700005C0FA013197F1F72F5F3F4F2817390792
:10E38000C0F308959C01260F311DC901A0E0B0E043
:10E390002F5F3F4FABBFFC018791882361F08093D3
:10E3A000C6008091C00086FFFCCF8091C0008064D1
:10E3B0008093C000EACF08958DE08093C6008091DD
:10E3C000C00086FFFCCF8091C00080648093C000B5
:10E3D0008AE08093C6008091C00086FFFCCF8091C8
:10E3E000C00080648093C00008950F94C2F10F9420
:10E3F000DCF10895FC019081992359F09093C600B7
:10E400008091C00086FFFCCF8091C0008064809323
:10E41000C0003196992379F70895282F982F929567
:10E420009F70892F805D8A3308F0895F8093C600D2
:10E430008091C00086FFFCCF8091C00080648093F3
:10E44000C000822F8F70982F905D9A3308F0995FEB
:10E450009093C6008091C00086FFFCCF8091C000E1
:10E4600080648093C00008959C01FB01853691056E
:10E470001CF46330710594F0C90164E670E00F94F8
:10E480002EFE605D7F4F6093C6008091C00086FFC6
:10E49000FCCF8091C00080648093C0002B30310598
:10E4A00014F43297B4F0C90164E670E00F942EFEC4
:10E4B0006AE070E00F942EFE605D7F4F6093C600AF
:10E4C0008091C00086FFFCCF8091C0008064809363
:10E4D000C000C9016AE070E00F942EFEC0968093E0
:10E4E000C6008091C00086FFFCCF8091C000806490
:10E4F0008093C00008951F93182F8EE692EE60E07F
:10E500000F94C2F11093C6008091C00086FFFCCF2B
:10E510008091C00080648093C0000F94DCF11F9153
:10E5200008952F923F924F925F926F927F928F92B7
:10E530009F92AF92BF92CF92DF92EF92FF920F9392
:10E540001F93DF93CF93CDB7DEB762970FB6F894E2
:10E55000DEBF0FBECDBF382E622ECA01DB015C01CB
:10E560006D01772420E2222E2E010894411C511CBB
:10E570008BC081E0A81680E0B80681E0C80680E084
:10E58000D80628F0C601AA27BB270F940DF2BB2797
:10E59000AD2D9C2D8B2D0F940DF28A2D0F940DF225
:10E5A0002092C6008091C00086FFFCCF8091C00001
:10E5B00080648093C0009DE29093C6008091C0006B
:10E5C00086FFFCCF8091C00080648093C0002092C1
:10E5D000C6008091C00086FFFCCF8091C00080649F
:10E5E0008093C00019828601750188249924A1E0D6
:10E5F0003A1651F03A1620F0B2E03B1661F409C029
:10E600000BBFF701779007C0C7010F9477FE782EF4
:10E6100002C0F7017080872D0F940DF22092C60082
:10E620008091C00086FFFCCF8091C0008064809301
:10E63000C000872D8052F401EF70F0708F3520F408
:10E64000E40DF51D708204C0E40DF51D8EE280839B
:10E650000894E11CF11C011D111D0894811C911CE2
:10E6600090E18916910409F0C2CF80E190E0A0E02A
:10E67000B0E0A80EB91ECA1EDB1E198AC2010F9493
:10E68000FAF10F94DCF16A94662009F072CF629679
:10E690000FB6F894DEBF0FBECDBFCF91DF911F91B3
:10E6A0000F91FF90EF90DF90CF90BF90AF909F9031
:10E6B0008F907F906F905F904F903F902F90089534
:10E6C0002F923F924F925F926F927F928F929F9282
:10E6D000AF92BF92CF92DF92EF92FF920F931F9370
:10E6E000DF93CF93CDB7DEB7CD53D1400FB6F894BB
:10E6F000DEBF0FBECDBF01E20EBF0FEF0DBF94B75F
:10E70000F894A89514BE80916000886180936000A1
:10E7100010926000789493FF05C0E0910002F091A0
:10E7200001021995279A2F9A8091C00082608093E8
:10E73000C00080E18093C40088E18093C1000000A4
:10E74000EE24FF24870144E0A42EB12CCC24DD2448
:10E7500024C0C5010197F1F70894E11CF11C011DCB
:10E76000111D21E2E2162EE4F20620E0020720E06D
:10E77000120718F031E0C32ED12CC801B70127ECE5
:10E780003BE140E050E00F9441FE611571058105C9
:10E79000910519F485B1805885B98091C00087FD35
:10E7A00003C0C114D104A9F2A6014F5F5F4FC25E3E
:10E7B000DE4F59834883CE51D140C25EDE4F8881FF
:10E7C0009981CE51D140019711F00D9410FEC05D9A
:10E7D000DE4F19821882C053D14060E0C15DDE4F28
:10E7E0001882CF52D14088249924C35DDE4F19820C
:10E7F0001882CD52D140C05EDE4F188219821A8233
:10E800001B82C052D140CE5CDE4F188219821A8220
:10E810001B82C253D140EE24FF2487010BBFF701B6
:10E8200007911691C45CDE4F19830883CC53D14005
:10E830000D940BFEC25EDE4F28813981CE51D1404E
:10E840002130310509F52091C600C25EDE4F1982E4
:10E850001882CE51D14022C02F5F3F4F4F4F5F4FA4
:10E86000213082E138078AE7480780E0580780F0C6
:10E87000C45CDE4FE881F981CC53D140EF5FFF4F9C
:10E8800019F0EE27FF27099420E030E040E050E047
:10E890008091C00087FFE0CF2091C600C35DDE4FAE
:10E8A00048815981CD52D1404F5F5F4FC35DDE4FEC
:10E8B00059834883CD52D140213209F063C64A3092
:10E8C000510508F05FC60894811C911C53E0851621
:10E8D000910409F059C600E010E018C081E280936D
:10E8E000C6008091C00086FFFCCF8091C00080648C
:10E8F0008093C0002F5F3F4F2931310579F70F9486
:10E90000DCF10F5F1F4F0530110519F020E030E0FA
:10E91000E5CF10920A0210920B0210920C02109294
:10E920000D02109206021092070210920802109235
:10E930000902109202021092030210920402109235
:10E9400005028FEE90EE60E00F94F5F180E191EE1C
:10E9500060E00F94C2F18091C00087FFFCCF9091DE
:10E96000C600903608F09F759032B8F09093C600BC
:10E970008091C00086FFFCCF8091C00080648093AE
:10E98000C000A0E2A093C6008091C00086FFFCCF2B
:10E990008091C00080648093C000983409F4D7C18E
:10E9A0009934B8F4923409F459C1933458F490333B
:10E9B00019F1903308F4E3C59F33A1F1903409F0C5
:10E9C000DEC5BDC0953409F470C1963409F0D7C5D1
:10E9D00098C1923509F42BC2933538F49C3409F46C
:10E9E000F5C1913509F0CBC518C2963509F445C279
:10E9F000993509F0C4C567C483E792EE62E00F94CD
:10EA0000F5F110920602109207021092080210927D
:10EA1000090210920A0210920B0210920C0210923C
:10EA20000D0213C18FE792EE62E00F94F5F18FEEC5
:10EA300090EE60E00F94F5F181E291EE60E00F94CA
:10EA4000C2F187EB91EE60E00F94F5F180E391EE77
:10EA500060E00F94C2F184EE90EE60E00F94F5F167
:10EA60008FE391EE60E00F94C2F186E090E061E008
:10EA700070E00F9434F20F94DCF18DE591EE60E0DC
:10EA80000F94C2F189EC91EE60E00F94F5F18EE401
:10EA900091EE60E00F94C2F183EC91EE60E00F9490
:10EAA000F5F18CE691EE60E00F94C2F18EE10F94E7
:10EAB0000DF288E90F940DF281E00F940DF20F949E
:10EAC000DCF18BE791EE60E00F94C2F119E0E0E039
:10EAD000F0E010935700E4918E2F0F940DF20F94F5
:10EAE000DCF18AE891EE60E00F94C2F1E3E0F0E03F
:10EAF00010935700E4918E2F0F940DF20F94DCF1D8
:10EB000089E991EE60E00F94C2F1E2E0F0E0109349
:10EB10005700E4918E2F0F940DF20F94DCF188EAE8
:10EB200091EE60E00F94C2F1E1E0F0E01093570045
:10EB30001491812F0F940DF20F94DCF107CF8BE825
:10EB400092EE62E00F94F5F18BE492EE60E00F94A8
:10EB5000F5F10F94DCF100E010E019C0C8016F2D51
:10EB60000F947FFEFF2031F489E492EE60E00F9471
:10EB7000C2F10BC0F092C6008091C00086FFFCCFAE
:10EB80008091C00080648093C0000F5F1F4FC80158
:10EB900081519F41A0E0B0E0ABBFFC01F790BAE229
:10EBA000FB1621F0E2E000301E07C1F60F94DCF105
:10EBB0000F94DCF187E592EE60E00F94F5F10F948D
:10EBC000DCF1CC24DD2400E010E01EC0C8010F946D
:10EBD00077FEF82E882331F489E492EE60E00F94FA
:10EBE000C2F10BC08093C6008091C00086FFFCCFAD
:10EBF0008091C00080648093C000FE1419F00894D6
:10EC0000C11CD11C0F5F1F4FC80181519F41A0E063
:10EC1000B0E0ABBFFC01E790FAE2EF1621F022E092
:10EC20000030120799F60F94DCF10F94DCF182E6C4
:10EC300092EE60E00F94C2F1C60161E070E00F94C3
:10EC400034F20F94DCF10F94DCF110920202109276
:10EC50000302109204021092050278CE89E992EE26
:10EC600062E00F94F5F1279A2F9A16C02F9880E052
:10EC700090E0E0EDF7E03197F1F7019684369105E9
:10EC8000C1F72F9A80E090E0E0EDF7E03197F1F7DF
:10EC9000019684369105C1F78091C00087FFE6CFC9
:10ECA0008091C00087FFFCCF64C485EA92EE62E0E9
:10ECB0000F94F5F140910202509103026091040219
:10ECC0007091050281E020E10F9491F2809102029F
:10ECD00090910302A0910402B091050280509F4FD1
:10ECE000AF4FBF4F8093020290930302A0930402A0
:10ECF000B093050280509041A040B04008F426CE69
:10ED0000A4CF83EB92EE62E00F94F5F140910602FE
:10ED100050910702609108027091090280E020E1A1
:10ED20000F9491F28091060290910702A09108023F
:10ED3000B091090280509F4FAF4FBF4F80930602A2
:10ED400090930702A0930802B0930902FFCD80ECD4
:10ED500092EE62E00F94F5F183E792EE60E00F949B
:10ED6000F5F18FE792EE60E00F94F5F18BE892EE0B
:10ED700060E00F94F5F189E992EE60E00F94F5F10F
:10ED800085EA92EE60E00F94F5F183EB92EE60E09D
:10ED90000F94F5F180EC92EE60E00F94F5F187ECC2
:10EDA00092EE60E00F94F5F188ED92EE60E00F9442
:10EDB000F5F18FED92EE60E00F94F5F18AEE92EEB0
:10EDC00060E00F94F5F183E093EEBDCD87EC92EE19
:10EDD00062E00F94F5F181E40F947BF282E40F94EA
:10EDE0007BF283E40F947BF284E40F947BF285E45E
:10EDF0000F947BF286E40F947BF287E40F947BF20E
:10EE000088E40F947BF28AE40F947BF28BE40F94F6
:10EE10007BF28CE40F947BF299CD88ED92EE62E068
:10EE20000F94F5F1772473948824992409C48FED05
:10EE300092EE62E00F94F5F140910A0250910B02BC
:10EE400060910C0270910D0282E020E10F9491F22A
:10EE500080910A0290910B02A0910C02B0910D02D8
:10EE600080509F4FAF4FBF4F80930A0290930B0289
:10EE7000A0930C02B0930D0269CD8AEE92EE62E08F
:10EE80000F94F5F184EE90EE60E00F94F5F18FECC5
:10EE900091EE60E00F94F5F1662477244301CC5D98
:10EEA000DE4F19821882C452D140D401C301B695F5
:10EEB000A79597958795CA5DDE4F88839983AA8326
:10EEC000BB83C652D140CC5DDE4FA881B981C4520C
:10EED000D1401196CC5DDE4FB983A883C452D14096
:10EEE000CD0162E070E00F9434F2B0E2B093C6005E
:10EEF0008091C00086FFFCCF8091C0008064809329
:10EF0000C000EDE2E093C6008091C00086FFFCCF18
:10EF10008091C00080648093C000F0E2F093C6004E
:10EF20008091C00086FFFCCF8091C00080648093F8
:10EF3000C000CA5DDE4FE880F9800A811B81C6529D
:10EF4000D140BB27A12F902F8F2D0F940DF2CA5DBA
:10EF5000DE4F8881C652D1400F940DF2B0E2FB2EF5
:10EF6000F092C6008091C00086FFFCCF8091C00067
:10EF700080648093C0000DE30093C6008091C000C0
:10EF800086FFFCCF8091C00080648093C00010E2B7
:10EF90001093C6008091C00086FFFCCF8091C00016
:10EFA00080648093C0008BBEF3012791C65DDE4F65
:10EFB0002883CA52D140A22EBB24CC24DD2408943D
:10EFC000611C711C811C911C8BBEF3018791282E42
:10EFD0003324442455240894611C711C811C911C09
:10EFE0008BBEF3013791C55DDE4F3883CB52D140E4
:10EFF0000894611C711C811C911C8BBEF30147910C
:10F00000C45DDE4F4883CC52D140ADEFEA2EAFEF66
:10F01000FA2EAFEF0A2FAFEF1A2F6E0C7F1C801E57
:10F02000911E142D032DF22CEE24EA0CFB1C0C1D5A
:10F030001D1D0F940DF220E22093C6008091C000A8
:10F0400086FFFCCF8091C00080648093C000C65DC5
:10F05000DE4F8881CA52D1400F940DF230E23093D6
:10F06000C6008091C00086FFFCCF8091C000806404
:10F070008093C000C45DDE4F8881CC52D1400F9494
:10F080000DF240E24093C6008091C00086FFFCCFA5
:10F090008091C00080648093C000C55DDE4F888190
:10F0A000CB52D1400F940DF250E25093C6008091A4
:10F0B000C00086FFFCCF8091C00080648093C000B8
:10F0C0008FEFE8168FEFF80680E0080780E018075A
:10F0D00031F484E092EE60E00F94C2F1DFC0D80119
:10F0E000C7018070907CA070B0708050904CA040A0
:10F0F000B040D1F52FEF3FE340E050E0E222F322B1
:10F1000004231523CA5DDE4FA880B980CA80DB8046
:10F11000C652D140AE0CBF1CC01ED11EAA0CBB1CD7
:10F12000CC1CDD1C8EE092EE60E00F94C2F1BB2798
:10F13000A12F902F8F2D0F940DF28E2D0F940DF285
:10F1400030E23093C6008091C00086FFFCCF8091F2
:10F15000C00080648093C0004EE34093C60080915D
:10F16000C00086FFFCCF87C08EE09EEFA0E0B0E03D
:10F17000E822F9220A231B239CE0E91694E9F90608
:10F1800090E0090790E0190709F088C0C45DDE4FE0
:10F19000A881CC52D140EA2EFF2400E010E0102FCD
:10F1A0000F2DFE2CEE24C55DDE4FB881CB52D14031
:10F1B000EB0EF11C011D111DD601C501817090706F
:10F1C000A070B070DC0199278827E80EF91E0A1F8D
:10F1D0001B1F20EF30E040E050E0A222B322C42207
:10F1E000D52241E1AA0CBB1CCC1CDD1C4A95D1F7F1
:10F1F000EA0CFB1C0C1D1D1D81E090E0A0E0B0E0BE
:10F20000282239224A225B2235E1220C331C441C7D
:10F21000551C3A95D1F7E20CF31C041D151D57013E
:10F220006801AA0CBB1CCC1CDD1C85E192EE60E0E1
:10F230000F94C2F1C801AA27BB270F940DF2BB2778
:10F24000A12F902F8F2D0F940DF28E2D0F940DF274
:10F2500090E29093C6008091C00086FFFCCF809121
:10F26000C00080648093C000AEE3A093C60080918C
:10F27000C00086FFFCCF8091C00080648093C000F6
:10F28000C601AA27BB270F940DF2BB27AD2D9C2DDD
:10F290008B2D0F940DF28A2D0F940DF20F94DCF14B
:10F2A000CC5DDE4FE881F981C452D140F99709F471
:10F2B0004DCBF4E0EF2EF12C012D112D6E0C7F1CA7
:10F2C000801E911EF2CD83E093EE62E00F94F5F183
:10F2D0008AE192EE60E00F94C2F18091C00087FF56
:10F2E000FCCF1091C6001F751093C6008091C0001E
:10F2F00086FFFCCF8091C00080648093C0000F9493
:10F30000DCF1812F81548A3108F036C1163409F4BA
:10F3100095C0173490F4133409F44EC0143430F40B
:10F320001134F1F0123409F01DC130C0143409F465
:10F3300059C0153409F016C16BC01A3409F4C4C0A1
:10F340001B3438F4173409F48FC0183409F00AC19B
:10F35000A1C01B3409F4D2C01C3409F003C1E8C0B9
:10F360008FEF81B90DC082B1809582B980E090E0C5
:10F37000E0EDF7E03197F1F70196883C9105C1F790
:10F380008091C00087FFEFCF12B8EFC08FEF84B934
:10F390000DC085B1809585B980E090E0E0EDF7E0A3
:10F3A0003197F1F70196883C9105C1F78091C00033
:10F3B00087FFEFCF15B8D9C08FEF87B90DC088B1DF
:10F3C000809588B980E090E0E0EDF7E03197F1F7C3
:10F3D0000196883C9105C1F78091C00087FFEFCF6F
:10F3E00018B8C3C08FEF8AB90DC08BB180958BB9A7
:10F3F00080E090E0E0EDF7E03197F1F70196883C8E
:10F400009105C1F78091C00087FFEFCF1BB8ADC059
:10F410008FEF8DB90DC08EB180958EB980E090E0F0
:10F42000E0EDF7E03197F1F70196883C9105C1F7DF
:10F430008091C00087FFEFCF1EB897C08FEF80BBD1
:10F440000DC081B3809581BB80E090E0E0EDF7E0F6
:10F450003197F1F70196883C9105C1F78091C00082
:10F4600087FFEFCF11BA81C08FEF83BB0DC084B38C
:10F47000809584BB80E090E0E0EDF7E03197F1F714
:10F480000196883C9105C1F78091C00087FFEFCFBE
:10F4900014BA6BC08FEF809301010FC080910201FD
:10F4A00080958093020180E090E0E0EDF7E03197F5
:10F4B000F1F70196883C9105C1F78091C00087FF64
:10F4C000EDCF1092020151C08FEF809304010FC065
:10F4D0008091050180958093050180E090E0E0ED4A
:10F4E000F7E03197F1F70196883C9105C1F78091DB
:10F4F000C00087FFEDCF1092050137C08FEF8093DA
:10F5000007010FC08091080180958093080180E079
:10F5100090E0E0EDF7E03197F1F70196883C910536
:10F52000C1F78091C00087FFEDCF109208011DC088
:10F530008FEF80930A010FC080910B01809580931B
:10F540000B0180E090E0E0EDF7E03197F1F70196F4
:10F55000883C9105C1F78091C00087FFEDCF1092E4
:10F560000B0103C085E292EEEEC98091C00087FFD7
:10F57000FCCF8091C600EAC988E392EEE4C98CE131
:10F5800091EEE1C988249924933011F1943028F444
:10F59000913089F09230B8F408C0953061F195301F
:10F5A000F0F0963009F048C043C02B3109F042C951
:10F5B00091E06BE13FC96227C15DDE4F2883CF52E6
:10F5C000D14092E037C9B22FA0E0622793E032C960
:10F5D000822F90E0A82BB92B622794E02BC92E3004
:10F5E00009F039C3622795E0C05DDE4F19821882A9
:10F5F000C053D1401FC9E1E0F0E0EC0FFD1FC05D3A
:10F60000DE4F08811981C053D140E00FF11F2083E4
:10F610000F5F1F4FC05DDE4F19830883C053D14079
:10F6200062270A171B0709F005C9D80196E002C92D
:10F63000261709F010C303C0973009F0FBC87724E0
:10F640009981933109F412C19431C8F4963009F4C8
:10F65000D8C0973050F4923009F406C1933009F4C1
:10F660006DC0913009F059C253C0913109F477C08F
:10F67000923108F0BBC0903109F04FC2F5C098310B
:10F6800009F487C0993150F4953109F4EFC09531F0
:10F6900008F4C6C1963109F040C2C2C19A3109F4DA
:10F6A0006CC09A3108F491C09B3109F45BC09D3164
:10F6B00009F033C29D81903359F48F81882311F46E
:10F6C0009EE11CC0813011F091E018C098E916C08D
:10F6D000892F807591F0903539F4E0E0F0E089E011
:10F6E0008093570094910AC0983539F4E3E0F0E034
:10F6F00089E080935700949101C090E01A821B82A8
:10F700008D818C831D829E831F8227E030E009C299
:10F710001A8288E08B8381E48C8386E58D8382E581
:10F720008E8389E48F8383E5888780E589878FE5E9
:10F730008A8782E38B872BE030E0F3C18A818139AD
:10F7400041F0823941F0803911F48FE005C080E04A
:10F7500003C082E001C08AE01A828B8344C0772410
:10F76000739482C08D81882311F48EE12CC0813086
:10F7700011F081E028C088E926C01A82E1E0F0E0BB
:10F7800089E08093570084918B831C8224E030E0D1
:10F79000C8C18B81803589F48C81883039F4E2E0EE
:10F7A000F0E089E08093570084910DC0E0E0F0E044
:10F7B00089E080935700849106C0E3E0F0E089E09F
:10F7C0008093570084911A82DFCF8D81836C99E0FA
:10F7D000E1E0F0E0082E90935700E89507B600FCB2
:10F7E000FDCF1A821B8223E030E09BC180EC8A832C
:10F7F000CE5CDE4F188219821A821B82C253D1401E
:10F800008EC18A8190E0A0E0B0E0582F44273327D2
:10F8100022278B8190E0A0E0B0E0DC0199278827C7
:10F82000282B392B4A2B5B2B8D8190E0A0E0B0E098
:10F83000282B392B4A2B5B2B8C8190E0A0E0B0E089
:10F84000BA2FA92F982F8827282B392B4A2B5B2BCF
:10F85000220F331F441F551FC05EDE4F288339839C
:10F860004A835B83C052D1401A8259C13A81C95C34
:10F87000DE4F3883C753D140CA5CDE4F1882C6536F
:10F88000D1408B81C82EDD24CA5CDE4F488159816E
:10F89000C653D140C42AD52A933109F082C0CE5C28
:10F8A000DE4F88819981AA81BB81C253D1408050AB
:10F8B000904CA340B04030F583E0CE5CDE4FE88052
:10F8C000F9800A811B81C253D140F70100935B008C
:10F8D00080935700E89507B600FCFDCFCE5CDE4F65
:10F8E000088119812A813B81C253D14000501F4FAA
:10F8F0002F4F3F4FCE5CDE4F088319832A833B8313
:10F90000C253D140C05EDE4F488159816A817B81FC
:10F91000C052D140DE011B9631E08C9111962C91A2
:10F9200011971296C75CDE4F2883C953D140C85C3B
:10F93000DE4F1882C853D14090E0C85CDE4FE881AA
:10F94000F981C853D1408E2B9F2B0C01FA01609393
:10F950005B0030935700E89511244E5F5F4F6F4F67
:10F960007F4F0EEFE02E0FEFF02ECE0CDF1CC114F8
:10F97000D10499F685E0C05EDE4F088119812A81A5
:10F980003B81C052D140F80120935B008093570027
:10F99000E89507B600FCFDCF81E180935700E8951C
:10F9A00035C0C05EDE4F88819981AA81BB81C0527B
:10F9B000D140B695A795979587957C018601ABE0D8
:10F9C000AA2EB12CAC0EBD1E0BC0D5016D915D01F0
:10F9D000C7010F947FFE0894E11CF11C01501040F8
:10F9E0000115110591F7A60160E070E0440F551F65
:10F9F000661F771FC05EDE4FE880F9800A811B8199
:10FA0000C052D1404E0D5F1D601F711F1A82C05E33
:10FA1000DE4F488359836A837B83C052D1407FC0C5
:10FA2000FA80C55CDE4FF882CB53D140C65CDE4F16
:10FA30001882CA53D1408B81C82EDD24C65CDE4FAC
:10FA400008811981CA53D140C02AD12A1A828981DA
:10FA5000BE016D5F7F4F843121F59601C05EDE4FA0
:10FA6000E880F9800A811B81C052D1400BBFF701A9
:10FA700087919691DB018C9311969C936E5F7F4FDB
:10FA8000D801C7010296A11DB11DC05EDE4F88835B
:10FA90009983AA83BB83C052D14022503040F1F6F3
:10FAA00036C0C05EDE4F288139814A815B81C052F9
:10FAB000D1400894C108D108760100E010E0089414
:10FAC000C11CD11C0894E11CF11C011D111DE20E8A
:10FAD000F31E041F151F21BDBB27A52F942F832FB5
:10FAE00082BD2F5F3F4F4F4F5F4FF89A80B5DB01CC
:10FAF0008D93BD012E153F054007510761F7C05E8C
:10FB0000DE4F288339834A835B83C052D1409601FC
:10FB10002D5F3F4FFB01108204C080EC8A8322E0FE
:10FB200030E08BE18093C6008091C00086FFFCCF5F
:10FB30008091C00080648093C000C15DDE4FF88179
:10FB4000CF52D140F093C6008091C00086FFFCCF19
:10FB50008091C00080648093C000432F3093C60022
:10FB60008091C00086FFFCCF8091C00080648093AC
:10FB7000C000922F2093C6008091C00086FFFCCF6A
:10FB80008091C00080648093C0008EE08093C600A6
:10FB90008091C00086FFFCCF8091C000806480937C
:10FBA000C00065E1C15DDE4FE880CF52D1406E25D7
:10FBB00069276427FE01319610C090819093C6009A
:10FBC0008091C00086FFFCCF31968091C000806498
:10FBD0008093C0006927215030402115310569F715
:10FBE0006093C6008091C00086FFFCCF8091C0006A
:10FBF00080648093C00085B1805885B9772081F4F6
:10FC0000C15DDE4F0881CF52D1400F5FC15DDE4F35
:10FC10000883CF52D14090E0A0E0B0E00D941AF4F8
:10FC200027982F9880E090E020ED37E0F901319798
:10FC3000F1F7019684369105C9F700008091C00064
:10FC40008D7F8093C00081E180935700E895EE2777
:10FC5000FF270994FFCF90E00D941AF497FB092E2B
:10FC600007260AD077FD04D02ED006D000201AF443
:10FC7000709561957F4F0895F6F7909581959F4F08
:10FC80000895A1E21A2EAA1BBB1BFD010DC0AA1FDD
:10FC9000BB1FEE1FFF1FA217B307E407F50720F0F5
:10FCA000A21BB30BE40BF50B661F771F881F991F70
:10FCB0001A9469F760957095809590959B01AC01B9
:10FCC000BD01CF010895AA1BBB1B51E107C0AA1FAC
:10FCD000BB1FA617B70710F0A61BB70B881F991FED
:10FCE0005A95A9F780959095BC01CD010895F99991
:10FCF000FECF92BD81BDF89A992780B50895262F31
:10FD0000F999FECF1FBA92BD81BD20BD0FB6F89400
:0EFD1000FA9AF99A0FBE01960895F894FFCF63
:00000001FF
