:100000000C9444010C946C010C946C010C946C01E4
:100010000C946C010C946C010C946C010C946C01AC
:100020000C946C010C946C010C946C010C946C019C
:100030000C946C010C946C010C946C010C946C018C
:100040000C94F4090C946C010C94640A0C943E0A10
:100050000C946C010C946C010C946C010C946C016C
:100060000C94960A0C946C015B4248313735305D34
:10007000204552524F523A20756E646566696E652E
:1000800064206572726F72005B4248313735305DB3
:10009000204552524F523A206F7468657220657243
:1000A000726F72005B4248313735305D20455252E5
:1000B0004F523A207265636569766564204E41430C
:1000C0004B206F6E207472616E736D6974206F6661
:1000D0002064617461005B4248313735305D2045F2
:1000E00052524F523A207265636569766564204EBC
:1000F00041434B206F6E207472616E736D69742082
:100100006F662061646472657373005B42483137C7
:1001100035305D204552524F523A20746F6F206C3B
:100120006F6E6720666F72207472616E736D697492
:1001300020627566666572005B4248313735305D16
:10014000204552524F523A20756E646566696E655D
:1001500064206572726F72005B4248313735305DE2
:10016000204552524F523A206F7468657220657272
:10017000726F72005B4248313735305D2045525214
:100180004F523A207265636569766564204E41433B
:100190004B206F6E207472616E736D6974206F6690
:1001A0002064617461005B4248313735305D204521
:1001B00052524F523A207265636569766564204EEB
:1001C00041434B206F6E207472616E736D697420B1
:1001D0006F662061646472657373005B42483137F7
:1001E00035305D204552524F523A20746F6F206C6B
:1001F0006F6E6720666F72207472616E736D6974C2
:1002000020627566666572005B4248313735305D45
:1002100020446576696365206973206E6F7420637E
:100220006F6E6669677572656421000000000024C6
:100230000027002A0000000000250028002B0000F5
:100240000000080002010000030407000000000095
:100250000000000000000023002600290004040420
:10026000040404040402020202020203030303035F
:10027000030102040810204080010204081020013C
:10028000020408102000B10B11241FBECFEFD8E0EC
:10029000DEBFCDBF11E0A0E0B1E0E6ECF9E202C0C4
:1002A00005900D92A83DB107D9F723E0A8EDB1E084
:1002B00001C01D92AD38B207E1F711E0C4E4D1E00E
:1002C00004C02197FE010E94B613C334D107C9F7B9
:1002D0000E944F0C0C94E1140C940000CF92DF921A
:1002E000EF92FF92CF93DF93B0917D03A0E0811155
:1002F000AB2F80917E0390E0880F991FAC014D5A7F
:100300005D4FC0908303D0908403E0908503F0900C
:10031000860330E020E0FA01C591D491E881B9016B
:1003200090E080E0EB23EA130AC02F5F3F4F6C158B
:100330007D058E059F0578F36FEF7FEFCB01DF9191
:10034000CF91FF90EF90DF90CF900895833081F0B0
:1003500028F4813099F08230A9F008958730A9F00F
:100360008830C9F08430B1F4809180008F7D03C063
:10037000809180008F7780938000089584B58F7777
:1003800084BD089584B58F7DFBCF8091B0008F77B9
:100390008093B00008958091B0008F7DF9CFCF9306
:1003A000DF93282F30E0F901E15CFD4F8491F901E2
:1003B000EF58FD4FD491F901E35AFD4FC491CC237E
:1003C000A1F081110E94A601EC2FF0E0EE0FFF1FBB
:1003D000ED5AFD4FA591B491EC91ED2381E090E0B1
:1003E00009F480E0DF91CF91089580E090E0FACFAA
:1003F0001F93CF93DF93282F30E0F901E15CFD4F8D
:100400008491F901EF58FD4FD491F901E35AFD4F62
:10041000C491CC23A9F0162F81110E94A601EC2FC4
:10042000F0E0EE0FFF1FEB5CFD4FA591B4918FB78D
:10043000F894EC91111108C0D095DE23DC938FBFA6
:10044000DF91CF911F910895DE2BF8CFCF93DF93EB
:1004500090E0FC01EF58FD4F2491835A9D4FFC0121
:1004600084918823C9F090E0880F991FFC01E55D15
:10047000FD4FA591B491FC01EB5CFD4FC591D4916A
:1004800061110DC09FB7F8948C91209582238C93B5
:100490008881282328839FBFDF91CF910895623000
:1004A00051F49FB7F8943C91822F809583238C93CD
:1004B000E8812E2BEFCF8FB7F894EC912E2B2C9355
:1004C0008FBFEACF8E50806480937C0080917A0049
:1004D000806480937A0080917A0086FDFCCF8091C1
:1004E00078009091790008953FB7F8948091920236
:1004F00090919302A0919402B091950226B5A89B89
:1005000005C02F3F19F00196A11DB11D3FBFBA2FA5
:10051000A92F982F8827BC01CD01620F711D811D65
:10052000911D42E0660F771F881F991F4A95D1F7EA
:1005300008958F929F92AF92BF92CF92DF92EF92E7
:10054000FF926B017C010E9474024B015C01C1149B
:10055000D104E104F104B9F00E9474026819790928
:100560008A099B09683E73408105910580F321E06B
:10057000C21AD108E108F10888EE880E83E0981EBF
:10058000A11CB11CE4CFFF90EF90DF90CF90BF9003
:10059000AF909F908F900895CF92DF92EF92FF924D
:1005A0000F931F93CF93DF93CDB7DEB7C054D140E5
:1005B0000FB6F894DEBF0FBECDBF2FB7F894809171
:1005C000960290919702A0919802B09199022FBF44
:1005D00040917F0350918003609181037091820369
:1005E0008C019D01041B150B260B370BB901A801CB
:1005F000403D57406105710590F480918703C05CD0
:10060000DE4F0FB6F894DEBF0FBECDBFDF91CF91A6
:100610001F910F91FF90EF90DF90CF9008958093FE
:100620007F0390938003A0938103B0938203109281
:100630007A03109279031092780310927703109244
:10064000760362E080917B030E94260261E070E005
:1006500080E090E00E94990261E080917B030E941B
:10066000260260E080917B030E94F80180917C0368
:100670008551823020F58BE291E10197F1F762E03C
:1006800080917B030E9426028091880390E0823053
:10069000910538F0880F991F880F991F05970197CA
:1006A000F1F7F89480E00E946E016F3F7F4F8F4F0B
:1006B0009F4F61F410928703789480E0A0CF64E1AB
:1006C00070E080E090E00E949902D9CF81E00E9422
:1006D0006E016F3F7F4F8F4F9F4F61F38E010F5F12
:1006E0001F4F6E018FEBC81A8EEFD80A780180E099
:1006F0000E946E01F701608371838283938381E09E
:100700000E946E01F7016483758386839783F8E006
:10071000EF0EF11CEC14FD0451F7789430E020E06A
:10072000F801C080D180E280F380448155816681E8
:100730007781FFEFCF16DF06EF06FF0631F04F3F60
:100740008FEF58076807780719F410928703B5CF21
:10075000F90183E0F595E7958A95E1F7EA58FC4FB2
:100760008081880FC416D506E606F70610F180834F
:100770002F5F3F4F085F1F4F2832310589F64091A8
:100780007A032091760380917703280F3327331F54
:1007900080917803280F311D80917903820F932F68
:1007A000911D99274817190681F681E080938703E8
:1007B00026CF8160DCCFAF92BF92CF92DF92EF92D3
:1007C000FF920F931F93CF93DF936C017B018B01FB
:1007D000040F151FEB015E01AE18BF08C017D1074B
:1007E00059F06991D601ED91FC910190F081E02DD5
:1007F000C6010995892B79F7C501DF91CF911F912A
:100800000F91FF90EF90DF90CF90BF90AF90089541
:10081000FC01538D448D252F30E0842F90E0821B06
:10082000930B541710F0CF96089501970895FC018B
:10083000918D828D981761F0A28DAE0FBF2FB11DE3
:100840005D968C91928D9F5F9F73928F90E008953B
:100850008FEF9FEF0895FC01918D828D981731F0F5
:10086000828DE80FF11D858D90E008958FEF9FEF49
:100870000895FC01918D228D892F90E0805C9F4F1F
:10088000821B91098F73992708958AE992E00E944B
:10089000390421E0892B09F420E0822F089580E0BB
:1008A00090E0892B29F00E94450481110C940000EE
:1008B0000895FC01A48DA80FB92FB11DA35ABF4FF5
:1008C0002C91848D90E001968F739927848FA6894F
:1008D000B7892C93A089B1898C91837080648C93A3
:1008E000938D848D981306C00288F389E02D808152
:1008F0008F7D80830895EF92FF920F931F93CF9384
:10090000DF93EC0181E0888F9B8D8C8D98131AC04A
:10091000E889F989808185FF15C09FB7F894EE8931
:10092000FF896083E889F98980818370806480838E
:100930009FBF81E090E0DF91CF911F910F91FF90D9
:10094000EF900895F62E0B8D10E00F5F1F4F0F7381
:100950001127E02E8C8D8E110CC00FB607FCFACF3C
:10096000E889F989808185FFF5CFCE010E9459047D
:10097000F1CFEB8DEC0FFD2FF11DE35AFF4FF0820D
:100980009FB7F8940B8FEA89FB8980818062CFCF73
:10099000CF93DF93EC01888D8823B9F0AA89BB89B6
:1009A000E889F9898C9185FD03C0808186FD0DC0A1
:1009B0000FB607FCF7CF8C9185FFF2CF808185FFC2
:1009C000EDCFCE010E945904E9CFDF91CF91089578
:1009D000DC01ED91FC910190F081E02D09940895E6
:1009E00008951F93CF93DF93C1E0C093F80188234C
:1009F00099F1D091B8001091BA008091BC008A7B27
:100A00008093BC0060E082E10E94F80160E083E135
:100A10000E94F80110926602C09365021092600273
:100A200061E082E10E94F80161E083E10E94F80147
:100A30008091B9008E7F8093B9008091B9008D7F3D
:100A40008093B90088E48093B80085E48093BC006B
:100A50001093BA00D093B800DF91CF911F91089501
:100A600020911902260F3327331F21323105ECF470
:100A700020916602FC0190E080E0243069F082E081
:100A80000895A09119022191AC0147505E4FA40F27
:100A9000B52FB11D2C930196861798F380911902FA
:100AA000680F6093190280E0089581E00895089529
:100AB000E0916D0280916C02E81730F4F0E0E259A9
:100AC000FD4F808190E008958FEF9FEF0895909102
:100AD0006D0280916C022FEF3FEF981748F4E92FD9
:100AE000F0E0E259FD4F208130E09F5F90936D026E
:100AF000C901089580916C0290916D02891B990B38
:100B00000895CF92DF92EF92FF920F931F93CF93AE
:100B1000DF937C01CB018A0120913F02222389F0DF
:100B2000EB016B01C40ED51ECC15DD0569F0699192
:100B3000D701ED91FC910190F081E02DC70109955D
:100B4000F3CF642F0E943005C801DF91CF911F9130
:100B50000F91FF90EF90DF90CF900895CF93DF93A8
:100B60001F92CDB7DEB7698320913F022223F9F0AF
:100B700020913C02203258F021E030E0FC01338328
:100B8000228390E080E00F90DF91CF9108958091D3
:100B90003D02E82FF0E0E852FE4F998190838F5F8D
:100BA00080933D0280933C0281E090E0ECCF61E0D5
:100BB000CE0101960E943005F7CFCF92DF92EF92DF
:100BC000FF920F931F93CF93DF93D0913C0281E06C
:100BD000D13208F09CC0C0913E020E9474026B01A9
:100BE0007C018091660281116CC082E08093660274
:100BF00081E0809365028FEF80936402109263021C
:100C0000D0936202A8EDB1E0E0E4F2E080E0D81316
:100C10008DC01092610280916102CC0FC82BC093ED
:100C2000610280916002813009F084C010926002FC
:100C30000E9474026B017C01809161028093BB0071
:100C40008091680290916902A0916A02B0916B0252
:100C5000892B8A2B8B2BA1F00E94740200916802D1
:100C60001091690220916A0230916B026C197D0922
:100C70008E099F09061717072807390708F442C08D
:100C80008091BC0083FDD8CF85EC8093BC000E948E
:100C900074026B017C0180916602823009F44CC0C1
:100CA000809164028F3F09F469C0809164028032B0
:100CB00009F466C080916402803309F463C084E063
:100CC00026C08091680290916902A0916A02B09159
:100CD0006B02892B8A2B8B2B09F483CF0E94740221
:100CE000009168021091690220916A0230916B02B2
:100CF0006C197D098E099F09061717072807390700
:100D000008F06FCF809167020E94F10485E0109295
:100D10003D0210923C0210923F02DF91CF911F9151
:100D20000F91FF90EF90DF90CF9008959D91919358
:100D30008F5F6DCF85EEA9CF809168029091690297
:100D4000A0916A02B0916B02892B8A2B8B2B09F43C
:100D5000A2CF0E9474020091680210916902209152
:100D60006A0230916B026C197D098E099F09061782
:100D700017072807390708F08ECFC4CF80E0C7CF08
:100D800082E0C5CF83E0C3CF90E080E00895FF927A
:100D90000F931F93CF93DF93F82E062FC7E0D0E079
:100DA00010E061E0802F0E94F8018F2D0E94CF019A
:100DB0000C2E01C0880F0A94EAF7182B60E0802FF0
:100DC0000E94F801219768F7812FDF91CF911F9141
:100DD0000F91FF900895CF93DF93EC0160E08E8137
:100DE0000E94F80161E08E810E94F80160E08E812E
:100DF0000E94F8018BE891E00197F1F7DF91CF9124
:100E00000895CF92DF92EF92FF920F931F93CF93AB
:100E1000DF936C017C0187E0E80EF11CD0E0C0E0BC
:100E2000062F10E0B8010C2E02C0759567950A9444
:100E3000E2F76170F70181917F010E94F80121962C
:100E4000C430D10579F7C601DF91CF911F910F9181
:100E5000FF90EF90DF90CF900C94EB06CF92DF9253
:100E6000EF92FF920F931F93CF93DF93EC01F62E37
:100E7000642F8C810E94F8018D818F3F19F060E012
:100E80000E94F8010F2D10E08F8584FF25C06E01B0
:100E900087E0C80ED11CF12CE12CB8010E2C02C049
:100EA000759567950A94E2F76170F60181916F017B
:100EB0000E94F801FFEFEF1AFF0A88E0E816F1043C
:100EC00061F7CE01DF91CF911F910F91FF90EF90CD
:100ED000DF90CF900C94EB06B80184E07595679590
:100EE0008A95E1F7CE010E9401076F2DCE01DF91B7
:100EF000CF911F910F91FF90EF90DF90CF900C94C6
:100F0000010741E00E942E0781E090E0089540E053
:100F1000682F83E493E00C942E0781E00E948707FA
:100F20008BE39FE10197F1F70895CF93DF93823030
:100F300029F4909152039860909352038093560342
:100F40001092570380E48093580380E18093590303
:100F500080E580935A0361E0809147030E94260256
:100F6000809148038F3F19F061E00E94260261E002
:100F7000809149030E942602C3E4D3E09E012354DA
:100F800033408091520384FD0BC084E090E02196B1
:100F90002817390744F461E08E810E942602EECFC3
:100FA00088E090E0F4CF8BE39DE00197F1F760E0FB
:100FB000809147030E94F80160E0809149030E94FC
:100FC000F801809148038F3F19F060E00E94F8011A
:100FD0008091520384FD34C063E083E493E00E9477
:100FE0000107CBE4D6E4CE010197F1F763E083E497
:100FF00093E00E9401072197F1F763E083E493E017
:101000000E94010783E592E00197F1F762E083E433
:1010100093E00E9401078091520380620E9487073B
:1010200084E0809353038CE00E9487070E948D0721
:1010300082E08093540386E0DF91CF910C94870780
:1010400080620E9487078BE496E40197F1F7809114
:10105000520380620E94870783E592E00197F1F7CF
:101060008091520380620E948707D5CF90915603EA
:10107000891710F08FEF890FE82FF0E0ED5BFC4F40
:10108000848980680C948707FB0101900020E9F7B0
:101090003197AF01461B570BDC01ED91FC910280AB
:1010A000F381E02D09948F929F92AF92BF920F939C
:1010B0001F93CF93DF93CDB7DEB7A1970FB6F89408
:1010C000DEBF0FBECDBF19A2423008F44AE08E0148
:1010D0000F5D1F4F842E912CB12CA12CA5019401E2
:1010E0000E948013E62FB901CA01EA3004F5E05DE1
:1010F000D801EE938D01232B242B252B79F790E03B
:1011000080E0109729F0BD0183E493E00E94440839
:10111000A1960FB6F894DEBF0FBECDBFDF91CF9181
:101120001F910F91BF90AF909F908F900895E95CB1
:10113000DFCFCF92DF92EF92FF926B017C0141E013
:101140006DE283E493E00E942E0766277727CB01A8
:101150006C197D098E099F094AE00E945308019687
:10116000FF90EF90DF90CF900895BC0183E493E06F
:101170000C9444080F931F93CF93DF938C01D0E01E
:10118000C0E0F801EC0FFD1F6491662341F08AE98D
:1011900092E00E947B04892B11F02196F2CF6EE33E
:1011A00071E08AE992E00E9444088C0F9D1FDF9154
:1011B000CF911F910F9108954F925F926F927F92FE
:1011C0008F929F92AF92BF92CF92DF92EF92FF9257
:1011D0000F931F93CF936B017C01742EAC019B0185
:1011E0000E94671361E471E0811126C04601570136
:1011F000E894B7F82FEF3FEF4FE75FE7C501B40181
:101200000E94671381110CC02FEF3FEF4FE75FE79C
:10121000C501B4010E949D1165E471E0181664F0E7
:101220002FEF3FEF4FE75FE4C701B6010E94F512D1
:101230001816ACF469E471E083E493E0CF911F9158
:101240000F91FF90EF90DF90CF90BF90AF909F9065
:101250008F907F906F905F904F900C9444082FEF89
:101260003FEF4FE75FECC701B6010E949D1187FD7C
:10127000E1CF20E030E0A901C701B6010E949D1135
:1012800010E000E087FF0CC041E06DE283E493E0F2
:101290000E942E07F7FAF094F7F8F09401E010E0BE
:1012A000C0E060E070E080E09FE37C1641F020E069
:1012B00030E040E251E40E94A211CF5FF6CFA701D7
:1012C00096010E9431114B015C010E9414122B0106
:1012D0003C014AE00E945308080F191FCC23C9F1B2
:1012E000C301B2010E9443129B01AC01C501B401CC
:1012F0000E9430114B015C0141E06EE283E493E017
:101300000E942E070F5F1F4FC15018F120E030E000
:1013100040E251E4C501B4010E94FA122B013C01E4
:101320000E9414124B01B12CA12C4AE0C501B4015A
:101330000E945308080F191FC501B4010E944312EF
:101340009B01AC01C301B2010E9430114B015C0151
:10135000DBCFC801CF911F910F91FF90EF90DF90ED
:10136000CF90BF90AF909F908F907F906F905F9045
:101370004F9008950C94581485ED8093BC00809193
:10138000680290916902A0916A02B0916B0207967F
:10139000A11DB11D23E0B695A795979587952A9530
:1013A000D1F72091BC0024FD03C01092660208957D
:1013B000409168025091690260916A0270916B02DB
:1013C000452B462B472B69F30097A105B10541F04A
:1013D0002AE22A95F1F700C00197A109B109E1CFEE
:1013E000809167020C94F1041F920F920FB60F9236
:1013F00011242F933F938F939F93AF93BF9380912B
:10140000960290919702A0919802B0919902309122
:10141000910223E0230F2D3758F50196A11DB11D30
:10142000209391028093960290939702A093980242
:10143000B09399028091920290919302A0919402AC
:10144000B09195020196A11DB11D809392029093D7
:101450009302A0939402B0939502BF91AF919F9194
:101460008F913F912F910F900FBE0F901F90189565
:1014700026E8230F0296A11DB11DD2CF1F920F9215
:101480000FB60F9211242F933F934F935F936F9357
:101490007F938F939F93AF93BF93EF93FF938AE9CB
:1014A00092E00E945904FF91EF91BF91AF919F91FB
:1014B0008F917F916F915F914F913F912F910F90FD
:1014C0000FBE0F901F9018951F920F920FB60F929C
:1014D00011242F938F939F93EF93FF93E091AA0290
:1014E000F091AB028081E091B002F091B10282FDF7
:1014F0001BC090818091B3028F5F8F732091B402E3
:10150000821741F0E091B302F0E0E656FD4F958F6F
:101510008093B302FF91EF919F918F912F910F9044
:101520000FBE0F901F9018958081F4CF1F920F92DD
:101530000FB60F9211242F933F934F935F936F93A6
:101540007F938F939F93AF93BF93EF93FF9380917C
:10155000B900887F803609F44AC0F0F5883209F472
:10156000A5C018F5803109F499C0B8F4882309F4AE
:10157000F5C0883009F492C0FF91EF91BF91AF910F
:101580009F918F917F916F915F914F913F912F919B
:101590000F900FBE0F901F901895883109F486C0E8
:1015A000803251F78093640214C0803409F49BC0E8
:1015B00040F48033B9F38833F9F68093640285EC04
:1015C000AEC0803509F483C0883509F494C08834EE
:1015D00099F60E94BC09D0CF883909F48AC038F541
:1015E000883729F050F4883611F0803729F683E0E7
:1015F0008093660210923B0255C0883809F479C086
:10160000803919F0803809F0B7CF80913B028032E1
:1016100008F06FC0E0913B0281E08E0F80933B02A7
:101620008091BB00F0E0E55EFD4F80833BC0803BD6
:1016300039F0D0F4803A09F477C0883A09F09CCFA9
:1016400084E08093660210921A0210921902F0E070
:10165000E0E009958091190281110FC081E080932B
:1016600019021092F90109C0803C09F4A8CF883C06
:1016700009F4A5CF883B09F07FCFE0911A0281E001
:101680008E0F80931A02F0E0E750FE4F8081809326
:10169000BB0090911A028091190229C080916102C9
:1016A0008093BB0085EC8093BC0066CF9091630271
:1016B00080916202981758F5E091630281E08E0FE5
:1016C00080936302F0E0E05CFD4F8081E9CFE09120
:1016D000630281E08E0F809363028091BB00F0E093
:1016E000E05CFD4F808390916302809162029817C5
:1016F000C8F285E8D8CFE091630281E08E0F809335
:1017000063028091BB00F0E0E05CFD4F808380913C
:10171000650281115ECF81E08093600284EA80934C
:10172000BC001092660228CF85EC8093BC0010921A
:10173000660280913B02803230F4E0913B02F0E09F
:10174000E55EFD4F108260913B0270E08BE192E01C
:10175000F0E0E0E0099510923B020ECF1092640297
:1017600038CFCF93DF93EAE9F2E01382128288EE5A
:1017700093E0A0E0B0E084839583A683B7832AE05A
:1017800031E03183208325EC30E03587248724EC59
:1017900030E03787268720EC30E0318B208B21EC3E
:1017A00030E0338B228B22EC30E0358B248B26EC1F
:1017B00030E0378B268B118E128E138E148EC7E37A
:1017C000D3E01B821A828C839D83AE83BF838CE11E
:1017D00091E099838883A6E7B3E083E015968C9324
:1017E000159786E116968C931697E4E7F2E0E4915C
:1017F0001796EC931797E0E6F2E0E4911896EC93D5
:10180000189740E85EE360E070E01D964D935D93AD
:101810006D937C935097E9E6F3E08AE391E091833E
:101820008083158216821782108680E090E0A0E8FF
:10183000BFE381879287A387B487EBE5F3E085E474
:1018400081838AE999E9A9E9BFE382839383A48329
:10185000B5831782168283E28083D187C087E3E451
:10186000F3E0138212828EE291E09183808386E01E
:1018700084838FEF858387E0868388E0878389E090
:1018800080878AE081878BE082871386148615869D
:101890001686178681E0DF91CF910C949507789496
:1018A00084B5826084BD84B5816084BD85B5826065
:1018B00085BD85B5816085BD80916E008160809316
:1018C0006E0010928100809181008260809381007F
:1018D000809181008160809381008091800081608F
:1018E000809380008091B10084608093B1008091EA
:1018F000B00081608093B00080917A008460809312
:101900007A0080917A00826080937A0080917A00D8
:10191000816080937A0080917A00806880937A0059
:101920001092C100E091AA02F091AB0282E08083A4
:10193000E091A602F091A7021082E091A802F09136
:10194000A9028FEC80831092B202E091AE02F09176
:10195000AF0286E08083E091AC02F091AD0280811D
:1019600080618083E091AC02F091AD02808188605B
:101970008083E091AC02F091AD0280818068808329
:10198000E091AC02F091AD0280818F7D808360E0B8
:1019900082E00E94260262E080917B030E94260280
:1019A0002FB7F8948091960290919702A091980297
:1019B000B09199022FBF805D9740A109B109809332
:1019C0007F0390938003A0938103B093820387E306
:1019D0008093880385E080936B0384E080936C039D
:1019E00061E085E00E94260260E080916C030E9425
:1019F0002602D1E0D0936D0323E220935B03809114
:101A0000630390916403D0933F0220933E021092AF
:101A10003D0210923C02DC01ED91FC910190F081BD
:101A2000E02D60E1099580916303909164030E9429
:101A3000DD05C82F6AE070E080E090E00E94990226
:101A4000C23009F49AC048F4CC2391F08BED91E0B8
:101A5000C13059F088E391E008C084E791E0C330D9
:101A600021F088E591E0C430A9F70E94BA088BC044
:101A700080E190E090936203809361032FB7F89424
:101A80008091960290919702A0919802B09199024C
:101A90002FBF8093650390936603A0936703B09371
:101AA0006803809163039091640320915B03D0935A
:101AB0003F0220933E0210923D0210923C0262E4EB
:101AC00070E00E94E80480916303909164030E9497
:101AD000DD05C82F809163039091640320915B031F
:101AE000D0933F0220933E0210923D0210923C029E
:101AF00065E670E00E94E8048091630390916403BE
:101B00000E94DD05C82B80916303909164032091AE
:101B10005B03D0933F0220933E0210923D0210924D
:101B20003C0260916103709162030E94E80480911D
:101B30006303909164030E94DD05C82B6AE070E0A6
:101B400080E090E00E949902C23009F474C050F421
:101B5000CC23B1F08BE091E0C13009F486CF88E668
:101B600090E083CF84EA90E0C33009F47ECF88E828
:101B700090E0C43009F479CFF2CF86EA91E075CFD6
:101B800085E480935C0382E00E9495070E948D07A4
:101B90008EE591E00E94B50860ED77E080E090E08E
:101BA0000E9499020E948D07C6E0AC2EB12CD0E0B5
:101BB0008D2ED0E09D2EC1E0B5EE2B2EA5EC3A2E59
:101BC0008EE00E9462027C0180918E0290918F02D1
:101BD000B0E9EB16B1E0FB068CF52091900201967E
:101BE0002223B1F180E9E81A81E0F80AA9ECEA16AB
:101BF000F10410F41092900280918E0290918F0265
:101C00008230910509F487C07CF5009709F452C031
:101C1000019709F466C068EC70E080E090E00E94F3
:101C200099028114910461F20E944504882331F2E3
:101C30000E940000C1CF86ED90E017CF29E5E216A3
:101C400022E0F2067CF2209190022111CBCF059682
:101C5000B5010E946C1390938F0280938E02C09303
:101C600090020E948D07BECF8430910509F448C1CF
:101C70000CF42FC1059779F680E00E94360882ECBB
:101C800091E00E94B50881E00E94360880916C03C3
:101C90000E94CF01892B09F0E0C280916C030E9461
:101CA000CF01892B09F48EC260E070E0CB010E9465
:101CB0009902F3CF80E00E9436088EE691E00E9400
:101CC000B50881E00E94360882E00E94CF01892B8E
:101CD00029F08DE491E00E94B5089DCF85E591E063
:101CE000FACF80E00E9436088DE791E00E94B508A7
:101CF00081E00E94360889E891E00E94B5088EE0F4
:101D00000E946202BC01990F880B990B97FFA1C238
:101D10000E94990880CF0E94CC02882349F08091CC
:101D20007C038B3028F08D3050F085518230C0F12B
:101D3000412C512CF0EC6F2EFFE77F2E1EC06091DE
:101D4000770370E090E080E00E9445122DEC3CECBF
:101D50004CEC5DE30E94FA126B017C01609176030A
:101D600070E090E080E00E9445129B01AC01C70149
:101D7000B6010E9431112B013C010E94CC02882344
:101D800041F080917C038C3009F47EC0D8F48B3014
:101D900091F1C12CD12C60ECE62E6FE7F62E55C0E8
:101DA000609176037091770376276727762790E016
:101DB00080E00E9443122DEC3CEC4CEC5DE30E9471
:101DC000FA12D9CF8551823020F7D09178036D2F48
:101DD00070E0762F662766277F7780917903682BDE
:101DE00090E080E00E9443122DEC3CEC4CEC5DE373
:101DF0000E94FA1265C06091780370E090E080E084
:101E00000E9443126B017C01D0917903D7FF0AC075
:101E1000AC019B0160E070E080E89FEB0E94301114
:101E20006B017C01DF706D2F70E090E080E00E941C
:101E300045122DEC3CEC4CEC5DE30E94FA12A7013C
:101E400096010E9431116B017C0180E00E943608EE
:101E500081E991E00E94B50842E0C701B6010E9405
:101E6000DC0888E991E00E94B50881E00E9436080C
:101E70008AE991E00E94B50842E0C301B2010E94E4
:101E8000DC0880EA91E027CFD09178036D2F70E0D5
:101E900090E080E00E9443126B017C016091790325
:101EA0006F7070E090E080E00E9445122DEC3CECF9
:101EB0004CEC5DE30E94FA12A70196010E943111D9
:101EC0006B017C01D7FFC1CFF7FAF094F7F8F094DB
:101ED000BCCF8FE00E9462027C0180E00E94360845
:101EE00082EA91E00E94B50881E00E94360889E804
:101EF00091E00E94B508B701FF0C880B990B06CF43
:101F00008091610390916203892BD9F488E092E07B
:101F10000E94BA08C12CD12CE12C50ECF52E80E0A7
:101F20000E94360881EB91E00E94B50881E00E9492
:101F3000360842E0C701B6010E94DC088EEB91E052
:101F4000CACED0915B030E9474026B017C01809128
:101F50006602811164C0C0936602C0936502BFEF40
:101F6000B093640210926302C0936202C093610254
:101F7000909161028D2F880F892B8093610280914F
:101F80006002813009F0F7C0109260020E94740272
:101F90006B017C01809161028093BB00809168029B
:101FA00090916902A0916A02B0916B02892B8A2BF1
:101FB0008B2BA1F00E94740240906802509069023D
:101FC00060906A0270906B026C197D098E099F09FE
:101FD000461657066806790608F442C08091BC0090
:101FE00083FDD8CF3092BC000E9474026B017C014B
:101FF00080916602813009F4C1C080916302823011
:1020000008F0DEC080916302E0E4F2E0AEE6B2E008
:1020100090E0981751F121912D939F5FFACF809115
:10202000680290916902A0916A02B0916B02892BBB
:102030008A2B8B2B09F48BCF0E947402409068028C
:102040005090690260906A0270906B026C197D0971
:102050008E099F09461657066806790608F077CF5D
:10206000809167020E94F10480E010926D028093DB
:102070006C02C12CD12C40E8E42E4FEBF42E8230C0
:1020800009F58091630390916403DC01ED91FC916B
:102090000284F385E02D0995182F00E080916303F9
:1020A00090916403DC01ED91FC910284F385E02DB5
:1020B0000995802B912BBC0190E080E00E94431297
:1020C0006B017C012FB7F894809196029091970252
:1020D000A0919802B09199022FBF809365039093CD
:1020E0006603A0936703B093680320E030E040E804
:1020F0005FEBC701B6010E949D11882309F40FCF41
:1021000060915C036534A9F070E090E080E00E948B
:1021100043129B01AC0160E070E08AE892E40E9407
:10212000A2119B01AC01C701B6010E94FA126B011A
:102130007C0180916103909162038132910511F0DD
:10214000419751F420E030E040E05FE3C701B60181
:102150000E94FA126B017C0120915D0330915E03B5
:1021600040915F0350916003C701B6010E94A21124
:102170006B017C01D4CE2092BC0036CF80916802E6
:1021800090916902A0916A02B0916B02892B8A2B0F
:102190008B2B09F42DCF0E9474024090680250905E
:1021A000690260906A0270906B026C197D098E0959
:1021B0009F09461657066806790608F019CF50CFD2
:1021C00082E022CF7FB6F89460916B0380916C031C
:1021D0000E94C706D82F60916B0380916C030E9408
:1021E000C706C82E60916B0380916C030E94C706DE
:1021F000D82EF12CE12C80916D038E151F0479F0FF
:1022000070F061E080916B030E94F80160E08091C2
:102210006B030E94F801BFEFEB1AFB0AECCF7FBE05
:102220006C2D70E090E080E0982F872F762F662746
:102230008D2B6D29DD0FDD0BCD2ED12CF12CE12C5A
:10224000FC2CEE24DD24CC246C297D298E299F29A9
:102250005DCD4AE00E945308DECC8DEC91E03BCD91
:102260005058BB27AA270E9448110C94BB120E9409
:10227000AD1238F00E94B41220F039F49F3F19F4E7
:1022800026F40C94AA120EF4E095E7FB0C94A41229
:10229000E92F0E94CC1258F3BA176207730784071C
:1022A000950720F079F4A6F50C94EE120EF4E09563
:1022B0000B2EBA2FA02D0B01B90190010C01CA0100
:1022C000A0011124FF27591B99F0593F50F4503EAB
:1022D00068F11A16F040A22F232F342F4427585F9D
:1022E000F3CF469537952795A795F0405395C9F7B5
:1022F0007EF41F16BA0B620B730B840BBAF091506D
:10230000A1F0FF0FBB1F661F771F881FC2F70EC00B
:10231000BA0F621F731F841F48F4879577956795DE
:10232000B795F7959E3F08F0B0CF9395880F08F0CA
:102330009927EE0F9795879508950E94801208F4CB
:1023400081E008950E94B6110C94BB120E94B41251
:1023500058F00E94AD1240F029F45F3F29F00C9430
:10236000A41251110C94EF120C94AA120E94CC12D8
:1023700068F39923B1F3552391F3951B550BBB27B4
:10238000AA2762177307840738F09F5F5F4F220FF9
:10239000331F441FAA1FA9F335D00E2E3AF0E0E8F0
:1023A00032D091505040E695001CCAF72BD0FE2F3A
:1023B00029D0660F771F881FBB1F261737074807CE
:1023C000AB07B0E809F0BB0B802DBF01FF27935886
:1023D0005F4F3AF09E3F510578F00C94A4120C9494
:1023E000EF125F3FE4F3983ED4F3869577956795B7
:1023F000B795F7959F5FC9F7880F911D96958795BB
:1024000097F90895E1E0660F771F881FBB1F6217D9
:1024100073078407BA0720F0621B730B840BBA0B97
:10242000EE1F88F7E09508950E94D41288F09F5718
:1024300098F0B92F9927B751B0F0E1F0660F771FE8
:10244000881F991F1AF0BA95C9F714C0B13091F0DE
:102450000E94EE12B1E008950C94EE12672F782FCF
:102460008827B85F39F0B93FCCF3869577956795A3
:10247000B395D9F73EF490958095709561957F4F0F
:102480008F4F9F4F0895E89409C097FB3EF49095B5
:102490008095709561957F4F8F4F9F4F9923A9F03D
:1024A000F92F96E9BB279395F695879577956795CC
:1024B000B795F111F8CFFAF4BB0F11F460FF1BC010
:1024C0006F5F7F4F8F4F9F4F16C0882311F096E9A3
:1024D00011C0772321F09EE8872F762F05C0662351
:1024E00071F096E8862F70E060E02AF09A95660F0A
:1024F000771F881FDAF7880F9695879597F90895C3
:10250000990F0008550FAA0BE0E8FEEF1616170604
:10251000E807F907C0F012161306E407F50798F06C
:10252000621B730B840B950B39F40A2661F0232B85
:10253000242B252B21F408950A2609F4A140A69501
:102540008FEF811D811D089597F99F6780E870E0E6
:1025500060E008959FEF80EC089500240A94161619
:10256000170618060906089500240A941216130681
:10257000140605060895092E0394000C11F488230F
:1025800052F0BB0F40F4BF2B11F460FF04C06F5F2B
:102590007F4F8F4F9F4F089557FD9058440F551F01
:1025A00059F05F3F71F04795880F97FB991F61F0D5
:1025B0009F3F79F087950895121613061406551F4C
:1025C000F2CF4695F1DF08C0161617061806991FB8
:1025D000F1CF86957105610508940895E894BB27AD
:1025E00066277727CB0197F908950E94801208F497
:1025F0008FEF08950E940D130C94BB120E94AD1230
:1026000038F00E94B41220F0952311F00C94A4121B
:102610000C94AA1211240C94EF120E94CC1270F3A5
:10262000959FC1F3950F50E0551F629FF001729F77
:10263000BB27F00DB11D639FAA27F00DB11DAA1F86
:10264000649F6627B00DA11D661F829F2227B00DD3
:10265000A11D621F739FB00DA11D621F839FA00D5E
:10266000611D221F749F3327A00D611D231F849FAE
:10267000600D211D822F762F6A2F11249F57504005
:102680009AF0F1F088234AF0EE0FFF1FBB1F661F80
:10269000771F881F91505040A9F79E3F510580F049
:1026A0000C94A4120C94EF125F3FE4F3983ED4F321
:1026B000869577956795B795F795E7959F5FC1F7ED
:1026C000FE2B880F911D9695879597F908950E9486
:1026D0008012880B990B089597FB072E16F400942F
:1026E00007D077FD09D00E94A21307FC05D03EF465
:1026F000909581959F4F0895709561957F4F0895AE
:10270000A1E21A2EAA1BBB1BFD010DC0AA1FBB1FF5
:10271000EE1FFF1FA217B307E407F50720F0A21B67
:10272000B30BE40BF50B661F771F881F991F1A94D4
:1027300069F760957095809590959B01AC01BD01FE
:10274000CF010895AA1BBB1B51E107C0AA1FBB1FE5
:10275000A617B70710F0A61BB70B881F991F5A952D
:10276000A9F780959095BC01CD010895EE0FFF1F4C
:102770000590F491E02D09940F931F93CF93DF936D
:102780008230910510F482E090E0E0918B03F091AB
:102790008C0330E020E0B0E0A0E0309799F4211500
:1027A000310509F44AC0281B390B24303105D8F50E
:1027B0008A819B816115710589F1FB019383828375
:1027C000FE0111C0408151810281138148175907D0
:1027D000E0F04817590799F4109761F012960C939E
:1027E000129713961C933296CF01DF91CF911F91D0
:1027F0000F91089500938B0310938C03F4CF211550
:10280000310551F04217530738F0A901DB019A0155
:10281000BD01DF01F801C1CFEF01F9CF90938C0327
:1028200080938B03CDCFFE01E20FF31F8193919331
:102830002250310939832883D7CF209189033091E1
:102840008A03232B41F4209102013091030130933C
:102850008A03209389032091000130910101211501
:10286000310541F42DB73EB7409104015091050167
:10287000241B350BE0918903F0918A03E217F307DB
:10288000A0F42E1B3F0B2817390778F0AC014E5FE0
:102890005F4F2417350748F04E0F5F1F50938A0390
:1028A00040938903819391939FCFF0E0E0E09CCF28
:1028B000CF93DF930097E9F0FC01329713821282E5
:1028C000A0918B03B0918C03ED0130E020E01097D4
:1028D000A1F420813181820F931F209189033091CF
:1028E0008A032817390709F061C0F0938A03E0933F
:1028F0008903DF91CF910895EA01CE17DF07E8F54C
:102900004A815B819E0141155105B1F7E901FB83C5
:10291000EA8349915991C40FD51FEC17FD0761F463
:10292000808191810296840F951FE90199838883A4
:10293000828193819B838A83F0E0E0E012968D91FF
:102940009C9113970097B9F52D913C911197CD016A
:102950000296820F931F2091890330918A032817D2
:10296000390739F6309751F510928C0310928B038A
:10297000B0938A03A0938903BCCFD383C2834081E1
:102980005181840F951FC817D90761F44E5F5F4FBF
:1029900088819981480F591F518340838A819B8187
:1029A000938382832115310509F0B0CFF0938C0316
:1029B000E0938B039ECFFD01DC01C0CF1382128216
:0629C000D7CFF894FFCF11
:1029C60000008D038000000000007B04DB03080488
:1029D600C804390417042B0400000000AE05810565
:1029E600C40657057A0567055805000000008107EB
:1029F600DB03C406F00400000000EF04BA090D0A68
:102A0600006E616E00696E66006F76660041435423
:102A16004956452000494E41435449564500496EA2
:102A2600697469616C697A696E672E2E2E00546F1F
:102A36007563682053656E736F723A20004A6F792A
:102A4600737469636B20593A0056616C75653A2058
:102A56000054656D703A2000430048756D3A2000B9
:102A660025004D51382048322053656E736F723AF7
:102A760000496C6C756D696E616E63653A00206C19
:102A860078004C6F61642043656C6C3A004E6F743D
:082A9600207265616479000003
:00000001FF
