:020000040000FA
:100000000C9486010C94B7010C94B7010C94B701C1
:100010000C94B7010C94B7010C94B7010C94B70180
:100020000C94B7010C94B7010C94B7010C94B70170
:100030000C94B7010C94B7010C94B7010C94B70160
:100040000C94B7010C94B7010C94B7010C94B70150
:100050000C94B7010C94B7010C94B7010C940C24C8
:100060000C94B7010C9480240C9456240C94B70182
:100070000C94B7010C94B7010C94B7010C94B70120
:100080000C94B7010C94B7010C94B7010C94B70110
:100090000C94B7010C94B7010C94B7010C94B70100
:1000A0000C94B7010C94B7010C94B7010C94B701F0
:1000B0000C94B7010C94B7010C94B7010C94B701E0
:1000C0000C94B7010C94B7010C94B7010C94B701D0
:1000D0000C94B7010C94B7010C94B7010C94B701C0
:1000E0000C94B7010C94B4170C947A0A0C94791EF2
:1000F0000C9402070C9428070C94940A0C94660242
:100100000C94161A0C9440020C9439020C94811A27
:100110000C94B7160C9445070C9473070C946C1749
:100120000C9431020C945E020C9465170C947002CE
:100130000C943D020C9442090C9499070C94381AC3
:100140000C9415030C9458020C9454020C940B0D4F
:100150000C943A0A0C94D9020C9462020C94060393
:100160000C944D160C94121E0C947D1F0C943A1F87
:100170000C9446020C949F1E0C946F030C94500236
:100180000C941F020C945D070C948B070C9434168E
:100190000C9457090C94781F0C941A020C94911A21
:1001A0000C94C41F0C94A6170C949A070C94350257
:1001B0000C9429030C9489170C94A71F0C94951781
:1001C0000C9481090C946C020C948A0A0C949E097C
:1001D0000C94680A0C9401250C94F3060C94771A7D
:1001E0000C94BC030C944A020C94300D0C947507CB
:1001F0000C9437030C94D7200C94A71D0C94911FDA
:100200000C940A1A00000A0B02090C0D0E080703D1
:1002100004010000000000000000000000000000D9
:1002200000000000000000000000000000000000CE
:10023000121110000000000000000000000000008B
:100240000000000000000000000000002200250067
:1002500028002B002E0031003400020100000501AF
:1002600008010B0100002100240027002A002D00B6
:100270003000330001010000040107010A010505F7
:100280000505070508080808020202020A0A08080C
:10029000040404040101010101010101030303033A
:1002A00003030303040707070C0C0C0C0C0C0C0CC9
:1002B0000202020206060606060606060B0B0B0BDA
:1002C0000B0B0B0B010210202008081020401020FF
:1002D000408002010201080402010102040810200A
:1002E0004080804020100804020180040201804008
:1002F0002010080402010804020101020408102071
:1003000040800102040810204080012511241FBEF6
:10031000CFEFD1E2DEBFCDBF00E00CBF13E0A0E025
:10032000B2E0E4EDF4E500E00BBF02C007900D92EF
:10033000A639B107D9F727E0A6E9B3E001C01D92BD
:10034000AD3CB207E1F711E0C6E8D1E000E006C03D
:1003500021970109802FFE010E94352AC538D10757
:1003600080E00807A9F70E9491250C94682A0C9454
:10037000000090E0FC01EC53FD4F249182589D4F0A
:10038000FC018491882399F090E0880F991FFC016B
:10039000EC59FD4FA591B491FC01E65BFD4F8591B1
:1003A00094918FB7F894EC91E22BEC938FBF089562
:1003B00020E3FC0120833296862F82958F706F7028
:1003C0006A3030F4605D6293682F8111F5CF089533
:1003D000695CF9CF282F30E0F901EC5FFD4F949173
:1003E000F901EC53FD4F449122583D4FF9012491FE
:1003F000222309F435C0992311F191509231F8F478
:10040000E92FF0E08827E85FFD4F8F4F0C94352AE5
:1004100039023D021A02310235021F024002460231
:100420004A025002540258025E0262021F02660231
:100430006C027002809180008F7780938000E22FA1
:10044000F0E0EE0FFF1FE65BFD4FA591B4918FB773
:10045000F894EC91611148C040954E234C938FBFA6
:100460000895809180008F7DE8CF80918000877F04
:10047000E4CF84B58F7784BDE2CF84B58F7DFBCF89
:100480008091B0008F778093B000D9CF8091B00079
:100490008F7DF9CF809190008F7780939000CFCFA0
:1004A000809190008F7DF9CF80919000877FF5CF6C
:1004B0008091A0008F778093A000C1CF8091A00091
:1004C0008F7DF9CF8091A000877FF5CF80912001AB
:1004D0008F7780932001B3CF809120018F7DF9CF5A
:1004E00080912001877FF5CF4E2BB8CF3FB7F8948E
:1004F0008091780490917904A0917A04B0917B0462
:1005000026B5A89B05C02F3F19F00196A11DB11D6E
:100510003FBFBA2FA92F982F8827BC01CD01620FAA
:10052000711D811D911D42E0660F771F881F991F65
:100530004A95D1F708958F929F92AF92BF92CF9232
:10054000DF92EF92FF924B015C010E9476026B01F9
:100550007C010E9476026C197D098E099F09683E14
:10056000734081059105A8F321E0821A9108A10842
:10057000B10888EEC80E83E0D81EE11CF11C81147E
:100580009104A104B10429F7FF90EF90DF90CF9080
:10059000BF90AF909F908F9008952FB7F89460917F
:1005A00074047091750480917604909177042FBF44
:1005B0000895AF92BF92CF92DF92EF92FF920F9386
:1005C0001F93CF93DF936C017B018B01040F151FE9
:1005D000EB015E01AE18BF08C017D10759F0699151
:1005E000D601ED91FC910190F081E02DC6011995A5
:1005F000892B79F7C501DF91CF911F910F91FF9062
:10060000EF90DF90CF90BF90AF900895FC01538D95
:10061000448D252F30E0842F90E0821B930B5417DC
:1006200010F0CF96089501970895FC01918D828D69
:10063000981761F0A28DAE0FBF2FB11D5D968C9102
:10064000928D9F5F9F73928F90E008958FEF9FEF41
:100650000895FC01918D828D981731F0828DE80FFD
:10066000F11D858D90E008958FEF9FEF0895FC01B7
:10067000918D228D892F90E0805C9F4F821B910984
:100680008F739927089580EA96E00E94370321E04E
:10069000892B09F420E0822F0895FC01A48DA80F76
:1006A000B92FB11DA35ABF4F2C91848D90E00196B4
:1006B0008F739927848FA689B7892C93A089B189D4
:1006C0008C91837080648C93938D848D981306C075
:1006D0000288F389E02D80818F7D80830895EF92D9
:1006E000FF920F931F93CF93DF93EC0181E0888FEC
:1006F0009B8D8C8D98131AC0E889F989808185FFBC
:1007000015C09FB7F894EE89FF896083E889F9895D
:1007100080818370806480839FBF81E090E0DF915F
:10072000CF911F910F91FF90EF900895F62E0B8DB2
:1007300010E00F5F1F4F0F731127E02E8C8D8E116D
:100740000CC00FB607FCFACFE889F989808185FFD4
:10075000F5CFCE010E944D03F1CFEB8DEC0FFD2FB5
:10076000F11DE35AFF4FF0829FB7F8940B8FEA898F
:10077000FB8980818062CFCFCF93DF93EC01888D9E
:100780008823B9F0AA89BB89E889F9898C9185FD0C
:1007900003C0808186FD0DC00FB607FCF7CF8C919A
:1007A00085FFF2CF808185FFEDCFCE010E944D0302
:1007B000E9CFDF91CF91089580E090E0892B29F077
:1007C0000E94430381110E94000080E090E0892B89
:1007D00049F080E090E0892B29F00E94000081110F
:1007E0000E94000080E090E0892B49F080E090E0DA
:1007F000892B29F00E94000081110E94000080E0F6
:1008000090E0892B49F080E090E0892B29F00E944C
:10081000000081110C94000008958823E9F0A4E8F9
:10082000B5E025E014969C91149789130DC095E0CE
:10083000899FF0011124EC57FA4F848114968C9310
:100840001382128214820895992331F0929FD0016D
:100850001124AC57BA4FE6CF08958823A1F09091A8
:100860009506992381F08F3F29F48091910690910C
:100870009206089595E0899FF0011124EC57FA4FF4
:1008800082819381089590E080E008958EBD0000FC
:100890000DB407FEFDCF8EB508951F93CF93DF9360
:1008A000182FC62FD42F60E085E30E94EA018C2F19
:1008B0008F71812B0E9446048D2F0E94460461E0B7
:1008C00085E3DF91CF911F910C94EA01CF93DF93E1
:1008D000D82FD076909100029D17A1F0C82F43E049
:1008E0006FE180EA0E944D044C2F50E085E0559561
:1008F00047958A95E1F743706FE180E80E944D04C7
:10090000D0930002DF91CF9108951F93CF93DF938F
:10091000C82F162FD72F0E946604412F6C2F80E41A
:100920000E944D0461E06C0F4D2F80E4DF91CF9168
:100930001F910C944D04EF92FF920F931F93CF934E
:10094000DF938B017A018F3F59F095E0899FE00199
:100950001124CC57DA4F68817981600F711F0FC065
:1009600060918F0670919006600F711FCFE8D6E0FE
:10097000611588E0780778F37850CFE8D6E080E01A
:100980000E9485048A819B81801B910BE816F906E1
:1009900008F4C701DF91CF911F910F91FF90EF9065
:1009A0000895EF92FF920F931F93CF93DF93EB0184
:1009B00070E060E00E949B048C0160E085E30E948F
:1009C000EA018AE30E9446047E01E00EF11EEC1665
:1009D000FD0629F080E00E9446048993F8CF61E08B
:1009E00085E30E94EA01C801DF91CF911F910F9129
:1009F000FF90EF90089560918D0670918E066115BD
:100A0000710529F0615071098CE00C9485046FEF39
:100A100077E0FACFCF93DF93C82FD62F0E946604DA
:100A20004D2F6C2F80E4DF91CF910C944D04CF9328
:100A3000DF93D82FC62F60E085E30E94EA018C2F58
:100A40008F718D2B0E944604C7FF03C080E00E9477
:100A5000460480E00E944604C82F61E085E30E94BE
:100A6000EA018C2FDF91CF910895CF93C82F0E9478
:100A700066046C2F80E0CF910C941705CF93DF9321
:100A8000EB01682F84ED0E940A05BE0186ED0E94ED
:100A90008504CFE0D0E08AEE0E94350580FF08C0D3
:100AA0006AE070E080E090E00E949B02219799F755
:100AB000DF91CF910895CF93C62FBC0182E00E94B1
:100AC000850460E085E30E94EA018AE70E9446040B
:100AD0008C2F0E94460461E085E3CF910C94EA01DB
:100AE000CF93BC0180E00E94850460E085E30E9412
:100AF000EA018AE30E94460480E00E944604C82F6F
:100B000061E085E30E94EA018C2FCF910895CF9296
:100B1000DF92EF92FF920F931F93CF93DF936C01BD
:100B20008B014130510579F4CB010E947005682F8B
:100B3000C601DF91CF911F910F91FF90EF90DF9051
:100B4000CF900C945B05EA01C60FD71F7E0181E0B0
:100B5000E81AF10880E10E948504B60184E10E9450
:100B600085040115184048F4E11488E0F80628F0DF
:100B70007E0181E0E81A88E0F80AB70182E10E946C
:100B8000850440E16FE180EA0E944D0440E26FE19C
:100B900080E80E944D046FE180E00E94170585FF08
:100BA00007C061E070E080E090E00E949B02F3CF1C
:100BB000DF91CF911F910F91FF90EF90DF90CF9039
:100BC0000895CF92DF92EF92FF920F931F93CF93EE
:100BD000DF938C0160918405709185056150784E9A
:100BE000C12C98E1D92EE4E8F5E020E0D0E0C0E0A7
:100BF00045E03481CB01332341F0439FC0011124F0
:100C00008C579A4FDC018D919C91E080F1808E1978
:100C10009F090280F381E02D8E1B9F0B80179107A7
:100C200099F4B5E02B9FE0011124CC57DA4FE9E8A5
:100C3000F5E081E022813381232B09F453C03596FE
:100C40008F5F8533B9F744C00817190748F48C152E
:100C50009D0530F4249FE0011124CC57DA4F6C013C
:100C6000311121C0209719F7C4E8D5E085E0D82ECE
:100C70008C8128813981EA80FB808823D9F0E20EBB
:100C8000F31E8D9DE0011124CC57DA4F68817981E4
:100C9000E616F70669F34A815B81C7010E94870562
:100CA000F982E882E5CF349FF0011124EC57FA4F26
:100CB000232F9FCF8091840590918505821B930BF4
:100CC0008E199F098150984E8017910708F0AFCF79
:100CD00080E0DF91CF911F910F91FF90EF90DF9017
:100CE000CF900895288139814A815B81240F351F77
:100CF00031832083138302839C8194838C83E9CF87
:100D00000F931F93DB01E42FA80190E0EF3FE1F088
:100D100065E0E69FF0011124EC57FA4F6081718184
:100D2000620F731F01C0785025E0289FF001299FB2
:100D3000F00D1124EC57FA4F808191818A0F9B1F8F
:100D40001F910F910C94870560918F06709190060A
:100D5000620F731F6115E8E07E0728F7EFE8F6E001
:100D6000DDCFCF92DF92EF92FF920F931F93CF933D
:100D7000DF936B018A01790195E0899FE0011124DD
:100D8000CC57DA4F688179816C0D7D1D82E00E941D
:100D900085040A80DB81C02DCC19DD09EC16FD0627
:100DA00008F4E70160E085E30E94EA018AE70E9417
:100DB00046047801EC0EFD1EE016F10631F0F80154
:100DC00081918F010E944604F7CF61E085E30E9484
:100DD000EA01CE01DF91CF911F910F91FF90EF902B
:100DE000DF90CF900895DC011C96ED91FC91309737
:100DF00031F086819781982789279827089590E078
:100E000080E00895CF93DF93FC01EB01AC85BD85B5
:100E10001097A9F012969C91129713968C911397A4
:100E20003C9111962C9141E852E0518340833283EA
:100E3000238394838583CF01DF91CF91089581E847
:100E400092E0918380831282138214821582F3CF01
:100E5000CF93DF931F92CDB7DEB7DC01ED91FC910C
:100E6000048CF58DE02D41E050E0BE016F5F7F4FB7
:100E700019951816190634F4898190E00F90DF91C6
:100E8000CF9108958FEF9FEFF9CFCF93DF93EC01D0
:100E90008A89882379F09A01AB016E857F850E944B
:100EA000B1062E853F85280F391F3F872E87DF919A
:100EB000CF91089590E080E0FACFCF93DF931F9217
:100EC000CDB7DEB76983DC01ED91FC910280F3813F
:100ED000E02D41E050E0BE016F5F7F4F19950F900C
:100EE000DF91CF91089580E00895CF93DF931F9213
:100EF000CDB7DEB76983DC01ED91FC910280F3810F
:100F0000E02D41E050E0BE016F5F7F4F19950F90DB
:100F1000DF91CF910895762767277627DC01159614
:100F20007C936E931497ED91FC910084F185E02DF4
:100F30001994089590E080E00895FB014150510913
:100F4000460F571FE417F50778F4208130E0322F61
:100F500022276181260F311D820F931F821793076D
:100F600008F401963296EECFE417F50751F420818C
:100F700030E0322F2227820F931F8217930708F445
:100F800001960895CF92DF92EF92FF920F931F93F5
:100F9000CF93DF93C82FE090D103F12CFE2CEE24E9
:100FA0004091D2034451550BE40EF51E48E050E049
:100FB0006BED73E0C7018C0F911D0E949D0708E047
:100FC000C13129F00091EF03069506950C7310E0EE
:100FD000A80163EE73E00E949D07EC010E151F054A
:100FE00008F049C0A701401B510B8091980362E2B1
:100FF00070E081FF02C063E270E0600F711F8091BA
:1010000099030E949B0401977C0160E085E30E94A4
:10101000EA018AE30E944604D12CC12CCE14DF04DD
:10102000B8F480E00E944604082F10E0102F00273B
:1010300080E00E944604800F912F911DC80FD91F98
:10104000C817D90708F4219682E0C80ED11CE6CF54
:10105000EC14FD0461F480E00E94460490E0982FB7
:101060008827C80FD91FC817D90708F4219661E04F
:1010700085E30E94EA019C2F8D2FCD2B11F48FEF79
:101080009FEFDF91CF911F910F91FF90EF90DF9035
:10109000CF90089544E150E06FEC73E090E080E081
:1010A0000E949D07009721F0982789279827089587
:1010B0008FEF9FEF0895CF93DF93EC01AC81BD815B
:1010C000E7E2F4E08A819B8191838083B383A283EA
:1010D000FA0184819581E9EBF3E0DA0112964D91F2
:1010E0005C915183408393838283E9018C819D814C
:1010F000EDEBF3E02A813B8131832083938382836C
:10110000FB0182819381A481B58180939E07909396
:101110009F07A093A007B093A107DF91CF910895F7
:10112000FF920F931F93CF93DF93C0919803C1FF5A
:1011300066C02091960330E041EC53E061E070E03E
:10114000809199030E94B106CD7FC0939803F090DF
:10115000990380919506882309F444C085E0F89EA0
:10116000F0011124EC57FA4F00811181C281D38123
:10117000C00FD11F60E0C8010E945B05B80184E088
:101180000E948504BE016850710986E00E948504B2
:101190001AE0249740E86FE180E80E944D0440E89F
:1011A0006FE180EA0E944D044AE06CE180EA0E940F
:1011B0004D0448E06FE180E80E944D048CE10E94FC
:1011C0003505082F8A70D1F348E06FE180EA0E946C
:1011D0004D0401FF2DC0CE010E94700585FF02C0A5
:1011E0001150C1F6C0E08F2D0E940D04109299039A
:1011F0008C2FDF91CF911F910F91FF900895C09197
:10120000B103D091B203CE01089621F41092990354
:10121000C0E0EECF0E94E105809399038823C1F3DB
:101220009E0141EC53E061E070E00E94B1068FCF77
:10123000C1E0D9CF0F931F93CF93DF93EC018C01C3
:101240000B5F1F4F89910E940D04FE0131971082A0
:10125000C017D107B9F7DF91CF911F910F91089572
:10126000CF93DF93EC0188810E940D04FE01CE0133
:10127000049621812193E817F907D9F71C82DF91A1
:10128000CF910895CF93DF93EC01E881F981008C31
:10129000F18DE02D1995882339F08C859D85029676
:1012A000DF91CF910C941A09DF91CF9108950F939C
:1012B0001F93CF93DF931F92CDB7DEB78C01DC0174
:1012C000ED91FC91008CF18DE02D19958823B1F002
:1012D000D8011C96ED91FC918281882379F041E040
:1012E00050E0BE016F5F7F4F0E94D104898190E082
:1012F0000F90DF91CF911F910F9108958FEF9FEF86
:10130000F7CFCF93DF931F92CDB7DEB7DC01ED911E
:10131000FC910288F389E02D41E050E0BE016F5F4F
:101320007F4F19951816190634F4898190E00F90B3
:10133000DF91CF9108958FEF9FEFF9CF6F927F925A
:101340008F929F92AF92BF92CF92DF92EF92FF92D5
:101350000F931F93CF93DF938C014B01EA01DC01C4
:10136000ED91FC91008CF18DE02D1995882309F405
:101370007BC0D8011C96ED91FC918281882309F4F1
:1013800076C07E018EE1682EBE016E197F09680D60
:10139000791DD8011C96ED91FC91A70182810E94D4
:1013A000D1046C01F801A484B584D50112967C9017
:1013B000872D0E942D04C816D906E9F5EC18FD0802
:1013C000C50102960E943009F801A485B585EC910B
:1013D0006E9EF0011124ED5FFA4F818D84FF09C0EC
:1013E00011968C911197982F967019F48860119628
:1013F0008C93D8011C96ED91FC911D9782818111EF
:101400002EC0818182FF05C011821D961C921E9202
:101410001C97CE018E199F09DF91CF911F910F91DB
:10142000FF90EF90DF90CF90BF90AF909F908F9004
:101430007F906F900895B5E07B9EF0011124EC57EA
:10144000FA4F808191818C0D9D1D918380838281D3
:1014500093818C199D0993838283CE01DDCFE114A2
:10146000F10409F091CFF9CF8FEF9FEFD5CF90E046
:1014700080E0D2CFEF92FF920F931F93CF93DF9331
:10148000EC01E881F981008CF18DE02D199588231C
:10149000E1F00C851D85780182E0E80EF11C095F02
:1014A0001F4FD0E0C0E0F70181917F010E942D0421
:1014B000C80FD91FE016F106B1F7CE01DF91CF9129
:1014C0001F910F91FF90EF900895D0E0C0E0F5CF0D
:1014D000FC01448555854115510551F0FB012485DA
:1014E00035852115310521F081E04217530709F0B8
:1014F00080E00895DC011C96ED91FC91309731F06D
:101500008281811105C081818170089580E00895F4
:1015100081E00895DC01ED91FC91028CF38DE02DCA
:10152000199591E089270895DC01ED91FC91048CD7
:10153000F58DE02D1994CF93DF930E94CD02665074
:101540007F4F8F4F9F4F60939C0670939D068093B3
:101550009E0690939F0680919506811145C085E374
:101560000E94B90161E085E30E94EA01CFB7F894D7
:1015700080919406811124C0E3EBF2E08491E9EFBD
:10158000F2E09491E82FF0E0EE0FFF1FEC59FD4FD1
:10159000A591B491EC91E92321F461E085E30E94E7
:1015A000EA0185E30E94B9018CB580618CBD8CB5E0
:1015B00080648CBD84E30E94B90183E30E94B90179
:1015C000809194068F5F80939406CFBF8CB58C7FFB
:1015D0008CBD8DB581608DBD82E70E9435058F3F42
:1015E00009F440C0809395061092900610928F06E1
:1015F0001092920610929106E4E8F5E089E091E0FD
:10160000DF019C011D9221503040E1F781E098E01C
:1016100090938505809384054FEF60E08FEF0E94E3
:101620004D0462E070E080E090E00E949B0262E383
:1016300070E080E090E00E949B0210928E06109273
:101640008D06C0E1D0E06DE180E00E9417058111B8
:101650000CC0219751F06AE070E080E090E00E94B9
:101660009B02F1CF10929506BFCF70E060E088E05A
:101670000E94850470E060E08CE00E9485046FEFBA
:1016800077E08AE00E94850461EB88E30E940A0506
:101690006FE370E388E20E94850469EF77EF80E3EF
:1016A0000E9485046DE070E080EC0E94850442E3B6
:1016B00062EC80E80E944D0462E17CE086EC0E94CE
:1016C000850462E184EC0E940A056CED75E08AEC09
:1016D0000E9485046091010284EE0E940A056091D7
:1016E000020285EE0E940A056091030282EE0E94CA
:1016F0000A056091040283EE0E940A0560910502CA
:1017000080EE0E940A056091060281EE0E940A05A1
:1017100060E071E080E10E943E058FE10E94660476
:1017200040EC6BE180E80E944D0444E06FE180E80A
:101730000E944D0466E774E084E10E943E058091BA
:101740000102809396068091020280939706809111
:1017500003028093980680910402809399068091F9
:10176000050280939A068091060280939B06109250
:101770007C0510927B0510927E0510927D051092DB
:10178000800510927F0510928205109281051092BB
:101790001C0510923A05109258051092760580E0CB
:1017A00094E090930205809301051092DA04109260
:1017B000D9041092E5041092E4041092F0041092FF
:1017C000EF041092FB041092FA0484E080938305E6
:1017D0001092D4049BE024E08091D404883018F067
:1017E000DF91CF910895899FF0011124E458FB4FB8
:1017F000DF01322F1D923A95E9F78F5F8093D40471
:10180000EBCF1F93CF93DF93CDB7DEB7C455D1098C
:101810000FB6F894DEBF0FBECDBFFC01828193816D
:10182000A481B58165968CAF9DAFAEAFBFAF659714
:1018300011E065961FAF659765964CAD5DAD6EADD9
:101840007FAD659729964CAF5DAF6EAF7FAF29979F
:1018500023968CAF9DAFAEAFBFAF239723961FAF3C
:10186000239723964CAD5DAD6EAD7FAD239749AF09
:101870005AAF6BAF7CAF29961FAF299729964CAD15
:101880005DAD6EAD7FAD29974BAB5CAB6DAB7EAB09
:101890001CAF49AD5AAD6BAD7CAD4FA358A769A73E
:1018A0007AA71EAB4BA95CA96DA97EA949A35AA32F
:1018B0006BA37CA38B8F9C8FAD8FBE8F0E949B0AE6
:1018C00081E892E09C8B8B8B2FEF2D8B2E8B2F8BB7
:1018D000188E9E878D871AA74FA158A569A57AA54E
:1018E0004F87588B698B7A8B98878F831CA349A16C
:1018F0005AA16BA17CA149875A876B877C879A8301
:1019000089838B8D9C8DAD8DBE8D8B839C83AD83A8
:10191000BE839E012D5E3F4FAE01435F5F4FBE0110
:10192000695F7F4FCE0101960E945B08CC5ADF4F62
:101930000FB6F894DEBF0FBECDBFDF91CF911F91E0
:1019400008950F931F93CF93DF93DC01209101053E
:10195000309102052F5F3F4F21158DE7380710F0BA
:1019600020E030E1522F432FE5EDF4E0EF0180E07D
:101970008430A1F4309302052093010530E020E08B
:101980002430310599F484E080938305F0E0E0E0B1
:10199000CF01DF91CF911F910F9108950C811D818F
:1019A0008F5F2B960417150719F7D4CFC481D58103
:1019B000C90101963B96CD2B09F5209383058BE059
:1019C000829FF001839FF00D1124EB52FB4F558352
:1019D000448377836683109799F484E0DF011D9236
:1019E0008A95E9F78BE0829FD001839FB00D112487
:1019F000AB52BB4F80E418968C93CACF9C01C0CFEA
:101A00008D919C9111979183808312968D919C91D9
:101A100093838283E7CF0F931F93CF93DF93EC01E0
:101A20008B018C859D85892B41F470E060E090E00E
:101A300080E00E94A10C9D878C87EC85FD8580E06D
:101A4000309749F0102701271027158304832E961D
:101A5000D287C18781E0DF91CF911F910F910895C7
:101A6000CF93DF93DC011C96ED91FC913097B1F0A0
:101A7000EC0115821482128611861D861C868989C6
:101A80000E940D0488890E940D048A890E940D0419
:101A90002E9686E0FE0111928A95E9F7DF91CF91AB
:101AA0000895FC011382128288EE93E0A0E0B0E07A
:101AB00084839583A683B7838FE092E091838083AC
:101AC000158614863E9686E0DF011D928A95E9F719
:101AD0000895DC0181E892E08D939D9384E0FB0101
:101AE00001900D928A95E1F70895EF92FF920F937E
:101AF0001F93CF93DF93FC011092D404CCE7D4E082
:101B0000DE0130E020E02830310569F490E09830C3
:101B100009F042C01092B0031092AF031092D404A7
:101B20002CE734E044C0CD018C5794400D911C91BA
:101B300011970115110561F112964D915C91139762
:101B40004115510529F1E080F1800E151F0501F5C1
:101B50000281138140175107D9F42093D404DC018A
:101B6000A058BB4F86E0FB0101900D928A95E1F7EA
:101B70008BE0829FF001839FF00D1124E458FB4F0E
:101B80001286DF91CF911F910F91FF90EF900895F2
:101B90002F5F3F4F1B96B7CF9E0148815981452B40
:101BA000B1F44A815B81452B91F49093D40484E095
:101BB000D90101900D928A95E1F7D901149686E03A
:101BC000FB0101900D928A95E1F7F901D9CF9F5F52
:101BD0002B969DCFEF92FF920F931F93CF93DF939E
:101BE00000D000D0CDB7DEB74091DF035091E003C5
:101BF0004F3F540731F48091E1039091E203019645
:101C000019F180912704909128046091BD0370918F
:101C1000BE039B0120953095282B392B4217530783
:101C2000A9F52091BF033091C00320953095E09134
:101C30002904F0912A042E2B3F2BE091E103F0912F
:101C4000E203E217F30711F586E0E3E3F2E0A1EC2B
:101C5000B3E001900D928A95E1F786E0E6E9F6E0BF
:101C6000A7ECB3E001900D928A95E1F788E090E04F
:101C70009093CE038093CD038091B1039091B203F2
:101C80000E969093B2038093B103A5C08427952745
:101C900086239723892B99F42091E1033091E20365
:101CA0008091290490912A04822793276091BF0391
:101CB0007091C00386239723892B09F499C08091E2
:101CC000B9039091BA039093B6038093B5038091C2
:101CD000BB039091BC039093B8038093B703E0904B
:101CE000B503F090B6030091B7031091B803ECE789
:101CF000F4E080E0883009F084C08093D40446E0AA
:101D000050E06FEF70E081EC93E00E945A2A86E089
:101D1000E1EEF3E0DF01282F1D922A95E9F7E6E9CD
:101D2000F6E0A7ECB3E0982F01900D929A95E1F7B9
:101D3000E6E9F6E0A7EDB3E0982F01900D929A95B1
:101D4000E1F7F092E803E092E7031093EA030093CF
:101D5000E90320912704309128043093DE03209377
:101D6000DD032091290430912A043093E00320936D
:101D7000DF0320E031E03093D6032093D503309386
:101D8000D0032093CF0328E030E03093D203209398
:101D9000D1038093D30394E09093D40328E036E0FA
:101DA0003093CE032093CD0327EF33E03093B40379
:101DB0002093B3032AE230E03093B2032093B103BF
:101DC000BE016F5F7F4FDB011D928A95E9F785EBBE
:101DD00093E00E94750D26960FB6F894DEBF0FBEF5
:101DE000CDBFDF91CF911F910F91FF90EF9008959C
:101DF0005093B6034093B5033093B8032093B703D1
:101E00006ECF20813181E216F306E1F42281338125
:101E100002171307B9F49481911103C09581992396
:101E200029F08093D404349686E011CF96819111E5
:101E3000F8CF97819111F5CF90859111F2CF9185CF
:101E40009111EFCF8F5F3B9655CFCF93DF93EC018E
:101E50000E94EA0D8091B1039091B2038A9759F4E0
:101E600010929903809198038D7F80939803DF915E
:101E7000CF910C9490080E9490081D821C82DF91E3
:101E8000CF9108959C01AB017093AE036093AD03B5
:101E90001616170654F48091AB039091AC03821789
:101EA000930719F0B9010C94512A0895EF92FF920B
:101EB0000F931F93CF93DF93E091A203F091A303BD
:101EC000C185D285209709F456C0E090A803E1FEB1
:101ED0001FC08A8181111CC08091E3039091E403AB
:101EE000978386838091DB039091DC0391838083C9
:101EF0008091DD039091DE03938382838091E703D9
:101F00009091E803982789279827089709F51A825E
:101F1000E3FE31C08D81882371F18C818093990318
:101F2000809198038260809398038AE2809396035D
:101F3000688179816B5271098091B3039091B403E8
:101F4000DF91CF911F910F91FF90EF900C94420F72
:101F50000E94E105F82E8A838823D1F20E942D0485
:101F60008C012AE230E04091970370E060E08F2D11
:101F70000E948006CDCFDF91CF911F910F91FF90EE
:101F8000EF900895AF92BF92CF92DF92EF92FF92BF
:101F90000F931F93CF93DF93E090A903F090AA03D0
:101FA000F701C48DD58DD090A803209761F5D6FC9C
:101FB00003C0F12CE12CC1C0EBE2F4E090E080E042
:101FC000218121117CC022E1289FE001299FD00DB1
:101FD0001124C55DDB4FFE0111922A95E9F7C70177
:101FE00083509540959587954FEE5EEE849F9001C6
:101FF000859F300D949F300D1124288381E08983C3
:10200000F701D58FC48FD1FE32C00091B10310917A
:10201000B2030115110559F189818823A9F181FDC8
:1020200026C05E01F2E0AF0EB11CC12CF50181911A
:102030005F0181114BC0C8010E94E105F501319794
:102040008083882309F442C02091B3033091B40304
:10205000215C33404091970370E060E00E9480066D
:10206000F4E0CF1204C0F701818D8061818F8981F6
:1020700083FF0AC0877F89838D2D82608093A803A8
:10208000F701818D8F7E818F8091A80384FD04C02C
:1020900087FD02C085FF26C0CE0107960E941A095F
:1020A0008A818823E9F0F7018481958198878F835D
:1020B000898184608983F701158E148E7ACF019609
:1020C00072968430910509F07BCF73CFC394F5E00D
:1020D000CF12ACCF809198038E7F80939803C3CFAB
:1020E0001982E9CF80FF3FC0CE0107960E943009D8
:1020F0008F818823D1F19885911145C0EC84FD84AE
:10210000E114F10409F455CF95E0899FF001112401
:10211000EC57FA4FF382E2820091B3031091B403BB
:10212000015C1340009396031127C80108968E0D99
:102130009F1D009779F510929903B7018091B30321
:102140009091B4030E94420FF092B203E092B10367
:10215000DF91CF911F910F91FF90EF90DF90CF9083
:10216000BF90AF9008958C7019F6898181FF21CFBF
:102170008F81811124C01982F701158E148E80E1A0
:102180008093A80316CF0E942D047C01892B09F4AB
:1021900010CFC2CF0E94E10580939903882369F292
:1021A000B8016F5F7F4F870130E020E04F810E94D0
:1021B000800680919803826080939803BECFF701D8
:1021C000818D8061818FF5CEAF92BF92CF92DF92E9
:1021D000EF92FF921F93CF93DF93843009F458C19D
:1021E000C091A903D091AA0327EF33E03093B40341
:1021F0002093B3033093AC032093AB038330C9F433
:10220000898D8F70833009F044C088899989892B22
:1022100009F03FC088E08093A8030E94C20F80911C
:10222000A80385FF15C61092AE031092AD03198E58
:1022300051C0823009F005C18091A7038F5F809360
:10224000A703811113C08091A6038F5F8093A6031B
:1022500081110CC08091A5038F5F8093A50381112C
:1022600005C08091A4038F5F8093A4031092B203F2
:102270001092B1031092AE031092AD03898D982F86
:102280009D7F953059F48A8D8F5F8A8F883709F446
:10229000198E1092B2031092B10331C28823C9F390
:1022A00028893989232B09F4C7C09A8D2FEF290F6C
:1022B0002A8F9111EECF9B8D983031F02FEF280FA0
:1022C000223050F4953041F4198E80E88093A803B1
:1022D0000E94C20F84E184C0392F953008F034E0A9
:1022E00023E001C0220F3A95EAF72A8F9F5F9B8F68
:1022F0008F70833009F47DC008F06AC0813009F422
:1023000006C4823031F61092F0038091F0038260AF
:102310008093F00382E08093F70394E09093F803B6
:102320008093F9031092FA038CE290E09093B20349
:102330008093B10380E68093EF0388858093EB035D
:1023400089858093EC038A858093ED038B85809348
:10235000EE038C858093E7038D858093E8038E855B
:102360008093E9038F858093EA0386E08093D80306
:102370008C819D819093E4038093E3038E819F8100
:102380009093E6038093E5038091270490912804BD
:102390009093DC038093DB038091290490912A04BD
:1023A0009093DE038093DD03888199819093E0030D
:1023B0008093DF038A819B819093E2038093E10302
:1023C000898D84FFCBC51092F2031092F103D5C220
:1023D000863029F0883019F0843009F05ACF81E135
:1023E0008093F00388E290E09093B2038093B1036E
:1023F00021C084E08093A8030E94C20F8091AB03A8
:102400009091AC039093B4038093B3038091AD0398
:102410009091AE03892B09F44CC58889998900975E
:1024200009F447C588969093B2038093B10388E17D
:102430008093F00380E57FCF8F70833009F029CF40
:10244000E9CE853009F0A9C0E091A203F091A30381
:1024500084819581892B09F41CCF1092AA031092D4
:10246000A9038BEE93E09093B4038093B30390930E
:10247000AC038093AB031092AE031092AD031092A5
:10248000B2031092B10388E08093A8030E94560F14
:102490008091AD039091AE03009709F4FACE9C01B0
:1024A000245E3F4F3093B2032093B1033093D103A6
:1024B0002093D203E091A203F091A30320852093FF
:1024C000D70321E12093D8030896982789279827D6
:1024D0009093E8038093E7031092EA031092E903D4
:1024E000848195819093E4038093E30386819781AF
:1024F0009093E6038093E50380912704909128044C
:102500009093DC038093DB038091290490912A044B
:102510009093DE038093DD03808191819093E003AB
:102520008093DF03828193819093E2038093E103A0
:1025300087EF93E09093B4038093B30381E10E940B
:10254000C20780959095009709F45BC19093EA03C8
:102550008093E90385E48093CF031092D003109217
:10256000D6031092D50380919A0390919B03019614
:1025700090939B0380939A039093D3038093D40307
:102580001092DA031092D9030E944A088095909520
:102590009093DA038093D903B2C08091CF0385343E
:1025A00009F077CEC090D103D12CDC2CCC248091C3
:1025B000D203C80ED11C8091B1039091B2038C1547
:1025C0009D0508F466CED092B203C092B10380910B
:1025D000D5038F7309F05DCE1091D603111159CE3A
:1025E000A0902704B0902804A114B10439F480917C
:1025F000290490912A04892B09F441C02091DF031A
:102600003091E0038091D803813149F52F3F3207A3
:1026100039F48091E1039091E203019609F47DC0C1
:102620008091BD039091BE03809590958A299B2946
:1026300082179307A1F48091BF039091C003809506
:1026400090954091290450912A04842B952B409118
:10265000E1035091E2034817590709F45EC0A2163E
:10266000B30609F016CE2091E1033091E203809188
:10267000290490912A042817390709F00ACE0E94EC
:102680004A08019609F005CE8091D803863009F4F6
:10269000BBC0813109F441C0813009F0FACD80918D
:1026A000E303883009F0F5CD1092E3038091E50350
:1026B0009091E603873F4FEF940768F10996909356
:1026C000E6038093E5038091DB039091DC03909314
:1026D000E0038093DF038091DD039091DE0390930C
:1026E000E2038093E103B092DC03A092DB038091CC
:1026F000290490912A049093DE038093DD031092C5
:10270000A803DF91CF911F91FF90EF90DF90CF90C2
:10271000BF90AF9008950896D2CF8CE1C81AD10827
:10272000D092B203C092B1038BEE93E09093B403C6
:102730008093B3038091E9039091EA03892BE1F43C
:102740004091E5035091E6036091E3037091E40347
:10275000A091DB03B091DC03C091DD03D091DE03D7
:10276000E5EDF4E021E035E02E173F0761F430930A
:10277000A3032093A2038DCD81E10E94C20701969D
:1027800009F087CDDDCF848195810097C1F1841751
:102790009507A9F586819781009719F08617970705
:1027A00071F5808191810097D1F4E280F380EF2868
:1027B000F1F4F093A303E093A2031092AA03109202
:1027C000A90382E08093A8038BEE93E09093AC037F
:1027D0008093AB031092AE031092AD0357CE8F3FA0
:1027E000980729F4E280F380EF20E09411F38A1730
:1027F0009B0729F482819381C817D907D1F23B96B0
:10280000B3CF8FEF9FEFA2CE86E00E94C207019662
:1028100009F03FCD4091E5035091E6036091E30359
:102820007091E4038091DB039091DC03E091DD0380
:10283000F091DE03C3E0D5E0298D2223A9F0AC811D
:10284000BD814A175B0781F4AE81BF816A177B07A0
:1028500059F4A881B9818A179B0731F4AA81BB81F9
:10286000EA17FB0709F45BC16E9625E0CD35D20768
:1028700019F310F38091F0038F73823061F4509359
:10288000A1034093A003EBE7F5E080E0843009F07A
:1028900091C0809383058091F00382FDFACC84E19E
:1028A0008093F00388E290E09093B2038093B103A9
:1028B00080E58093EF033091EA038091EE038093EB
:1028C000EA032091E9038091ED038093E9032093CB
:1028D000ED039091E8038091EC038093E8039093DB
:1028E000EC038091E703809383054091EB034093D1
:1028F000E7038093EB033F5F3093EE0331110DC08C
:102900002F5F2093ED03211108C09F5F9093EC038C
:10291000911103C08F5F8093EB038091E30390914B
:10292000E4039093A1038093A0032091E5033091E9
:10293000E6033093E4032093E3039093E60380934C
:10294000E5038091DB039091DC039093E003809397
:10295000DF038091DD039091DE039093E203809387
:10296000E103B092DC03A092DB03809129049091F3
:102970002A049093DE038093DD0380E48093D703E1
:102980008091B1039091B2039093D1038093D203CD
:102990001092F6031092F5031092F4031092F303D1
:1029A00086E00E94C207809590959093F4038093EF
:1029B000F303D0CD219131918F5F4217530709F076
:1029C00065CF10928305E3E0F5E090E080E0D0E091
:1029D000C0E08430910531F484E080938305209732
:1029E00081F457CC3E2F2F2FA18DA11163C080936E
:1029F00083052EE1289FE001299FD00D1124CD5F92
:102A0000DA4FD093AA03C093A90383E08A8F888FFB
:102A10001E8A84E08F8B1B8E5D834C837F836E8345
:102A20008091DB039091DC03998388838091DD039F
:102A30009091DE039B838A8381E0898F8091A40338
:102A40008C878091A5038D878091A6038E878091C6
:102A5000A7038F8781E090E0998B888B8091EA03B0
:102A60008B878091E9038A878091E8038987809129
:102A7000E703888781E090E00E94E9248091EF03DA
:102A8000982F907F913508F442C082958F708550C1
:102A9000990B880F991F880F991FE12FF0E0E81715
:102AA000F9072CF4EF53FC4F36A9311112C01093E3
:102AB00083052DC0A73031F4209731F0B28DAA8D57
:102AC000AB1710F03C2F2D2F01967E96C32FD22FDF
:102AD00080CF313011F41F5FE0CF27A93230D9F415
:102AE0002430C9F41093830580AD91AD89279827D0
:102AF00089279093A1038093A003813042E094073B
:102B000010F080E092E09B8B8A8B9D8B8C8B80E118
:102B10008093F003FACB222351F2120FBECFD09351
:102B2000AA03C093A9031092A8039091F00392FF07
:102B300007C0198E80E28093A8030E94C20FA9CB20
:102B40008091EF0382958F70880F880F80938305A3
:102B5000C81AD108760184E1E81AF108F092B203AC
:102B6000E092B1032F70223021F4892F8F738231CC
:102B7000D1F0E114F10419F4892F8370A1F03985A3
:102B80002A858B855091E70348855413C2C1409133
:102B9000E8034313BEC13091E9033213BAC1209157
:102BA000EA032813B6C194FF49C068897989611581
:102BB000710509F443C0CE010C960E94B6243091F1
:102BC000EB0380919C03381339C02091EC03809172
:102BD0009D03281333C09091ED0380919E039813B9
:102BE0002DC08091EE0340919F03841327C03C8742
:102BF0002D879E878F87988D8B8D811118C08E8928
:102C00002A8D921B282F269526952695921B890F93
:102C10008E8B97FD91952F89322F36953695231BF4
:102C2000920F9F8B869586958695890F888F81E078
:102C30008093A803888D8A8F198A188A298DE22F9C
:102C4000EF70E150E83008F024CBF0E08827E45D35
:102C5000F94E8F4F0C94352A34164D16B7166C1753
:102C60009517A617891765178091A80380FF11CBC8
:102C700083E0898F80E48093A803198A188AE1147D
:102C8000F10431F082E48093A803C7010E94E92493
:102C90001092AE031092AD03C0CA8091A80380FFCA
:102CA0005FC08091F0038F73823109F059C0809129
:102CB000EF03982F907F913598F182958F70855012
:102CC000990B880F991F880F991FE12FF0E0E817E3
:102CD000F9072CF4EF53FC4F36A9311103C01093C0
:102CE00083051EC0313011F41F5FEFCF27A93230AA
:102CF00099F5243089F51093830580AD91AD89272E
:102D0000982789279093A1038093A003813012E034
:102D1000910710F080E092E09B8B8A8B9D8B8C8BCF
:102D200083E0898F8091E70388878091E803898712
:102D30008091E9038A878091EA038B8781E090E0A4
:102D40000E94E92482E48093A803198A188A1092C9
:102D5000B2031092B1039CCF222309F2120FB5CF18
:102D600080E28093A8030E94C20F198E94CD8091B7
:102D7000F00380FF20C024FD1EC088899989892B1B
:102D800009F087CAC60143970E94E9248091A803ED
:102D9000982F90619093A803EF2819F08261809397
:102DA000A8030E94C20F81E090E0998B888B88E095
:102DB000898F1B8E14CB85FF14C08091F5039091F1
:102DC000F603982789279827AC0149505C4F509308
:102DD000B4034093B303E81AF90AF092B203E09205
:102DE000B1034091B1035091B2039091A8034115F2
:102DF000510541F024FD06C092609093A803CA01DA
:102E00000E94E9248091F103282F30E0322F2227FD
:102E10008091F203820F932F911D9093A1038093D1
:102E2000A0032C893D892817390710F0892B21F43C
:102E30003093A1032093A0038091A0039091A1035C
:102E40009B8B8A8B8091A803837009F422CA20CFC0
:102E500084FF0AC01092AE031092AD0381E090E0AF
:102E6000998B888B84E0A4CF2091AD033091AE0381
:102E700021153105B9F080FF02C0198A188A8889A6
:102E80009989009789F48A899B898217930720F48E
:102E90009093AE038093AD038091AD039091AE0308
:102EA000998B888B1B8EAACA9093AE038093AD0337
:102EB000F9CF8091A80381FFECC988E290E090935C
:102EC000B2038093B10380E1B3CA8091A80380FF6D
:102ED000E0C9198E80E12FCEE114F10419F0C70189
:102EE0000E94E9248091A80381709091F00390FFE3
:102EF00015C0882381F087E0898F1A8E198A188A75
:102F000081E090E00E94E92480E18093A8030E9480
:102F1000C20F80E165CA86E0898FF2CF882399F0DD
:102F200085E0898F198A188AB4C9E114F10419F06F
:102F3000C7010E94E9248091F00380FF04C087E06C
:102F4000898F1A8EDDCFEF2821F7A3C98091A803BE
:102F500080FF9FC987E0898F1A8E9BC982E080938A
:102F6000F1031092F20309CDCF93DF93EC012C858E
:102F70003D852115310529F490E080E0DF91CF9166
:102F80000895EA89EE23C1F381E08B8B85E0E89F09
:102F9000F0011124EC57FA4F8E859F850796938395
:102FA00082833093A3032093A20385E00E94E41060
:102FB0008091B1039091B203892BF1F2CE010E966C
:102FC0000E94250F81E090E0D9CF8F929F92AF921F
:102FD000BF92CF92DF92EF92FF92CF93DF938091D7
:102FE0009506882309F41FC1D0919703D11151C0D0
:102FF00089E30E943505882309F449C060918D0654
:1030000070918E066B0126E0C20ED11CC11438E00F
:10301000D30628F06B014AEFC41A47E0D40A80E0D7
:103020000E94850460E08AE30E941705E82E60E0B4
:103030008AE30E941705F82EF0928E06E0928D0624
:1030400060E08AE30E941705B82E60E08AE30E94E0
:103050001705C82F60E08AE30E941705A82E40E4F8
:103060006EE180E80E944D04A7FEE8C0E11458E03C
:10307000F50608F0E3C0D0929006C0928F069C2F10
:103080008B2D04979093920680939106DFEFD09357
:103090009703F0909703FF2009F472C081E08093BA
:1030A00098038F2D0E942D04EC019093B20380931E
:1030B000B103892B09F4EFC042E650E061EC73E004
:1030C0008F2D0E94D104C090CD03D090CE0388E014
:1030D000C816D10409F0CDC0F09299032E97D09371
:1030E000B203C093B1032091DB033091DC03E09184
:1030F0002704F0912804C9018E279F274091BD0322
:103100005091BE0384239523892B49F54091DD031B
:103110005091DE036091290470912A04CA01862728
:103120009727A091BF03B091C0038A239B23892BCB
:10313000B1F48091DF039091E003E817F90709F0FB
:1031400080C08091E1039091E2036817790709F04C
:1031500078C067EC73E08BED93E00E94750D81E021
:103160000E94E4108091B1039091B203892B21F069
:103170000E94EA0D0E9490088091980380FD8BC008
:103180000E94CD026B017C0180919C0690919D066E
:10319000A0919E06B0919F0646015701881A990A90
:1031A000AA0ABB0AC3E0D5E0D093AA03C093A9033F
:1031B000B7FC08C182E00E94E4108091B1039091B5
:1031C000B203892B21F00E94EA0D0E9490086E96AE
:1031D00035E0CB37D30741F7B7FC25C04AEFC40E23
:1031E000D11CE11CF11CC0929C06D0929D06E0927D
:1031F0009E06F0929F06C5EDD4E0D093A303C09342
:10320000A20385E00E94E4108091B1039091B20383
:10321000892B21F089859A850E94250F2B9655E0F0
:10322000C130D50751F7DF91CF91FF90EF90DF903C
:10323000CF90BF90AF909F908F9008950E94FB0415
:1032400026CFECE7F4E080E0883019F48093D404D2
:1032500086CF608171812617370741F462817381BF
:103260004617570719F48093D40473CF8F5F3B96AA
:10327000EBCF28E0C21626E0D20669F41092B20322
:103280001092B103AA9760F48091B1039091B203B8
:10329000892B09F06FCF0E94FB041092970370CF27
:1032A0008091D5039091D603811531E0930701F108
:1032B0008115924049F72091E7033091E80380910E
:1032C00027049091280428173907F1F62091E90383
:1032D0003091EA038091290490912A042817390734
:1032E00099F667ED73E08DED93E00E94750DCCCFFC
:1032F000E090E703F090E803809127049091280480
:10330000E816F90609F6C091E903D091EA03809125
:10331000290490912A04C817D90709F0B5CF67EDA1
:1033200073E08DED93E00E94750D80E092E0909344
:10333000D6038093D50386E0E7EDF3E0A1EEB3E09A
:1033400001900D928A95E1F786E0E6E9F6E0A7EDB7
:10335000B3E001900D928A95E1F786E0E6E9F6E0A8
:10336000A7ECB3E001900D928A95E1F786E0E1EEDB
:10337000F3E0A1ECB3E001900D928A95E1F7809122
:10338000DD039091DE039093E8038093E70380913F
:10339000DF039091E0039093EA038093E903F092B6
:1033A000DE03E092DD03D093E003C093DF03D0920D
:1033B000CE03C092CD038AE290E09093B203809353
:1033C000B10362CFEC8DFD8D309709F400CF868577
:1033D0009785A089B189A7019601281B390B4A0B53
:1033E0005B0BDA01C901B7FDF2CE83E00E94E41065
:1033F0000E94CD02E091A903F091AA03048CF58DFF
:10340000E02D665F7F4F8F4F9F4F66877787808B5A
:10341000918BD3CECF93DF93EC010E94E51789897E
:103420000E940D04198ADF91CF9108950F931F9385
:10343000CF93DF931F92CDB7DEB78C010E94E517C3
:10344000F8018189882389F041E050E0BE016F5F77
:103450007F4F0E94D104019741F4898190E00F9041
:10346000DF91CF911F910F9108958FEF9FEFF7CFCD
:10347000EF92FF920F931F93CF93DF937C018B0109
:10348000EA010E94E517F7018189882369F1AE01FD
:10349000B8010E94D1048C01F701C1898C2F0E94D0
:1034A0002D048017910769F48C2F0E940D04F701F9
:1034B000118AC801DF91CF911F910F91FF90EF907A
:1034C000089585E0C89FF0011124EC57FA4F8081E0
:1034D0009181800F911F9183808382819381801BD2
:1034E000910B93838283E5CF80E090E0E3CFCF938D
:1034F000DF93EC010E94E5178989DF91CF910C944D
:103500002D04CF93DF93EC010E94E5178989811187
:103510000E940D048889898B188ADF91CF910C94C1
:103520002D04CF92DF92EF92FF920F931F93CF93D0
:10353000DF9300D01F92CDB7DEB78C017B016A010B
:103540000E94E517D70112968C91129781110EC037
:1035500013968C911397811109C014968C9114972E
:10356000811104C015968C918823E9F0C114D1040F
:10357000D1F0D8011C96ED91FC91D70112962D91B6
:103580003C9113973A83298314968D919C919C8347
:103590008B837C2D6D2D309779F177836683318312
:1035A000208393838283F80184859585892BB1F1EB
:1035B0008289811133C08EE096E00E94E105D80136
:1035C00052968C9352972BE230E01F963C932E93A9
:1035D0001E9721E090E0811101C020E0822F0F9022
:1035E0000F900F900F90DF91CF911F910F91FF904F
:1035F000EF90DF90CF900895CE0101960E94A10C2C
:10360000F80195878487009749F09801225F3F4F22
:10361000DC011A963C932E931997C5CF80E090E079
:10362000DECF4F925F926F927F928F929F92AF9276
:10363000BF92CF92DF92EF92FF920F931F93CF939F
:10364000DF93CDB7DEB763970FB6F894DEBF0FBE3A
:10365000CDBF6C017B013A01FB01DB018D91882319
:1036600009F444C08E32D1F380538A30B8F3F601A6
:1036700042815381648175818091B0079091B10737
:10368000A091B207B091B307481759076A077B07A3
:1036900009F455C28601085F1F4F0E94CD026F706A
:1036A00077277C5FC8010E940B0D813009F04CC266
:1036B00081E892E09A838983F60182819381A481D3
:1036C000B5818B839C83AD83BE8345E350E0BE010F
:1036D0006F5F7F4FC8010E94911A892B09F057C074
:1036E000F12CE12CC8010E94300D39C030E020E0FF
:1036F00090E080E05AE04191442309F18430910543
:103700000CF0B5CF4E3271F42F3F310511F00CF0B3
:10371000AECFD301A80FB91F12962C93019630E0BB
:1037200020E0E9CF529FB001539F700D1124242F48
:10373000440F330B20533109260F371FDCCF2F3FA7
:10374000310511F00CF093CF843091050CF08FCF40
:10375000680E791EF3012283EE24E394F12CC70155
:1037600063960FB6F894DEBF0FBECDBFDF91CF9149
:103770001F910F91FF90EF90DF90CF90BF90AF908F
:103780009F908F907F906F905F904F9008950E94D0
:10379000CD02F6017783668342E050E0B6016A5FAE
:1037A0007F4FC8010E94450781E090E09A8389839A
:1037B00042E050E0BE016F5F7F4FC8010E944507A5
:1037C00080E091E09A83898342E050E0BE016F5F20
:1037D0007F4FC8010E9445071A82198242E050E0DB
:1037E000BE016F5F7F4FC8010E94450742E050E075
:1037F000BE016F5F7F4FC8010E94450742E050E065
:10380000BE016F5F7F4FC8010E9445075701F70156
:103810008081882301F17501F70181912F018823AF
:1038200011F08E32B1F447018A189B08181419045C
:1038300074F48D8641E050E0BE01635F7F4FC801A4
:103840000E944507A401B501C8010E944507520125
:10385000DECF7201E1CF1D8641E050E0BE01635F23
:103860007F4FC8010E944507E12CFF24F394FA82A0
:10387000E98242E050E0BE016F5F7F4FC8010E94C5
:103880004507FA82E98242E050E0BE016F5F7F4F58
:10389000C8010E944507C8010E94B417892B09F48A
:1038A0001FCFA3E0AA2EB12C230122E0420E511C0F
:1038B00026C0F6016280738084809580B801CE01B5
:1038C00001960E9402078B819C81AD81BE816816A2
:1038D00079068A069B0629F4C8010E94F306C5975B
:1038E00059F1FEEFEF2EFF24FA94E1E0AE1AB10891
:1038F00009F4F8CEFFEFEF16FF0609F0F3CE0E94B1
:10390000CD023B014C01C8010E94811A181619060C
:1039100084F20E94CD0266197709880999096938ED
:1039200073418105910508F001C162E370E080E018
:1039300090E00E949B02E7CFC8010E94771A0C9783
:103940000CF4F8C04CE050E0BE016F5F7F4FC8013F
:103950000E94940A8B819C819827892798279A8BAB
:10396000898BF6014681578129813A814217530795
:1039700011F497FD08C0C8010E940A1AECEFEE2E60
:10398000FF24FA94B2CF8F709270892B41F0C80156
:103990000E940A1A7BEFE72EFF24FA94A6CF6F80CD
:1039A0007884762467247624F12CE12C6114710448
:1039B000D1F4C8010E940A1A6AEFE62EFF24FA9495
:1039C00094CF8D85811117C0C8010E942807C801B6
:1039D0000E942807C8010E942807C8010E942807E2
:1039E000FFEFEF1AFF0A8D819E819827892798277C
:1039F000E816F906A8F441E050E0BE01635F7F4F8E
:103A0000C8010E94940A8D858823D9F28D859FEF85
:103A1000980F9D878823A9F2C8010E942807F6CF36
:103A2000912C812C41E050E0BE016D5E7F4FC801BA
:103A30000E94940A8B89982F907C61F4882389F0E6
:103A40008B899FEF980F9B8B882341F0C8010E94C0
:103A50002807F6CFC8010E9428071B8A8B8981118D
:103A6000E1CF42E050E0BE01615F7F4FC8010E949C
:103A7000940A42E050E0BE01635F7F4FC8010E949C
:103A8000940AC8010E942807C8010E942807C8019B
:103A90000E942807C8010E94280742E050E0BE01AA
:103AA0006F5E7F4FC8010E94940A8F8598898115A7
:103AB0009140E1F48D859E8581159140B9F4898905
:103AC0009A898115944041F0C8010E940A1A57EF63
:103AD000E52EFF24FA9409CF44E050E0B201C8017A
:103AE0000E94940AEE24E394F12CFFCEF12CE12CF9
:103AF00089899A89982789279827E816F90638F43A
:103B0000C8010E9428072FEFE21AF20AF1CF8FEFC7
:103B1000881A980A8614970409F084CFC8010E9475
:103B20000A1A36EFE32EFF24FA94DFCEEE24EA944D
:103B3000FE2CDBCE9DEFE92EFF24FA94D6CE8EEF3D
:103B4000E82EFF24FA940BCEF12CE12C08CEAF9294
:103B5000BF92CF92DF92EF92FF920F931F93CF937A
:103B6000DF93CDB7DEB7A8970FB6F894DEBF0FBED0
:103B7000CDBF7C015B016A0101E812E01A83098371
:103B80001B821C821D821E82CE0109960E94510D4D
:103B90001CA30BA31DA21EA21FA218A680919E0704
:103BA00090919F07A091A007B091A1078F8F98A334
:103BB000A9A3BAA38B839C83AD83BE8318861F827F
:103BC000AE014D5D5F4FB501CE0101960E94111B04
:103BD00081309105B1F4D701ED91FC910488F5890C
:103BE000E02D1E8F0D8F8DA19EA1AFA1B8A58F8F47
:103BF00098A3A9A3BAA3A601BE01635E7F4FC70124
:103C00001995A8960FB6F894DEBF0FBECDBFDF9111
:103C1000CF911F910F91FF90EF90DF90CF90BF90C9
:103C2000AF900895AF92BF92CF92DF92EF92FF9242
:103C30000F931F93CF93DF93CDB7DEB7A8970FB63F
:103C4000F894DEBF0FBECDBF7C015B016A0101E8C5
:103C500012E01A8309831B821C821D821E82CE0100
:103C600009960E94510D1CA30BA31DA21EA21FA208
:103C700018A680919E0790919F07A091A007B091F0
:103C8000A1078B839C83AD83BE8318861F82AE0100
:103C90004D5D5F4FB501CE0101960E94111B813031
:103CA0009105B1F4D701ED91FC910684F785E02DE3
:103CB0001E8F0D8F8DA19EA1AFA1B8A58F8F98A348
:103CC000A9A3BAA3A601BE01635E7F4FC7011995E0
:103CD000A8960FB6F894DEBF0FBECDBFDF91CF918F
:103CE0001F910F91FF90EF90DF90CF90BF90AF901A
:103CF0000895CF93DF93EC014C815D81ABE7B5E094
:103D000090E080E0282F8430910521F484E08093B6
:103D100083050EC0FC016D917D910196672B91F793
:103D200020938305EE0FFF1FE558FA4F5183408320
:103D30000E94E51781E08E83DF91CF910895CF93A4
:103D4000DF93EC010E94E517EC85FD8587818823D0
:103D5000D9F0DF01189621E08D91811110C021501A
:103D600030E0322F2227330F84859585280F391FA5
:103D700080E09AE0821B930BDF91CF9108952F5F33
:103D8000253051F724E0ECCF80E09AE0F5CFAF92F8
:103D9000BF92CF92DF92EF92FF920F931F93CF9338
:103DA0008C015B017A016A010E94E517011511057A
:103DB00009F45DC0F8018181882309F458C0867038
:103DC00009F055C03896C1E08191811133C0C150CE
:103DD000F801EC0FF11D878181110DC080E092E0A8
:103DE0000E94E105F801EC0FF11D87838823E1F2C1
:103DF000F80115861486A7014C195D094A0D5B1D53
:103E0000F801648575859601EC0FF11D87810E948C
:103E1000B106C81AD90AF80124853585820F931F87
:103E2000958784871C141D0454F4C43009F4BCCF56
:103E3000CF5FD4CFCF5FC53039F6C4E0C9CF0E9481
:103E4000CD02665F7F4F8F4F9F4FF8016687778760
:103E5000808B918BC7018C199D09CF911F910F9178
:103E6000FF90EF90DF90CF90BF90AF90089590E0DB
:103E700080E0F3CF9F92AF92BF92CF92DF92EF920A
:103E8000FF920F931F93CF93DF938C017B016A0105
:103E9000CBE2D4E0B12CA12C8EE1982E898180FF59
:103EA00015C0E8819E9EF0011124ED5FFA4F248138
:103EB0003581F801848195812817390739F4A601E5
:103EC000B701CE010E94C71EA80EB91E6296F4E08B
:103ED000C337DF0718F3C501DF91CF911F910F9111
:103EE000FF90EF90DF90CF90BF90AF909F9008959C
:103EF000FC01848595850C94C71ECF93DF931F9298
:103F0000CDB7DEB7698341E050E0BE016F5F7F4F00
:103F1000FC01848595850E94C71E0F90DF91CF918B
:103F20000895CF93DF93EC010E94E517EC85FD85A2
:103F3000309739F0818182FF08C081E09281911130
:103F400001C080E0DF91CF91089581E0FBCFCF9356
:103F5000DF93EC018C859D85009769F0FC01218140
:103F6000222349F002960E941A09EC85FD85818181
:103F700082FF07C011821D861C86DF91CF910C94B1
:103F8000E51782608183F7CFCF92DF92EF92FF92A5
:103F90000F931F93CF93DF938C01EB016A01DC0138
:103FA000ED91FC910488F589E02D1995EA80FB805C
:103FB0006C817D815C2D4D2D8091010590910205D4
:103FC00001968115BDE79B0710F080E090E1382F46
:103FD000292FE3E0F5E0DF01C0E0C430D1F4909395
:103FE0000205809301051092830580E0D0E0C0E0D7
:103FF0008430F1F480938305209711F590E080E000
:10400000DF91CF911F910F91FF90EF90DF90CF90B4
:1040100008955996DC915997DD2339F01496CD9087
:10402000DC901597C216D30659F2CF5F5E96D5CFB6
:10403000AE2F9F2FB18DB1113CC080938305EF014E
:1040400082E0898F8091A4038C878091A5038D875E
:104050008091A6038E878091A7038F8780E092E0EE
:104060009B8B8A8B9D8B8C8B81E090E0998B888BCE
:104070001B8E8A8F83E0888F1E8A80E18F8B3D8321
:104080002C835F834E83F982E8827B836A83898DE8
:104090008F7009F4B3CF0E94E517898D8F7083303C
:1040A000B1F78C8D9D8DF8019587848781E090E034
:1040B000A7CFB73031F4209731F0D28CBA8DBD152F
:1040C00010F0AC2F9D2F8F5F7E96CA2FD92F90CFE7
:1040D000FB0101900020E9F73197AF01461B570B18
:1040E000DC01ED91FC910280F381E02D19948F9217
:1040F0009F92AF92BF92EF92FF920F931F93CF9335
:10410000DF93CDB7DEB7A1970FB6F894DEBF0FBE31
:10411000CDBF7C01FA01CB0119A2223008F42AE0BC
:104120008E010F5D1F4F822E912CB12CA12CBF014F
:10413000A50194010E94042AF901CA016A300CF514
:10414000605DD8016E938D01232B242B252B79F7ED
:1041500090E080E0109721F0BD01C7010E94682027
:10416000A1960FB6F894DEBF0FBECDBFDF91CF9101
:104170001F910F91FF90EF90BF90AF909F908F9005
:104180000895695CDECF0F931F93CF93DF93EC010B
:104190000E9468208C0163E872E0CE010E946820D2
:1041A000800F911FDF91CF911F910F9108958F92F2
:1041B0009F92AF92BF92CF92DF92EF92FF920F93B6
:1041C0001F93CF93DF937C01EB016C0182E0C80E5B
:1041D000D11C4701E5E08E0E911C10E000E0F601D5
:1041E00041916F0150E070E060E02AE0CE010E9452
:1041F00077205C01E881F9810190F081E02D6EE289
:10420000CE0119958A0D9B1D080F191FC814D904DA
:1042100031F7F701458150E070E060E02AE0CE011F
:104220000E947720800F911FDF91CF911F910F91F6
:10423000FF90EF90DF90CF90BF90AF909F908F90C6
:1042400008952F923F924F925F926F927F928F923A
:104250009F92AF92BF92DF92EF92FF920F931F93C4
:10426000CF93DF93CDB7DEB7C254D1090FB6F89420
:10427000DEBF0FBECDBF7C015B010E94CD022B01D2
:104280003C018701015C1F4FC8010E94811A18166A
:1042900019069CF00E94CD026419750986099709D8
:1042A000613A7F408105910508F0A5C162E370E0A5
:1042B00080E090E00E949B02E7CF42E250E0BE0126
:1042C0006F5F7F4FC8010E94940A8981823009F094
:1042D0008DC1C8010E94F3068334910509F086C19F
:1042E0006D817E818F8198850E943D2A2B013C0142
:1042F000F501408251826282738246E050E0B7014C
:10430000685F7F4FCE014D960E94442A892B99F415
:10431000F70180819181A281B381481659066A060E
:104320007B0648F084819581A681B7818415950527
:10433000A605B705F0F4C8010E940A1AD12C8D2DEC
:10434000CE5BDF4F0FB6F894DEBF0FBECDBFDF915F
:10435000CF911F910F91FF90EF90DF90BF90AF90A2
:104360009F908F907F906F905F904F903F902F9095
:10437000089589899A89AB89BC8986879787A08B9C
:10438000B18B8EECA82EB12CC8010E942807F1E059
:10439000AF1AB108C9F7D12CC70182969CAF8BAF79
:1043A000F701B696FEAFEDAF089621969FAF8EAFA0
:1043B000219757019AE1A90EB11C74972396FFAF7C
:1043C000EEAF23971701F6E12F0E311C27012EE1E6
:1043D000420E511CC8010E94771A181619060CF0DB
:1043E00006C1C8010E9428078333910509F4E4C07F
:1043F0009CF58130910509F480C074F4892B51F348
:10440000C8010E942807982E9A94FFEF9F1611F377
:10441000C8010E942807F8CF8330910509F47AC0BB
:10442000069771F7C8010E942807882E44E050E0E3
:10443000B201C8010E94940A712C612CE82DE4504D
:10444000FF0B4F01681479042CF6C8010E9428075D
:10445000FFEF6F1A7F0AF6CF8A33910509F47EC009
:10446000DCF58533910509F440C0C69749F6C801CB
:104470000E942807982E1FAA18AE19AE1AAEB501D1
:10448000CE018F960E94690D4FA958AD69AD7AADE6
:1044900089A99AA9ABA9BCA9481759076A077B073C
:1044A000B9F0B801CE0189960E940207B501CE018C
:1044B00083960E94690D4DA15EA16FA178A58BA581
:1044C0009CA5ADA5BEA5481759076A077B07E9F566
:1044D00044E050E0B5011AC08B33910509F454C093
:1044E0008F3F910509F476CF8BCFC8010E94280732
:1044F000C8010E942807D82E6DCFC8010E94280746
:1045000044E050E023966EAD7FAD2397C8010E9432
:10451000940A60CFC8010E942807882E44E050E02A
:10452000B101C8010E94940A712C612C882D84501D
:10453000990B4C01681479040CF04CCFC8010E940F
:1045400028079FEF691A790AF5CF9A942FEF9216F0
:1045500009F440CFC8010E942807F7CFC8010E9484
:10456000280744E050E06DAD7EADC8010E94940A7A
:10457000F70166A177A180A591A50E943D2A66A3B7
:1045800077A380A791A726CFC8010E94280744E0FF
:1045900050E021966EAD7FAD2197C8010E94940A2C
:1045A000F70162A573A584A595A50E943D2A62A77F
:1045B00073A784A795A70ECFC8010E94280744E0DF
:1045C00050E06BAD7CADC8010E94940AF70162A176
:1045D00073A184A195A10E943D2A62A373A384A321
:1045E00095A366A777A780AB91ABF4CED12CC80179
:1045F0000E940A1AA4CEDD24DA94A1CE7F928F9273
:104600009F92AF92BF92CF92DF92EF92FF920F9361
:104610001F93CF93DF93CDB7DEB7A6970FB6F8946D
:10462000DEBF0FBECDBF8C01762E942E852E20E2EC
:10463000A22ECE0101967C01DC01EA2D1D92EA95A5
:10464000E9F76801FFE3CF0ED11C81E892E09AA35D
:1046500089A38FEF8BA38CA38DA38EA343E450E09B
:10466000BE016F5D7F4FC6010E94911A019609F449
:10467000BFC081E089838A8386E0B82EBB821C821A
:10468000D80114966D917D918D919C9117970E9400
:104690003D2A6D837E838F83988789869A8680E8FA
:1046A00090E09C878B874CE150E0B701C6010E94E7
:1046B0004507FE0137968AE1DF011D928A95E9F7E9
:1046C0004801B8E08B0E911CF401D70101900D92C6
:1046D000BA94E1F740E150E0B701C6010E944507F6
:1046E000F7011192AA94E9F796E0A92EB12C40E2C5
:1046F00050E0B701C6010E944507F1E0AF1AB108CA
:10470000B1F783E6898392E89A8393E59B838C8350
:1047100085E38D8381E08E837F829DE3988797E098
:1047200099878A8786E0F401DE011B9601900D923D
:104730008A95E1F78CE0898B8A8B66E872E0CE017E
:1047400043960E94612AD8011B966C91CE0149962E
:104750000E94D801F8016485CE014B960E94D801D1
:10476000D8011D966C91CE014D960E94D8014EE164
:1047700050E0B701C6010E944507B3E07B121EC09E
:1047800082E3898384E08A83F80196859B839785F9
:104790009C8390899D8391899E8396E39F838887DC
:1047A000828D8987838D8A87848D8B87858D8C8781
:1047B0004CE050E0B701C6010E94450787E38983BA
:1047C00086E08A8391E09B8393E09C838D838FE0D6
:1047D0008E838AE38F838BE388878FEF898749E015
:1047E00050E0B701C6010E944507C6010E94B417F8
:1047F000A6960FB6F894DEBF0FBECDBFDF91CF9166
:104800001F910F91FF90EF90DF90CF90BF90AF90EE
:104810009F908F907F9008951F920F920FB60F92E6
:1048200011242F933F938F939F93AF93BF938091C6
:10483000740490917504A0917604B091770430913E
:10484000730423E0230F2D3758F50196A11DB11DE8
:10485000209373048093740490937504A09376045A
:10486000B09377048091780490917904A0917A04B0
:10487000B0917B040196A11DB11D809378049093A3
:104880007904A0937A04B0937B04BF91AF919F9178
:104890008F913F912F910F900FBE0F901F90189501
:1048A00026E8230F0296A11DB11DD2CF1F920F92B1
:1048B0000FB60F9211240BB60F922F933F934F9385
:1048C0005F936F937F938F939F93AF93BF93EF9378
:1048D000FF9380EA96E00E944D03FF91EF91BF9114
:1048E000AF919F918F917F916F915F914F913F9188
:1048F0002F910F900BBE0F900FBE0F901F90189529
:104900001F920F920FB60F9211240BB60F922F9396
:104910008F939F93EF93FF93E091B006F091B106D0
:104920008081E091B606F091B70682FD1DC09081AE
:104930008091B9068F5F8F732091BA06821741F07C
:10494000E091B906F0E0E056F94F958F8093B906F3
:10495000FF91EF919F918F912F910F900BBE0F9030
:104960000FBE0F901F9018958081F2CFFC0133810C
:10497000360F30939F03A72FBB2792819A0F9093F6
:104980009E03218120939D03408140939C039A17AD
:104990001B0648F481E0820F80939D03811103C0C0
:1049A0004F5F40939C0377273617170688F49F5F65
:1049B00090939E0391110CC080919D038F5F809313
:1049C0009D03811105C080919C038F5F80939C03A0
:1049D0000895CF93DF93C091A903D091AA03BC019E
:1049E000CE0108960E94B624ECE9F3E08081888726
:1049F0008181898782818A8783818B87DF91CF91AB
:104A00000895CF93DF93E0EAF6E01382128288EEF6
:104A100093E0A0E0B0E084839583A683B7838FE51D
:104A200092E09183808385EC90E09587848784EC85
:104A300090E09787868780EC90E0918B808B81EC6B
:104A400090E0938B828B82EC90E0958B848B86EC4C
:104A500090E0978B868B118E128E138E148EEDE361
:104A6000F7E0C1E8D2E0D183C083128213821482BE
:104A70001582E3E4F7E0D183C083128213821482AB
:104A80001582E2EAF7E0D183C08312821382148296
:104A90001582ECE9F7E0D183C0831282138214827D
:104AA000158288E897E00E94510DE8EAF7E0D1838B
:104AB000C0831282138214821582EEEAF7E0D1835A
:104AC000C0831282138214821582E4EBF7E0D18353
:104AD000C0831282138214821582E7ECF7E0D1833F
:104AE000C0831282138214821582E1ECF7E0D18335
:104AF000C08380EC828388EA838381E0848381EBB6
:104B00008583EAEBF7E01382128281E792E09183DA
:104B1000808380E090E5958384831682DF91CF9136
:104B20000895CF93DF93CDB7DEB7A0970FB6F89473
:104B3000DEBF0FBECDBF789484B5826084BD84B5DE
:104B4000816084BD85B5826085BD85B5816085BD88
:104B500080916E00816080936E0010928100809140
:104B600081008260809381008091810081608093C8
:104B70008100809180008160809380008091B100ED
:104B800084608093B1008091B00081608093B00018
:104B9000809191008260809391008091910081606A
:104BA000809391008091900081608093900080912B
:104BB000A10082608093A1008091A1008160809318
:104BC000A1008091A00081608093A00080912101CC
:104BD0008260809321018091210181608093210175
:104BE0008091200181608093200180917A0084600F
:104BF00080937A0080917A00826080937A0080911D
:104C00007A00816080937A0080917A008068809336
:104C10007A001092C100E091B006F091B10682E0F6
:104C20008083E091AC06F091AD061082E091AE0673
:104C3000F091AF068FEC80831092B806E091B40635
:104C4000F091B50616E01083E091B206F091B3063C
:104C5000808180618083E091B206F091B30680810B
:104C600088608083E091B206F091B306808180680D
:104C70008083E091B206F091B30680818F7D8083BE
:104C800089E497E090932604809325040E949B0A70
:104C900010926B0710926C0710926D0710926E07BE
:104CA00010926F071092700710927107109272079E
:104CB000109273071092740710927507109276077E
:104CC00010927F071092800710928107109282073E
:104CD000E7E5F7E084E1DF011D928A95E9F7E1E07D
:104CE000F2E0A1E5B7E001900D921A95E1F710927C
:104CF00087070E947A292FEC37E040E050E00E94BD
:104D0000D229DC01CB010196A11DB11D80934D0775
:104D100090934E07A0934F07B09350078093490795
:104D200090934A07A0934B07B0934C0788E897E00D
:104D30000E94300D64E470E088E897E00E940B0D5B
:104D4000882309F470C20E94CD026B017C0158EEE9
:104D5000452E53E0552E612C712C63E0962E02E017
:104D6000B12CA12C809187078330B9F1811162C1E8
:104D700080914D0790914E07A0914F07B091500739
:104D80000196A11DB11D80934D0790934E07A093EE
:104D90004F07B09350070E94CD026C197D098E0910
:104DA0009F09A30192010E94042AA90161E089E4FC
:104DB00097E00E94FE2281E08093870791E0A91688
:104DC000B10481F20E94CD026C197D098E099F0900
:104DD00061367A4E8105910518F288E897E00E94C5
:104DE000300D80914D0790914E07A0914F07B091E3
:104DF00050070196A11DB11D80934D0790934E075A
:104E0000A0934F07B0935007AA94AB2809F00BC2A8
:104E10000091250410912604B8016E5E7F4FCE01EB
:104E20004B960E94690DB8016A5E7F4FCE01459690
:104E30000E94690DB801625E7F4FCE010F960E94FD
:104E4000690DB801625F7F4FCE0101960E94690D26
:104E50009E01255E3F4FAE014B5E5F4FBE01615F1D
:104E60007F4FCE0101960E945B088AEB97E00E947B
:104E7000791E6DE872E080EA96E00E946820309129
:104E80002704209128049091290480912A0441E864
:104E900052E05A8349833B832C839D838E8360EA4F
:104EA00076E0CE0101960E94D72063E872E080EAA6
:104EB00096E00E9468208EE1982E98EEC92E93E02D
:104EC000D92EE12CF12C0DE312E00E94E517809120
:104ED000BE079091BF07EBE2F4E02281222309F4A0
:104EE0008CC1218120FF0CC0A0819A9ED001112489
:104EF000AD5FBA4F14964D915C914817590741F038
:104F000022FF7BC1278130858217930709F075C185
:104F10001C821B82CD82DE82EF82F8861A8309838F
:104F2000FE87ED87CE0101960E94911FA82E88234F
:104F300009F47DC069E972E080EA96E00E94C3202E
:104F40000E94CD022B013C01BA2CCE0101960E9499
:104F50007A0A882309F45DC00E94CD02641975099C
:104F600086099709603177428105910508F051C0A3
:104F7000CE0101960E943A0A892B39F3CE0101969F
:104F80000E9481098A3009F049C1BB20E9F26EEA2A
:104F900072E0CE0101960E94C3206EEB72E0CE015A
:104FA00001960E94C32066ED72E0CE0101960E9438
:104FB000C32063E872E0CE0101960E94682068EE8B
:104FC00072E0CE0101960E94C32068EF72E0CE012C
:104FD00001960E94C3206FEF72E0CE0101960E94FD
:104FE000C3206AE273E0CE0101960E94C32061E310
:104FF00073E0CE0101960E94C32064E573E0CE0108
:1050000001960E94C3206CE573E0CE0101960E94D8
:10501000C320CE0101960E944209CE0101960E9452
:10502000A71F64E673E080EA96E00E94C3200E9416
:10503000DC034BCF843031F580914D0790914E07C2
:10504000A0914F07B09150070196A11DB11D80930B
:105050004D0790934E07A0934F07B09350070E94BF
:10506000CD026C197D098E099F09A30192010E944E
:10507000042AA90163E089E497E00E94FE220093DC
:1050800087079CCE813051F5BE016F5F7F4F89E469
:1050900097E00E942121182F823009F0AAC089814F
:1050A0009A81AB81BC8180934D0790934E07A0936A
:1050B0004F07B09350070E94CD026C197D098E09ED
:1050C0009F09A30192010E94042AA90163E089E4D7
:1050D00097E00E94FE221093870770CE823009F07D
:1050E0006DCEBE016F5F7F4F89E497E00E94212162
:1050F000182F853009F078C09092870780916B0750
:1051000090916C07A0916D07B0916E07892B8A2B47
:105110008B2B61F484E893E0A0E0B0E080936B0710
:1051200090936C07A0936D07B0936E0780916F0703
:1051300090917007A0917107B0917207892B8A2B0B
:105140008B2BA1F480916B0790916C07A0916D0758
:10515000B0916E07B695A7959795879580936F0741
:1051600090937007A0937107B093720780916F07B7
:1051700090917007A0917107B091720740917307E9
:10518000509174076091750770917607452B462BF7
:10519000472B71F4AC01BD01440F551F661F771FEB
:1051A0004093730750937407609375077093760765
:1051B0008093770790937807A0937907B0937A0745
:1051C0008091730790917407A0917507B09176074D
:1051D00080937B0790937C07A0937D07B0937E0715
:1051E000AA24A394B12CEACD863019F41092870733
:1051F000E5CD1F3F09F0E2CDF9CF729624E0E33709
:10520000F20708F46ACE1C821B82CD82DE82EF8216
:10521000F8861A8309831E861D8684CE8D3009F494
:1052200094CEB12C92CE68E773E080EA96E00E94BB
:10523000C32081E892E09A8389838091C30790918B
:10524000C407A091C507B091C6078B839C83AD832B
:10525000BE83CE0101960E94010C07CE8F929F92D1
:10526000AF92BF92CF92DF92EF92FF92CF93DF93F4
:10527000EC01688179818A819B81611571058105C5
:10528000910521F464E279ED8BE597E02DE133EFB0
:1052900041E050E00E94D22949015A019B01AC0132
:1052A000A7EAB1E40E94F1296B017C01ACEEB4EFF6
:1052B000A50194010E94FF29C60ED71EE81EF91E03
:1052C000F7FE06C081E0C81AD108E10880E8F80AB4
:1052D000C882D982EA82FB82C701B6019F77DF913B
:1052E000CF91FF90EF90DF90CF90BF90AF909F90C5
:1052F0008F9008958F929F92AF92BF92CF92DF923C
:10530000EF92FF926091070270910802809109026A
:1053100090910A02611571058105910521F464E2FD
:1053200079ED8BE597E02DE133EF41E050E00E940D
:10533000D22949015A019B01AC01A7EAB1E40E94BC
:10534000F1296B017C01ACEEB4EFA50194010E9440
:10535000FF29C60ED71EE81EF91EF7FE06C081E023
:10536000C81AD108E10880E8F80AC0920702D09272
:105370000802E0920902F0920A02C701B6019F7783
:10538000FF90EF90DF90CF90BF90AF909F908F9065
:105390000895609307027093080280930902909326
:1053A0000A020895052E97FB1EF400940E94E92935
:1053B00057FD07D00E94042A07FC03D04EF40C943A
:1053C000E92950954095309521953F4F4F4F5F4FBC
:1053D000089590958095709561957F4F8F4F9F4F61
:1053E00008950E94262AA59F900DB49F900DA49F1A
:1053F000800D911D11240895B7FF0C94F1290E948E
:10540000F129821B930B0895A1E21A2EAA1BBB1B44
:10541000FD010DC0AA1FBB1FEE1FFF1FA217B30780
:10542000E407F50720F0A21BB30BE40BF50B661F96
:10543000771F881F991F1A9469F76095709580955A
:1054400090959B01AC01BD01CF010895A29FB001D1
:10545000B39FC001A39F700D811D1124911DB29FA8
:10546000700D811D1124911D0895EE0FFF1F881FDF
:105470008BBF0790F691E02D19946927962769272D
:105480007827872778270895FB01DC0104C08D91D8
:105490000190801921F441505040C8F7881B990BA6
:1054A0000895FB01DC0102C001900D924150504073
:1054B000D8F70895DC0101C06D9341505040E0F7EA
:1054C0000895FB01DC0101900D920020E1F70895A1
:1054D000F894FFCFFFDEADBEEFFEED01000000004F
:1054E0000000005D0745079A070A1A771A28071671
:1054F0001A0B0D7307300D911AA71DB417811A38B6
:105500001A940A0207F306FFFFFFFFFFFF000000E7
:10551000007D1F781F9F1E42093A0A81095709C45E
:105520001F121E9E09A71F7A0A911F680A8A0A0085
:105530000000006F03D9020603BC033703150329DB
:10554000030000000075073A1F9A079907791E8B20
:105550000700000000D7200D0A00454E4332384AAC
:10556000005365727665722049503A20004E657787
:1055700020636C69656E7420636F6E6E656374651D
:105580006400485454502F312E3120323030204F97
:105590004B00436F6E74656E742D547970653A20BC
:1055A000746578742F68746D6C00436F6E6E6563FC
:1055B00074696F6E3A20636C6F7365003C21444FD1
:1055C00043545950452068746D6C3E003C68746DBE
:1055D0006C3E003C686561643E3C7469746C653E79
:1055E00041726475696E6F205365727665723C2FE7
:1055F0007469746C653E3C2F686561643E003C6272
:105600006F64793E003C68313E48656C6C6F205792
:105610006F726C642066726F6D2041726475696E82
:105620006F213C2F68313E003C2F626F64793E0051
:105630003C2F68746D6C3E00436C69656E74206429
:105640006973636F6E6E65637465640044484350AC
:10565000206661696C65642C207573696E672073C0
:0A5660007461746963204950000072
:020000040003F7
:10E000000D9489F10D94B2F10D94B2F10D94B2F129
:10E010000D94B2F10D94B2F10D94B2F10D94B2F1F0
:10E020000D94B2F10D94B2F10D94B2F10D94B2F1E0
:10E030000D94B2F10D94B2F10D94B2F10D94B2F1D0
:10E040000D94B2F10D94B2F10D94B2F10D94B2F1C0
:10E050000D94B2F10D94B2F10D94B2F10D94B2F1B0
:10E060000D94B2F10D94B2F10D94B2F10D94B2F1A0
:10E070000D94B2F10D94B2F10D94B2F10D94B2F190
:10E080000D94B2F10D94B2F10D94B2F10D94B2F180
:10E090000D94B2F10D94B2F10D94B2F10D94B2F170
:10E0A0000D94B2F10D94B2F10D94B2F10D94B2F160
:10E0B0000D94B2F10D94B2F10D94B2F10D94B2F150
:10E0C0000D94B2F10D94B2F10D94B2F10D94B2F140
:10E0D0000D94B2F10D94B2F10D94B2F10D94B2F130
:10E0E0000D94B2F141546D656761323536300041AF
:10E0F000726475696E6F206578706C6F72657220DE
:10E1000073746B3530305632206279204D4C530099
:10E11000426F6F746C6F616465723E004875683F52
:10E1200000436F6D70696C6564206F6E203D200048
:10E130004350552054797065202020203D20005FF9
:10E140005F4156525F415243485F5F3D2000415658
:10E1500052204C696243205665723D20004743437C
:10E160002056657273696F6E203D20004350552024
:10E1700049442020202020203D20004C6F7720663D
:10E18000757365202020203D20004869676820665F
:10E190007573652020203D200045787420667573D6
:10E1A00065202020203D20004C6F636B2066757336
:10E1B000652020203D20004D617220203720323024
:10E1C000313300312E362E3800342E332E350056A2
:10E1D00023202020414444522020206F7020636F70
:10E1E00064652020202020696E73747275637469E1
:10E1F0006F6E2061646472202020496E74657272B3
:10E20000757074006E6F20766563746F7200726A49
:10E210006D702020006A6D70200057686174207056
:10E220006F72743A00506F7274206E6F7420737541
:10E2300070706F72746564004D7573742062652030
:10E2400061206C6574746572002000577269747483
:10E25000696E672045450052656164696E672045B7
:10E26000450045452065727220636E743D00504F35
:10E27000525400303D5A65726F2061646472003FF1
:10E280003D43505520737461747300403D454550C3
:10E29000524F4D207465737400423D426C696E6B41
:10E2A000204C454400453D44756D70204545505215
:10E2B0004F4D00463D44756D7020464C415348001B
:10E2C000483D48656C70004C3D4C69737420492F83
:10E2D0004F20506F72747300513D51756974005234
:10E2E0003D44756D702052414D00563D73686F7707
:10E2F00020696E7465727275707420566563746FF0
:10E30000727300593D506F727420626C696E6B00BD
:10E310002A0011241FBECFEFD1E2DEBFCDBF01E046
:10E320000CBF12E0A0E0B2E0EEE1FDEF03E00BBFB6
:10E3300002C007900D92A030B107D9F712E0A0E01B
:10E34000B2E001C01D92AE30B107E1F70F9460F367
:10E350000D948DFE01E20EBF0FEF0DBF11241FBE05
:10E360000D9460F30D9400F020E030E040ED57E0B4
:10E3700005C0FA013197F1F72F5F3F4F2817390792
:10E38000C0F308959C01260F311DC901A0E0B0E043
:10E390002F5F3F4FABBFFC018791882361F08093D3
:10E3A000C6008091C00086FFFCCF8091C0008064D1
:10E3B0008093C000EACF08958DE08093C6008091DD
:10E3C000C00086FFFCCF8091C00080648093C000B5
:10E3D0008AE08093C6008091C00086FFFCCF8091C8
:10E3E000C00080648093C00008950F94C2F10F9420
:10E3F000DCF10895FC019081992359F09093C600B7
:10E400008091C00086FFFCCF8091C0008064809323
:10E41000C0003196992379F70895282F982F929567
:10E420009F70892F805D8A3308F0895F8093C600D2
:10E430008091C00086FFFCCF8091C00080648093F3
:10E44000C000822F8F70982F905D9A3308F0995FEB
:10E450009093C6008091C00086FFFCCF8091C000E1
:10E4600080648093C00008959C01FB01853691056E
