:100000000C945C000C9479000C9479000C947900A9
:100010000C9479000C9479000C9479000C9479007C
:100020000C9479000C9479000C9479000C9479006C
:100030000C9479000C9479000C9479000C9479005C
:100040000C9493010C9479000C9479000C94790031
:100050000C9479000C9479000C9479000C9479003C
:100060000C9479000C947900000000080002010053
:100070000003040700000000000000000000000072
:10008000250028002B0000000000240027002A0083
:10009000040404040404040402020202020203032E
:1000A0000303030301020408102040800102040836
:1000B000102001020408102011241FBECFEFD8E049
:1000C000DEBFCDBF11E0A0E0B1E0E6EFF8E002C096
:1000D00005900D92A230B107D9F721E0A2E0B1E07E
:1000E00001C01D92AB30B207E1F70E94DD010C9414
:1000F00079040C94000090E0FC01EC55FF4F249132
:1001000080579F4FFC018491882399F090E0880FDD
:10011000991FFC01EA57FF4FA591B491FC01E458E7
:10012000FF4F859194918FB7F894EC91E22BEC936B
:100130008FBF089590E0FC01E859FF4F2491FC0126
:10014000EC55FF4F3491FC01E057FF4FE491EE2353
:10015000C9F0222339F0233001F1A8F4213019F13C
:10016000223029F1F0E0EE0FFF1FE458FF4FA59178
:10017000B4918FB7F894EC91611126C030953E236D
:100180003C938FBF08952730A9F02830C9F0243060
:1001900049F7809180008F7D03C0809180008F7728
:1001A00080938000DFCF84B58F7784BDDBCF84B5AB
:1001B0008F7DFBCF8091B0008F778093B000D2CF3E
:1001C0008091B0008F7DF9CF3E2BDACF1F93CF9374
:1001D000DF93182FEB010E947B00209739F460E039
:1001E000812FDF91CF911F910C949A00CF3FD105C1
:1001F00011F461E0F5CFE12FF0E0E859FF4FE49111
:10020000E33031F140F4E130B1F0E230E1F0C038F8
:10021000D1057CF7E4CFE73029F1E83059F1E4303B
:10022000B1F780918000806280938000D0938B0032
:10023000C0938A0004C084B5806884BDC7BDDF91C7
:10024000CF911F91089584B5806284BDC8BDF7CF5A
:1002500080918000806880938000D0938900C09353
:100260008800EDCF8091B00080688093B000C0938B
:10027000B300E5CF8091B00080628093B000C0935E
:10028000B400DDCF8E50806480937C0080917A0032
:10029000806480937A0080917A0086FDFCCF809103
:1002A00078009091790008953FB7F8948091070104
:1002B00090910801A0910901B0910A0126B5A89B6F
:1002C00005C02F3F19F00196A11DB11D3FBFBA2FE8
:1002D000A92F982F8827BC01CD01620F711D811DA8
:1002E000911D42E0660F771F881F991F4A95D1F72D
:1002F000089560E088E00E949A0060E087E00E9434
:100300009A0070E060E086E00C94E60060E083E034
:100310000E949A0060E084E00E949A0070E060E031
:1003200085E00C94E6001F920F920FB60F921124F5
:100330002F933F938F939F93AF93BF93809103012C
:1003400090910401A0910501B09106013091020144
:1003500023E0230F2D3758F50196A11DB11D2093E1
:1003600002018093030190930401A0930501B093CF
:1003700006018091070190910801A0910901B091B7
:100380000A010196A11DB11D8093070190930801F8
:10039000A0930901B0930A01BF91AF919F918F91F2
:1003A0003F912F910F900FBE0F901F90189526E848
:1003B000230F0296A11DB11DD2CF789484B582601F
:1003C00084BD84B5816084BD85B5826085BD85B5F9
:1003D000816085BD80916E00816080936E00109277
:1003E00081008091810082608093810080918100F2
:1003F0008160809381008091800081608093800083
:100400008091B10084608093B1008091B0008160E0
:100410008093B00080917A00846080937A0080910C
:100420007A00826080937A0080917A008160809364
:100430007A0080917A00806880937A001092C100DF
:1004400083E00E947B0084E00E947B0085E00E94A4
:100450007B0088E00E947B0087E00E947B0086E0B2
:100460000E947B000E9486010E94790188248A9460
:1004700093E0992EA12CB12C00E010E08EE00E94B8
:1004800042017C018FE00E944201EC019701A2E051
:10049000BEEF0E946A04A50194010E94E90269016D
:1004A0007A018FEFC80ED11CE11CF11CC601CB965E
:1004B0008737910508F053C00E94860180910001A2
:1004C000909101017E01E81AF90AD0930101C093CD
:1004D0000001B701F7FE04C0662777276E197F0970
:1004E000072E000C880B990B0E94710320E030E06E
:1004F00040E85EE30E94D5030E9439036F30710526
:100500000CF04BC00E9479010E9454012B013C0168
:1005100084E1C82ED12CE12CF12C0E9454016419E5
:10052000750986099709683E734081059105A8F30E
:1005300021E0C21AD108E108F10888EE480E83E0F4
:10054000581E611C711CC114D104E104F10429F787
:100550000115110509F492CF0E9400008FCF1C14E1
:100560001D0474F461E083E00E949A0060E084E07E
:100570000E949A00B601772785E00E94E6009ECF90
:1005800060E083E00E949A0061E084E00E949A00AB
:10059000662777276C197D09EECFEB01693C710561
:1005A00014F0C8ECD0E01E141F046CF461E088E085
:1005B0000E949A0060E087E00E949A00BE0186E0F7
:1005C0000E94E600A1CF60E088E00E949A0061E00E
:1005D000F2CF052E97FB1EF400940E94000357FDF6
:1005E00007D00E94080307FC03D04EF40C940003CC
:1005F00050954095309521953F4F4F4F5F4F08954F
:1006000090958095709561957F4F8F4F9F4F08957E
:10061000A1E21A2EAA1BBB1BFD010DC0AA1FBB1F06
:10062000EE1FFF1FA217B307E407F50720F0A21B78
:10063000B30BE40BF50B661F771F881F991F1A94E5
:1006400069F760957095809590959B01AC01BD010F
:10065000CF010895A29FB001B39FC001A39F700D69
:10066000811D1124911DB29F700D811D1124911DBA
:1006700008950E9440036894B1110C94CF0308952B
:100680000E94B40388F09F5798F0B92F9927B7516B
:10069000B0F0E1F0660F771F881F991F1AF0BA9526
:1006A000C9F714C0B13091F00E94CE03B1E00895B3
:1006B0000C94CE03672F782F8827B85F39F0B93FA5
:1006C000CCF3869577956795B395D9F73EF49095D9
:1006D0008095709561957F4F8F4F9F4F0895E89457
:1006E00009C097FB3EF490958095709561957F4F7A
:1006F0008F4F9F4F9923A9F0F92F96E9BB27939528
:10070000F695879577956795B795F111F8CFFAF437
:10071000BB0F11F460FF1BC06F5F7F4F8F4F9F4F68
:1007200016C0882311F096E911C0772321F09EE8C6
:10073000872F762F05C0662371F096E8862F70E02C
:1007400060E02AF09A95660F771F881FDAF7880F06
:100750009695879597F9089557FD9058440F551F22
:1007600059F05F3F71F04795880F97FB991F61F033
:100770009F3F79F087950895121613061406551FAA
:10078000F2CF4695F1DF08C0161617061806991F16
:10079000F1CF86957105610508940895E894BB270B
:1007A00066277727CB0197F908950E94E8030C94F8
:1007B00059040E944B0438F00E94520420F0952303
:1007C00011F00C9442040C94480411240C94CF03AF
:1007D0000E94AC0370F3959FC1F3950F50E0551F35
:1007E000629FF001729FBB27F00DB11D639FAA2786
:1007F000F00DB11DAA1F649F6627B00DA11D661FD5
:10080000829F2227B00DA11D621F739FB00DA11DF5
:10081000621F839FA00D611D221F749F3327A00DAF
:10082000611D231F849F600D211D822F762F6A2F4B
:1008300011249F5750409AF0F1F088234AF0EE0FB0
:10084000FF1FBB1F661F771F881F91505040A9F7DD
:100850009E3F510580F00C9442040C94CF035F3FFF
:10086000E4F3983ED4F3869577956795B795F79519
:10087000E7959F5FC1F7FE2B880F911D9695879591
:1008800097F9089597F99F6780E870E060E0089510
:100890009FEF80EC089500240A9416161706180698
:1008A0000906089500240A94121613061406050674
:1008B0000895092E0394000C11F4882352F0BB0F05
:1008C00040F4BF2B11F460FF04C06F5F7F4F8F4F68
:1008D0009F4F08950E942A03332312F48A1B9B0B17
:1008E0000C9474040E942A03B7FF0895821B930B93
:0608F0000895F894FFCF0B
:0208F6000002FE
:00000001FF
