:100000000C9445010C946D010C946D010C94E10B62
:100010000C94E10B0C94E10B0C946D010C946D01AC
:100020000C946D010C946D010C946D010C946D0198
:100030000C946D010C946D010C946D010C946D0188
:100040000C943F0B0C946D010C94AF0B0C94890B2A
:100050000C946D010C946D010C946D010C946D0168
:100060000C94590C0C946D015B4248313735305D6E
:10007000204552524F523A20756E646566696E652E
:1000800064206572726F72005B4248313735305DB3
:10009000204552524F523A206F7468657220657243
:1000A000726F72005B4248313735305D20455252E5
:1000B0004F523A207265636569766564204E41430C
:1000C0004B206F6E207472616E736D6974206F6661
:1000D0002064617461005B4248313735305D2045F2
:1000E00052524F523A207265636569766564204EBC
:1000F00041434B206F6E207472616E736D69742082
:100100006F662061646472657373005B42483137C7
:1001100035305D204552524F523A20746F6F206C3B
:100120006F6E6720666F72207472616E736D697492
:1001300020627566666572005B4248313735305D16
:10014000204552524F523A20756E646566696E655D
:1001500064206572726F72005B4248313735305DE2
:10016000204552524F523A206F7468657220657272
:10017000726F72005B4248313735305D2045525214
:100180004F523A207265636569766564204E41433B
:100190004B206F6E207472616E736D6974206F6690
:1001A0002064617461005B4248313735305D204521
:1001B00052524F523A207265636569766564204EEB
:1001C00041434B206F6E207472616E736D697420B1
:1001D0006F662061646472657373005B42483137F7
:1001E00035305D204552524F523A20746F6F206C6B
:1001F0006F6E6720666F72207472616E736D6974C2
:1002000020627566666572005B4248313735305D45
:1002100020446576696365206973206E6F7420637E
:100220006F6E6669677572656421000000000024C6
:100230000027002A0000000008000201000003045B
:10024000070000000000000000000000002300265E
:1002500000290000000000250028002B00040404F1
:10026000040404040402020202020203030303035F
:10027000030102040810204080010204081020013C
:10028000020408102000780D931511241FBECFEF33
:10029000D8E0DEBFCDBF24E0A2E8B2E001C01D92ED
:1002A000A63AB207E1F712E0A0E0B1E0EEE3F5E331
:1002B00002C005900D92A238B107D9F711E0C4E44D
:1002C000D1E004C02197FE010E948618C334D107F3
:1002D000C9F70E94E60E0C94921A0C940000CF927B
:1002E000DF92EF92FF92CF93DF93B0919604A0E05C
:1002F0008111AB2F8091970490E0880F991FAC017A
:10030000475B5D4FC0909C04D0909D04E0909E049C
:10031000F0909F0430E020E0FA01C591D491E8818B
:10032000B90190E080E0EB23EA130AC02F5F3F4F52
:100330006C157D058E059F0578F36FEF7FEFCB0180
:10034000DF91CF91FF90EF90DF90CF9008958330B1
:1003500081F028F4813099F08230A9F00895873037
:10036000A9F08830C9F08430B1F4809180008F7D8D
:1003700003C0809180008F7780938000089584B5BA
:100380008F7784BD089584B58F7DFBCF8091B000B9
:100390008F778093B00008958091B0008F7DF9CF62
:1003A000CF93DF93282F30E0F901EB5CFD4F849170
:1003B000F901EF58FD4FD491F901E35AFD4FC49173
:1003C000CC23A1F081110E94A701EC2FF0E0EE0FE9
:1003D000FF1FE75BFD4FA591B491EC91ED2381E008
:1003E00090E009F480E0DF91CF91089580E090E003
:1003F000FACF1F93CF93DF93282F30E0F901EB5C06
:10040000FD4F8491F901EF58FD4FD491F901E35A62
:10041000FD4FC491CC23A9F0162F81110E94A70192
:10042000EC2FF0E0EE0FFF1FED5AFD4FA591B491B8
:100430008FB7F894EC91111108C0D095DE23DC93AE
:100440008FBFDF91CF911F910895DE2BF8CFCF930F
:10045000DF9390E0FC01EF58FD4F2491835A9D4FAC
:10046000FC0184918823C9F090E0880F991FFC015A
:10047000E55DFD4FA591B491FC01ED5AFD4FC5918D
:10048000D49161110DC09FB7F8948C91209582236F
:100490008C938881282328839FBFDF91CF91089573
:1004A000623051F49FB7F8943C91822F809583235A
:1004B0008C93E8812E2BEFCF8FB7F894EC912E2BF5
:1004C0002C938FBFEACF8E50806480937C00809104
:1004D0007A00806480937A0080917A0086FDFCCF58
:1004E000809178009091790008953FB7F8948091B9
:1004F000490390914A03A0914B03B0914C0326B558
:10050000A89B05C02F3F19F00196A11DB11D3FBF4B
:10051000BA2FA92F982F8827BC01CD01620F711D1A
:10052000811D911D42E0660F771F881F991F4A9514
:10053000D1F708958F929F92AF92BF92CF92DF92A0
:10054000EF92FF926B017C010E9475024B015C01EE
:10055000C114D104E104F104B9F00E9475026819D4
:1005600079098A099B09683E73408105910580F3EA
:1005700021E0C21AD108E108F10888EE880E83E074
:10058000981EA11CB11CE4CFFF90EF90DF90CF909C
:10059000BF90AF909F908F9008952FB7F89460917F
:1005A00045037091460380914703909148032FBF04
:1005B0000895CF92DF92EF92FF920F931F93CF9304
:1005C000DF93CDB7DEB7C054D1400FB6F894DEBF8D
:1005D0000FBECDBF0E94CD020091980410919904E6
:1005E00020919A0430919B046B017C01C01AD10ABE
:1005F000E20AF30A97018601003D17402105310503
:1006000090F48091A004C05CDE4F0FB6F894DEBF7A
:100610000FBECDBFDF91CF911F910F91FF90EF9053
:10062000DF90CF900895609398047093990480931D
:100630009A0490939B041092930410929204109247
:1006400091041092900410928F0462E080919404BF
:100650000E94270261E070E080E090E00E949A0230
:1006600061E0809194040E94270260E080919404EC
:100670000E94F901809195048551823020F58BE22A
:1006800091E10197F1F762E0809194040E942702C2
:100690008091A10490E08230910538F0880F991F75
:1006A000880F991F05970197F1F7F89480E00E9451
:1006B0006F016F3F7F4F8F4F9F4F61F41092A004E7
:1006C000789480E0A0CF64E170E080E090E00E9448
:1006D0009A02D9CF81E00E946F016F3F7F4F8F4F09
:1006E0009F4F61F38E010F5F1F4F6E012FEBC21AF8
:1006F0002EEFD20A780180E00E946F01F70160833B
:1007000071838283938381E00E946F01F701648388
:10071000758386839783F8E0EF0EF11CEC14FD04DB
:1007200051F7789430E020E0F801C080D180E28079
:10073000F3804481558166817781FFEFCF16DF0614
:10074000EF06FF0631F04F3F8FEF58076807780735
:1007500019F41092A004B5CFF90183E0F595E7955F
:100760008A95E1F7E157FB4F8081880FC416D506C3
:10077000E606F70610F180832F5F3F4F085F1F4F9B
:100780002832310589F64091930420918F0480919D
:100790009004280F3327331F80919104280F311DB7
:1007A00080919204820F932F911D99274817190663
:1007B00081F681E08093A00426CF8160DCCF809118
:1007C000320390913303891B990B0895089508957E
:1007D000AF92BF92CF92DF92EF92FF920F931F934F
:1007E000CF93DF936C017B018B01040F151FEB018D
:1007F0005E01AE18BF08C017D10759F06991D60144
:10080000ED91FC910190F081E02DC6010995892BB5
:1008100079F7C501DF91CF911F910F91FF90EF9074
:10082000DF90CF90BF90AF900895FC01538D448D21
:10083000252F30E0842F90E0821B930B541710F08B
:10084000CF96089501970895FC01918D828D981798
:1008500061F0A28DAE0FBF2FB11D5D968C91928D70
:100860009F5F9F73928F90E008958FEF9FEF0895A1
:10087000FC01918D828D981731F0828DE80FF11D6A
:10088000858D90E008958FEF9FEF0895FC01918D85
:10089000228D892F90E0805C9F4F821B91098F737E
:1008A0009927089589E993E00E94460421E0892B65
:1008B00009F420E0822F089580E090E0892B29F050
:1008C0000E94520481110C9400000895FC01A48D33
:1008D000A80FB92FB11DA35ABF4F2C91848D90E062
:1008E00001968F739927848FA689B7892C93A08945
:1008F000B1898C91837080648C93938D848D9813CF
:1009000006C00288F389E02D80818F7D8083089561
:10091000EF92FF920F931F93CF93DF93EC0181E04F
:10092000888F9B8D8C8D98131AC0E889F9898081F6
:1009300085FF15C09FB7F894EE89FF896083E88929
:10094000F98980818370806480839FBF81E090E01B
:10095000DF91CF911F910F91FF90EF900895F62EA8
:100960000B8D10E00F5F1F4F0F731127E02E8C8D42
:100970008E110CC00FB607FCFACFE889F989808187
:1009800085FFF5CFCE010E946604F1CFEB8DEC0F11
:10099000FD2FF11DE35AFF4FF0829FB7F8940B8FA4
:1009A000EA89FB8980818062CFCFCF93DF93EC010E
:1009B000888D8823B9F0AA89BB89E889F9898C9147
:1009C00085FD03C0808186FD0DC00FB607FCF7CF03
:1009D0008C9185FFF2CF808185FFEDCFCE010E9403
:1009E0006604E9CFDF91CF910895209128033091DB
:1009F00029032817390771F4909126038091270362
:100A0000981741F0E0912603F0E0EA51FD4F808114
:100A100090E008958FEF9FEF08950895EF92FF9271
:100A20000F931F93CF93DF93DC015C96ED90FC90C6
:100A30005D97E114F10479F481E090E013969C93C2
:100A40008E93129790E080E0DF91CF911F910F91EC
:100A5000FF90EF9008955196ED91FC91529750962A
:100A60008C915097982F90950FB75E962C915E972A
:100A7000122F127021FD6095F8942081112319F135
:100A8000282B2083E7012197F1F728E0462F50E03B
:100A9000308160FF1AC0382B3083E7012197F1F7CE
:100AA000BA0175956795215089F7112381F08081EE
:100AB000892380830FBF5C968D919C910197F1F7FC
:100AC00081E090E0C1CF2923DCCF3923E5CF9081AD
:100AD000892BEFCF2091280330912903281739075C
:100AE00061F4809127032091260390E0805C9F4F62
:100AF000821B91098F739927089590E080E00895F3
:100B0000209128033091290328173907B9F49091CF
:100B1000260380912703981789F0E0912603F0E0DF
:100B2000EA51FD4F80812091260330E02F5F3F4F37
:100B30002F7333272093260390E008958FEF9FEFC4
:100B40000895089508952091C302260F3327331F77
:100B500021323105ECF420919303FC0190E080E018
:100B6000243069F082E00895A091C3022191AC0184
:100B70004D555D4FA40FB52FB11D2C9301968617CF
:100B800098F38091C302680F6093C30280E00895D8
:100B900081E008951092930381E080937203109294
:100BA0006D0361E082E10E94F90161E083E10E944E
:100BB000F901E9EBF0E080818E7F808380818D7F79
:100BC000808388E48093B80085E48093BC00089516
:100BD000CF93DF9391E09093A2028823B9F0C09164
:100BE000B800D091BA008091BC008A7B8093BC0091
:100BF00060E082E10E94F90160E083E10E94F90176
:100C00000E94CA05D093BA00C093B800DF91CF917B
:100C10000895CF92DF92EF92FF920F931F93CF939D
:100C2000DF93D82FC62F613208F098C00E9475025A
:100C30006B017C018091930381116BC081E08093F3
:100C40009303809372039FEF90937103109270034C
:100C50009C0F90936F0380936E0380916E03DD0F62
:100C6000D82BD0936E0380916D03813009F078C04A
:100C700010926D030E9475026B017C0180916E03DE
:100C80008093BB008091950390919603A091970368
:100C9000B0919803892B8A2B8B2BA1F00E947502AF
:100CA000009195031091960320919703309198033A
:100CB0006C197D098E099F09061717072807390740
:100CC00008F448C08091BC0083FDD8CF85EC8093A8
:100CD000BC000E9475026B017C01809193038130FE
:100CE00009F440C0809170038C1710F4C091700318
:100CF000EDE4F3E0A3E7B3E080E08C1355C08C2F64
:100D0000DF91CF911F910F91FF90EF90DF90CF90E7
:100D100008958091950390919603A0919703B091C7
:100D20009803892B8A2B8B2B09F484CF0E947502A0
:100D300000919503109196032091970330919803A9
:100D40006C197D098E099F090617170728073907AF
:100D500008F070CF809194030E94E805C0E0CFCFE7
:100D600085EEB5CF8091950390919603A09197035E
:100D7000B0919803892B8A2B8B2B09F4AECF0E945C
:100D8000750200919503109196032091970330917D
:100D900098036C197D098E099F0906171707280704
:100DA000390708F09ACFD6CF91919D938F5FA5CF49
:100DB000E091330380913203E81730F4F0E0ED580E
:100DC000FC4F808190E008958FEF9FEF0895909100
:100DD0003303809132032FEF3FEF981748F4E92F48
:100DE000F0E0ED58FC4F208130E09F5F909333039B
:100DF000C9010895CF92DF92EF92FF920F931F9354
:100E0000CF93DF937C01CB018A0120913103222310
:100E100089F0EB016B01C40ED51ECC15DD0569F020
:100E20006991D701ED91FC910190F081E02DC7010E
:100E30000995F3CF642F0E94A305C801DF91CF91DC
:100E40001F910F91FF90EF90DF90CF900895CF9377
:100E5000DF931F92CDB7DEB7698320913103222340
:100E6000F9F020912E03203258F021E030E0FC010F
:100E70003383228390E080E00F90DF91CF9108953B
:100E800080912F03E82FF0E0EE57FD4F998190837A
:100E90008F5F80932F0380932E0381E090E0ECCF4F
:100EA00061E0CE0101960E94A305F7CFCF92DF92B9
:100EB000EF92FF920F931F93CF93DF93D0912E0366
:100EC00081E0D13208F09CC0C09130030E947502CD
:100ED0006B017C018091930381116CC082E080934F
:100EE000930381E0809372038FEF809371031092DC
:100EF0007003D0936F03A2E8B2E0EDE4F3E080E08A
:100F0000D8138DC010926E0380916E03CC0FC82B46
:100F1000C0936E0380916D03813009F084C01092FC
:100F20006D030E9475026B017C0180916E038093BA
:100F3000BB008091950390919603A0919703B09187
:100F40009803892B8A2B8B2BA1F00E9475020091AC
:100F500095031091960320919703309198036C1993
:100F60007D098E099F09061717072807390708F416
:100F700042C08091BC0083FDD8CF85EC8093BC003B
:100F80000E9475026B017C0180919303823009F409
:100F90004CC0809171038F3F09F469C08091710347
:100FA000803209F466C080917103803309F463C014
:100FB00084E026C08091950390919603A0919703B9
:100FC000B0919803892B8A2B8B2B09F483CF0E9435
:100FD000750200919503109196032091970330912B
:100FE00098036C197D098E099F09061717072807B2
:100FF000390708F06FCF809194030E94E80585E0DF
:1010000010922F0310922E0310923103DF91CF9193
:101010001F910F91FF90EF90DF90CF9008959D91D9
:1010200091938F5F6DCF85EEA9CF809195039091BD
:101030009603A0919703B0919803892B8A2B8B2B51
:1010400009F4A2CF0E9475020091950310919603B6
:1010500020919703309198036C197D098E099F099F
:10106000061717072807390708F08ECFC4CF80E08E
:10107000C7CF82E0C5CF83E0C3CF90E080E0089582
:10108000DC01ED91FC910190F081E02D0994FC01CF
:10109000248131E0309331032093300310922F03E9
:1010A00010922E038485682B70E086E394E00E9402
:1010B000400886E394E00C945607FF920F931F9329
:1010C000CF93DF93F82E062FC7E0D0E010E061E069
:1010D000802F0E94F9018F2D0E94D0010C2E01C09B
:1010E000880F0A94EAF7182B60E0802F0E94F9011C
:1010F000219768F7812FDF91CF911F910F91FF907A
:101100000895EF92FF920F931F93CF93DF938091F7
:1011100085040E94D001892B31F060E070E0CB01A2
:101120000E949A02F4CFDFB7F89460918404809112
:1011300085040E945D08082F6091840480918504D5
:101140000E945D08C82F60918404809185040E94EC
:101150005D08182FF12CE12C809186048E151F0458
:1011600079F070F061E0809184040E94F90160E000
:10117000809184040E94F9018FEFE81AF80AECCFFD
:10118000DFBF6C2F70E090E080E0982F872F762FE4
:101190006627802B612B000F000B10E030E020E071
:1011A000302F222711270027602B712B822B932BA6
:1011B000DF91CF911F910F91FF90EF9008950F93C2
:1011C0001F93CF938C01C62F0E9447086C2F646039
:1011D000C8010E9447086C2F6B7FC8010E94470816
:1011E00083EC90E00197F1F7CF911F910F91089553
:1011F0000F931F93CF93DF938C01D62FC42F607F63
:10120000642B0E94DF0880E1D89FB00111246C2B71
:10121000C801DF91CF911F910F910C94DF08CF93FC
:10122000DF93CDB7DEB728970FB6F894DEBF0FBEB9
:10123000CDBF98E0E6E0F1E0DE01119601900D925D
:101240009A95E1F790916F04981708F48FEF90E06A
:10125000880F991F21E030E02C0F3D1F820F931F54
:10126000FC016081606840E087E694E028960FB654
:10127000F894DEBF0FBECDBFDF91CF910C94F8087C
:1012800040E061E087E694E00E94F8088BE39FE18C
:101290000197F1F780917004882319F080E00C9495
:1012A0000F09089541E00E94F80881E090E0089558
:1012B000FB0101900020E9F73197AF01461B570B66
:1012C000DC01ED91FC910280F381E02D09948F9275
:1012D0009F92AF92BF92EF92FF920F931F93CF9383
:1012E000DF93CDB7DEB7A1970FB6F894DEBF0FBE80
:1012F000CDBF7C01FA01CB0119A2223008F42AE00B
:101300008E010F5D1F4F822E912CB12CA12CBF019D
:10131000A50194010E944518F901CA016A300CF533
:10132000605DD8016E938D01232B242B252B79F73B
:1013300090E080E0109721F0BD01C7010E9458099C
:10134000A1960FB6F894DEBF0FBECDBFDF91CF914F
:101350001F910F91FF90EF90BF90AF909F908F9053
:101360000895695CDECFCF92DF92EF92FF926B011E
:101370007C0141E06DE287E694E00E94F808442792
:101380005527BA014C195D096E097F092AE087E6E5
:1013900094E00E9467090196FF90EF90DF90CF9054
:1013A0000895AC01990F660B770B77FF04C0CB0152
:1013B000BA010C94B3092AE087E694E00C9467091B
:1013C0000F931F93CF93DF938C01D0E0C0E0F8011F
:1013D000EC0FFD1F6491662341F089E993E00E94C0
:1013E0008804892B11F02196F2CF68E571E089E934
:1013F00093E00E9458098C0F9D1FDF91CF911F91A0
:101400000F910895CF93DF93BC0188E494E00E948C
:101410005809EC0168E571E088E494E00E945809FD
:101420008C0F9D1FDF91CF9108952F923F924F9285
:101430005F926F927F928F929F92AF92BF92CF9264
:10144000DF92EF92FF921F93CF93DF93EC016A013B
:101450007B01722EAB019601CB01B6010E942C18C4
:101460006BE571E0811126C046015701E894B7F899
:101470002FEF3FEF4FE75FE7C501B4010E942C1843
:1014800081110CC02FEF3FEF4FE75FE7C501B401BB
:101490000E94B7156FE571E0181664F02FEF3FEF6B
:1014A0004FE75FE4C701B6010E9427181816B4F48D
:1014B00063E671E0CE01DF91CF911F91FF90EF9035
:1014C000DF90CF90BF90AF909F908F907F906F9064
:1014D0005F904F903F902F900C9458092FEF3FEF63
:1014E0004FE75FECC701B6010E94B71587FDE0CF5B
:1014F00020E030E0A901C701B6010E94B715312CE8
:10150000212C87FF0DC0E881F9810190F081E02D49
:101510006DE2CE0109951C01F7FAF094F7F8F0940A
:1015200010E060E070E080E09FE3711641F020E0A1
:1015300030E040E251E40E947F171F5FF6CFA70121
:1015400096010E9413172B013C010E94F8174B01D2
:101550005C012AE0BC01A401CE010E9467097C0164
:10156000E20CF31C1123E1F1C501B4010E94BC158A
:101570009B01AC01C301B2010E9412174B015C0137
:10158000E881F9810190F081E02D6EE2CE010995AC
:10159000E80EF91E115020F120E030E040E251E465
:1015A000C501B4010E941D162B013C010E94F817D1
:1015B0004B01B12CA12C2AE0B501A401CE010E945F
:1015C0006709E80EF91EC501B4010E94BC159B0114
:1015D000AC01C301B2010E9412174B015C01DACFCA
:1015E000C701DF91CF911F91FF90EF90DF90CF90D7
:1015F000BF90AF909F908F907F906F905F904F9033
:101600003F902F9008950C9458090C943C1985ED47
:101610008093BC008091950390919603A0919703CD
:10162000B09198030796A11DB11D23E0B695A7952B
:10163000979587952A95D1F72091BC0024FD03C08A
:1016400010929303089540919503509196036091F1
:10165000970370919803452B462B472B69F300970E
:10166000A105B10541F02AE22A95F1F700C00197E2
:10167000A109B109E1CF809194030C94E8051F9270
:101680000F920FB60F9211242F933F938F939F9336
:10169000AF93BF938091450390914603A091470378
:1016A000B09148033091440323E0230F2D3758F5C0
:1016B0000196A11DB11D209344038093450390938F
:1016C0004603A0934703B093480380914903909148
:1016D0004A03A0914B03B0914C030196A11DB11D8B
:1016E0008093490390934A03A0934B03B0934C0318
:1016F000BF91AF919F918F913F912F910F900FBE0E
:101700000F901F90189526E8230F0296A11DB11D7A
:10171000D2CF1F920F920FB60F9211242F933F93A7
:101720004F935F936F937F938F939F93AF93BF93E9
:10173000EF93FF9389E993E00E946604FF91EF9194
:10174000BF91AF919F918F917F916F915F914F91D9
:101750003F912F910F900FBE0F901F9018951F92E1
:101760000F920FB60F9211242F938F939F93EF93A5
:10177000FF93E091A903F091AA038081E091AF0368
:10178000F091B00382FD1BC090818091B2038F5F06
:101790008F732091B303821741F0E091B203F0E020
:1017A000E756FC4F958F8093B203FF91EF919F9185
:1017B0008F912F910F900FBE0F901F9018958081E1
:1017C000F4CF1F920F920FB60F9211242F933F93D5
:1017D0004F935F936F937F938F939F93AF93BF9339
:1017E000EF93FF93E0912803F0912903309749F09C
:1017F000A685B7858585968D91FF14C09C91892318
:10180000A1F4FF91EF91BF91AF919F918F917F9143
:101810006F915F914F913F912F910F900FBE0F905D
:101820001F9018959C91892361F7A389B4899C9195
:101830008589809589238C93868997890197F1F70B
:10184000608D718DA685B785558538E020E0CB0188
:101850000197F1F7822F90E095958795282F4C916D
:10186000452309F02068315091F7868D81FD209540
:101870008091270390E001968F739927309126037A
:10188000381799F0A0912703B0E0AA51BD4F2C93CF
:1018900080932703828D938D0197F1F7A389B489F3
:1018A0008C919589892B8C93ACCF868D8160868FA6
:1018B000F1CF1F920F920FB60F9211242F933F93E7
:1018C0004F935F936F937F938F939F93AF93BF9348
:1018D000EF93FF938091B900887F803609F44AC066
:1018E000F0F5883209F4A7C018F5803109F49BC0DF
:1018F000B8F4882309F4F9C0883009F494C0FF9142
:10190000EF91BF91AF919F918F917F916F915F9177
:101910004F913F912F910F900FBE0F901F901895F0
:10192000883109F488C0803251F78093710314C064
:10193000803409F49DC040F48033B9F38833F9F65C
:101940008093710385ECB0C0803509F485C088357B
:1019500009F496C0883499F60E94070BD0CF8839D5
:1019600009F48CC038F5883729F050F4883611F026
:10197000803729F683E0809393031092E50257C0E5
:10198000883809F47BC0803919F0803809F0B7CF66
:101990008091E502803208F071C0E091E50281E0BB
:1019A0008E0F8093E5028091BB00F0E0EB53FD4F7A
:1019B00080833DC0803B39F0E0F4803A09F479C07F
:1019C000883A09F09CCF84E0809393031092C4027C
:1019D0001092C302E0912A03F0912B0309958091A4
:1019E000C30281110FC081E08093C3021092A30251
:1019F00009C0803C09F4A6CF883C09F4A3CF883BFA
:101A000009F07DCFE091C40281E08E0F8093C40283
:101A1000F0E0ED55FD4F80818093BB009091C402B2
:101A20008091C30229C080916E038093BB0085EC36
:101A30008093BC0064CF9091700380916F039817DE
:101A400058F5E091700381E08E0F80937003F0E011
:101A5000E35BFC4F8081E9CFE091700381E08E0F62
:101A6000809370038091BB00F0E0E35BFC4F8083C8
:101A70009091700380916F039817C8F285E8D8CFD2
:101A8000E091700381E08E0F809370038091BB0022
:101A9000F0E0E35BFC4F80838091720381115CCFA7
:101AA00081E080936D0384EA8093BC0010929303DD
:101AB00026CF85EC8093BC00109293038091E502C1
:101AC000803230F4E091E502F0E0EB53FD4F1082FC
:101AD0006091E50270E0E0912C03F0912D0385EC1C
:101AE00092E009951092E5020ACF1092710334CF6B
:101AF00010929C0310929B0388EE93E0A0E0B0E06C
:101B000080939D0390939E03A0939F03B093A003A3
:101B100022E131E030939A032093990325EC30E0E1
:101B20003093A6032093A50324EC30E03093A80360
:101B30002093A70320EC30E03093AA032093A9035D
:101B400021EC30E03093AC032093AB0322EC30E087
:101B50003093AE032093AD0326EC30E03093B00316
:101B60002093AF031092B2031092B3031092B40308
:101B70001092B503109239041092380480933A04FD
:101B800090933B04A0933C04B0933D0424E231E0E5
:101B9000309337042093360423E02093940426E105
:101BA00020939504E4E7F2E0E491E0939604E0E604
:101BB000F2E0E491E093970440E85EE360E070E0D7
:101BC00040939C0450939D0460939E0470939F04E3
:101BD00024E531E03093830420938204109287043B
:101BE000109288041092890410928A0440E050E018
:101BF00060E87FE340938B0450938C0460938D04E2
:101C000070938E0425E4209375044AE959E969E943
:101C10007FE3409376045093770460937804709345
:101C2000790410927B0410927A0423E220937404C6
:101C300026E334E030937D0420937C0410926A0400
:101C40001092690428E431E030936804209367041B
:101C50001092700427E220936B0420E1209371041A
:101C600022E0209372041092730410924B0410929D
:101C70004A0480934C0490934D04A0934E04B09377
:101C80004F0486E391E090934904809348041092B6
:101C90005F0410925E04109261041092600410922E
:101CA00063041092620410926504109264046091BF
:101CB00066046E7F6D7F609366046695617081E057
:101CC000682787E00E94F90161E087E00E9427020F
:101CD000E8E7F2E0E491E0935804E4E6F2E0E4910E
:101CE000F0E0EE0FFF1FED5AFD4F85919491909318
:101CF0005A048093590460E086E00E942702809194
:101D0000660481FD04C061E086E00E94F90186E07E
:101D100080935404E7E7F2E0E491E0935504E3E6AE
:101D2000F2E0E491F0E0EE0FFF1FE75BFD4F8591DD
:101D30009491909357048093560410924304109208
:101D400042041092450410924404109247041092E9
:101D500046046CE070E090E080E00E94C5190097B6
:101D600001F190934304809342042BE030E03093E0
:101D70004504209344042091460430914704232BCA
:101D800011F4FC0110828BE090E090934704809363
:101D9000460467E671E080914204909143040C94FC
:101DA0008B1A8091420490914304009711F00E9495
:101DB0003C1910924304109242041092470410926E
:101DC000460410924504109244040895789484B512
:101DD000826084BD84B5816084BD85B5826085BD27
:101DE00085B5816085BD80916E00816080936E00B5
:101DF00010928100809181008260809381008091A7
:101E00008100816080938100809180008160809357
:101E100080008091B10084608093B1008091B00017
:101E200081608093B00080917A00846080937A0012
:101E300080917A00826080937A0080917A0081603C
:101E400080937A0080917A00806880937A00109263
:101E5000C100E091A903F091AA0382E08083E091A0
:101E6000A503F091A6031082E091A703F091A803C7
:101E70008FEC80831092B103E091AD03F091AE033B
:101E800086E08083E091AB03F091AC0380818061B8
:101E90008083E091AB03F091AC0380818860808304
:101EA000E091AB03F091AC03808180688083E09186
:101EB000AB03F091AC0380818F7D8083109263042B
:101EC00010926204109261041092600410925F04F8
:101ED00010925E048DE991E0909365048093640410
:101EE00090915404963108F047C02DEB30E03093C8
:101EF0005F0420935E042BE931E03093610420936A
:101F000060042CE231E0309363042093620420915A
:101F1000680084E0983048F031E09E3008F430E00A
:101F200081E001C0880F3A95EAF7822B8093680020
:101F30002DE630E0983050F02BE630E09E3030F067
:101F40002CE630E0963110F030E020E030935C0475
:101F500020935B04292F30E0983008F0CDC081E059
:101F600001C0880F9A95EAF780935D04809164041C
:101F7000909165040197F1F7809162049091630458
:101F8000892B49F1E0912803F091290324E0E834FA
:101F9000F20709F1309739F0A389B4899C918589BA
:101FA000809589238C93809166048E7F809366044C
:101FB000109227031092260388E494E0909329035B
:101FC00080932803E0915B04F0915C048081909100
:101FD0005D04892B808360E082E00E94270262E03A
:101FE000809194040E9427020E94CD02605D774098
:101FF00081099109609398047093990480939A04DD
:1020000090939B0487E38093A10485E080938404EC
:1020100084E08093850461E085E00E94270260E00F
:10202000809185040E94270281E08093860480E0ED
:1020300090E0A0E8BFE380938B0490938C04A0937E
:102040008D04B0938E04CAE0C12CD12C76010E947D
:102050008108C60ED71EE81EF91E60E070E0CB01B5
:102060000E949A02C15099F7C701B6012AE030E0F8
:1020700040E050E00E946718CA01B9010E94BE15F5
:102080000E94F117609387047093880480938904F9
:1020900090938A0423E22093740480917C049091AD
:1020A0007D04D1E0D09331032093300310922F03AD
:1020B00010922E03DC01ED91FC910190F081E02D56
:1020C00060E1099580917C0490917D040E945607FF
:1020D000C82F6AE070E080E090E00E949A02C2306F
:1020E00009F49EC0B0F4CC23F9F08BED91E0C1303F
:1020F000C1F088E391E015C09E3040F428503109CA
:1021000081E001C0880F2A95EAF72ECF2E503109C1
:10211000F7CF84E791E0C33021F088E591E0C43047
:1021200041F70E94E00982C080E190E090937B0437
:1021300080937A040E94CD0260937E0470937F04A2
:10214000809380049093810480917C0490917D041D
:1021500020917404D09331032093300310922F0305
:1021600010922E0362E470E00E94400880917C048B
:1021700090917D040E945607C82F80917C04909115
:102180007D0420917404D093310320933003109286
:102190002F0310922E0365E670E00E9440088091A4
:1021A0007C0490917D040E945607C82B80917C048A
:1021B00090917D0420917404D093310320933003D7
:1021C00010922F0310922E0360917A0470917B0479
:1021D0000E94400880917C0490917D040E945607E3
:1021E000C82B6AE070E080E090E00E949A02C23062
:1021F00009F420C250F4CC23B1F08BE091E0C1305F
:1022000009F48FCF88E690E08CCF84EA90E0C33069
:1022100009F487CF88E890E0C43009F482CFF2CF88
:1022200086EA91E07ECF85E48093750410923303B3
:102230001092320310922F0310922E030E94CA05AF
:1022400086EE93E090932B0380932A0387EE93E02E
:1022500090932D0380932C0310926C048091720450
:10226000823018F098E090936C0480936F0462E3DE
:1022700070E080E090E00E949A026091730487E62B
:1022800094E00E94470868EE73E080E090E00E94CE
:102290009A0260E387E694E00E94DF08CBE4D6E48C
:1022A000CE010197F1F760E387E694E00E94DF0832
:1022B0002197F1F760E387E694E00E94DF0883E569
:1022C00092E00197F1F760E287E694E00E94DF0870
:1022D00060916C04606240E087E694E00E94F80838
:1022E00084E080936D0440E06CE087E694E00E9417
:1022F000F8080E94400982E080936E0440E066E0A6
:1023000087E694E00E94F80840E062E087E694E007
:102310000E94F8088BE39FE10197F1F788E0809332
:10232000730460E087E694E00E94470864E871E087
:1023300087E694E00E94030B68EE73E080E090E093
:102340000E949A0284E991E00E94020A64EF71E01F
:1023500080E090E00E949A0287E991E00E94020AE0
:1023600064EF71E080E090E00E949A0281EA91E0DF
:102370000E94020A64EF71E080E090E00E949A02FD
:10238000109233031092320310922F0310922E03F7
:102390000E94CA0586EE93E090932B0380932A0354
:1023A00087EE93E090932D0380932C0360ED77E00C
:1023B00080E090E00E949A020E944009E7E0AE2E81
:1023C000B12CF0E08F2EF0E09F2EC1E070E4372EAC
:1023D0008EE00E9463027C018039B1E09B070CF023
:1023E0002CC180914303811110C0809141039091D1
:1023F00042030196B5010E943118909342038093E5
:102400004103C09343030E94400930E9E31A31E0DD
:10241000F30A49ECE416F10410F41092430380919E
:1024200085040E94D001892B09F44DC30E94CD027E
:10243000C0903903D0903A03E0903B03F0903C0306
:102440006C197D098E099F09643F714081059105D2
:1024500008F4DDC00E94CD026093390370933A0303
:1024600080933B0390933C03C0933103309230033D
:1024700010922F0310922E036EE570E086E394E035
:102480000E94400886E394E00E94560761E070E0F5
:1024900080E090E00E949A0262E080E40E940906D7
:1024A0001092330380933203C12CD12C50E8E52ED7
:1024B0005FEBF52E823028F186E394E00E94E70678
:1024C0007C0186E394E00E94E70664E0EE0CFF1CCA
:1024D0006A95E1F7A0EFEA22AFE0FA22BC016F7043
:1024E00077276E297F29072E000C880B990B0E94F5
:1024F000BE1520E030E040E85DE30E941D166B0150
:102500007C01C0923503D0923603E0923703F092FB
:10251000380320E030E0A901C701B6010E94271866
:1025200018160CF098C020E030E040EA51E4C701F2
:10253000B6010E94B71587FF8EC0809134038111C8
:102540008AC00E94400963EB71E087E694E00E9434
:10255000030B87E991E00E94020A64EF71E080E0DA
:1025600090E00E949A0262EC71E088E494E00E949C
:10257000030B4091460450914704609142047091CE
:10258000430488E494E00E94E8038AEC91E00E940E
:10259000020A64EF71E080E090E00E949A026CEC25
:1025A00071E088E494E00E94030B22E0B701A601E9
:1025B00088E494E00E94150A89EE91E00E94020AE4
:1025C0008EEE91E00E94020A64EF71E080E090E0FC
:1025D0000E949A026AE188E494E00E940E0564EF8A
:1025E00071E080E090E00E949A020E94400968E059
:1025F00072E087E694E00E94030B60ED77E080E0F4
:1026000090E00E949A020E944009C0933403E09136
:102610004103F0914203E730F10508F05AC0ED5E46
:10262000FC4E0C948618381352137B1363147B14DE
:102630002415471586ED90E074CD893592400CF451
:10264000E4CE809143038111E0CE809141039091CB
:1026500042030696CFCE20E030E040EA51E4C701C5
:10266000B6010E94271887FDD2CF10923403CFCF36
:1026700080E00E940F0962E172E087E694E00E9428
:10268000030B81E00E940F0982E00E94D00163E702
:1026900071E0892B11F46BE771E087E694E00E940A
:1026A000030B17C080E00E940F0961E272E087E629
:1026B00094E00E94030B81E00E940F096DE272E03A
:1026C00087E694E00E94030B8EE00E9463020E9462
:1026D000D10968EC70E080E090E00E949A028114D9
:1026E000910409F475CE0E945204882309F470CE37
:1026F0000E9400006BCE0E94D902882349F080918D
:1027000095048B3028F08D3050F085518230C0F127
:10271000412C512C40EC642E4FE7742E1EC060916A
:10272000900470E090E080E00E94BE152DEC3CEC3F
:102730004CEC5DE30E941D166B017C0160918F04DF
:1027400070E090E080E00E94BE159B01AC01C701E3
:10275000B6010E9413172B013C010E94D902882365
:1027600041F0809195048C3009F488C0D8F48B3006
:1027700091F1C12CD12C20ECE22E2FE7F22E55C086
:1027800060918F047091900476276727762790E0F8
:1027900080E00E94BC152DEC3CEC4CEC5DE30E940B
:1027A0001D16D9CF8551823020F7D09191046D2F1D
:1027B00070E0762F662766277F7780919204682BDA
:1027C00090E080E00E94BC152DEC3CEC4CEC5DE30D
:1027D0000E941D166FC06091910470E090E080E04F
:1027E0000E94BC156B017C01D0919204D7FF0AC0F6
:1027F000AC019B0160E070E080E89FEB0E94121743
:102800006B017C01DF706D2F70E090E080E00E9432
:10281000BE152DEC3CEC4CEC5DE30E941D16A701AF
:1028200096010E9413176B017C0180E00E940F0942
:1028300065E372E087E694E00E94030B22E0B701B3
:10284000A60187E694E00E94150A6CE372E087E631
:1028500094E00E94030B81E00E940F096EE372E096
:1028600087E694E00E94030B22E0B301A20187E611
:1028700094E00E94150A64E472E00FCFD0919104B5
:102880006D2F70E090E080E00E94BC156B017C0130
:10289000609192046F7070E090E080E00E94BE153D
:1028A0002DEC3CEC4CEC5DE30E941D16A70196015B
:1028B0000E9413176B017C01D7FFB7CFF7FAF09492
:1028C000F7F8F094B2CF8FE00E9463027C0180E0C1
:1028D0000E940F0966E472E087E694E00E94030B11
:1028E00081E00E940F096DE272E087E694E00E94A9
:1028F000030BC701ECCE80917A0490917B04892B65
:10290000F9F488E092E00E94E009C12CD12CE12C7E
:1029100090ECF92E80E00E940F0965E572E087E6F1
:1029200094E00E94030B81E00E940F0922E0B701AE
:10293000A60187E694E00E94150A62E672E0ADCE39
:1029400062E0809174040E94090610923303809320
:102950003203823009F071C080917C0490917D0433
:10296000DC01ED91FC910284F385E02D0995182F8F
:1029700000E080917C0490917D04DC01ED91FC915C
:102980000284F385E02D0995802B912BBC0190E00A
:1029900080E00E94BC156B017C010E94CD02609317
:1029A0007E0470937F04809380049093810420E0E0
:1029B00030E040E85FEBC701B6010E94B7158823FD
:1029C00009F4A8CF609175046534A9F070E090E037
:1029D00080E00E94BC159B01AC0160E070E08AE8D9
:1029E00092E40E947F179B01AC01C701B6010E94CF
:1029F0001D166B017C0180917A0490917B048132D9
:102A0000910511F0419751F420E030E040E05FE3A0
:102A1000C701B6010E941D166B017C01209176044E
:102A2000309177044091780450917904C701B60140
:102A30000E947F176B017C016DCFC12CD12C80E8E7
:102A4000E82E8FEBF82EA9CF80E00E940F0966E6F2
:102A500072E087E694E00E94030B81E00E940F0978
:102A600040913D0350913E0360913F0370914003BC
:102A700077FF07C0CB01BA010E94B30961E772E09A
:102A80000CCE2AE087E694E00E946709F7CF80E049
:102A90000E940F0964E772E087E694E00E94030B4E
:102AA00081E00E940F0940913503509136036091F7
:102AB00037037091380322E087E694E00E94150AFC
:102AC0006EE772E0EACD0E9481086B017C0160E054
:102AD00070E0CB010E949A02809187049091880453
:102AE000A0918904B0918A04A7019601281B390B93
:102AF0004A0B5B0BCA01B9010E94BE1520918B04E1
:102B000030918C0440918D0450918E040E947F1767
:102B10000E94F11760933D0370933E0380933F033F
:102B20009093400383CC809142049091430400979A
:102B300011F00E943C1986E391E090934904809340
:102B4000480480912803909129038854944071F49B
:102B5000E0915B04F0915C04908180915D0480952C
:102B600089238083109229031092280308950E94DC
:102B7000F91508F481E00895E89409C097FB3EF444
:102B800090958095709561957F4F8F4F9F4F9923BA
:102B9000A9F0F92F96E9BB279395F6958795779538
:102BA0006795B795F111F8CFFAF4BB0F11F460FFF8
:102BB0001BC06F5F7F4F8F4F9F4F16C0882311F050
:102BC00096E911C0772321F09EE8872F762F05C064
:102BD000662371F096E8862F70E060E02AF09A95FF
:102BE000660F771F881FDAF7880F9695879597F9F4
:102BF0000895990F0008550FAA0BE0E8FEEF16168E
:102C00001706E807F907C0F012161306E407F507E0
:102C100098F0621B730B840B950B39F40A2661F054
:102C2000232B242B252B21F408950A2609F4A140F7
:102C3000A6958FEF811D811D08950E9430160C947A
:102C4000A1160E94931638F00E949A1620F0952340
:102C500011F00C948A160C94901611240C94D5162D
:102C60000E94B21670F3959FC1F3950F50E0551F67
:102C7000629FF001729FBB27F00DB11D639FAA27D1
:102C8000F00DB11DAA1F649F6627B00DA11D661F20
:102C9000829F2227B00DA11D621F739FB00DA11D41
:102CA000621F839FA00D611D221F749F3327A00DFB
:102CB000611D231F849F600D211D822F762F6A2F97
:102CC00011249F5750409AF0F1F088234AF0EE0FFC
:102CD000FF1FBB1F661F771F881F91505040A9F729
:102CE0009E3F510580F00C948A160C94D5165F3FD8
:102CF000E4F3983ED4F3869577956795B795F79565
:102D0000E7959F5FC1F7FE2B880F911D96958795DC
:102D100097F9089597F99F6780E870E060E008955B
:102D20009FEF80EC089500240A94161617061806E3
:102D30000906089500240A941216130614060506BF
:102D40000895092E0394000C11F4882352F0BB0F50
:102D500040F4BF2B11F460FF04C06F5F7F4F8F4FB3
:102D60009F4F089557FD9058440F551F59F05F3FEE
:102D700071F04795880F97FB991F61F09F3F79F09D
:102D800087950895121613061406551FF2CF46951F
:102D9000F1DF08C0161617061806991FF1CF8695A1
:102DA0007105610508940895E894BB276627772785
:102DB000CB0197F908952F923F924F925F926F92B5
:102DC0007F928F929F92AF92BF92CF92DF92EF92BB
:102DD000FF920F931F93CF93DF93CDB7DEB7CA1B3C
:102DE000DB0B0FB6F894DEBF0FBECDBF09942A8867
:102DF000398848885F846E847D848C849B84AA840F
:102E0000B984C884DF80EE80FD800C811B81AA819B
:102E1000B981CE0FD11D0FB6F894DEBF0FBECDBF66
:102E2000ED0108955058BB27AA270E942A170C9439
:102E3000A1160E94931638F00E949A1620F039F4D9
:102E40009F3F19F426F40C9490160EF4E095E7FBDE
:102E50000C948A16E92F0E94B21658F3BA1762072B
:102E600073078407950720F079F4A6F50C94D4161F
:102E70000EF4E0950B2EBA2FA02D0B01B901900195
:102E80000C01CA01A0011124FF27591B99F0593FD9
:102E900050F4503E68F11A16F040A22F232F342F21
:102EA0004427585FF3CF469537952795A795F0406F
:102EB0005395C9F77EF41F16BA0B620B730B840B84
:102EC000BAF09150A1F0FF0FBB1F661F771F881F3C
:102ED000C2F70EC0BA0F621F731F841F48F4879594
:102EE00077956795B795F7959E3F08F0B0CF939586
:102EF000880F08F09927EE0F9795879508950E94FF
:102F000093170C94A1160E949A1658F00E949316DB
:102F100040F029F45F3F29F00C948A1651110C946B
:102F2000D5160C9490160E94B21668F39923B1F34B
:102F3000552391F3951B550BBB27AA2762177307DF
:102F4000840738F09F5F5F4F220F331F441FAA1F73
:102F5000A9F335D00E2E3AF0E0E832D0915050402F
:102F6000E695001CCAF72BD0FE2F29D0660F771FDD
:102F7000881FBB1F261737074807AB07B0E809F0C3
:102F8000BB0B802DBF01FF2793585F4F3AF09E3F48
:102F9000510578F00C948A160C94D5165F3FE4F333
:102FA000983ED4F3869577956795B795F7959F5F8B
:102FB000C9F7880F911D9695879597F90895E1E0D7
:102FC000660F771F881FBB1F621773078407BA0736
:102FD00020F0621B730B840BBA0BEE1F88F7E09591
:102FE00008950E94F8176894B1110C94D5160895AD
:102FF0000E94BA1688F09F5798F0B92F9927B751B9
:10300000B0F0E1F0660F771F881F991F1AF0BA958C
:10301000C9F714C0B13091F00E94D416B1E0089500
:103020000C94D416672F782F8827B85F39F0B93FF2
:10303000CCF3869577956795B395D9F73EF490953F
:103040008095709561957F4F8F4F9F4F08950E9497
:10305000F91508F48FEF08950E94F915880B990B64
:10306000089597FB072E16F4009407D077FD09D03A
:103070000E948C1807FC05D03EF4909581959F4FD7
:103080000895709561957F4F0895A1E21A2EAA1BAD
:10309000BB1BFD010DC0AA1FBB1FEE1FFF1FA21708
:1030A000B307E407F50720F0A21BB30BE40BF50B05
:1030B000661F771F881F991F1A9469F7609570958E
:1030C000809590959B01AC01BD01CF010895052E1F
:1030D00097FB1EF400940E947E1857FD07D00E94B3
:1030E000451807FC03D04EF40C947E18509540957B
:1030F000309521953F4F4F4F5F4F089590958095A4
:10310000709561957F4F8F4F9F4F0895EE0FFF1F72
:103110000590F491E02D0994AA1BBB1B51E107C057
:10312000AA1FBB1FA617B70710F0A61BB70B881F57
:10313000991F5A95A9F780959095BC01CD010895E6
:103140000F931F93CF93DF938230910510F482E0A9
:1031500090E0E091A404F091A50430E020E0B0E01C
:10316000A0E0309799F42115310509F44AC0281BD5
:10317000390B24303105D8F58A819B8161157105A1
:1031800089F1FB0193838283FE0111C0408151814B
:103190000281138148175907E0F04817590799F43D
:1031A000109761F012960C93129713961C93329617
:1031B000CF01DF91CF911F910F9108950093A40447
:1031C0001093A504F4CF2115310551F04217530790
:1031D00038F0A901DB019A01BD01DF01F801C1CF7F
:1031E000EF01F9CF9093A5048093A404CDCFFE0105
:1031F000E20FF31F81939193225031093983288381
:10320000D7CF2091A2043091A304232B41F4209125
:103210000201309103013093A3042093A204209172
:103220000001309101012115310541F42DB73EB760
:103230004091040150910501241B350BE091A2043B
:10324000F091A304E217F307A0F42E1B3F0B2817FD
:10325000390778F0AC014E5F5F4F2417350748F00F
:103260004E0F5F1F5093A3044093A2048193919348
:103270009FCFF0E0E0E09CCFCF93DF930097E9F0A1
:10328000FC01329713821282A091A404B091A5048C
:10329000ED0130E020E01097A1F420813181820F10
:1032A000931F2091A2043091A3042817390709F035
:1032B00061C0F093A304E093A204DF91CF9108953D
:1032C000EA01CE17DF07E8F54A815B819E014115CF
:1032D0005105B1F7E901FB83EA8349915991C40F84
:1032E000D51FEC17FD0761F4808191810296840F50
:1032F000951FE90199838883828193819B838A83C7
:10330000F0E0E0E012968D919C9113970097B9F54B
:103310002D913C911197CD010296820F931F209120
:10332000A2043091A3042817390739F6309751F5D4
:103330001092A5041092A404B093A304A093A20435
:10334000BCCFD383C28340815181840F951FC8179E
:10335000D90761F44E5F5F4F88819981480F591FEB
:10336000518340838A819B81938382832115310518
:1033700009F0B0CFF093A504E093A4049ECFFD0123
:10338000DC01C0CF13821282D7CFB0E0A0E0EBEC1B
:10339000F9E10C94DD168C01009751F4CB010E94E9
:1033A000A0188C01C801CDB7DEB7E0E10C94F91686
:1033B000FC01E60FF71F9C0122503109E217F307C9
:1033C00008F49DC0D901CD91DC911197C617D7079C
:1033D00098F0C530D10530F3CE01049786179707D2
:1033E00008F3C61BD70B2297C193D1936D937C939F
:1033F000CF010E943C19D6CF5B01AC1ABD0A4C012B
:103400008C0E9D1EA091A404B091A504512C412CBA
:10341000F12CE12C109731F58091A2049091A30436
:103420008815990509F05CC04616570608F058C083
:103430008091000190910101009741F48DB79EB7F2
:103440004091040150910501841B950BE817F90781
:1034500008F055C0F093A304E093A204F90171832E
:103460006083A0CF8D919C91119712966C901297CA
:1034700013967C901397A815B90559F56C0142E095
:10348000C40ED11CCA14DB0420F1AC014A195B093B
:10349000DA011296159780F062827382518340831D
:1034A000D9016D937C93E114F10471F0D701139667
:1034B000FC93EE93129776CF22968C0F9D1FF90105
:1034C00091838083F301EFCFF093A504E093A404EC
:1034D00069CF4816590608F42C017D01D3019ACF13
:1034E000CB010E94A0187C01009749F0AE01B80101
:1034F0000E94821AC8010E943C19870153CF10E034
:1035000000E050CFFB01DC0102C001900D92415060
:103510005040D8F70895FB01DC0101900D92002086
:10352000E1F7089511E0C4E4D1E004C0FE010E9477
:0E35300086182196C534D107C9F7F894FFCF4D
:10353E000000A604800000004000140054000000AB
:10354E0000008804E8031504D50446042404380456
:10355E00000000002707FA063D080D05DF03E70609
:10356E00D806000000000E05E8033D080D056A05AB
:10357E008005F504000000005209E8033D08A2058D
:10358E0000000000A105050B0D0A006E616E0069BA
:10359E006E66006F7666002B31323334353637382F
:1035AE003930004143544956452000494E41435459
:1035BE0049564500496E697469616C697A696E672E
:1035CE002E2E2E0041540041542B434D47463D3183
:1035DE000041542B434E4D493D312C322C302C3072
:1035EE002C300053656E64696E6720534D532E2E3A
:1035FE002E0041542B434D47533D22005741524E0E
:10360E00494E473A204F626A65637420646574655B
:10361E0063746564206174200020636D2100506C1A
:10362E006561736520636865636B20796F757220C1
:10363E0073797374656D2E00534D532053656E74FC
:10364E002100546F7563682053656E736F723A2054
:10365E00004A6F79737469636B20593A0056616C36
:10366E0075653A200054656D703A20004300487528
:10367E006D3A200025004D51382048322053656E9A
:10368E00736F723A00496C6C756D696E616E63652D
:10369E003A00206C78004C6F61642043656C6C3A84
:1036AE000020670044697374616E63653A0020639D
:0236BE006D009D
:00000001FF
