:020000040000FA
:100000000C9472000C949A000C949A000C949A0030
:100010000C949A000C949A000C949A000C949A00F8
:100020000C949A000C949A000C949A000C949A00E8
:100030000C949A000C949A000C949A000C949A00D8
:100040000C9476050C949A000C949A000C949A00E7
:100050000C949A000C949A000C949A000C949A00B8
:100060000C949A000C949A00005EBCE2613FDD8320
:10007000C29C7E20A3FD1F41009D23BE46DB65F888
:100080008C11AF32CA57E974000000002400270029
:100090002A0000000000250028002B0000000000BE
:1000A00023002600290004040404040404040202BA
:1000B00002020202030303030303010204081020E7
:1000C00040800102040810200102040810200000F2
:1000D0000008000201000003040700000000000007
:1000E0000000A90811241FBECFEFD8E0DEBFCDBFAE
:1000F00011E0A0E0B1E0EEE1F6E102C005900D9262
:10010000AE31B107D9F721E0AEE1B1E001C01D92F7
:10011000A736B207E1F710E0C2E7D0E004C02197AC
:10012000FE010E94070BC137D107C9F70E94C00525
:100130000C940D0B0C94000080914E0190914F0196
:100140008230910538F0880F991F880F991F059705
:100150000197F1F70895833081F028F4813099F008
:100160008230A9F008958730A9F08830C9F0843032
:10017000B1F4809180008F7D03C0809180008F77E3
:1001800080938000089584B58F7784BD089584B5E9
:100190008F7DFBCF8091B0008F778093B000089562
:1001A0008091B0008F7DF9CFCF93DF93282F30E07F
:1001B000F901E253FF4F8491F901E654FF4FD491C6
:1001C000F901EA55FF4FC491CC23A1F081110E949F
:1001D000AB00EC2FF0E0EE0FFF1FE456FF4FA591B0
:1001E000B491EC91ED2381E090E009F480E0DF919F
:1001F000CF91089580E090E0FACF1F93CF93DF93E3
:10020000282F30E0F901E253FF4F8491F901E654C1
:10021000FF4FD491F901EA55FF4FC491CC23A9F0C7
:10022000162F81110E94AB00EC2FF0E0EE0FFF1FA4
:10023000EE56FF4FA591B4918FB7F894EC91111140
:1002400008C0D095DE23DC938FBFDF91CF911F9143
:100250000895DE2BF8CFCF93DF9390E0FC01E654B6
:10026000FF4F24918A559F4FFC0184918823C9F048
:1002700090E0880F991FFC01E857FF4FA591B491BA
:10028000FC01EE56FF4FC591D49161110DC09FB78F
:10029000F8948C91209582238C938881282328833D
:1002A0009FBFDF91CF910895623051F49FB7F894CA
:1002B0003C91822F809583238C93E8812E2BEFCF66
:1002C0008FB7F894EC912E2B2C938FBFEACFCF935E
:1002D000DF93CBE4D1E061E089810E942B010E9491
:1002E0009C0060E088810E942B010E949C0060E0DD
:1002F00089810E942B01DF91CF910C949C000F9378
:100300001F93CF93DF93D82FC8E061E080914B011A
:100310000E942B010E949C000D2F10E060E0D0FF96
:1003200061E080914C010E942B010E949C0060E0E2
:1003300080914B010E942B010E949C00159507950E
:10034000D02FC15011F761E080914B010E942B0129
:1003500060E080914C010E942B010E949C0060E0B3
:1003600080914B010E942B010E949C0080914C01C6
:100370000E94D400C82F811105C061E080914C011A
:100380000E942B010E949C0061E080914B010E9421
:100390002B010E949C0081E0C11101C080E0DF912F
:1003A000CF911F910F91089561E080914C010E94BF
:1003B0002B010C949C003FB7F894809147019091D9
:1003C0004801A0914901B0914A0126B5A89B05C0FA
:1003D0002F3F19F00196A11DB11D3FBFBA2FA92FC4
:1003E000982F8827BC01CD01620F711D811D911DC1
:1003F00042E0660F771F881F991F4A95D1F708952D
:100400008F929F92AF92BF92CF92DF92EF92FF9224
:100410006B017C010E94DB014B015C01C114D10422
:10042000E104F104B9F00E94DB01681979098A0935
:100430009B09683E73408105910580F321E0C21A53
:10044000D108E108F10888EE880E83E0981EA11C0F
:10045000B11CE4CFFF90EF90DF90CF90BF90AF90B2
:100460009F908F9008952FB7F894609143017091F9
:10047000440180914501909146012FBF0895DC0110
:1004800080E0615090F09D919827E92FEF70F0E0A7
:10049000E859FF4F2491E92FE295EF70F0E0E8581A
:1004A000FF4FE491822F8E27ECCF0895DC012C9131
:1004B0001196ED91FC91F8948181822B8183928138
:1004C000322F30959323928387E090E00197F1F7E4
:1004D00081818323818383E290E00197F1F790810A
:1004E0007894EFECF0E03197F1F7922381E009F492
:1004F00080E00895FC0190810180F281E02D292F98
:10050000209560FF14C0F8948281822382838181C8
:10051000892B8183A3E2B0E01197F1F78281982BB8
:100520009283789487ED90E00197F1F70895F8941D
:100530008281822382838181892B8183AFEFB0E026
:100540001197F1F78281982B928378948FE090E055
:10055000EBCFDF92EF92FF920F931F93CF93DF9336
:10056000EC01D62EE42E08E010E0FF24F39461E0C5
:100570008D2D8F2109F460E0CE010E947A02FF0CDC
:1005800001501109A1F7E11010C0F894E981FA8136
:1005900091818881809589238183E981FA81928183
:1005A00088818095892382837894DF91CF911F91F0
:1005B0000F91FF90EF90DF900895EF92FF920F93CD
:1005C0001F93CF93DF938C017B0140E065E50E9490
:1005D000A902E70188E0E80EF11C699140E0C8013A
:1005E0000E94A902CE15DF05C1F7DF91CF911F91BF
:1005F0000F91FF90EF900895FC0190810180F281AE
:10060000E02DF8948181292F20958223818378948D
:100610003DE743E050E0315029F1DA011197F1F75D
:1006200080818923C1F3F89482818223828381812E
:10063000892B81837894ABE7B7E01197F1F7F894B1
:10064000818182238183A3E1B1E01197F1F7808159
:10065000982381E009F080E07894E3E6F6E03197B2
:10066000F1F7089580E008956F927F928F929F92A4
:10067000AF92BF92CF92DF92EF92FF920F931F93B0
:10068000CF93DF938C01EB018091590190915A0136
:100690000E94FC02882309F43FC0B80180915901EF
:1006A00090915A010E94DD0240E06EEB8091590169
:1006B00090915A010E94A9027E016E0189E0C80E44
:1006C000D11C8E01A0905901B0905A0188E0882E6B
:1006D000912C712C66246394C5010E9456028111ED
:1006E0007628660CE1E08E1A9108B1F7F801719254
:1006F0008F01CE16DF0631F78091590190915A0192
:100700000E94FC02813041F4F70181917F01811147
:1007100005C0E017F107C1F790E008C068E0CE011E
:100720000E943F0291E028852813F6CF892FDF91A0
:10073000CF911F910F91FF90EF90DF90CF90BF90DE
:10074000AF909F908F907F906F900895BF92CF92BF
:10075000DF92EF92FF920F931F93CF93DF93EC0101
:10076000B62EC72E8D85811105C0CE010E94FC02D8
:1007700081110EC01B861D861C8680E0DF91CF9103
:100780001F910F91FF90EF90DF90CF90BF90089551
:1007900040E060EFCE010E94A90201E0E12CD12CE3
:1007A00011E0CE010E945602F82ECE010E945602A0
:1007B00091E0F91218C0813099F51134D8F2DB8636
:1007C000D11002C081E08D878B81882399F2239616
:1007D000EB2DFC2DCF01089629912193E817F907FD
:1007E000D9F781E0CBCFEE2DF0E0F8120FC08B856A
:1007F0001817A0F4DE01AE0FBF1F13968C91802353
:1008000079F4F12C193008F41C87D12EEC0FFD1F60
:100810008381902F9095892383830AC08113F1CF20
:10082000FE01EE0DF11D8381802B8383FF24F39461
:100830006F2DCE010E947A021F5F000F11F4E39426
:1008400001E087E08E1508F0ACCFB7CFCF92DF92F2
:10085000EF92FF920F931F93CF93DF93CDB7DEB745
:1008600061970FB6F894DEBF0FBECDBF80915901DE
:1008700090915A010E94FC0240E06CEC8091590179
:1008800090915A010E94A9024091500164E4809124
:10089000590190915A010E94A9020E9433026B01F2
:1008A0007C01809154018823D9F0809155018823DF
:1008B000B1F180915001811132C080915901909124
:1008C0005A010E945602813059F00E9433026C197D
:1008D0007D098E099F096E3E72408105910568F37E
:1008E00080915701811144C060E070E08EEF92EC7E
:1008F00060933D0170933E0180933F0190934001CE
:1009000061960FB6F894DEBF0FBECDBFDF91CF91D9
:100910001F910F91FF90EF90DF90CF900895E0919D
:100920005301E9508EEE92E0E33038F4F0E0EE0F40
:10093000FF1FE95FFE4F808191816C01F12CE12C5A
:1009400080915101882329F060E0809152010E943A
:10095000FD00C701B6010E94000280915101882369
:1009600009F4BECF61E0809152010E94FD00B8CF32
:10097000E0915901F0915A0113861586148612866A
:100980001186108617821682158214821382BE0188
:10099000665F7F4F8091590190915A010E94A60392
:1009A000882309F4A1CF67E0CE010A960E943F0296
:1009B0009989891399CFBE016F5F7F4FCE010A9647
:1009C0000E943403882309F48FCF8A81C12CD12C53
:1009D000760187FF06C0C12CD12CF8EFEF2EFF2443
:1009E000FA949A8549819B33E9F52D8127FF3AC016
:1009F00040FD7ACF042F10E030E020E073E0000FDC
:100A0000111F221F331F7A95D1F7B901A801407E2B
:100A100057706627772790E0B0E0A0E08C019D0139
:100A2000EBE0000F111F221F331FEA95D1F7042BB3
:100A3000152B262B372B0C291D292E293F29013850
:100A400054EE15075FEF250735070CF44DCFC901AC
:100A5000B8010E94BD0920E030E040E05CE30E9464
:100A6000720A46CF082F10E0102F0027110F110F28
:100A7000110F88E0489FA0011124042B152B012E93
:100A8000000C220B330B0C291D292E293F299031F4
:100A9000B1F66885662399F270E08F81AB01481B3F
:100AA0005109CA019695982F8827979587950E9496
:100AB000DF0ACB01770FAA0BBB0B53E0000F111F0E
:100AC000221F331F5A95D1F7007827703327005221
:100AD000110921093109800F911FA21FB31F97012E
:100AE0008601082B192B2A2B3B2BA9CF1F920F9283
:100AF0000FB60F9211242F933F938F939F93AF9331
:100B0000BF938091430190914401A0914501B09120
:100B100046013091420123E0230F2D3758F501960D
:100B2000A11DB11D20934201809343019093440184
:100B3000A0934501B09346018091470190914801EF
:100B4000A0914901B0914A010196A11DB11D809368
:100B5000470190934801A0934901B0934A01BF9186
:100B6000AF919F918F913F912F910F900FBE0F905A
:100B70001F90189526E8230F0296A11DB11DD2CF14
:100B8000CF93DF93CDB7DEB761970FB6F894DEBF92
:100B90000FBECDBF789484B5826084BD84B581607A
:100BA00084BD85B5826085BD85B5816085BD809138
:100BB0006E00816080936E001092810080918100B0
:100BC00082608093810080918100816080938100A8
:100BD000809180008160809380008091B10084606A
:100BE0008093B1008091B00081608093B0008091CB
:100BF0007A00846080937A0080917A00826080938A
:100C00007A0080917A00816080937A0080917A00E6
:100C1000806880937A001092C10062E083E00E94B5
:100C20002B0162E082E00E942B0113E001E0E091E1
:100C30005901F0915A011386158614861286118681
:100C40001086178216821582148213821092570121
:100C50001092580162E370E080E090E00E94000290
:100C6000BE01665F7F4F8091590190915A010E94A9
:100C7000A603882309F47AC067E0CE010A960E9491
:100C80003F0299898913ECCF809157018F5F809340
:100C900057018A85883231F008F04EC0803111F05A
:100CA0008232F1F6809158018F5F809358018091D4
:100CB0005001811128C08091590190915A010E94E0
:100CC000FC02BE01665F7F4F8091590190915A01ED
:100CD0000E94DD0240E064EB8091590190915A013D
:100CE0000E94A9028091590190915A010E945602D6
:100CF000F82E8091590190915A010E94FC02F11046
:100D000002C0009350018A85803109F1BE016F5FF6
:100D10007F4FCE010A960E943403882359F08D81BB
:100D20009A859B3311F487FD12C08F3391F058F4EC
:100D30008F31C1F080E00EC08B3309F4B3CF823421
:100D400009F08ECFAFCF8F3579F08F3799F78CE0E0
:100D500001C08AE090915301981708F081CF8093E9
:100D600053017ECF89E0F6CF8BE0F4CF809157011D
:100D7000811103C0115009F05ACF0E9426048FE060
:100D800080934D0161E087E00E942B018AE0882E6C
:100D9000912C7724739483E00E94D400892B11F561
:100DA0000E94330200912C0110912D0120912E01FF
:100DB00030912F01601B710B820B930B6531710514
:100DC0008105910578F0809141018725809341014B
:100DD0000E94330260932C0170932D0180932E01A9
:100DE00090932F0120E420937C0080917A0080640E
:100DF00080937A0080917A0086FDFCCF4091780044
:100E0000509179008091000190910101509301016E
:100E100040930001109102019A01281B390BC9016E
:100E200037FF03C091958195910985369105ECF0C6
:100E300020910301309104018091050190910601F8
:100E40004E3C61E056070CF023C1112309F413C195
:100E500037FD2FC12336310514F022E630E02F5F35
:100E60003F4F309304012093030182E00E94D4009D
:100E7000892B01F10E943302C0903001D0903101E2
:100E8000E0903201F09033016C197D098E099F09C1
:100E9000653171058105910568F0172510930201F0
:100EA0000E943302609330017093310180933201CC
:100EB00090933301609002010E943302009134014B
:100EC000109135012091360130913701601B710B73
:100ED000820B930B683E734081059105A0F00E9440
:100EE000260460933D0170933E0180933F019093EF
:100EF00040010E9433026093340170933501809366
:100F0000360190933701C0903D01D0903E01E090B2
:100F10003F01F0904001611022C00E943302009115
:100F2000390110913A0120913B0130913C01601B45
:100F3000710B820B930B6E3E72408105910578F028
:100F4000809138018725809338010E943302609395
:100F5000390170933A0180933B0190933C0120E06A
:100F600030E0A901C701B6010E946D0A20E030E01F
:100F700040E05FE387FDADC0C701B6010E941409E0
:100F80000E94850997FDAAC0643671058105910507
:100F90000CF0A7C0CB01B4010E94DF0A6F70E62FEE
:100FA000F0E0E35FFE4F908199838F70E82FF0E0CF
:100FB000E35FFE4F80818A83009103011091040159
:100FC000A0900501B090060161108EC0809138019B
:100FD00081119DC01B821C8260904101662019F026
:100FE0008A8180688A830E94D40180E40E947F0104
:100FF0000E9467010E94D40180EC0E947F018981D8
:101000000E947F018A810E947F018B810E947F0163
:101010008C810E947F010E9467010E94D40180910F
:101020004D018F7080580E947F010E946701B501B9
:10103000BB0C880B990B0E94BD0920E030E040E01A
:101040005FE30E94720A1B012C01B801110F880B8B
:10105000990B662009F45DC00E94BD09A2019101AF
:101060000E94130911E0A70196010E946D0A87FFF3
:101070005EC010E05CC097FD29C08431910514F07A
:1010800083E190E001969093060180930501EDCEF7
:10109000433352400CF4E9CE112371F02230310574
:1010A00044F02536310514F024E630E021503109B2
:1010B000D8CE21E030E0D5CE823091053CF08631AB
:1010C000910514F085E190E00197DDCF81E090E09B
:1010D000DACFC701B6010E94130952CF70E060E079
:1010E00059CF63E670E056CFC801B4010E94DF0A11
:1010F0006F70E62FF0E0E35FFE4F90819B838F706F
:10110000E82FF0E0E35FFE4F80818C8365CFC5015F
:10111000ECCF0E94BD09A20191010E94140911E0C7
:10112000A70196010E94800918160CF4A2CF612F26
:1011300087E00E94FD0064E170E080E090E00E94A2
:10114000000280E090E0892B09F425CE0E94000087
:1011500020CECF93DF9360E084E00E942B01EEEB82
:10116000F0E0E491AEE1B1E0EC93EAEAF0E0E49182
:10117000F0E0EE0FFF1FE456FF4F85919491129619
:101180009C938E9311971B961C921B971D961C92F5
:101190001D971C961C921C971A961C921A971996CA
:1011A0001C92199718961C92189717961C921797CD
:1011B00016961C92169715961C92159714961C92CB
:1011C000149713961C921397E0E5F1E017821086AE
:1011D000108289E0838381E0848385838683118202
:1011E000168A158A8FEF838B148AB287A187CBE486
:1011F000D1E085E0888386E0898384E690E09C8363
:101200008B8360E085E00E942B0160E089810E9471
:101210002B0160E088810E94FD0060E08981DF9100
:10122000CF910C94FD005058BB27AA270E942B0990
:101230000C94330A0E94250A38F00E942C0A20F0F0
:1012400039F49F3F19F426F40C94220A0EF4E09529
:10125000E7FB0C941C0AE92F0E94440A58F3BA17C2
:10126000620773078407950720F079F4A6F50C94BC
:10127000660A0EF4E0950B2EBA2FA02D0B01B901D2
:1012800090010C01CA01A0011124FF27591B99F0FC
:10129000593F50F4503E68F11A16F040A22F232F08
:1012A000342F4427585FF3CF469537952795A79558
:1012B000F0405395C9F77EF41F16BA0B620B730BFF
:1012C000840BBAF09150A1F0FF0FBB1F661F771F70
:1012D000881FC2F70EC0BA0F621F731F841F48F425
:1012E000879577956795B795F7959E3F08F0B0CFAE
:1012F0009395880F08F09927EE0F97958795089595
:101300000E94F80908F481E008950E948C0968940D
:10131000B1110C94670A08950E944C0A88F09F57F7
:1013200098F0B92F9927B751B0F0E1F0660F771F09
:10133000881F991F1AF0BA95C9F714C0B13091F0FF
:101340000E94660AB1E008950C94660A672F782F10
:101350008827B85F39F0B93FCCF3869577956795C4
:10136000B395D9F73EF490958095709561957F4F30
:101370008F4F9F4F0895E89409C097FB3EF49095D6
:101380008095709561957F4F8F4F9F4F9923A9F05E
:10139000F92F96E9BB279395F695879577956795ED
:1013A000B795F111F8CFFAF4BB0F11F460FF1BC031
:1013B0006F5F7F4F8F4F9F4F16C0882311F096E9C4
:1013C00011C0772321F09EE8872F762F05C0662372
:1013D00071F096E8862F70E060E02AF09A95660F2B
:1013E000771F881FDAF7880F9695879597F90895E4
:1013F000990F0008550FAA0BE0E8FEEF1616170626
:10140000E807F907C0F012161306E407F50798F08D
:10141000621B730B840B950B39F40A2661F0232BA6
:10142000242B252B21F408950A2609F4A140A69522
:101430008FEF811D811D089597F99F6780E870E007
:1014400060E008959FEF80EC089500240A9416163A
:10145000170618060906089500240A9412161306A2
:10146000140605060895092E0394000C11F4882330
:1014700052F0BB0F40F4BF2B11F460FF04C06F5F4C
:101480007F4F8F4F9F4F089557FD9058440F551F22
:1014900059F05F3F71F04795880F97FB991F61F0F6
:1014A0009F3F79F087950895121613061406551F6D
:1014B000F2CF4695F1DF08C0161617061806991FD9
:1014C000F1CF86957105610508940895E894BB27CE
:1014D00066277727CB0197F908950E94F80908F449
:1014E0008FEF08950E94850A0C94330A0E94250A02
:1014F00038F00E942C0A20F0952311F00C941C0A5D
:101500000C94220A11240C94670A0E94440A70F376
:10151000959FC1F3950F50E0551F629FF001729F98
:10152000BB27F00DB11D639FAA27F00DB11DAA1FA7
:10153000649F6627B00DA11D661F829F2227B00DF4
:10154000A11D621F739FB00DA11D621F839FA00D7F
:10155000611D221F749F3327A00D611D231F849FCF
:10156000600D211D822F762F6A2F11249F57504026
:101570009AF0F1F088234AF0EE0FFF1FBB1F661FA1
:10158000771F881F91505040A9F79E3F510580F06A
:101590000C941C0A0C94670A5F3FE4F3983ED4F362
:1015A000869577956795B795F795E7959F5FC1F70E
:1015B000FE2B880F911D9695879597F9089597FBB7
:1015C000072E16F4009407D077FD09D00E94F30A85
:1015D00007FC05D03EF4909581959F4F0895709536
:1015E00061957F4F0895AA1BBB1B51E107C0AA1F3D
:1015F000BB1FA617B70710F0A61BB70B881F991FB4
:101600005A95A9F780959095BC01CD010895EE0FEC
:10161000FF1F0590F491E02D0994F894FFCF00028C
:1016200001150002005E00BC0077013F065B4F66BB
:0C1630006D7D077F6F777C395E7971005B
:107E0000112484B714BE81FFF0D085E080938100F7
:107E100082E08093C00088E18093C10086E0809377
:107E2000C20080E18093C4008EE0C9D0259A86E02C
:107E300020E33CEF91E0309385002093840096BBD3
:107E4000B09BFECF1D9AA8958150A9F7CC24DD24C4
:107E500088248394B5E0AB2EA1E19A2EF3E0BF2EE7
:107E6000A2D0813461F49FD0082FAFD0023811F036
:107E7000013811F484E001C083E08DD089C08234E0
:107E800011F484E103C0853419F485E0A6D080C0E4
:107E9000853579F488D0E82EFF2485D0082F10E0AE
:107EA000102F00270E291F29000F111F8ED06801E7
:107EB0006FC0863521F484E090D080E0DECF843638
:107EC00009F040C070D06FD0082F6DD080E0C81688
:107ED00080E7D80618F4F601B7BEE895C0E0D1E017
:107EE00062D089930C17E1F7F0E0CF16F0E7DF06D8
:107EF00018F0F601B7BEE89568D007B600FCFDCFD4
:107F0000A601A0E0B1E02C9130E011968C91119780
:107F100090E0982F8827822B932B1296FA010C0160
:107F200087BEE89511244E5F5F4FF1E0A038BF0790
:107F300051F7F601A7BEE89507B600FCFDCF97BE46
:107F4000E89526C08437B1F42ED02DD0F82E2BD052
:107F50003CD0F601EF2C8F010F5F1F4F84911BD097
:107F6000EA94F801C1F70894C11CD11CFA94CF0C13
:107F7000D11C0EC0853739F428D08EE10CD085E9AC
:107F80000AD08FE07ACF813511F488E018D01DD067
:107F900080E101D065CF982F8091C00085FFFCCF94
:107FA0009093C60008958091C00087FFFCCF809118
:107FB000C00084FD01C0A8958091C6000895E0E648
:107FC000F0E098E1908380830895EDDF803219F02E
:107FD00088E0F5DFFFCF84E1DECF1F93182FE3DFCA
:107FE0001150E9F7F2DF1F91089580E0E8DFEE27F6
:047FF000FF270994CA
:027FFE00040479
:00000001FF
