:020000040000FA
:100000000C9435000C945D000C945D000C945D0024
:100010000C945D000C945D000C945D000C945D00EC
:100020000C945D000C945D000C945D000C945D00DC
:100030000C945D000C945D000C945D000C945D00CC
:100040000C94E1010C945D000C9451020C942B0271
:100050000C945D000C945D000C945D000C945D00AC
:100060000C945D000C945D00F30311241FBECFEFD0
:10007000D8E0DEBFCDBF21E0A2E4B1E001C01D9217
:10008000A03FB207E1F711E0A0E0B1E0EAEBFCE04D
:1000900002C005900D92A234B107D9F710E0C5E374
:1000A000D0E004C02197FE010E946304C433D1074D
:1000B000C9F70E9483020C945B060C940000AF9277
:1000C000BF92CF92DF92EF92FF920F931F93CF9345
:1000D000DF936C017B018B01040F151FEB015E01A7
:1000E000AE18BF08C017D10759F06991D601ED913C
:1000F000FC910190F081E02DC6010995892B79F7DB
:10010000C501DF91CF911F910F91FF90EF90DF908C
:10011000CF90BF90AF900895FC01538D448D252F53
:1001200030E0842F90E0821B930B541710F0CF9691
:10013000089501970895FC01918D828D981761F0C3
:10014000A28DAE0FBF2FB11D5D968C91928D9F5FDA
:100150009F73928F90E008958FEF9FEF08952FB7D0
:10016000F89480914B0190914C01A0914D01B09178
:100170004E012FBF8093570190935801A0935901CE
:10018000B0935A018FE491E00E949B0097FF26C034
:100190002FB7F89480914B0190914C01A0914D01A3
:1001A000B0914E012FBF409157015091580160917D
:1001B000590170915A01841B950BA60BB70B409106
:1001C000530150915401609155017091560184176B
:1001D0009507A607B707B0F28FEF9FEF0895FC01D0
:1001E000918D828D981731F0828DE80FF11D858DEC
:1001F00090E008958FEF9FEF0895FC01918D228D7F
:10020000892F90E0805C9F4F821B91098F73992703
:1002100008958FE491E00E94FD0021E0892B09F40C
:1002200020E0822F089580E090E0892B29F00E9441
:10023000090181110C9400000895FC01A48DA80F00
:10024000B92FB11DA35ABF4F2C91848D90E0019618
:100250008F739927848FA689B7892C93A089B18938
:100260008C91837080648C93938D848D981306C0D9
:100270000288F389E02D80818F7D80830895EF923D
:10028000FF920F931F93CF93DF93EC0181E0888F50
:100290009B8D8C8D98131AC0E889F989808185FF20
:1002A00015C09FB7F894EE89FF896083E889F989C2
:1002B00080818370806480839FBF81E090E0DF91C4
:1002C000CF911F910F91FF90EF900895F62E0B8D17
:1002D00010E00F5F1F4F0F731127E02E8C8D8E11D2
:1002E0000CC00FB607FCFACFE889F989808185FF39
:1002F000F5CFCE010E941D01F1CFEB8DEC0FFD2F4C
:10030000F11DE35AFF4FF0829FB7F8940B8FEA89F3
:10031000FB8980818062CFCFCF93DF93EC01888D02
:100320008823B9F0AA89BB89E889F9898C9185FD70
:1003300003C0808186FD0DC00FB607FCF7CF8C91FE
:1003400085FFF2CF808185FFEDCFCE010E941D0198
:10035000E9CFDF91CF910895FC0101900020E9F7EA
:100360003197AF01481B590BBC018FE491E00C940D
:100370005F000F931F93CF93DF93EC0188819981E6
:10038000009759F02A813B812617370730F081E02A
:10039000DF91CF911F910F9108958B016F5F7F4F78
:1003A0000E948E05009759F0998388831B830A83E6
:1003B0002C813D81232B59F7FC011082E8CF80E08E
:1003C000E7CF1F920F920FB60F9211242F933F93F6
:1003D0008F939F93AF93BF9380914B0190914C016A
:1003E000A0914D01B0914E0130914A0123E0230FBD
:1003F0002D3758F50196A11DB11D20934A01809318
:100400004B0190934C01A0934D01B0934E0180910C
:10041000460190914701A0914801B0914901019690
:10042000A11DB11D8093460190934701A0934801FF
:10043000B0934901BF91AF919F918F913F912F91BF
:100440000F900FBE0F901F90189526E8230F02966D
:10045000A11DB11DD2CF1F920F920FB60F92112482
:100460002F933F934F935F936F937F938F939F93BC
:10047000AF93BF93EF93FF938FE491E00E941D0130
:10048000FF91EF91BF91AF919F918F917F916F916C
:100490005F914F913F912F910F900FBE0F901F9042
:1004A00018951F920F920FB60F9211242F938F93CE
:1004B0009F93EF93FF93E0915F01F0916001808142
:1004C000E0916501F091660182FD1BC090818091F1
:1004D00068018F5F8F7320916901821741F0E0916D
:1004E0006801F0E0E15BFE4F958F80936801FF911A
:1004F000EF919F918F912F910F900FBE0F901F90B2
:1005000018958081F4CFCF93DF93CDB7DEB72897CE
:100510000FB6F894DEBF0FBECDBF789484B582606D
:1005200084BD84B5816084BD85B5826085BD85B597
:10053000816085BD80916E00816080936E00109215
:100540008100809181008260809381008091810090
:100550008160809381008091800081608093800021
:100560008091B10084608093B1008091B00081607F
:100570008093B00080917A00846080937A008091AB
:100580007A00826080937A0080917A008160809303
:100590007A0080917A00806880937A001092C1007E
:1005A000E0915F01F091600182E08083E0915B0166
:1005B000F0915C011082E0915D01F0915E018FECA1
:1005C000808310926701E0916301F091640186E0FD
:1005D0008083E0916101F09162018081806180837C
:1005E000E0916101F0916201808188608083E091F7
:1005F0006101F0916201808180688083E0916101F6
:10060000F091620180818F7D808380E0A82E80E060
:10061000B82E8FE491E00E94FD00181619060CF028
:1006200068C01A8219821C821B821E821D8270E0A1
:1006300060E0CE0101960E94B90129813A818111C1
:100640002EC02115310519F0C9010E9405051A8235
:1006500019821E821D821C821B820E94AF0097FDA0
:1006600026C08A30910519F18F8318860D811E816D
:100670000F5F1F4FB801CE0101960E94B901882378
:1006800061F329813A818D819E81BE01695F7F4F2F
:10069000820F931F0E9454061E830D83DECF1E829D
:1006A0001D826DE271E0C9010E945406D6CFC98057
:1006B000DA80C114D10439F00D811E817601011553
:1006C000110509F05AC088E191E00E94AC014D810A
:1006D0005E8169817A818FE491E00E945F008BE204
:1006E00091E00E94AC0189819A81009711F00E94EB
:1006F00005052FB7F89480914B0190914C01A09182
:100700004D01B0914E012FBF4091420150914301E4
:100710006091440170914501841B950BA60BB70BAA
:10072000813D9740A105B105D8F02FB7F89480918D
:100730004B0190914C01A0914D01B0914E012FBF02
:100740008093420190934301A0934401B0934501EB
:100750008EE291E00E94AC018BE291E00E94AC013C
:10076000A114B10409F455CF0E940901882309F4AA
:1007700050CF0E9400004DCF740147012FEF821A25
:10078000920AF7018081082E000C990B0E94200428
:10079000892B91F7015011090C0D1D1DF801808165
:1007A000082E000C990B0E942004892B31F00E15A5
:1007B0001F0518F001501109F1CFA8014F5F5F4FDD
:1007C0004E195F095E834D83CE14DF0420F4B70118
:1007D000C6010E944B06E981FA818D819E81E80F56
:1007E000F91F108270CFEFE4F1E01382128288EEDD
:1007F00093E0A0E0B0E084839583A683B7838AE08A
:1008000091E09183808385EC90E09587848784ECE8
:1008100090E09787868780EC90E0918B808B81ECCD
:1008200090E0938B828B82EC90E0958B848B86ECAE
:1008300090E0978B868B118E128E138E148E0895F6
:1008400091110C942904803219F089508550C8F711
:1008500008959927882708952F923F924F925F928B
:100860006F927F928F929F92AF92BF92CF92DF92C0
:10087000EF92FF920F931F93CF93DF93CDB7DEB725
:10088000CA1BDB0B0FB6F894DEBF0FBECDBF0994B9
:100890002A88398848885F846E847D848C849B8410
:1008A000AA84B984C884DF80EE80FD800C811B811E
:1008B000AA81B981CE0FD11D0FB6F894DEBF0FBE4D
:1008C000CDBFED010895EE0FFF1F0590F491E02DCF
:1008D00009940F931F93CF93DF938230910510F407
:1008E00082E090E0E091EE01F091EF0130E020E055
:1008F000B0E0A0E0309799F42115310509F44AC021
:10090000281B390B24303105D8F58A819B8161156C
:10091000710589F1FB0193838283FE0111C040813F
:1009200051810281138148175907E0F04817590790
:1009300099F4109761F012960C93129713961C93EA
:100940003296CF01DF91CF911F910F9108950093BF
:10095000EE011093EF01F4CF2115310551F042174C
:10096000530738F0A901DB019A01BD01DF01F8014D
:10097000C1CFEF01F9CF9093EF018093EE01CDCF7E
:10098000FE01E20FF31F81939193225031093983C5
:100990002883D7CF2091EC013091ED01232B41F436
:1009A00020910201309103013093ED012093EC017D
:1009B00020910001309101012115310541F42DB73D
:1009C0003EB74091040150910501241B350BE09185
:1009D000EC01F091ED01E217F307A0F42E1B3F0BA1
:1009E0002817390778F0AC014E5F5F4F24173507A1
:1009F00048F04E0F5F1F5093ED014093EC0181933F
:100A000091939FCFF0E0E0E09CCFCF93DF930097EE
:100A1000E9F0FC01329713821282A091EE01B091AD
:100A2000EF01ED0130E020E01097A1F42081318149
:100A3000820F931F2091EC013091ED0128173907A7
:100A400009F061C0F093ED01E093EC01DF91CF91EB
:100A50000895EA01CE17DF07E8F54A815B819E0120
:100A600041155105B1F7E901FB83EA834991599199
:100A7000C40FD51FEC17FD0761F4808191810296A8
:100A8000840F951FE90199838883828193819B83D9
:100A90008A83F0E0E0E012968D919C911397009785
:100AA000B9F52D913C911197CD010296820F931FBC
:100AB0002091EC013091ED012817390739F6309774
:100AC00051F51092EF011092EE01B093ED01A09359
:100AD000EC01BCCFD383C28340815181840F951F29
:100AE000C817D90761F44E5F5F4F88819981480F1D
:100AF000591F518340838A819B819383828321156F
:100B0000310509F0B0CFF093EF01E093EE019ECFF5
:100B1000FD01DC01C0CF13821282D7CFB0E0A0E08C
:100B2000E4E9F5E00C942E048C01009751F4CB011C
:100B30000E9469048C01C801CDB7DEB7E0E10C94D6
:100B40004A04FC01E60FF71F9C0122503109E2170D
:100B5000F30708F49DC0D901CD91DC911197C61718
:100B6000D70798F0C530D10530F3CE01049786172A
:100B7000970708F3C61BD70B2297C193D1936D93A8
:100B80007C93CF010E940505D6CF5B01AC1ABD0A4C
:100B90004C018C0E9D1EA091EE01B091EF01512CE5
:100BA000412CF12CE12C109731F58091EC019091C2
:100BB000ED018815990509F05CC04616570608F046
:100BC00058C08091000190910101009741F48DB7C8
:100BD0009EB74091040150910501841B950BE817C5
:100BE000F90708F055C0F093ED01E093EC01F9012D
:100BF00071836083A0CF8D919C91119712966C9018
:100C0000129713967C901397A815B90559F56C01A6
:100C100042E0C40ED11CCA14DB0420F1AC014A1915
:100C20005B09DA011296159780F062827382518314
:100C30004083D9016D937C93E114F10471F0D701E5
:100C40001396FC93EE93129776CF22968C0F9D1FEE
:100C5000F90191838083F301EFCFF093EF01E093EB
:100C6000EE0169CF4816590608F42C017D01D30125
:100C70009ACFCB010E9469047C01009749F0AE0134
:100C8000B8010E944B06C8010E940505870153CF99
:100C900010E000E050CFFB01DC0102C001900D929A
:100CA00041505040D8F70895FB01DC0101900D92AE
:100CB0000020E1F70895F894FFCF0000F0018000D4
:100CC000000000003F015F008C008C01FD009B00D4
:100CD000EF0041726475696E6F20526563656976D5
:100CE00065643A20000D0A0048656C6C6F206672DE
:0C0CF0006F6D2041726475696E6F210009
:107E0000112484B714BE81FFF0D085E080938100F7
:107E100082E08093C00088E18093C10086E0809377
:107E2000C20080E18093C4008EE0C9D0259A86E02C
:107E300020E33CEF91E0309385002093840096BBD3
:107E4000B09BFECF1D9AA8958150A9F7CC24DD24C4
:107E500088248394B5E0AB2EA1E19A2EF3E0BF2EE7
:107E6000A2D0813461F49FD0082FAFD0023811F036
:107E7000013811F484E001C083E08DD089C08234E0
:107E800011F484E103C0853419F485E0A6D080C0E4
:107E9000853579F488D0E82EFF2485D0082F10E0AE
:107EA000102F00270E291F29000F111F8ED06801E7
:107EB0006FC0863521F484E090D080E0DECF843638
:107EC00009F040C070D06FD0082F6DD080E0C81688
:107ED00080E7D80618F4F601B7BEE895C0E0D1E017
:107EE00062D089930C17E1F7F0E0CF16F0E7DF06D8
:107EF00018F0F601B7BEE89568D007B600FCFDCFD4
:107F0000A601A0E0B1E02C9130E011968C91119780
:107F100090E0982F8827822B932B1296FA010C0160
:107F200087BEE89511244E5F5F4FF1E0A038BF0790
:107F300051F7F601A7BEE89507B600FCFDCF97BE46
:107F4000E89526C08437B1F42ED02DD0F82E2BD052
:107F50003CD0F601EF2C8F010F5F1F4F84911BD097
:107F6000EA94F801C1F70894C11CD11CFA94CF0C13
:107F7000D11C0EC0853739F428D08EE10CD085E9AC
:107F80000AD08FE07ACF813511F488E018D01DD067
:107F900080E101D065CF982F8091C00085FFFCCF94
:107FA0009093C60008958091C00087FFFCCF809118
:107FB000C00084FD01C0A8958091C6000895E0E648
:107FC000F0E098E1908380830895EDDF803219F02E
:107FD00088E0F5DFFFCF84E1DECF1F93182FE3DFCA
:107FE0001150E9F7F2DF1F91089580E0E8DFEE27F6
:047FF000FF270994CA
:027FFE00040479
:00000001FF
