:020000040000FA
:100000000C9444010C946C010C946C010C946C01E4
:100010000C946C010C946C010C946C010C946C01AC
:100020000C946C010C946C010C946C010C946C019C
:100030000C946C010C946C010C946C010C946C018C
:100040000C9434090C946C010C94A4090C947E0952
:100050000C946C010C946C010C946C010C946C016C
:100060000C94D6090C946C015B4248313735305DF5
:10007000204552524F523A20756E646566696E652E
:1000800064206572726F72005B4248313735305DB3
:10009000204552524F523A206F7468657220657243
:1000A000726F72005B4248313735305D20455252E5
:1000B0004F523A207265636569766564204E41430C
:1000C0004B206F6E207472616E736D6974206F6661
:1000D0002064617461005B4248313735305D2045F2
:1000E00052524F523A207265636569766564204EBC
:1000F00041434B206F6E207472616E736D69742082
:100100006F662061646472657373005B42483137C7
:1001100035305D204552524F523A20746F6F206C3B
:100120006F6E6720666F72207472616E736D697492
:1001300020627566666572005B4248313735305D16
:10014000204552524F523A20756E646566696E655D
:1001500064206572726F72005B4248313735305DE2
:10016000204552524F523A206F7468657220657272
:10017000726F72005B4248313735305D2045525214
:100180004F523A207265636569766564204E41433B
:100190004B206F6E207472616E736D6974206F6690
:1001A0002064617461005B4248313735305D204521
:1001B00052524F523A207265636569766564204EEB
:1001C00041434B206F6E207472616E736D697420B1
:1001D0006F662061646472657373005B42483137F7
:1001E00035305D204552524F523A20746F6F206C6B
:1001F0006F6E6720666F72207472616E736D6974C2
:1002000020627566666572005B4248313735305D45
:1002100020446576696365206973206E6F7420637E
:100220006F6E6669677572656421000000000024C6
:100230000027002A0000000000250028002B0000F5
:100240000000080002010000030407000000000095
:100250000000000000000023002600290004040420
:10026000040404040402020202020203030303035F
:10027000030102040810204080010204081020013C
:10028000020408102000F50A11241FBECFEFD8E0A9
:10029000DEBFCDBF11E0A0E0B1E0E2E1F9E202C0D3
:1002A00005900D92A03EB107D9F723E0A0EEB1E092
:1002B00001C01D92AE38B207E1F711E0C4E4D1E00D
:1002C00004C02197FE010E945C13C334D107C9F713
:1002D0000E94860B0C9487140C940000CF92DF923E
:1002E000EF92FF92CF93DF93B0917E03A0E0811154
:1002F000AB2F80917F0390E0880F991FAC014D5A7E
:100300005D4FC0908403D0908503E0908603F09009
:10031000870330E020E0FA01C591D491E881B9016A
:1003200090E080E0EB23EA130AC02F5F3F4F6C158B
:100330007D058E059F0578F36FEF7FEFCB01DF9191
:10034000CF91FF90EF90DF90CF900895833081F0B0
:1003500028F4813099F08230A9F008958730A9F00F
:100360008830C9F08430B1F4809180008F7D03C063
:10037000809180008F7780938000089584B58F7777
:1003800084BD089584B58F7DFBCF8091B0008F77B9
:100390008093B00008958091B0008F7DF9CFCF9306
:1003A000DF93282F30E0F901E15CFD4F8491F901E2
:1003B000EF58FD4FD491F901E35AFD4FC491CC237E
:1003C000A1F081110E94A601EC2FF0E0EE0FFF1FBB
:1003D000ED5AFD4FA591B491EC91ED2381E090E0B1
:1003E00009F480E0DF91CF91089580E090E0FACFAA
:1003F0001F93CF93DF93282F30E0F901E15CFD4F8D
:100400008491F901EF58FD4FD491F901E35AFD4F62
:10041000C491CC23A9F0162F81110E94A601EC2FC4
:10042000F0E0EE0FFF1FEB5CFD4FA591B4918FB78D
:10043000F894EC91111108C0D095DE23DC938FBFA6
:10044000DF91CF911F910895DE2BF8CFCF93DF93EB
:1004500090E0FC01EF58FD4F2491835A9D4FFC0121
:1004600084918823C9F090E0880F991FFC01E55D15
:10047000FD4FA591B491FC01EB5CFD4FC591D4916A
:1004800061110DC09FB7F8948C91209582238C93B5
:100490008881282328839FBFDF91CF910895623000
:1004A00051F49FB7F8943C91822F809583238C93CD
:1004B000E8812E2BEFCF8FB7F894EC912E2B2C9355
:1004C0008FBFEACF8E50806480937C0080917A0049
:1004D000806480937A0080917A0086FDFCCF8091C1
:1004E00078009091790008953FB7F89480914E027A
:1004F00090914F02A0915002B091510226B5A89B55
:1005000005C02F3F19F00196A11DB11D3FBFBA2FA5
:10051000A92F982F8827BC01CD01620F711D811D65
:10052000911D42E0660F771F881F991F4A95D1F7EA
:1005300008958F929F92AF92BF92CF92DF92EF92E7
:10054000FF926B017C010E9474024B015C01C1149B
:10055000D104E104F104B9F00E9474026819790928
:100560008A099B09683E73408105910580F321E06B
:10057000C21AD108E108F10888EE880E83E0981EBF
:10058000A11CB11CE4CFFF90EF90DF90CF90BF9003
:10059000AF909F908F900895CF92DF92EF92FF924D
:1005A0000F931F93CF93DF93CDB7DEB7C054D140E5
:1005B0000FB6F894DEBF0FBECDBF2FB7F894809171
:1005C000520290915302A0915402B09155022FBF54
:1005D0004091800350918103609182037091830365
:1005E0008C019D01041B150B260B370BB901A801CB
:1005F000403D57406105710590F480918803C05CCF
:10060000DE4F0FB6F894DEBF0FBECDBFDF91CF91A6
:100610001F910F91FF90EF90DF90CF9008958093FE
:10062000800390938103A0938203B093830310927D
:100630007B0310927A031092790310927803109240
:10064000770362E080917C030E94260261E070E003
:1006500080E090E00E94990261E080917C030E941A
:10066000260260E080917C030E94F80180917D0366
:100670008551823020F58BE291E10197F1F762E03C
:1006800080917C030E9426028091890390E0823051
:10069000910538F0880F991F880F991F05970197CA
:1006A000F1F7F89480E00E946E016F3F7F4F8F4F0B
:1006B0009F4F61F410928803789480E0A0CF64E1AA
:1006C00070E080E090E00E949902D9CF81E00E9422
:1006D0006E016F3F7F4F8F4F9F4F61F38E010F5F12
:1006E0001F4F6E018FEBC81A8EEFD80A780180E099
:1006F0000E946E01F701608371838283938381E09E
:100700000E946E01F7016483758386839783F8E006
:10071000EF0EF11CEC14FD0451F7789430E020E06A
:10072000F801C080D180E280F380448155816681E8
:100730007781FFEFCF16DF06EF06FF0631F04F3F60
:100740008FEF58076807780719F410928803B5CF20
:10075000F90183E0F595E7958A95E1F7E958FC4FB3
:100760008081880FC416D506E606F70610F180834F
:100770002F5F3F4F085F1F4F2832310589F64091A8
:100780007B032091770380917803280F3327331F51
:1007900080917903280F311D80917A03820F932F66
:1007A000911D99274817190681F681E080938803E7
:1007B00026CF8160DCCF08950895AF92BF92CF928B
:1007C000DF92EF92FF920F931F93CF93DF936C0111
:1007D0007B018B01040F151FEB015E01AE18BF08F2
:1007E000C017D10759F06991D601ED91FC910190A4
:1007F000F081E02DC6010995892B79F7C501DF91BC
:10080000CF911F910F91FF90EF90DF90CF90BF900D
:10081000AF900895FC01538D448D252F30E0842F37
:1008200090E0821B930B541710F0CF960895019718
:100830000895FC01918D828D981761F0A28DAE0F05
:10084000BF2FB11D5D968C91928D9F5F9F73928F8C
:1008500090E008958FEF9FEF0895FC01918D828DB8
:10086000981731F0828DE80FF11D858D90E0089585
:100870008FEF9FEF0895FC01918D228D892F90E0DD
:10088000805C9F4F821B91098F739927089586EA98
:1008900092E00E943B0421E0892B09F420E0822FA2
:1008A000089580E090E0892B29F00E94470481118F
:1008B0000C9400000895FC01A48DA80FB92FB11D60
:1008C000A35ABF4F2C91848D90E001968F73992786
:1008D000848FA689B7892C93A089B1898C91837064
:1008E00080648C93938D848D981306C00288F3895D
:1008F000E02D80818F7D80830895EF92FF920F938A
:100900001F93CF93DF93EC0181E0888F9B8D8C8DBB
:1009100098131AC0E889F989808185FF15C09FB7AF
:10092000F894EE89FF896083E889F9898081837072
:10093000806480839FBF81E090E0DF91CF911F9121
:100940000F91FF90EF900895F62E0B8D10E00F5F42
:100950001F4F0F731127E02E8C8D8E110CC00FB618
:1009600007FCFACFE889F989808185FFF5CFCE01B0
:100970000E945B04F1CFEB8DEC0FFD2FF11DE35ACC
:10098000FF4FF0829FB7F8940B8FEA89FB89808133
:100990008062CFCFCF93DF93EC01888D8823B9F0AD
:1009A000AA89BB89E889F9898C9185FD03C080817A
:1009B00086FD0DC00FB607FCF7CF8C9185FFF2CFF7
:1009C000808185FFEDCFCE010E945B04E9CFDF91EE
:1009D000CF9108950895DC01ED91FC910190F08193
:1009E000E02D0994089520910102260F3327331F2B
:1009F00021323105ECF420917C02FC0190E080E092
:100A0000243069F082E00895A09101022191AC01A7
:100A10004F515E4FA40FB52FB11D2C930196861731
:100A200098F380910102680F6093010280E00895BD
:100A300081E0089510927C0281E080937B02109205
:100A4000560261E082E10E94F80161E083E10E94C8
:100A5000F801E9EBF0E080818E7F808380818D7FDB
:100A6000808388E48093B80085E48093BC00089577
:100A7000CF93DF9391E09093E0018823B9F0C09188
:100A8000B800D091BA008091BC008A7B8093BC00F2
:100A900060E082E10E94F80160E083E10E94F801D9
:100AA0000E941A05D093BA00C093B800DF91CF918D
:100AB00008958F929F92AF92BF92CF92DF92EF9262
:100AC000FF920F931F93CF93DF93D091A502D13262
:100AD00008F0D7C0182FC091A4020E9474026B01C5
:100AE0007C0180917C0281116BC082E080937C024A
:100AF00010937B028FEF80937A0210927902D09349
:100B00007802A4E8B2E0E8E5F2E080E0D81391C012
:100B10001092570280915702CC0FC82BC0935702F6
:100B200080915602813009F088C0109256020E94CE
:100B300074026B017C01809157028093BB0080910D
:100B40007E0290917F02A0918002B0918102892B58
:100B50008A2B8B2BA1F00E94740200917E021091CF
:100B60007F0220918002309181026C197D098E09EB
:100B70009F09061717072807390708F442C0809114
:100B8000BC0083FDD8CF85EC8093BC000E9474022A
:100B90006B017C0180917C02823009F450C080910D
:100BA0007A028F3F09F46FC080917A02803209F493
:100BB0006CC080917A02803309F469C084E026C059
:100BC00080917E0290917F02A0918002B09181027B
:100BD000892B8A2B8B2B09F484CF0E94740280907E
:100BE0007E0290907F02A0908002B09081026C19EA
:100BF0007D098E099F0986169706A806B90608F092
:100C000070CF80917D020E94380585E010928302AA
:100C10001092A50210928202DF91CF911F910F9145
:100C2000FF90EF90DF90CF90BF90AF909F908F900C
:100C300008959D9191938F5F69CF85EEA5CF8091A7
:100C40007E0290917F02A0918002B0918102892B57
:100C50008A2B8B2B09F49ECF0E94740200917E0296
:100C600010917F0220918002309181026C197D09E0
:100C70008E099F09061717072807390708F08ACF3A
:100C8000C0CF81E0C3CF80E0C1CF82E0BFCF83E09F
:100C9000BDCFFC01248131E0309382022093A40275
:100CA000109283021092A5028485682B70E083E481
:100CB00093E00E94EB0481E00C9459050895E091C3
:100CC000290280912802E81730F4F0E0E65DFD4F3C
:100CD000808190E008958FEF9FEF08959091290211
:100CE000809128022FEF3FEF981748F4E92FF0E0AA
:100CF000E65DFD4F208130E09F5F90932902C9019E
:100D000008958091280290912902891B990B0895DA
:100D1000CF92DF92EF92FF920F931F93CF93DF93C7
:100D20007C01CB018A0120918202222389F0EB0110
:100D30006B01C40ED51ECC15DD0569F06991D70194
:100D4000ED91FC910190F081E02DC7010995F3CF61
:100D5000642F0E94F304C801DF91CF911F910F917E
:100D6000FF90EF90DF90CF900895CF93DF931F9285
:100D7000CDB7DEB76983209182022223F9F020915A
:100D8000A502203258F021E030E0FC0133832283B9
:100D900090E080E00F90DF91CF91089580918302E1
:100DA000E82FF0E0EC57FD4F998190838F5F80939F
:100DB00083028093A50281E090E0ECCF61E0CE0158
:100DC00001960E94F304F7CF90E080E00895FF922F
:100DD0000F931F93CF93DF93F82E062FC7E0D0E039
:100DE00010E061E0802F0E94F8018F2D0E94CF015A
:100DF0000C2E01C0880F0A94EAF7182B60E0802FB0
:100E00000E94F801219768F7812FDF91CF911F9100
:100E10000F91FF9008950F931F93CF938C01C62FCE
:100E20000E9449066C2F6460C8010E9449066C2F1D
:100E30006B7FC8010E94490683EC90E00197F1F7AF
:100E4000CF911F910F9108950F931F93CF93DF932D
:100E50008C01D62FC42F607F642B0E940B0780E18A
:100E6000D89FB00111246C2BC801DF91CF911F9145
:100E70000F910C940B0741E00E94240781E090E061
:100E80000895CF93DF93CDB7DEB728970FB6F894C8
:100E9000DEBF0FBECDBF98E0E6E0F1E0DE011196C7
:100EA00001900D929A95E1F790915703981708F4E5
:100EB0008FEF90E0880F991F21E030E02C0F3D1F4D
:100EC000820F931FFC016081606840E08FE493E033
:100ED00028960FB6F894DEBF0FBECDBFDF91CF913D
:100EE0000C94240740E061E08FE493E00E94240723
:100EF0008BE39FE10197F1F780915803882319F064
:100F000080E00C9441070895FB0101900020E9F76F
:100F10003197AF01461B570BDC01ED91FC9102802C
:100F2000F381E02D09948F929F92AF92BF920F931D
:100F30001F93CF93DF93CDB7DEB7A1970FB6F89489
:100F4000DEBF0FBECDBF19A2423008F44AE08E01C9
:100F50000F5D1F4F842E912CB12CA12CA501940163
:100F60000E942613E62FB901CA01EA3004F5E05DBC
:100F7000D801EE938D01232B242B252B79F790E0BC
:100F800080E0109729F0BD018FE493E00E94840770
:100F9000A1960FB6F894DEBF0FBECDBFDF91CF9103
:100FA0001F910F91BF90AF909F908F900895E95C33
:100FB000DFCFCF92DF92EF92FF926B017C0141E095
:100FC0006DE28FE493E00E94240766277727CB0128
:100FD0006C197D098E099F094AE00E9493070196CA
:100FE000FF90EF90DF90CF900895BC018FE493E0E5
:100FF0000C9484070F931F93CF93DF938C01D0E061
:10100000C0E0F801EC0FFD1F6491662341F086EA11
:1010100092E00E947D04892B11F02196F2CF66E4C4
:1010200071E086EA92E00E9484078C0F9D1FDF9199
:10103000CF911F910F9108954F925F926F927F927F
:101040008F929F92AF92BF92CF92DF92EF92FF92D8
:101050000F931F93CF936B017C01742EAC019B0106
:101060000E940D1369E471E0811126C04601570109
:10107000E894B7F82FEF3FEF4FE75FE7C501B40102
:101080000E940D1381110CC02FEF3FEF4FE75FE778
:10109000C501B4010E9443116DE471E0181664F0BB
:1010A0002FEF3FEF4FE75FE4C701B6010E949B12AD
:1010B0001816ACF461E571E08FE493E0CF911F91D5
:1010C0000F91FF90EF90DF90CF90BF90AF909F90E7
:1010D0008F907F906F905F904F900C9484072FEFCC
:1010E0003FEF4FE75FECC701B6010E94431187FD58
:1010F000E1CF20E030E0A901C701B6010E94431111
:1011000010E000E087FF0CC041E06DE28FE493E067
:101110000E942407F7FAF094F7F8F09401E010E049
:10112000C0E060E070E080E09FE37C1641F020E0EA
:1011300030E040E251E40E944811CF5FF6CFA701B2
:1011400096010E94D7104B015C010E94BA112B013D
:101150003C014AE00E949307080F191FCC23C9F1F4
:10116000C301B2010E94E9119B01AC01C501B401A8
:101170000E94D6104B015C0141E06EE28FE493E0E7
:101180000E9424070F5F1F4FC15018F120E030E08C
:1011900040E251E4C501B4010E94A0122B013C01C0
:1011A0000E94BA114B01B12CA12C4AE0C501B40137
:1011B0000E949307080F191FC501B4010E94E9118D
:1011C0009B01AC01C301B2010E94D6104B015C012E
:1011D000DBCFC801CF911F910F91FF90EF90DF906F
:1011E000CF90BF90AF909F908F907F906F905F90C7
:1011F0004F9008950C94FE1385ED8093BC00809170
:101200007E0290917F02A0918002B09181020796A8
:10121000A11DB11D23E0B695A795979587952A95B1
:10122000D1F72091BC0024FD03C010927C020895E8
:1012300040917E0250917F02609180027091810204
:10124000452B462B472B69F30097A105B10541F0CB
:101250002AE22A95F1F700C00197A109B109E1CF6F
:1012600080917D020C9438051F920F920FB60F9259
:1012700011242F933F938F939F93AF93BF938091AC
:10128000520290915302A0915402B09155023091B4
:101290004D0223E0230F2D3758F50196A11DB11DF6
:1012A00020934D028093520290935302A0935402D4
:1012B000B093550280914E0290914F02A09150023E
:1012C000B09151020196A11DB11D80934E029093E1
:1012D0004F02A0935002B0935102BF91AF919F91E2
:1012E0008F913F912F910F900FBE0F901F901895E7
:1012F00026E8230F0296A11DB11DD2CF1F920F9297
:101300000FB60F9211242F933F934F935F936F93D8
:101310007F938F939F93AF93BF93EF93FF9386EA4F
:1013200092E00E945B04FF91EF91BF91AF919F917A
:101330008F917F916F915F914F913F912F910F907E
:101340000FBE0F901F9018951F920F920FB60F921D
:1013500011242F938F939F93EF93FF93E091B60205
:10136000F091B7028081E091BC02F091BD0282FD54
:101370001BC090818091BF028F5F8F732091C0024C
:10138000821741F0E091BF02F0E0EA55FD4F958FE2
:101390008093BF02FF91EF919F918F912F910F90BA
:1013A0000FBE0F901F9018958081F4CF1F920F925F
:1013B0000FB60F9211242F933F934F935F936F9328
:1013C0007F938F939F93AF93BF93EF93FF938091FE
:1013D000B900887F803609F44AC0F0F5883209F4F4
:1013E000A7C018F5803109F49BC0B8F4882309F42C
:1013F000F9C0883009F494C0FF91EF91BF91AF918B
:101400009F918F917F916F915F914F913F912F911C
:101410000F900FBE0F901F901895883109F488C067
:10142000803251F780937A0214C0803409F49DC051
:1014300040F48033B9F38833F9F680937A0285EC6F
:10144000B0C0803509F485C0883509F496C0883469
:1014500099F60E94FC08D0CF883909F48CC038F581
:10146000883729F050F4883611F0803729F683E068
:1014700080937C021092230257C0883809F47BC005
:10148000803919F0803809F0B7CF8091230280327B
:1014900008F071C0E091230281E08E0F8093230257
:1014A0008091BB00F0E0ED5FFD4F80833DC0803B4D
:1014B00039F0E0F4803A09F479C0883A09F09CCF19
:1014C00084E080937C021092020210920102E0916B
:1014D0002602F091270209958091010281110FC027
:1014E00081E0809301021092E10109C0803C09F47F
:1014F000A6CF883C09F4A3CF883B09F07DCFE091CB
:10150000020281E08E0F80930202F0E0EF51FE4F65
:1015100080818093BB00909102028091010229C0DA
:10152000809157028093BB0085EC8093BC0064CF10
:101530009091790280917802981758F5E09179029C
:1015400081E08E0F80937902F0E0E85AFD4F8081B0
:10155000E9CFE091790281E08E0F8093790280914A
:10156000BB00F0E0E85AFD4F8083909179028091B2
:1015700078029817C8F285E8D8CFE091790281E027
:101580008E0F809379028091BB00F0E0E85AFD4F06
:10159000808380917B0281115CCF81E08093560231
:1015A00084EA8093BC0010927C0226CF85EC809365
:1015B000BC0010927C0280912302803230F4E091D2
:1015C0002302F0E0ED5FFD4F10826091230270E096
:1015D000E0912402F091250283E092E009951092B7
:1015E00023020ACF10927A0234CFCF93DF93E6EA38
:1015F000F2E01382128288EE93E0A0E0B0E08483F0
:101600009583A683B78322E131E03183208325ECE3
:1016100030E03587248724EC30E03787268720ECBC
:1016200030E0318B208B21EC30E0338B228B22ECAD
:1016300030E0358B248B26EC30E0378B268B118EF7
:10164000128E138E148EC3E4D3E01B821A828C8315
:101650009D83AE83BF8384E291E099838883A7E76B
:10166000B3E083E015968C93159786E116968C93DC
:101670001697E4E7F2E0E4911796EC931797E0E60B
:10168000F2E0E4911896EC93189740E85EE360E08E
:1016900070E01D964D935D936D937C935097EAE6B1
:1016A000F3E082E491E091838083158216821782B1
:1016B000108680E090E0A0E8BFE381879287A3874F
:1016C000B487ECE5F3E085E481838AE999E9A9E947
:1016D000BFE382839383A483B5831782168283E258
:1016E0008083D187C087EFE4F3E01382128286E320
:1016F00091E091838083118687E2848380E18287F1
:1017000082E083871486DF91CF910895789484B521
:10171000826084BD84B5816084BD85B5826085BDED
:1017200085B5816085BD80916E00816080936E007B
:10173000109281008091810082608093810080916D
:10174000810081608093810080918000816080931E
:1017500080008091B10084608093B1008091B000DE
:1017600081608093B00080917A00846080937A00D9
:1017700080917A00826080937A0080917A00816003
:1017800080937A0080917A00806880937A0010922A
:10179000C100E091B602F091B70282E08083E0914F
:1017A000B202F091B3021082E091B402F091B5025E
:1017B0008FEC80831092BE02E091BA02F091BB02DE
:1017C00086E08083E091B802F091B9028081806167
:1017D0008083E091B802F091B902808188608083B3
:1017E000E091B802F091B902808180688083E09135
:1017F000B802F091B90280818F7D808360E082E041
:101800000E94260262E080917C030E9426022FB78C
:10181000F8948091520290915302A0915402B09199
:1018200055022FBF805D9740A109B10980938003C5
:1018300090938103A0938203B093830387E3809303
:10184000890385E080936C0384E080936D0361E0FD
:1018500085E00E94260260E080916D030E942602CE
:10186000D1E0D0936E0323E220935C038091640364
:1018700090916503D09382022093A4021092830278
:101880001092A502DC01ED91FC910190F081E02D18
:1018900060E1099581E00E945905C82F6AE070E077
:1018A00080E090E00E949902C23009F491C048F4AF
:1018B000CC2391F08BED91E0C13059F088E391E0B9
:1018C00008C084E791E0C33021F088E591E0C4309E
:1018D000A9F70E94FA0782C080E190E09093630329
:1018E000809362032FB7F894809152029091530233
:1018F000A0915402B09155022FBF8093660390933C
:101900006703A0936803B093690380916403909187
:10191000650320915C03D09382022093A40210926D
:1019200083021092A50262E470E00E94EB0481E061
:101930000E945905C82F80916403909165032091FE
:101940005C03D09382022093A4021092830210922F
:10195000A50265E670E00E94EB0481E00E94590553
:10196000C82B809164039091650320915C03D09310
:1019700082022093A402109283021092A502609129
:101980006203709163030E94EB0481E00E94590599
:10199000C82B6AE070E080E090E00E949902C230BB
:1019A00009F4EFC050F4CC23B1F08BE091E0C130EA
:1019B00009F48FCF88E690E08CCF84EA90E0C330C2
:1019C00009F487CF88E890E0C43009F482CFF2CFE1
:1019D00086EA91E07ECF85E480935D031092290230
:1019E00010922802109283021092A5020E941A05FA
:1019F0008BED93E090932702809326028CED93E089
:101A000090932502809324021092540380915A03EC
:101A1000823018F098E0909354038093570362E368
:101A200070E080E090E00E94990260915B038FE497
:101A300093E00E94490668EE73E080E090E00E9427
:101A4000990260E38FE493E00E940B07CBE4D6E4B5
:101A5000CE010197F1F760E38FE493E00E940B075A
:101A60002197F1F760E38FE493E00E940B0783E591
:101A700092E00197F1F760E28FE493E00E940B0798
:101A800060915403606240E08FE493E00E94240779
:101A900084E08093550340E06CE08FE493E00E9483
:101AA00024070E94720782E08093560340E066E0BC
:101AB0008FE493E00E94240740E062E08FE493E02B
:101AC0000E9424078BE39FE10197F1F788E0809360
:101AD0005B0360E08FE493E00E94490686E691E0B4
:101AE0000E94F50760ED77E080E090E00E949902A7
:101AF0000E947207C6E0AC2EB12CD0E08D2ED0E053
:101B00009D2EC1E0B5EE2B2EA5EC3A2E8EE00E9464
:101B100062027C0180914A0290914B02B0E9EB167F
:101B2000B1E0FB068CF520914C0201962223B1F125
:101B300080E9E81A81E0F80AA9ECEA16F10410F449
:101B400010924C0280914A0290914B028230910592
:101B500009F487C07CF5009709F452C0019709F495
:101B600066C068EC70E080E090E00E949902811409
:101B7000910461F20E944704882331F20E94000020
:101B8000C1CF86ED90E0A5CE29E5E21622E0F2066F
:101B90007CF220914C022111CBCF0596B5010E9419
:101BA000121390934B0280934A02C0934C020E94FE
:101BB0007207BECF8430910509F448C10CF42FC1DF
:101BC000059779F680E00E9441078AEC91E00E9437
:101BD000F50781E00E94410780916D030E94CF01CB
:101BE000892B09F0E0C280916D030E94CF01892BFF
:101BF00009F48EC260E070E0CB010E949902F3CF3D
:101C000080E00E94410786E791E00E94F50781E0AD
:101C10000E94410782E00E94CF01892B29F085E5CF
:101C200091E00E94F5079DCF8DE591E0FACF80E02D
:101C30000E94410785E891E00E94F50781E00E943B
:101C4000410781E991E00E94F5078EE00E9462025F
:101C5000BC01990F880B990B97FFA1C20E94D9076D
:101C600080CF0E94CC02882349F080917D038B3085
:101C700028F08D3050F085518230C0F1412C512C2C
:101C8000F0EC6F2EFFE77F2E1EC06091780370E0AE
:101C900090E080E00E94EB112DEC3CEC4CEC5DE31D
:101CA0000E94A0126B017C016091770370E090E0CC
:101CB00080E00E94EB119B01AC01C701B6010E94BC
:101CC000D7102B013C010E94CC02882341F0809167
:101CD0007D038C3009F47EC0D8F48B3091F1C12C97
:101CE000D12C60ECE62E6FE7F62E55C0609177039D
:101CF0007091780376276727762790E080E00E942E
:101D0000E9112DEC3CEC4CEC5DE30E94A012D9CF24
:101D10008551823020F7D09179036D2F70E0762FB6
:101D2000662766277F7780917A03682B90E080E0B2
:101D30000E94E9112DEC3CEC4CEC5DE30E94A012FA
:101D400065C06091790370E090E080E00E94E91145
:101D50006B017C01D0917A03D7FF0AC0AC019B01D3
:101D600060E070E080E89FEB0E94D6106B017C0180
:101D7000DF706D2F70E090E080E00E94EB112DECA1
:101D80003CEC4CEC5DE30E94A012A70196010E947E
:101D9000D7106B017C0180E00E94410789E991E046
:101DA0000E94F50742E0C701B6010E941C0880EAC4
:101DB00091E00E94F50781E00E94410782EA91E0EC
:101DC0000E94F50742E0C301B2010E941C0888EAA4
:101DD00091E027CFD09179036D2F70E090E080E003
:101DE0000E94E9116B017C0160917A036F7070E0D1
:101DF00090E080E00E94EB112DEC3CEC4CEC5DE3BC
:101E00000E94A012A70196010E94D7106B017C01CD
:101E1000D7FFC1CFF7FAF094F7F8F094BCCF8FE07A
:101E20000E9462027C0180E00E9441078AEA91E000
:101E30000E94F50781E00E94410781E991E00E943C
:101E4000F507B701FF0C880B990B06CF8091620351
:101E500090916303892BD9F488E092E00E94FA07FD
:101E6000C12CD12CE12C50ECF52E80E00E944107D2
:101E700089EB91E00E94F50781E00E94410742E072
:101E8000C701B6010E941C0886EC91E0CACED09131
:101E90005C030E9474026B017C0180917C028111C1
:101EA00064C0C0937C02C0937B02BFEFB0937A0200
:101EB00010927902C0937802C09357029091570212
:101EC0008D2F880F892B8093570280915602813085
:101ED00009F0F7C0109256020E9474026B017C0157
:101EE000809157028093BB0080917E0290917F0287
:101EF000A0918002B0918102892B8A2B8B2BA1F0BB
:101F00000E94740240907E0250907F026090800296
:101F1000709081026C197D098E099F09461657063B
:101F20006806790608F442C08091BC0083FDD8CFD2
:101F30003092BC000E9474026B017C0180917C0293
:101F4000813009F4C1C080917902823008F0DEC08E
:101F500080917902E8E5F2E0AAE2B2E090E0981719
:101F600051F121912D939F5FFACF80917E02909144
:101F70007F02A0918002B0918102892B8A2B8B2B4A
:101F800009F48BCF0E94740240907E0250907F0231
:101F900060908002709081026C197D098E099F0902
:101FA000461657066806790608F077CF80917D02BD
:101FB0000E94380580E01092290280932802C12CEB
:101FC000D12C40E8E42E4FEBF42E823009F58091BD
:101FD000640390916503DC01ED91FC910284F3852B
:101FE000E02D0995182F00E080916403909165031E
:101FF000DC01ED91FC910284F385E02D0995802BA5
:10200000912BBC0190E080E00E94E9116B017C0102
:102010002FB7F8948091520290915302A0915402EC
:10202000B09155022FBF8093660390936703A093EE
:102030006803B093690320E030E040E85FEBC7013C
:10204000B6010E944311882309F40FCF60915D030C
:102050006534A9F070E090E080E00E94E9119B01F6
:10206000AC0160E070E08AE892E40E9448119B01B4
:10207000AC01C701B6010E94A0126B017C018091E6
:102080006203909163038132910511F0419751F4FD
:1020900020E030E040E05FE3C701B6010E94A012FB
:1020A0006B017C0120915E0330915F0340916003DE
:1020B00050916103C701B6010E9448116B017C0178
:1020C000D4CE2092BC0036CF80917E0290917F02C8
:1020D000A0918002B0918102892B8A2B8B2B09F46D
:1020E0002DCF0E94740240907E0250907F0260903B
:1020F0008002709081026C197D098E099F09461635
:1021000057066806790608F019CF50CF82E022CF33
:102110007FB6F89460916C0380916D030E94E7068E
:10212000D82F60916C0380916D030E94E706C82E42
:1021300060916C0380916D030E94E706D82EF12C0C
:10214000E12C80916E038E151F0479F070F061E030
:1021500080916C030E94F80160E080916C030E9402
:10216000F801BFEFEB1AFB0AECCF7FBE6C2D70E0DD
:1021700090E080E0982F872F762F66278D2B6D2992
:10218000DD0FDD0BCD2ED12CF12CE12CFC2CEE241F
:10219000DD24CC246C297D298E299F295DCD4AE040
:1021A0000E949307DECC85ED91E03BCD5058BB27D4
:1021B000AA270E94EE100C9461120E94531238F06C
:1021C0000E945A1220F039F49F3F19F426F40C941F
:1021D00050120EF4E095E7FB0C944A12E92F0E948E
:1021E000721258F3BA17620773078407950720F035
:1021F00079F4A6F50C9494120EF4E0950B2EBA2FF8
:10220000A02D0B01B90190010C01CA01A0011124FC
:10221000FF27591B99F0593F50F4503E68F11A16A8
:10222000F040A22F232F342F4427585FF3CF469539
:1022300037952795A795F0405395C9F77EF41F165B
:10224000BA0B620B730B840BBAF09150A1F0FF0F25
:10225000BB1F661F771F881FC2F70EC0BA0F621F11
:10226000731F841F48F4879577956795B795F79501
:102270009E3F08F0B0CF9395880F08F09927EE0F96
:102280009795879508950E94261208F481E0089595
:102290000E945C110C9461120E945A1258F00E9424
:1022A000531240F029F45F3F29F00C944A12511167
:1022B0000C9495120C9450120E94721268F3992398
:1022C000B1F3552391F3951B550BBB27AA27621732
:1022D0007307840738F09F5F5F4F220F331F441F3F
:1022E000AA1FA9F335D00E2E3AF0E0E832D0915073
:1022F0005040E695001CCAF72BD0FE2F29D0660F60
:10230000771F881FBB1F261737074807AB07B0E8A2
:1023100009F0BB0B802DBF01FF2793585F4F3AF0A8
:102320009E3F510578F00C944A120C9495125F3F31
:10233000E4F3983ED4F3869577956795B795F7952E
:102340009F5FC9F7880F911D9695879597F9089516
:10235000E1E0660F771F881FBB1F621773078407B2
:10236000BA0720F0621B730B840BBA0BEE1F88F7C1
:10237000E09508950E947A1288F09F5798F0B92F3F
:102380009927B751B0F0E1F0660F771F881F991FAA
:102390001AF0BA95C9F714C0B13091F00E949412A6
:1023A000B1E008950C949412672F782F8827B85FB6
:1023B00039F0B93FCCF3869577956795B395D9F702
:1023C0003EF490958095709561957F4F8F4F9F4F0C
:1023D0000895E89409C097FB3EF490958095709518
:1023E00061957F4F8F4F9F4F9923A9F0F92F96E961
:1023F000BB279395F695879577956795B795F111D6
:10240000F8CFFAF4BB0F11F460FF1BC06F5F7F4F72
:102410008F4F9F4F16C0882311F096E911C0772384
:1024200021F09EE8872F762F05C0662371F096E88D
:10243000862F70E060E02AF09A95660F771F881F5C
:10244000DAF7880F9695879597F90895990F000800
:10245000550FAA0BE0E8FEEF16161706E807F90776
:10246000C0F012161306E407F50798F0621B730B11
:10247000840B950B39F40A2661F0232B242B252B92
:1024800021F408950A2609F4A140A6958FEF811D35
:10249000811D089597F99F6780E870E060E00895D6
:1024A0009FEF80EC089500240A941616170618066C
:1024B0000906089500240A94121613061406050648
:1024C0000895092E0394000C11F4882352F0BB0FD9
:1024D00040F4BF2B11F460FF04C06F5F7F4F8F4F3C
:1024E0009F4F089557FD9058440F551F59F05F3F77
:1024F00071F04795880F97FB991F61F09F3F79F026
:1025000087950895121613061406551FF2CF4695A7
:10251000F1DF08C0161617061806991FF1CF869529
:102520007105610508940895E894BB27662777270D
:10253000CB0197F908950E94261208F48FEF0895B1
:102540000E94B3120C9461120E94531238F00E9440
:102550005A1220F0952311F00C944A120C94501248
:1025600011240C9495120E94721270F3959FC1F37E
:10257000950F50E0551F629FF001729FBB27F00D31
:10258000B11D639FAA27F00DB11DAA1F649F662786
:10259000B00DA11D661F829F2227B00DA11D621FD5
:1025A000739FB00DA11D621F839FA00D611D221F8F
:1025B000749F3327A00D611D231F849F600D211D73
:1025C000822F762F6A2F11249F5750409AF0F1F0F6
:1025D00088234AF0EE0FFF1FBB1F661F771F881F5F
:1025E00091505040A9F79E3F510580F00C944A123B
:1025F0000C9495125F3FE4F3983ED4F3869577955B
:102600006795B795F795E7959F5FC1F7FE2B880F04
:10261000911D9695879597F908950E942612880B2B
:10262000990B089597FB072E16F4009407D077FDB9
:1026300009D00E94481307FC05D03EF4909581957F
:102640009F4F0895709561957F4F0895A1E21A2ECE
:10265000AA1BBB1BFD010DC0AA1FBB1FEE1FFF1F46
:10266000A217B307E407F50720F0A21BB30BE40B96
:10267000F50B661F771F881F991F1A9469F76095DD
:102680007095809590959B01AC01BD01CF01089597
:10269000AA1BBB1B51E107C0AA1FBB1FA617B70788
:1026A00010F0A61BB70B881F991F5A95A9F78095A4
:1026B0009095BC01CD010895EE0FFF1F0590F49198
:1026C000E02D09940F931F93CF93DF9382309105F0
:1026D00010F482E090E0E0918C03F0918D0330E003
:1026E00020E0B0E0A0E0309799F42115310509F41D
:1026F0004AC0281B390B24303105D8F58A819B81CB
:102700006115710589F1FB0193838283FE0111C07C
:10271000408151810281138148175907E0F0481721
:10272000590799F4109761F012960C93129713962B
:102730001C933296CF01DF91CF911F910F91089595
:1027400000938C0310938D03F4CF2115310551F0C4
:102750004217530738F0A901DB019A01BD01DF01DF
:10276000F801C1CFEF01F9CF90938D0380938C03D3
:10277000CDCFFE01E20FF31F8193919322503109D7
:1027800039832883D7CF20918A0330918B03232B61
:1027900041F4209102013091030130938B03209387
:1027A0008A0320910001309101012115310541F486
:1027B0002DB73EB74091040150910501241B350B04
:1027C000E0918A03F0918B03E217F307A0F42E1B2C
:1027D0003F0B2817390778F0AC014E5F5F4F241785
:1027E000350748F04E0F5F1F50938B0340938A03C9
:1027F000819391939FCFF0E0E0E09CCFCF93DF9364
:102800000097E9F0FC01329713821282A0918C03A9
:10281000B0918D03ED0130E020E01097A1F420810C
:102820003181820F931F20918A0330918B032817E7
:10283000390709F061C0F0938B03E0938A03DF91BD
:10284000CF910895EA01CE17DF07E8F54A815B8151
:102850009E0141155105B1F7E901FB83EA834991D6
:102860005991C40FD51FEC17FD0761F48081918148
:102870000296840F951FE901998388838281938151
:102880009B838A83F0E0E0E012968D919C911397F0
:102890000097B9F52D913C911197CD010296820FC9
:1028A000931F20918A0330918B032817390739F63B
:1028B000309751F510928D0310928C03B0938B03D7
:1028C000A0938A03BCCFD383C28340815181840FFC
:1028D000951FC817D90761F44E5F5F4F88819981B2
:1028E000480F591F518340838A819B819383828340
:1028F0002115310509F0B0CFF0938D03E0938C03DF
:102900009ECFFD01DC01C0CF13821282D7CFF89495
:10291000FFCF00008E038000000040001400540030
:10292000000000007D04DD030A04CA043B0419040E
:102930002D0400000000B5068806E4065E06810648
:102940006E065F06000000003B07DD03E406F204AC
:1029500000000000EA04FA080D0A006E616E0069CA
:102960006E66006F76660041435449564520004923
:102970004E41435449564500496E697469616C691A
:102980007A696E672E2E2E00546F7563682053652A
:102990006E736F723A20004A6F79737469636B20AB
:1029A000593A0056616C75653A200054656D703A6D
:1029B0002000430048756D3A200025004D51382015
:1029C00048322053656E736F723A00496C6C756DB6
:1029D000696E616E63653A00206C78004C6F6164CB
:1029E0002043656C6C3A004E6F74207265616479A7
:0229F0000000E5
:107E0000112484B714BE81FFF0D085E080938100F7
:107E100082E08093C00088E18093C10086E0809377
:107E2000C20080E18093C4008EE0C9D0259A86E02C
:107E300020E33CEF91E0309385002093840096BBD3
:107E4000B09BFECF1D9AA8958150A9F7CC24DD24C4
:107E500088248394B5E0AB2EA1E19A2EF3E0BF2EE7
:107E6000A2D0813461F49FD0082FAFD0023811F036
:107E7000013811F484E001C083E08DD089C08234E0
:107E800011F484E103C0853419F485E0A6D080C0E4
:107E9000853579F488D0E82EFF2485D0082F10E0AE
:107EA000102F00270E291F29000F111F8ED06801E7
:107EB0006FC0863521F484E090D080E0DECF843638
:107EC00009F040C070D06FD0082F6DD080E0C81688
:107ED00080E7D80618F4F601B7BEE895C0E0D1E017
:107EE00062D089930C17E1F7F0E0CF16F0E7DF06D8
:107EF00018F0F601B7BEE89568D007B600FCFDCFD4
:107F0000A601A0E0B1E02C9130E011968C91119780
:107F100090E0982F8827822B932B1296FA010C0160
:107F200087BEE89511244E5F5F4FF1E0A038BF0790
:107F300051F7F601A7BEE89507B600FCFDCF97BE46
:107F4000E89526C08437B1F42ED02DD0F82E2BD052
:107F50003CD0F601EF2C8F010F5F1F4F84911BD097
:107F6000EA94F801C1F70894C11CD11CFA94CF0C13
:107F7000D11C0EC0853739F428D08EE10CD085E9AC
:107F80000AD08FE07ACF813511F488E018D01DD067
:107F900080E101D065CF982F8091C00085FFFCCF94
:107FA0009093C60008958091C00087FFFCCF809118
:107FB000C00084FD01C0A8958091C6000895E0E648
:107FC000F0E098E1908380830895EDDF803219F02E
:107FD00088E0F5DFFFCF84E1DECF1F93182FE3DFCA
:107FE0001150E9F7F2DF1F91089580E0E8DFEE27F6
:047FF000FF270994CA
:027FFE00040479
:00000001FF
