:020000040000FA
:100000000C94C3060C94F4060C94F4060C94F406B9
:100010000C94F4060C94F4060C94F4060C94F40678
:100020000C94F4060C94F4060C94F4060C94F40668
:100030000C94F4060C94F4060C94F4060C94F40658
:100040000C94F4060C94F4060C94F4060C94F40648
:100050000C94F4060C94F4060C94F4060C94E31C33
:100060000C94F4060C94F4060C94F4060C94F40628
:100070000C94F4060C94F4060C94F4060C94F40618
:100080000C94F4060C94F4060C94F4060C94F40608
:100090000C94F4060C94F4060C94F4060C942D1DA8
:1000A0000C94F4060C94F4060C94F4060C94F406E8
:1000B0000C94F4060C94F4060C94F4060C94F406D8
:1000C0000C94F4060C94F4060C94F4060C94F406C8
:1000D0000C94F4060C94F4060C94F4060C94F406B8
:1000E0000C94F4060C940F100C94F2130C942B083F
:1000F0000C94DD0C0C94B80F0C94A4080C94961E70
:100100000C9412080C9463080C9434070C943E076A
:100110000C940F140C9424090C9456070C94520759
:100120000C947C080C945A070C9445080C94060D0A
:100130000C947A130C9490080C940F290C940A08D0
:100140000C9414160C9423090C9468150C943A071B
:100150000C9400070C944F080C9425090C94480744
:100160000C94690A0C94B20A0C9431070C945F0742
:100170000C94D6140C94EE140C9417080C943D08AF
:100180000C9444070C9415160C9435080C947208C2
:100190000C941B130C94FF0C0C9486080C946407AD
:1001A0000C9429070C949A080C942D070C9425079D
:1001B0000C94330D0C94C6140C9459080C94F90A41
:1001C0000C94EC0C0C9449120C94E2140C944C0713
:1001D0000C9421080C941F070C9460072200FF2147
:1001E00003C00FF01FF83FFC7FFEFFFFFFFFFFFF84
:1001F000FFFFFFFFFFFF7FFE3FFC1FF80FF003C074
:10020000000003C00FF01FF83FFC7FFE7FFEFFFFE2
:10021000FFFFFFFF7FFE7FFE3FFC1FF80FF003C0D4
:10022000000003C00C3010082004200440024002EB
:100230004002400240024002400240023FFC0000F7
:10024000000003C00C3010082004200440024002CB
:1002500040024002400240024FE2501250124FE270
:100260000000000000001FF820044002800180010F
:10027000800180018001400220041FF8000000007E
:1002800000001FF8200440028001800180018001ED
:1002900080018001400220041FF8000000000000DF
:1002A00000000000003E5B4F5B3E3E6B4F6B3E1C10
:1002B0003E7C3E1C183C7E3C181C577D571C1C5E27
:1002C0007F5E1C00183C1800FFE7C3E7FF001824FE
:1002D0001800FFE7DBE7FF30483A060E26297929A8
:1002E00026407F050507407F05253F5A3CE73C5ADD
:1002F0007F3E1C1C08081C1C3E7F14227F22145FBA
:100300005F005F5F06097F017F006689956A606014
:1003100060606094A2FFA29408047E040810207E0E
:10032000201008082A1C08081C2A08081E10101093
:10033000100C1E0C1E0C30383E3830060E3E0E06D9
:10034000000000000000005F00000007000700142C
:100350007F147F14242A7F2A1223130864623649EB
:100360005620500008070300001C224100004122D3
:100370001C002A1C7F1C2A08083E080800807030D8
:100380000008080808080000606000201008040247
:100390003E5149453E00427F40007249494946214D
:1003A00041494D331814127F1027454545393C4AC1
:1003B00049493141211109073649494936464949D8
:1003C000291E000014000000403400000008142220
:1003D000411414141414004122140802015909068E
:1003E0003E415D594E7C1211127C7F494949363E8F
:1003F000414141227F4141413E7F494949417F0975
:100400000909013E414151737F0808087F00417F7F
:1004100041002040413F017F081422417F4040407D
:10042000407F021C027F7F0408107F3E4141413E15
:100430007F090909063E4151215E7F091929462697
:100440004949493203017F01033F4040403F1F209B
:1004500040201F3F4038403F631408146303047872
:1004600004036159494D43007F4141410204081092
:1004700020004141417F04020102044040404040CD
:10048000000307080020545478407F28444438383B
:1004900044444428384444287F38545454180008AD
:1004A0007E090218A4A49C787F0804047800447D87
:1004B00040002040403D007F1028440000417F4024
:1004C000007C047804787C08040478384444443878
:1004D000FC1824241818242418FC7C080404084858
:1004E0005454542404043F44243C4040207C1C20A9
:1004F00040201C3C4030403C44281028444C909004
:10050000907C4464544C440008364100000077005D
:1005100000004136080002010204023C2623263C6A
:100520001EA1A161123A4040207A385454555921F5
:1005300055557941225454784221555478402054DD
:100540005579400C1E52721239555555593954542B
:10055000545939555454580000457C410002457D9A
:10056000420001457C407D1211127DF0282528F0C3
:100570007C545545002054547C547C0A097F4932F0
:10058000494949323A4444443A324A4848303A4167
:1005900041217A3A42402078009DA0A07D3D424210
:1005A000423D3D4040403D3C24FF2424487E494399
:1005B000662B2FFC2F2BFF0929F620C0887E09030C
:1005C00020545479410000447D413048484A323833
:1005D0004040227A007A0A0A727D0D19317D26295F
:1005E000292F28262929292630484D402038080857
:1005F000080808080808382F10C8ACBA2F1028348B
:10060000FA00007B000008142A142222142A14087D
:100610005500550055AA55AA55AAFF55FF55FF008C
:100620000000FF00101010FF00141414FF00101041
:10063000FF00FF1010F010F0141414FC001414F755
:1006400000FF0000FF00FF1414F404FC1414171042
:100650001F10101F101F1414141F00101010F00092
:100660000000001F101010101F10101010F01000CC
:100670000000FF101010101010101010FF100000DC
:1006800000FF140000FF00FF00001F10170000FC17
:1006900004F414141710171414F404F40000FF00E9
:1006A000F714141414141414F700F7141414171472
:1006B00010101F101F141414F4141010F010F00078
:1006C000001F101F0000001F14000000FC14000099
:1006D000F010F01010FF10FF141414FF141010107D
:1006E0001F00000000F010FFFFFFFFFFF0F0F0F030
:1006F000F0FFFFFF0000000000FFFF0F0F0F0F0FC4
:100700003844443844FC4A4A4A347E02020606020F
:100710007E027E0263554941633844443C04407E76
:10072000201E2006027E020299A5E7A5991C2A49EF
:100730002A1C4C7201724C304A4D4D30304878487A
:1007400030BC625A463D3E494949007E0101017E66
:100750002A2A2A2A2A44445F444440514A444040B9
:10076000444A51400000FF0103E080FF00000808F8
:100770006B6B083612362436060F090F0600001878
:10078000180000001010003040FF0101001F01019F
:100790001E00191D1712003C3C3C3C0000000000EC
:1007A000000103070F1F3F7F0080C0E0F0F8FCFE50
:1007B000DB40A4A62EAF2000A1C8D300408DAED54B
:1007C00080A80000600000000000000000000000A1
:1007D000000000E000000000000000000000000039
:1007E0000001E00000000000000000000000000028
:1007F00001F0000000000000000000000000000305
:10080000F00000000000000000000000000007F001
:100810000000000000000000000000000007F800D9
:100820000000000000000000000000000FF80000C1
:100830000003C0007E000001E0007F0FF800000010
:1008400003C000FE000001E000FFEFF8000000031D
:10085000C000FE000001E000FFFFF800000003C040
:1008600000F00000000F007FFE7FC0000003C0000A
:10087000F00000000F003FFE7FF83FF1FBCFFCFED1
:10088000F3BC3DEFE01FFE7FFF7FFBFFDFFEFEFFBF
:10089000BC3DEFE01FC6FFFF7FFBFFDFFEFEFFBC9E
:1008A0003DEFE00FE3C7FE787BC3DE1EF0FFBC3DEB
:1008B000EF0007FF87FC787BC3DE1EF0F83C3DEFBE
:1008C0000001FFFFF0007BC3C01EF0F03C3DEF00D5
:1008D00001F37FE03FFBC3CFFEF0F03C3DEF0003B0
:1008E000E33F807FFBC3DFFEF0F03C3DEF0007E716
:1008F0003C00787BC3DE1EF0F03C3DEF0007FFBEFE
:1009000000787BC3DE1EF0F03C3DEF0007FFFE00E9
:10091000787BC3DE1EF0F03C3DEF000FFFFE007F52
:10092000FBFFDFFEF0F03FFDEFE00FFFFF007FFB7E
:10093000FFDFFEF0F03FFDEFE00FF9FF003E79F939
:10094000CF9EF0F01F3DE7E01FF1FF000000000028
:10095000000000000000001F80FF007FFFFFFFFF7E
:10096000FFFFFFFFFFE01C007F007FFFFFFFFEB4E3
:100970006D888D18E000001F007FFFFFFFFE95AD22
:100980007DB577E000000F007FFFFFFFFEA5AD9D66
:100990008D19E0000006007FFFFFFFFEB5ADEDB54D
:1009A0007EE0000000000001800000000000000068
:1009B0000000038000000000000000000007C000ED
:1009C000000000000000000007C000000000000060
:1009D0000000000FC00000000000000000001FE049
:1009E0000000000000000000001FE0000000000008
:1009F000000000003FE00000000000000000003F99
:100A0000F00000000000000000007FF00000000087
:100A10000000001FF87FF0000000000000003FFE13
:100A20007FF0000000000000003FFF7FF0000000AA
:100A3000000000001FFFFBE0000000000000000FAE
:100A4000FFF9FFC00000000000000FFFF9FFF800F1
:100A5000000000000007FFF1FFFF000000000000A1
:100A600003FC73FFFF80000000000001FE3FFFFF5A
:100A700080000000000000FF1E0FFF0000000000CB
:100A800000007FFE1FFC000000000000003FFFFF91
:100A9000F8000000000000000FDFFFE00000000091
:100AA0000000001F19FFC0000000000000003F3CD4
:100AB000FF00000000000000007E7CF80000000045
:100AC000000000007FFE7C0000000000000000FF2E
:100AD000FFFC0000000000000000FFFFFE0000001F
:100AE0000000000000FFFFFE000000000000000109
:100AF000FFEFFE0000000000000001FFCFFE00003D
:100B0000000000000003FF07FE00000000000000DE
:100B100003FC07FE0000000000000003F003FE00DD
:100B2000000000000000018000FE00000000000046
:100B3000000000007E000000000000000000003EF9
:100B4000000000000000000000000C000000000099
:100B500000078000FC000003C0000000078001FCCB
:100B6000000003C0000000078001FC000003C0007B
:100B70000000078001E00000001E00000007800167
:100B8000E00000001E007FE3F79FF9FDE7787BDFC0
:100B9000C0FFF7FFBFFDFDFF787BDFC0FFF7FFBFA2
:100BA000FDFDFF787BDFC0F0F787BC3DE1FF787B80
:100BB000DE00F0F787BC3DE1F0787BDE0000F787D0
:100BC000803DE1E0787BDE007FF7879FFDE1E07804
:100BD0007BDE00FFF787BFFDE1E0787BDE00F0F70A
:100BE00087BC3DE1E0787BDE00F0F787BC3DE1E0CB
:100BF000787BDE00F0F787BC3DE1E0787BDE00FF2C
:100C0000F7FFBFFDE1E07FFBDFC0FFF7FFBFFDE1C6
:100C1000E07FFBDFC07CF3F39F3DE1E03E7BCFC094
:100C20000000000000000000000000FFFFFFFFFFC9
:100C3000FFFFFFFFFFC0FFFFFFFFFD68DB111A3161
:100C4000C0FFFFFFFFFD2B5AFB6AEFC0FFFFFFFF56
:100C5000FD4B5B3B1A33C0FFFFFFFFFD6B5BDB6AA5
:100C6000FDC000002100240027002A002D003000D4
:100C7000330001010000040107010A010000220005
:100C8000250028002B002E00310034000201000056
:100C9000050108010B0100000A0B02090C0D0E08EA
:100CA0000703040100000000000000000000000035
:100CB0000000000000000000000000000000000034
:100CC00000001211100000000000000000000000F1
:100CD00000000000000000000000000000002000F4
:100CE0002300260029002C002F0032000001000004
:100CF000030106010901050505050705080808089F
:100D0000020202020A0A08080404040401010101A3
:100D1000010101010303030303030303040707079E
:100D20000C0C0C0C0C0C0C0C020202020606060643
:100D3000060606060B0B0B0B0B0B0B0B0102102010
:100D40002008081020401020408002010201080401
:100D50000201010204081020408080402010080495
:100D600002018004020180402010080402010804EE
:100D70000201010204081020408001020408102032
:100D80004080961E0F2911241FBECFEFD1E2DEBF97
:100D9000CDBF00E00CBF12E0A0E0B2E0ECE3FAE56A
:100DA00000E00BBF02C007900D92AA38B107D9F737
:100DB00024E0AAE8B2E001C01D92AA31B207E1F72F
:100DC00016E0C2ECD6E000E006C021970109802FB2
:100DD000FE010E94C42BC13CD10780E00807A9F79F
:100DE0000E94A31F0C940C2D0C94000091E0909392
:100DF000170380931603109215031092140308959D
:100E000008958150823108F05AC0E82FF0E0882719
:100E1000E35FF84F8F4F0C94C42B2D0731071F074A
:100E2000250729075F0734073A073E0744074807A5
:100E30004C07520756075F075A07600764078091FF
:100E400080008F77809380000895809180008F7D4F
:100E5000F9CF80918000877FF5CF84B58F7784BDEF
:100E6000089584B58F7DFBCF8091B0008F778093FC
:100E7000B00008958091B0008F7DF9CF80919000EF
:100E80008F77809390000895809190008F7DF9CFA7
:100E900080919000877FF5CF8091A0008F7780931D
:100EA000A00008958091A0008F7DF9CF8091A000CF
:100EB000877FF5CF809120018F778093200108955F
:100EC000809120018F7DF9CF80912001877FF5CF20
:100ED0001F93CF93DF93282F30E0F901EA56F34FA9
:100EE0008491F901E45CF24FD491F901EA50F34F97
:100EF000C491CC23A9F0162F81110E940107EC2F79
:100F0000F0E0EE0FFF1FE458F34FA591B4918FB7B7
:100F1000F894EC91111108C0D095DE23DC938FBFBB
:100F2000DF91CF911F910895DE2BF8CFCF93DF9300
:100F300090E0FC01E45CF24F24918A50934FFC0155
:100F400084918823C9F090E0880F991FFC01EE5925
:100F5000F34FA591B491FC01E458F34FC591D4919E
:100F600061110DC09FB7F8948C91209582238C93CA
:100F70008881282328839FBFDF91CF910895623015
:100F800051F49FB7F8943C91822F809583238C93E2
:100F9000E8812E2BEFCF8FB7F894EC912E2B2C936A
:100FA0008FBFEACF1F93CF93DF93182FEB0161E040
:100FB0000E949607209739F460E0812FDF91CF914E
:100FC0001F910C946807CF3FD10511F461E0F5CF74
:100FD000E12FF0E0EA56F34FE491E150E23108F0FE
:100FE000B3C0F0E08827E850F84F8F4F0C94C42B23
:100FF0000A081208170821082B08A40835083D081C
:1010000045084F085908630872087C08A408860838
:1010100090089A0884B5806884BDC7BDDF91CF91E0
:101020001F91089584B5806284BDC8BDF7CF8091BB
:101030008000806880938000D0938900C0938800EE
:10104000EDCF80918000806280938000D0938B00F0
:10105000C0938A00E3CF80918000886080938000F5
:10106000D0938D00C0938C00D9CF8091B000806860
:101070008093B000C093B300D1CF8091B000806264
:101080008093B000C093B400C9CF80919000806875
:1010900080939000D0939900C0939800BFCF809127
:1010A0009000806280939000D0939B00C0939A0040
:1010B000B5CF80919000886080939000D0939D0080
:1010C000C0939C00ABCF8091A00080688093A0006B
:1010D0008091A0008F7B8093A000D093A900C09343
:1010E000A8009CCF8091A00080628093A000D09344
:1010F000AB00C093AA0092CF8091A000886080933B
:10110000A000D093AD00C093AC0088CF80912001A7
:10111000806880932001D0932901C09328017ECF5D
:1011200080912001806280932001D0932B01C09395
:101130002A0174CF80912001886080932001D09390
:101140002D01C0932C016ACFC038D1050CF03ECFE1
:1011500033CF90917B00977F90937B008653806480
:1011600080937C0080917A00806480937A008091E3
:101170007A0086FDFCCF80917800909179000895E7
:101180003FB7F89480910E0390910F03A091100344
:10119000B091110326B5A89B05C02F3F19F0019609
:1011A000A11DB11D3FBFBA2FA92F982F8827BC01C1
:1011B000CD01620F711D811D911D42E0660F771FE9
:1011C000881F991F4A95D1F708958F929F92AF92E9
:1011D000BF92CF92DF92EF92FF924B015C010E948F
:1011E000C0086B017C010E94C0086C197D098E0942
:1011F0009F09683E734081059105A8F321E0821A9A
:101200009108A108B10888EEC80E83E0D81EE11C41
:10121000F11C81149104A104B10429F7FF90EF900F
:10122000DF90CF90BF90AF909F908F9008952FB791
:10123000F89460910A0370910B0380910C039091D4
:101240000D032FBF089508950895AF92BF92CF92D6
:10125000DF92EF92FF920F931F93CF93DF936C0176
:101260007B018B01040F151FEB015E01AE18BF0857
:10127000C017D10759F06991D601ED91FC91019009
:10128000F081E02DC6011995892B79F7C501DF9111
:10129000CF911F910F91FF90EF90DF90CF90BF9073
:1012A000AF900895EF92FF920F931F93CF93DF9328
:1012B000EC01EC80FD806E157F050CF070C057FFCF
:1012C00004C0240F351F50E040E08E819F81FA0159
:1012D000E20FF31F8E179F071CF49C01241B350B94
:1012E000121613060CF05BC0922F842F86958695FC
:1012F00086958E9DD0018F9DB00D11246A0F7B1FA6
:10130000AF8DB8A1A60FB71F477049F188E0841BC5
:10131000482F682F70E0FB01E855F84FE49128173B
:1013200008F063C0621B71092FEF30E002C03595F1
:1013300027956A95E2F7E2230130110539F0B0F103
:101340000230110561F58C91E82702C08C91E82BE1
:10135000EC93941720F12C813D81A20FB31FE92F4C
:10136000E41BE83078F00230110521F58E2F9C91B6
:1013700090959C932C813D81A20FB31F885088309B
:10138000B0F7E770EE2359F0F0E0E056F84FE49143
:1013900001301105F9F010F10230110519F1DF915A
:1013A000CF911F910F91FF90EF900895E0958C9150
:1013B000E823CECF81E00115110509F480E0819585
:1013C0009E2F8C932C813D81A20FB31F9850983093
:1013D000C0F7D7CF8C91E82BEC93E1CFE0958C91BF
:1013E000E823FACF8C91E827F7CF0130110509F4F3
:1013F000ADCFE0F20230110509F4A5CFAE0DBF1D4F
:10140000AECF0F931F93CF93DF9377FF04C0260FC8
:10141000371F70E060E0DC011496CD91DC91FB0198
:10142000E20FF31FCE17DF071CF49E01261B370BBC
:10143000121613064CF5FA0157FD3796A3E0F59501
:10144000E795AA95E1F7EC9FD001ED9FB00DFC9FC9
:10145000B00D11246A0F7B1FDC015F96ED91FC91AA
:10146000E60FF71F4770552781E090E001C0880F15
:101470004A95EAF7482F0130110559F0A8F02E0FD0
:101480003F1F02301105E1F0DF91CF911F910F91C5
:1014900008952E0F3F1FE217F307B1F38191DF018B
:1014A0001197842B8C93F7CF80952E0F3F1FE21757
:1014B000F30751F39191DF01119798239C93F7CF94
:1014C000E217F30709F38191DF01119784278C93C9
:1014D000F7CF0F931F93FA01DC0156964C91569764
:1014E0004230E9F04330A1F1413061F514964D915D
:1014F0005C91DA01AE1BBF0BFD01E21BF30B77FD24
:101500000BC0DC0116964D915C916417750724F4AD
:10151000AB01BF010E94010A1F910F91089514961B
:101520004D915C91DA01A61BB70BBD0161507109A9
:10153000DC0116964D915C91DA01AE1BBF0BFD01EB
:10154000E21BF30B77FDE8CFAF010E945209E4CF15
:1015500016964D915C91DA01A61BB70BBD01615047
:101560007109CDCF0F931F93FA01DC0156964C9170
:1015700056974230A9F0433091F1413019F5149655
:101580004D915C91DA01AE1BBF0BFD013197F7FD68
:1015900004C0AB01BF010E9452091F910F91089531
:1015A00014964D915C91DA01A61BB70BBD01DC01CD
:1015B00016964D915C91DA01AE1BBF0BFD01319780
:1015C000621B730BF7FDE9CFDC0116964D915C9120
:1015D000E417F50714F7AF010E94010ADECF169653
:1015E0004D915C91DA01A61BB70BBD01621B730B19
:1015F000CECFFC0177FD64C080859185681779079F
:101600000CF05EC057FD5CC0828593854817590772
:101610000CF056C086898230B1F0833029F18130D8
:1016200041F484819581841B950BAB01BC01615011
:1016300071092130310509F108F443C02230310528
:1016400009F463C0089584819581DC01A61BB70B62
:10165000BD016150710986819781DC01A41BB50B26
:10166000AD0141505109E5CF86819781861B970BCB
:10167000BA01AC0141505109DCCFCA0157FD0796B0
:10168000A3E095958795AA95E1F7A481B5818A9FF6
:1016900090018B9F300D9A9F300D1124620F731FA4
:1016A000078CF0A1E02DE60FF71F4770552721E0CA
:1016B00030E001C0220F4A95EAF78081822B8083B7
:1016C0000895CA0157FD079633E0959587953A9599
:1016D000E1F7A481B5818A9F90018B9F300D9A9F7D
:1016E000300D1124620F731F078CF0A1E02DE60F5F
:1016F000F71F4770552781E090E001C0880F4A9599
:10170000EAF7809590818923DACFCA0157FD0796C1
:1017100023E0959587952A95E1F7A481B5818A9F65
:1017200090018B9F300D9A9F300D1124620F731F13
:10173000078CF0A1E02DE60FF71F4770552721E039
:1017400030E001C0220F4A95EAF780818227B7CFA7
:101750002091CB02260F3327331F21323105ECF4C1
:1017600020915E03FC0190E080E0243069F082E08B
:101770000895A091CB022191AC0145555D4FA40F76
:10178000B52FB11D2C930196861798F38091CB024B
:10179000680F6093CB0280E0089581E00895109275
:1017A0005E0381E080933D031092380361E084E1A1
:1017B0000E94680761E085E10E946807E9EBF0E0BC
:1017C00080818E7F808380818D7F808388E4809379
:1017D000B80085E48093BC000895CF93DF9391E037
:1017E0009093AA028823B9F0C091B800D091BA00B2
:1017F0008091BC008A7B8093BC0060E084E10E9401
:10180000680760E085E10E9468070E94CF0BD093D3
:10181000BA00C093B800DF91CF910895CF92DF92C4
:10182000EF92FF920F931F93CF93DF93D82FC62F82
:10183000613208F098C00E94C0086B017C01809161
:101840005E0381116BC081E080935E0380933D0352
:101850009FEF90933C0310923B039C0F90933A03AD
:101860008093390380913903DD0FD82BD09339034E
:1018700080913803813009F078C0109238030E94BB
:10188000C0086B017C01809139038093BB0080917B
:10189000600390916103A0916203B0916303892B6F
:1018A0008A2B8B2BA1F00E94C0080091600310913D
:1018B000610320916203309163036C197D098E09E5
:1018C0009F09061717072807390708F448C08091B1
:1018D000BC0083FDD8CF85EC8093BC000E94C0087B
:1018E0006B017C0180915E03813009F440C08091DE
:1018F0003B038C1710F4C0913B03E8E1F3E0AEE347
:10190000B3E080E08C1355C08C2FDF91CF911F91F5
:101910000F91FF90EF90DF90CF900895809160033A
:1019200090916103A0916203B0916303892B8A2B8C
:101930008B2B09F484CF0E94C008009160031091A2
:10194000610320916203309163036C197D098E0954
:101950009F09061717072807390708F070CF8091ED
:101960005F030E94ED0BC0E0CFCF85EEB5CF809135
:10197000600390916103A0916203B0916303892B8E
:101980008A2B8B2B09F4AECF0E94C0080091600314
:101990001091610320916203309163036C197D09FA
:1019A0008E099F09061717072807390708F09ACFED
:1019B000D6CF91919D938F5FA5CFE0911303809136
:1019C0001203E81730F4F0E0E25CFC4F808190E015
:1019D00008958FEF9FEF0895909113038091120364
:1019E0002FEF3FEF981748F4E92FF0E0E25CFC4F4F
:1019F000208130E09F5F90931303C9010895809187
:101A0000120390911303891B990B0895CF92DF92D3
:101A1000EF92FF920F931F93CF93DF937C01CB0143
:101A20008A0120911703222389F0EB016B01C40E78
:101A3000D51ECC15DD0569F06991D701ED91FC91BA
:101A40000190F081E02DC7011995F3CF642F0E941A
:101A5000A80BC801DF91CF911F910F91FF90EF90DC
:101A6000DF90CF900895CF93DF931F92CDB7DEB76D
:101A70006983209117032223F9F020911403203267
:101A800058F021E030E0FC013383228390E080E0D5
:101A90000F90DF91CF91089580911503E82FF0E02A
:101AA000E657FD4F998190838F5F80931503809354
:101AB000140381E090E0ECCF61E0CE0101960E943A
:101AC000A80BF7CFCF92DF92EF92FF920F931F9365
:101AD000CF93DF93D091140381E0D13208F09CC002
:101AE000C09116030E94C0086B017C0180915E03C7
:101AF00081116CC082E080935E0381E080933D039E
:101B00008FEF80933C0310923B03D0933A03AAE8F3
:101B1000B2E0E8E1F3E080E0D8138DC01092390321
:101B200080913903CC0FC82BC093390380913803BF
:101B3000813009F084C0109238030E94C0086B0104
:101B40007C01809139038093BB0080916003909168
:101B50006103A0916203B0916303892B8A2B8B2BC5
:101B6000A1F00E94C00800916003109161032091D0
:101B70006203309163036C197D098E099F09061772
:101B800017072807390708F442C08091BC0083FD7D
:101B9000D8CF85EC8093BC000E94C0086B017C010B
:101BA00080915E03823009F44CC080913C038F3FEA
:101BB00009F469C080913C03803209F466C08091C9
:101BC0003C03803309F463C084E026C08091600345
:101BD00090916103A0916203B0916303892B8A2BDA
:101BE0008B2B09F483CF0E94C008009160031091F1
:101BF000610320916203309163036C197D098E09A2
:101C00009F09061717072807390708F06FCF80913B
:101C10005F030E94ED0B85E01092150310921403F0
:101C200010921703DF91CF911F910F91FF90EF90CA
:101C3000DF90CF9008959D9191938F5F6DCF85EE4A
:101C4000A9CF8091600390916103A0916203B0914C
:101C50006303892B8A2B8B2B09F4A2CF0E94C00827
:101C6000009160031091610320916203309163033E
:101C70006C197D098E099F09061717072807390770
:101C800008F08ECFC4CF80E0C7CF82E0C5CF83E01D
:101C9000C3CF0F931F93CF93DF93082F162FC8E066
:101CA000D4E08B810E94F60689819A81DC01ED9156
:101CB000FC910190F081E02D602F199589819A8126
:101CC000DC01ED91FC910190F081E02D612F1995DF
:101CD00089819A810E94620D8883DF91CF911F9143
:101CE0000F910895FF920F931F93CF93DF93F82ED8
:101CF000162F072FC8E0D4E08B810E94F606898159
:101D00009A81DC01ED91FC910190F081E02D6F2D25
:101D1000199589819A81DC01ED91FC910190F08106
:101D2000E02D602F199589819A81DC01ED91FC915C
:101D30000190F081E02D612F199589819A810E948F
:101D4000620D8883DF91CF911F910F91FF900895CD
:101D500008958EBD00000DB407FEFDCF8EB5089529
:101D6000EF92FF920F931F93CF937C01C62F809128
:101D70008D0390918E03892B09F44EC080919103BD
:101D80000E94F60680918D0390918E03DC01ED9107
:101D9000FC910190F081E02D60E019958701EE241F
:101DA000E394F12CC15080918D0390918E03CF3F2D
:101DB00061F1B0E2EB16F104A8F00E94620D80918F
:101DC00091030E94F60680918D0390918E03DC01B1
:101DD000ED91FC910190F081E02D60E01995EE24E9
:101DE000E394F12C80918D0390918E03F80164911E
:101DF000DC01ED91FC910190F081E02D1995BFEF90
:101E0000EB1AFB0A0F5F1F4FCDCFCF911F910F91A0
:101E1000FF90EF900C94620DE0919D03F0919E0372
:101E200090818091A3038095892380838701C1508D
:101E300008F438C0F801849120918B0330918C0311
:101E4000232B29F00E94A90E0F5F1F4FF0CF28E02F
:101E500030E040E8E0919903F0919A039091A1035A
:101E6000582F5423D9F05081952B9083E0919B03F8
:101E7000F0919C0390815091A203952B9083E09167
:101E80009B03F0919C0350819091A2039095952320
:101E90009083469521503109E9F6D6CF508190952F
:101EA0009523E3CFCF911F910F91FF90EF9008956D
:101EB0001F93CF93DF93EC018D8D9E8D892BF9F0CD
:101EC000162F89A10E94F6068D8D9E8DDC01ED9165
:101ED000FC910190F081E02D60E019958D8D9E8D33
:101EE000DC01ED91FC910190F081E02D612F1995BD
:101EF0008D8D9E8DDF91CF911F910C94620DADA5BC
:101F0000BEA59C918BA9809589238C938B8D9C8DEC
:101F1000892B31F0862FDF91CF911F910C94A90E60
:101F200028E030E080E8A9A5BAA599A9462F482362
:101F3000C1F04C91942B9C93ABA5BCA59C914AA954
:101F4000942B9C93ABA5BCA54C919AA990959423F6
:101F50009C9386952150310931F7DF91CF911F91E4
:101F600008954C9190959423E6CF8CBD9DBD089526
:101F70001F93CF93DF93EC01162F8D8D9E8D892BB0
:101F8000B1F12DA93EA94FA958AD60E074E284EFEC
:101F900090E00E945029205131094109510956957C
:101FA0004795379527952093B80066EA111167EA9F
:101FB000CE010E94580F8D8D9E8D892B41F129AD48
:101FC0003AAD4BAD5CAD60E074E284EF90E00E940E
:101FD00050292051310941095109569547953795A6
:101FE00027952093B800DF91CF911F9108958B8D95
:101FF0009C8D892B21F08EAD9FAD0E94B50FEFA572
:10200000F8A990818CA9809589238083CECFEFA5F4
:10201000F8A980819CA9892B8083E5CF0895FC01D4
:102020006370668B8481958126813781613039F0B8
:10203000633029F09187808733872287089531871D
:1020400020879387828708952F923F924F925F92C5
:102050006F927F928F929F92AF92BF92CF92DF92B8
:10206000EF92FF920F931F93CF93DF93CDB7DEB71D
:102070006A970FB6F894DEBF0FBECDBF9A8F898FD7
:102080007A8369834A01D22E18870F833701BC2CCB
:10209000DC0159962D913C915A972115310509F093
:1020A00015C118968D919C911997681779070CF0B6
:1020B000D7C11A968D919C91481759070CF0D0C141
:1020C0004C2C512CB6E0CB9E600D711D11247C87E9
:1020D0006B87161617060CF0C3C1EA2DF0E0FA87DD
:1020E000E98793E0EE0FFF1F9A95E1F7F88BEF87F2
:1020F000CF01840F951F181619060CF0B1C1A98DD8
:10210000BA8D58968C91811104C0BFEABD1508F4B0
:10211000D394A98DBA8DED91FC9111970284F3852A
:10212000E02DCD011995B5E0DB9EC0011124E981B8
:10213000FA81FC83EB83312C212C9C0120563D4FEE
:10214000388F2F8B4A2D50E05E8B4D8BEF89F88DA9
:10215000E20DF31D44919E828D82D12CC12C6981A8
:102160007A81620D731D7A8B698B842F90E09C8B32
:102170008B8BE98DFA8DA081B18140FF82C0F1E0A7
:10218000BF126FC0AF126DC01C96ED91FC912F81F4
:102190003885A4014C0D5D1D69897A89898D9A8DD8
:1021A0001995EB89FC89F595E7954E2F5FEFC51AD8
:1021B000D50A6D817E818D899E89680F791F7E8306
:1021C0006D8398E0C916D10481F6AFEF2A1A3A0A56
:1021D000EB81FC81E40DF51DFC83EB83F5E02F160C
:1021E000310409F0B3CF2F81388526153705B9F0B2
:1021F000A98DBA8DED91FC91B1E0BB1257C0AB1225
:1022000055C069817A816B5F7F4F0088F189E02D2D
:10221000830128E030E0A401898D9A8D1995A98D5C
:10222000BA8DED91FC9111970688F789E02DCD01CB
:102230006A960FB6F894DEBF0FBECDBFDF91CF9187
:102240001F910F91FF90EF90DF90CF90BF90AF90D4
:102250009F908F907F906F905F904F903F902F90C6
:1022600019941E96ED91FC91EF80F88409851A85EA
:1022700092014D815E816B817C81898D9A8D19954A
:1022800090CF2F8138852615370509F48ACF31E0A4
:10229000B31207C0A31205C01C96ED91FC919301E7
:1022A00078CF1E96ED91FC917301E0CF6B857C8514
:1022B000641975090684F785E02D73010F85188967
:1022C0009201A401898D9A8D1995A9CFF9013496AF
:1022D0009491329745915491D91AB7E0DB9E400D05
:1022E000511D1124F901259134913C8B2B8BFA015E
:1022F00025903490FA013296749031963491398B4E
:10230000329664903196449041E04C1518F04A158D
:1023100008F07FC0662D062C000C770B7C836B8346
:10232000842D042C000C990B9E838D83A98DBA8D6E
:10233000ED91FC9111970284F385E02DCD01199563
:10234000512CD12CC12CEA2DF0E0FA87E9872B2DF6
:1023500030E03C872B87A401440D511D47FC5A9562
:10236000588F4F8B69817A81660D711D67FC7A9554
:102370007E876D877989C71608F051CF2C2D30E004
:102380004D815E81420F531FA985BA854A9FC001C6
:102390004B9F900D5A9F900D1124FC01E80DF91DE3
:1023A000F88BEF87852D612C4F89588D420F531F75
:1023B0005E8B4D8B671408F050C044244394480E44
:1023C000877041F4C1010196EB89FC89E20DF31D90
:1023D000D4901C01D7FE19C0A98DBA8DED91FC9146
:1023E000662D70E0B1E0BB1219C0AB1217C02D858D
:1023F0003E85620F731F0484F585E02D2F8138859B
:102400004D895E89898D9A8D1995DD0C6394842D93
:10241000D1CF1E821D821C821B8288CF4B815C81A2
:10242000640F751FAB85BC856A9FC0016B9F900DC3
:102430007A9F900D112469817A81680F791F068433
:10244000F785E02DEF80F88409851A859D014F8579
:102450005889898D9A8D1995D8CF570CC3948ACFF6
:102460006A960FB6F894DEBF0FBECDBFDF91CF9155
:102470001F910F91FF90EF90DF90CF90BF90AF90A2
:102480009F908F907F906F905F904F903F902F9094
:1024900008958F929F92AF92CF92EF92FF920F93F7
:1024A0001F93CF93DF93EC01262F898D9A8D009790
:1024B00009F051C06A30D1F41D861C868D8948E030
:1024C000849F900111248E859F85820F931F9F8783
:1024D0008E8781E090E0DF91CF911F910F91FF9067
:1024E000EF90CF90AF909F908F9008956D3089F3CB
:1024F000CC88AD888F898823C1F08C859D8536E096
:10250000C39E800D911D1124488559854817590790
:1025100064F44E855F851D861C8638E0A39EC0014D
:102520001124840F951F9F878E87EA88FB8808896E
:1025300019894E855F856C857D85CE010E942410AA
:102540002C898C859D8546E0249F800D911D11244A
:102550009D878C87BECF6A3069F41D861C86FC017E
:102560003896E4912D898E859F85E29F800D911D7F
:102570001124ADCF6D3009F4ACCFFC013496349109
:10258000631708F4A6CF3296E491E61708F4A1CFBA
:10259000FC01329685909490462F431B342F47E0E0
:1025A000349F800C911C1124F401329634913196A1
:1025B000E4913323A9F1EE2399F1CC88F401359607
:1025C000E491AD884F89442301F10E2E000CFF0BDE
:1025D000E30FF11DCE9EA001CF9E500D11246C85FE
:1025E0007D85460F571F68857985641775076CF4DC
:1025F0004E855F851D861C86FC013896E491AE9E53
:10260000400D511D11245F874E87EA88FB88088999
:1026100019894E855F856C857D85CE010E942410C9
:10262000F4013496E4912C898C859D85E29F800D80
:10263000911D11248DCF6F927F928F929F92AF92B6
:10264000BF92CF92DF92EF92FF920F931F93CF939F
:10265000DF93EC016B015A0139014801E881F981EE
:102660000284F385E02D1995E881F9810288F389C8
:10267000E02D87019301A501B601CE011995A501B1
:10268000480D591D41505109E881F9810288F389AB
:10269000E02D9301B601CE011995E881F9810088FA
:1026A000F189E02D9401A501B601CE011995C60C62
:1026B000D71CB60161507109E881F9810088F18960
:1026C000E02D9401A501CE011995E881F9810688D4
:1026D000F789E02DCE01DF91CF911F910F91FF90EF
:1026E000EF90DF90CF90BF90AF909F908F907F90B2
:1026F0006F9019946F927F928F929F92AF92BF9238
:10270000CF92DF92EF92FF920F931F93CF93DF93BD
:102710005C01EB016A01490138018701DC01ED919F
:10272000FC916217730719F5641675062CF0962D47
:10273000872D3A01C92ED82E9601261937092F5F09
:102740003F4F048CF58DE02DA301BE01C501199505
:10275000DF91CF911F910F91FF90EF90DF90CF907D
:10276000BF90AF909F908F907F906F900895461587
:10277000570591F42617370724F0892D4B01C22FF6
:10278000D82F9E01281939092F5F3F4F068CF78DEE
:10279000E02DA601B401DACF0284F385E02D19956E
:1027A000D501ED91FC910488F589E02D8301940118
:1027B000A601BE01C5011995D501ED91FC910688D0
:1027C000F789E02DC501DF91CF911F910F91FF9007
:1027D000EF90DF90CF90BF90AF909F908F907F90C1
:1027E0006F901994EF92FF920F931F93DC011A964A
:1027F0000D911C911B9718962D913C911997ED9175
:10280000FC9100A0F1A1E02D7B0150E040E070E0E0
:1028100060E019951F910F91FF90EF9008954F92EE
:102820005F926F927F928F929F92AF92BF92CF9260
:10283000DF92EF92FF920F931F93CF93DF936C0180
:102840002B015A0139014801DC01ED91FC91028410
:10285000F385E02D1995E201640C751CD601ED910C
:10286000FC91C615D7055CF40088F189E02D87013D
:102870009401A501BE01C60119952196EFCF0688E6
:10288000F789E02DC601DF91CF911F910F91FF9045
:10289000EF90DF90CF90BF90AF909F908F907F9000
:1028A0006F905F904F9019948F929F92AF92BF92CA
:1028B000CF92DF92EF92FF920F931F93CF93DF930C
:1028C000EC015B014A016901E881F9810284F38529
:1028D000E02D199595012C0D3D1D21503109E88100
:1028E000F9810488F589E02D78018401A401B501FE
:1028F000CE011995E881F9810688F789E02DCE018E
:10290000DF91CF911F910F91FF90EF90DF90CF90CB
:10291000BF90AF909F908F9019948F929F92AF929B
:10292000BF92CF92DF92EF92FF920F931F93CF93BC
:10293000DF93EC015B014A0169017801E881F981CB
:102940000284F385E02D1995C80CD91C860101502D
:102950001109E881F9810488F589E02D9501A40128
:10296000B501CE011995E881F9810688F789E02D36
:10297000CE01DF91CF911F910F91FF90EF90DF90EB
:10298000CF90BF90AF909F908F901994EF92FF924D
:102990000F931F93DC01ED91FC9100A0F1A1E02DBC
:1029A00019951F910F91FF90EF9008950F931F932A
:1029B000DC01ED91FC91068CF78DE02D19951F91AE
:1029C0000F9108950F931F93DC01ED91FC91048CFE
:1029D000F58DE02D19951F910F910895DC01ED9172
:1029E000FC910084F185E02D19943F924F925F9203
:1029F0006F927F928F929F92AF92BF92CF92DF920F
:102A0000EF92FF920F931F93CF93DF9300D01F920B
:102A1000CDB7DEB75C013B016A014901280187E0BF
:102A2000480E511C93E0559447949A95E1F7CA01DA
:102A30008E0D9F1D9A838983F12CE12C312C1C82F1
:102A40001B828B819C8187709927330C892B61F4C1
:102A5000EB81FC8183E0F595E7958A95E1F7EE0D32
:102A6000FF1DE80DF91D349037FE0AC021E030E06B
:102A7000A6016B817C81660D771DC5010E94EE1455
:102A80008B819C8101969C838B8308171907C9F65B
:102A90009FEFC91AD90AE40CF51C89819A81C816DE
:102AA000D90669F60F900F900F900F90DF91CF919C
:102AB0001F910F91FF90EF90DF90CF90BF90AF905C
:102AC0009F908F907F906F905F904F903F90089570
:102AD0002F923F924F925F926F927F928F929F922E
:102AE000AF92BF92CF92DF92EF92FF920F931F931C
:102AF000CF93DF9300D000D0CDB7DEB73C016A01A1
:102B00003E832D83FC82EB825801A41AB50AB7FEDE
:102B100003C0B194A194B1088D809E80861A970A53
:102B200097FE03C09194819491088A149B045CF0F1
:102B3000902F812F0D811E819D838E839C2D8D2D45
:102B40006B01692F782F0C151D055CF09D818E811E
:102B50007E836D83692F782F902F812F8601C92E58
:102B6000D82E1601201A310A2B012D813E81421ADE
:102B7000530A57FE03C0519441945108710137FE26
:102B800003C03FEFE31AF30AF594E7948D819E8129
:102B9000861797075CF5A1E0B0E0BA83A983C01659
:102BA000D1064CF1D301ED91FC910484F585E02D23
:102BB0002B813C81A8016D817E818A149B041CF0CD
:102BC0004D815E81B801C3011995E418F508F7FE3F
:102BD0000AC02D813E8189819A81280F391F3E8349
:102BE0002D83E20CF31C0F5F1F4FD9CF2FEF3FEF68
:102BF0003A832983D4CF26960FB6F894DEBF0FBE52
:102C0000CDBFDF91CF911F910F91FF90EF90DF909B
:102C1000CF90BF90AF909F908F907F906F905F907C
:102C20004F903F902F900895089590E080E0089590
:102C300060E088E00E94680760E087E00E94680723
:102C400070E060E086E00C94D20760E083E00E94D0
:102C5000680760E084E00E94680770E060E085E05B
:102C60000C94D207CF92DF92EF92FF920F931F93B3
:102C7000CF93DF931F921F92CDB7DEB769834A834C
:102C8000880F991F0091060410910704000F111F6F
:102C9000E0EBF3E09F01205B33402017310714F491
:102CA0001192F8CF2981FC01E055FC4F21838A81E4
:102CB000808360E0809104040E946807101611066A
:102CC00004F501501109F801E055FC4FE080D09067
:102CD0000204C090000488E0F82E6E2D661F66275F
:102CE000661F8C2D0E946807EE0C61E08D2D0E94FE
:102CF000680760E08D2D0E946807FA94F110EDCF0F
:102D0000DDCF61E0809104040F900F90DF91CF91AF
:102D10001F910F91FF90EF90DF90CF900C94680778
:102D2000EF92FF920F931F93CF937C018C0183E06E
:102D3000000F111F8A95E1F700541C4FC1E0F80104
:102D400011928F0140E06C2FC7010E943216CF5FB5
:102D5000C930A9F7CF911F910F91FF90EF9008957F
:102D60000F931F93CF93DF93182FC8E0D4E08B818C
:102D70000E94F60689819A81DC01ED91FC91019017
:102D8000F081E02D612F199589819A810E94620D51
:102D9000888362E08B810E940E0C10921303809353
:102DA000120389819A81DC01ED91FC910284F38503
:102DB000E02D199500E0182F89819A81DC01ED91B1
:102DC000FC910284F385E02D1995802B912BDF91E6
:102DD000CF911F910F9108951F93CF93DF93182FD9
:102DE000C8E0D4E08B810E94F60689819A81DC01DB
:102DF000ED91FC910190F081E02D612F1995898171
:102E00009A810E94620D888361E08B810E940E0C82
:102E1000109213038093120389819A81DC01ED9152
:102E2000FC910284F385E02D1995DF91CF911F91DC
:102E30000895CF93DF93EC0181E00E94EC1684FBB0
:102E4000992790F9988383FB992790F99A8382FBBD
:102E5000992790F9998386FB992790F99B83881F7E
:102E60008827881F8C83DF91CF910895682F616038
:102E700080E00E94490E0E9417097093100460932D
:102E80000F0483E10E94EC168770B9F480910C0462
:102E900090910D04892BA9F30E94170920910F042A
:102EA00030911004621B730B80910C0490910D04FF
:102EB0008617970730F780E0089561E08BE00E9465
:102EC000490E60E080E00E94490E81E00895CF93B2
:102ED000DF9361E080E80E94490E61E08FEF0E947D
:102EE000490E60E080E00E94490E6091110481E982
:102EF0000E94490E61E080E00E94490E60E08FEF81
:102F00000E94490E60E080E80E94490E61E080E086
:102F10000E94490E0E9417097093100460930F04D9
:102F200080E00E94EC1680FF1EC080910C049091FE
:102F30000D04892BA9F30E94170920910F043091E9
:102F40001004621B730B80910C0490910D04861782
:102F5000970730F781E080930E04CFEFDFEFCE01CB
:102F6000DF91CF9108950E94170970931004609328
:102F70000F0483E10E94EC168770B1F480910C0479
:102F800090910D04892BA9F30E94170920910F0439
:102F900030911004621B730B80910C0490910D040E
:102FA0008617970730F7D6CF8EE10E94B016EC0156
:102FB00061E08BE00E94490ED2CF8F929F92AF9238
:102FC000BF92EF92FF920F931F93CF93DF937C01F9
:102FD000EB0180E50E94EC168F5F880F90E09983EB
:102FE000888386E40E94EC16082F10E00F5F1F4FC5
:102FF0001D830C83A881B0E020E03FE24AE350E06B
:103000000E943D296C507E4F8F4F9F4F38EE832E8C
:1030100033E0932EA12CB12CA50194010E945029DC
:10302000D8010E9448296C507E4F8F4F9F4FA501B9
:1030300094010E9450292A873B874C875D8781E550
:103040000E94B0168C01112702C0000F111F9A9523
:10305000E2F70F5F1F4F1F830E83A881B0E020E0CF
:103060003FE24AE350E00E943D296C507E4F8F4F73
:103070009F4FA50194010E945029D8010E943D292B
:103080006C507E4F8F4F9F4FA50194010E94502995
:103090002E873F87488B598B80E70E94EC168F5F05
:1030A000880F90E09B838A8381E70E94B0169C0181
:1030B000992702C0880F991F3A95E2F701969987E0
:1030C0008887F7012381222331F02E813F81821BE3
:1030D000930B99878887AA81B0E020E03FE24AE31A
:1030E00050E00E943D296C507E4F8F4F9F4F28EE3D
:1030F000822E23E0922EA12CB12CA50194010E94D6
:103100005029A885B9850E943D296C507E4F8F4F6C
:103110009F4FA50194010E9450292A8B3B8B4C8B19
:103120005D8BDF91CF911F910F91FF90EF90BF903A
:10313000AF909F908F9008950F931F93462F90E02C
:10314000FC01E45CF24F6491FC01EA50F34FE4911E
:103150004111462FF0E0EE0FFF1FE452F34F85912F
:10316000949100E412E42FE030E00E94511E6115BA
:1031700071058105910529F06F5F7F4F8F4F9F4F3C
:103180009F701F910F91089560E083E10E9468078E
:1031900083E090E00197F1F761E083E10E94680726
:1031A00083E290E00197F1F760E083E10E94680715
:1031B00061E086E10E949C180E949D2A26E933E482
:1031C0004BE05DE30E94522B20E030E040E05FE303
:1031D0000E94522B08958F929F92AF92BF92CF92EE
:1031E000DF92EF92FF92CF93DF9360E080E10E9445
:1031F000680760E081E10E94680760E082E10E9468
:103200009C186B01EB0161E080E10E94680761E0BE
:1032100081E10E94680760E082E10E949C184B01F6
:1032200080E0E297ECF4B601DD0C880B990B0E946C
:103230009D2A6B017C01B401990C880B990B0E94AB
:103240009D2A23E333E343E35FE30E94522B9B0178
:10325000AC01C701B6010E94EE29881F8827881F8C
:10326000DF91CF91FF90EF90DF90CF90BF90AF9024
:103270009F908F9008952091760330917703C90134
:10328000079697FD079623E0959587952A95E1F790
:103290002091740330917503829FA001839F500D8C
:1032A000929F500D112470E060E080918F03909107
:1032B00090030C94052DFC0101900020E9F7319753
:1032C000AF01481B590BBC0180E793E00C94250922
:1032D0008F929F92AF92BF920F931F93CF93DF93E2
:1032E000CDB7DEB7A1970FB6F894DEBF0FBECDBF46
:1032F00019A2423008F44AE08E010F5D1F4F842E60
:10330000912CB12CA12CA50194010E945029E62FEB
:10331000B901CA01EA30F4F4E05DD801EE938D0101
:10332000232B242B252B79F790E080E0109719F0C0
:10333000CD010E945B19A1960FB6F894DEBF0FBEB7
:10334000CDBFDF91CF911F910F91BF90AF909F9014
:103350008F900895E95CE1CF0C945B194F925F92D6
:103360006F927F928F929F92AF92BF92CF92DF9295
:10337000EF92FF920F931F93CF936B017C01742EFA
:10338000AC019B010E94BF2B882399F08BE492E053
:10339000CF911F910F91FF90EF90DF90CF90BF9052
:1033A000AF909F908F907F906F905F904F900C9414
:1033B0005B1946015701E894B7F82FEF3FEF4FE74D
:1033C0005FE7C501B4010E94BF2B81110DC02FEF33
:1033D0003FEF4FE75FE7C501B4010E94EE291816E1
:1033E0001CF48FE492E0D4CF2FEF3FEF4FE75FE480
:1033F000C701B6010E944D2B18161CF483E592E01C
:10340000C7CF2FEF3FEF4FE75FECC701B6010E9438
:10341000EE2987FDF3CF20E030E0A901C701B60116
:103420000E94EE2910E000E087FF0AC06DE280E70D
:1034300093E00E9449128C01F7FAF094F7F8F094A7
:10344000C0E060E070E080E09FE37C1641F020E0A7
:1034500030E040E251E40E94F329CF5FF6CFA701AC
:1034600096010E9482292B013C010E946C2A4B018B
:103470005C014AE00E9468197C01E00EF11ECC2339
:10348000C1F1C501B4010E949B2A9B01AC01C3019B
:10349000B2010E9481294B015C016EE280E793E05A
:1034A0000E944912E80EF91EC15018F120E030E0E8
:1034B00040E251E4C501B4010E94522B2B013C01B2
:1034C0000E946C2A4B01B12CA12C4AE0C501B40129
:1034D0000E946819E80EF91EC501B4010E949B2ADA
:1034E0009B01AC01C301B2010E9481294B015C0127
:1034F000DBCFC701CF911F910F91FF90EF90DF902D
:10350000CF90BF90AF909F908F907F906F905F9083
:103510004F9008958F929F92AF92BF92CF92DF9279
:10352000EF92FF920F931F93CF93DF930E943B196B
:103530008091000220E432E0811102C020E232E0FA
:10354000F0E1EF2EF12C00E110E050E040E070E0FF
:1035500060E080E793E00E94F5140E94C4184B01DC
:103560005C0120E832E044E150E070E060E080E798
:1035700093E00E94F514A4E1CA2ED12CD0927D03D1
:10358000C0927C0389E190E090937F0380937E0357
:103590008FE592E00E94AC1942E0C501B4010E949F
:1035A000AE1983E692E00E94AC190E946717EC0105
:1035B00020E632E048E250E070E060E080E793E02F
:1035C0000E94F514D0927D03C0927C038DE290E0BE
:1035D00090937F0380937E0386E692E00E94AC196D
:1035E000BE0190E080E00E949B2A20E030E040E2B3
:1035F00051E40E94F32942E00E94AE1983E692E072
:103600000E94AC190E94EB18C82F20E032E0811113
:1036100002C020EE31E0E0E1EE2EF12C00E110E0FE
:1036200044E150E06AE570E080E793E00E94F51421
:103630008EE690E090937D0380937C0389E190E097
:1036400090937F0380937E0387E592E0C11102C0CF
:103650008CE592E00E94AC1986E30E94A9082091B3
:1036600000022111CEC02AE530E030937D03209383
:103670007C032DE230E030937F0320937E0380397A
:1036800021E092070CF0B4C08AE692E00E94AC19E7
:10369000EE24E394F12C02E110E020E830E042E176
:1036A00050E070E060E080E793E00E947A13809140
:1036B0008D0390918E03892B09F4B2C02091A5034C
:1036C0003091A6034091A7035091A80360E074E2F3
:1036D00084EF90E00E94502920513109410951099D
:1036E00056954795379527952093B80064E08CED63
:1036F00091E00E94B00E8091740390917503803424
:10370000910509F0A4C060E280E793E00E94580FA1
:1037100060917403615E80E793E00E94580F2091EE
:10372000760330917703C901079697FD079633E03A
:10373000959587953A95E1F720917403309175033B
:10374000829F8001839F100D929F100D1124C091C4
:103750008F03D091900380918D0390918E030C0F75
:103760001D1F892B09F4AAC0809191030E94F606BF
:1037700080918D0390918E03DC01ED91FC9101907D
:10378000F081E02D60E41995EE24E394F12C809112
:103790008D0390918E030C171D0709F461C0B0E2F0
:1037A000EB16F104A8F00E94620D809191030E9433
:1037B000F60680918D0390918E03DC01ED91FC91D2
:1037C0000190F081E02D60E41995EE24E394F12C52
:1037D00080918D0390918E036991DC01ED91FC91B4
:1037E0000190F081E02D1995BFEFEB1AFB0ACFCFC6
:1037F000893592401CF082E792E048CF8AE792E058
:1038000045CF8AE590E090937D0380937C038DE221
:1038100090E090937F0380937E0382E892E036CF1E
:1038200080918B0390918C03892B31F08091AE03B2
:103830009091AF030E94B50FE0919F03F091A00318
:1038400090818091A4038095892380834FCF60E08D
:1038500080E793E00E94580F6091740361505BCF42
:103860000E94620D80918D0390918E03892B09F443
:1038700066C02091A9033091AA034091AB035091F7
:10388000AC0360E074E284EF90E00E945029205184
:103890003109410951095695479537952795209348
:1038A000B800DF91CF911F910F91FF90EF90DF90C3
:1038B000CF90BF90AF909F908F900895E0919D031F
:1038C000F0919E0380819091A303892B80830C1734
:1038D0001D0741F2899120918B0330918C03232B9A
:1038E00019F00E94A90EF3CF28E030E040E8E09103
:1038F0009903F0919A039091A103582F5423D9F082
:103900005081952B9083E0919B03F0919C039081D3
:103910005091A203952B9083E0919B03F0919C031F
:1039200050819091A20390959523908346952150C4
:103930003109E9F6CCCF508190959523E3CFE09102
:103940009F03F091A00380819091A403892B808331
:10395000A8CF0E94002D85ED8093BC00809160036C
:1039600090916103A0916203B09163030796A11D3A
:10397000B11D23E0B695A795979587952A95D1F720
:103980002091BC0024FD03C010925E030895409175
:103990006003509161036091620370916303452B52
:1039A000462B472B69F30097A105B10541F02AE2A8
:1039B0002A95F1F700C00197A109B109E1CF8091E3
:1039C0005F030C94ED0B1F920F920FB60F92112410
:1039D0002F933F938F939F93AF93BF9380910A034D
:1039E00090910B03A0910C03B0910D03309109034A
:1039F00023E0230F2D3758F50196A11DB11D20930B
:103A0000090380930A0390930B03A0930C03B093D4
:103A10000D0380910E0390910F03A0911003B091BC
:103A200011030196A11DB11D80930E0390930F0306
:103A3000A0931003B0931103BF91AF919F918F9109
:103A40003F912F910F900FBE0F901F90189526E871
:103A5000230F0296A11DB11DD2CF1F920F920FB658
:103A60000F9211240BB60F922F933F934F935F93B6
:103A70006F937F938F939F93AF93BF93EF93FF9336
:103A80008091B900887F803609F44DC008F040C0AD
:103A9000883209F4A9C028F5803109F49DC0C8F422
:103AA000882309F4FBC0883009F496C0FF91EF9198
:103AB000BF91AF919F918F917F916F915F914F9146
:103AC0003F912F910F900BBE0F900FBE0F901F9044
:103AD0001895883109F488C0803241F780933C03FF
:103AE00014C0803409F49DC040F48033B9F38833A6
:103AF000E9F680933C0385ECB0C0803509F485C0BD
:103B0000883509F496C0883489F60E94AB1CCECF64
:103B1000883909F48CC038F5883729F050F4883694
:103B200011F0803719F683E080935E031092ED0266
:103B300057C0883809F47BC0803919F0803809F003
:103B4000B5CF8091ED02803208F071C0E091ED02B6
:103B500081E08E0F8093ED028091BB00F0E0E35393
:103B6000FD4F80833DC0803B39F0E0F4803A09F49A
:103B700079C0883A09F09ACF84E080935E0310926E
:103B8000CC021092CB02E091F102F091F202199571
:103B90008091CB0281110FC081E08093CB02109203
:103BA000AB0209C0803C09F4A6CF883C09F4A3CF3E
:103BB000883B09F07BCFE091CC0281E08E0F8093AF
:103BC000CC02F0E0E555FD4F80818093BB009091E1
:103BD000CC028091CB0229C0809139038093BB0035
:103BE00085EC8093BC0062CF90913B0380913A03B7
:103BF000981758F5E0913B0381E08E0F80933B03CB
:103C0000F0E0E85EFC4F8081E9CFE0913B0381E08A
:103C10008E0F80933B038091BB00F0E0E85EFC4F89
:103C2000808390913B0380913A039817C8F285E80E
:103C3000D8CFE0913B0381E08E0F80933B038091CE
:103C4000BB00F0E0E85EFC4F808380913D03811172
:103C50005CCF81E08093380384EA8093BC001092AB
:103C60005E0324CF85EC8093BC0010925E038091AC
:103C7000ED02803230F4E091ED02F0E0E353FD4FCD
:103C800010826091ED0270E0E091EF02F091F0029D
:103C90008DEC92E019951092ED0208CF10923C0342
:103CA00034CFCF92DF92EF92FF920F931F93E82FC2
:103CB000F92F05C0015011092109310961F19081E5
:103CC00096239417B9F305C0015011092109310950
:103CD00011F1908196239413F7CFC12CD12CE12CB4
:103CE000F12C0AC08FEFC81AD80AE80AF80A0C1596
:103CF0001D052E053F0579F080818623841791F3F9
:103D00006C2D7D2D8E2D9F2D1F910F91FF90EF908B
:103D1000DF90CF90089560E070E080E090E01F9128
:103D20000F91FF90EF90DF90CF900895CF93DF93A6
:103D3000109267031092660388EE93E0A0E0B0E073
:103D40008093680390936903A0936A03B0936B0315
:103D500081E192E0909365038093640384E693E0AD
:103D600090930A048093090489E280930B041092D3
:103D70000D0410920C0410920E04C8E1D0E0D09310
:103D80000104C09300048AE190E0909303048093BF
:103D9000020489E190E0909305048093040481E09B
:103DA00090E0909307048093060461E088E10E940C
:103DB000960761E0809102040E94960761E080917D
:103DC00004040E94960761E0809104040E94680741
:103DD000D0930104C0930004E0ECF3E080E094E0B1
:103DE00011928E179F07E1F7D0E0C0E080910604A2
:103DF00090910704C817D90774F540E06FE0CE0131
:103E00000E9432168091060490910704C817D907C2
:103E10002CF447E06BE0CE010E94321640E069E0EE
:103E2000CE010E9432168091060490910704C817B3
:103E3000D9071CF4CE010E9490168091060490913F
:103E40000704C817D9072CF440E06CE0CE010E94AB
:103E500032162196CBCF109273031092720320E892
:103E600030E0309375032093740380E490E09093E6
:103E700077038093760330937903209378039093AC
:103E80007B0380937A031092860310927D03109235
:103E90007C0310927F0310927E0381E08093850360
:103EA000809384032FEF3FEF3093830320938203AB
:103EB00030938103209380038093870310928803BB
:103EC00010928A031092890383E292E09093710327
:103ED0008093700310928C0310928B0384E693E01E
:103EE00090938E0380938D031092900310928F0312
:103EF0008FEF809394038093950380939603809330
:103F000097038093980380E89AE1A6E0B0E080935D
:103F1000A5039093A603A093A703B093A80380EAF8
:103F200096E8A1E0B0E08093A9039093AA03A09340
:103F3000AB03B093AC0380E58093AE031092AF0364
:103F4000DF91CF910895CF93DF93CDB7DEB7A197DF
:103F50000FB6F894DEBF0FBECDBF789484B58260F3
:103F600084BD84B5816084BD85B5826085BD85B51D
:103F7000816085BD80916E00816080936E0010929B
:103F80008100809181008260809381008091810016
:103F900081608093810080918000816080938000A7
:103FA0008091B10084608093B1008091B000816005
:103FB0008093B00080919100826080939100809105
:103FC0009100816080939100809190008160809346
:103FD00090008091A10082608093A1008091A10057
:103FE00081608093A1008091A00081608093A000F7
:103FF0008091210182608093210180912101816063
:104000008093210180912001816080932001809123
:104010007A00846080937A0080917A008260809335
:104020007A0080917A00816080937A0080917A0092
:10403000806880937A001092C10060E089E00E945D
:10404000960762E082E00E94960761E083E00E94AA
:10405000960761E084E00E94960761E085E00E9497
:1040600096070E94251661E088E00E94960761E0AD
:1040700087E00E94960761E086E00E9496070E9412
:10408000181661E08EE00E94960761E08FE00E94C2
:10409000960761E080E10E94960761E081E10E945D
:1040A000960760E082E10E94960761E08EE00E9440
:1040B000680760E08FE00E94680761E083E10E948A
:1040C000960760E086E10E94960710921303109213
:1040D000120310921503109214030E94CF0B83E277
:1040E00099E09093F2028093F10284E299E0909338
:1040F000F0028093EF0284EF91E090930D0480939F
:104100000C0480EC0E94EC168E3E09F086C089E813
:104110000E94EC16682F616089E80E94490E60E0F9
:1041200088E80E94490E61E080E80E94490E61E043
:104130008FEF0E94490E60E080E00E94490E81E905
:104140000E94EC168093110461E080E00E94490E09
:1041500060E08FEF0E94490E60E080E80E94490E07
:1041600080E60E94EC16682F626180E60E94490E8C
:1041700060E270E084E40E94720E6FEF81E00E94C2
:10418000490E61E080E80E94490E61E08FEF0E94D5
:10419000490E60E080E00E94490E66E08FEF0E94C9
:1041A000490E83E80E94EC16682F646083E80E9441
:1041B000490E67E08FEF0E94490E61E081E80E949E
:1041C000490E61E080E80E94490E6BE684E90E9496
:1041D000490E60E083E80E94490E0E94170970931F
:1041E000100460930F0483E80E94EC1681113FC312
:1041F00080910C0490910D04892BA9F30E9417095A
:1042000020910F0430911004621B730B80910C04F9
:1042100090910D048617970730F7809106049091CE
:1042200007041816190634F441E06CE090E080E0D1
:104230000E94321680910604909107041816190600
:1042400034F448E06AE090E080E00E943216809109
:104250000604909107041816190624F490E080E0F3
:104260000E94901680918F0390919003892B11F5F5
:104270002091760330917703C901079697FD079641
:1042800023E0959587952A95E1F720917403309165
:104290007503AC01429FC001439F900D529F900D4A
:1042A00011240E94DB2B9093900380938F03892B22
:1042B00009F46EC70E943B198091760390917703B1
:1042C0006091740370917503AC0181970CF443C63F
:1042D0004054510957FF02C04F5F5F4F55954795B6
:1042E0006255710977FF02C06F5F7F4F75956795C3
:1042F00010E4E12EF12C02E510E022EA39E080E73B
:1043000093E00E94F51482E08093920380918D03E4
:1043100090918E03892B09F436C68CE38093910328
:1043200010921303109212031092150310921403AB
:104330000E94CF0B83E299E09093F2028093F10206
:1043400084E299E09093F0028093EF0280919803C9
:1043500087FD1EC061E00E94960761E0809198038E
:104360000E94680761E070E080E090E00E94E5084C
:1043700060E0809198030E9468076AE070E080E046
:1043800090E00E94E50861E0809198030E94680730
:1043900080918D0390918E03892B09F4B3C62091EF
:1043A000A5033091A6034091A7035091A80360E0B4
:1043B00074E284EF90E00E945029205131094109B4
:1043C000510956954795379527952093B80064E095
:1043D0008EEB97E00E94B00E60917603615080E70B
:1043E00093E00E94580F64E08AEB97E00E94B00EC1
:1043F0008091920360E1813009F064E180E793E00D
:104400000E94580F64E086EB97E00E94B00E8FE8A0
:104410008093AD038091740390917503803891056A
:1044200009F087C6809176039091770380349105D7
:1044300009F08FC680919203813009F09DC68FE903
:104440008093AD0312E16AED80E793E00E94580F7C
:10445000612F80E793E00E94580F61E880E793E0C6
:104460000E94580F6091AD0380E793E00E94580FBF
:1044700069ED80E793E00E94580F8091920362E219
:10448000813009F061EF80E793E00E94580F66E009
:1044900080EB97E00E94B00E80918D0390918E0387
:1044A000892B09F46BC62091A9033091AA0340918E
:1044B000AB035091AC0360E074E284EF90E00E94A3
:1044C0005029205131094109510956954795379591
:1044D00027952093B80081E080938403809385031F
:1044E00081E090E090938303809382039093810313
:1044F0008093800388248A9493E0992EA12CB12C78
:1045000020E8C22ED12C30E0632E30E0732E86E3FB
:104510000E94A9088C01909306028093050287E30C
:104520000E94A9087C019093040280930302809169
:104530000604909107041816190624F490E080E010
:104540000E9490168091060490910704181619068F
:1045500094F59801A9EFBFEF0E94CC2BA50194011F
:104560000E941E2919012A0187E0280E311C411CD6
:10457000511CA8E02A163104F0F427E030E0D701FE
:104580000E94D42BA50194010E941E2928303105D8
:1045900090F4C60102C0959587952A95E2F7F1013E
:1045A000E055FC4F4089482B408B61E0620D90E064
:1045B00080E00E943216EFE9FCE08491E5E4FDE042
:1045C0001491EFEFFCE00491002309F43BC081114A
:1045D0000E940107E02FF0E0EE0FFF1FE452F34FBF
:1045E000A591B4918C91182369F1109100020E9459
:1045F00017092091F3023091F4024091F502509195
:10460000F602621B730B840B950B653171058105F6
:104610009105C0F081E01827109300020E9417094D
:104620006093F3027093F4028093F5029093F60284
:104630000E948A1A80910002882341F00E94251668
:104640000E9418168091000281110AC10E94170968
:104650000091050310910603209107033091080390
:10466000601B710B820B930B653171058105910500
:10467000D8F00E94EB18182F809304030E941709AA
:1046800060930503709306038093070390930803D8
:10469000112351F080910303811106C00E948A1AF0
:1046A00080910403809303030E9417090091FF0285
:1046B000109100032091010330910203601B710BE4
:1046C000820B930B653171058105910580F10E9484
:1046D000C4181B012C0120E030E0A9010E944D2BE1
:1046E00010E0181664F420E030E040EA51E4C20122
:1046F000B1010E94EE29182F111F1127111F1093CD
:10470000FE020E9417096093FF02709300038093DA
:10471000010390930203112351F08091FD02811156
:1047200006C00E948A1A8091FE028093FD020E94B8
:1047300017090091F9021091FA022091FB023091C1
:10474000FC02601B710B820B930B653171058105B7
:104750009105D8F10E946717BC0190E080E00E94AB
:104760009B2A20E030E040E251E40E94F3291B0143
:104770002C0120E030E0A9010E944D2B10E018161A
:1047800064F420E030E040EF51E4C201B1010E9446
:10479000EE29182F111F1127111F1093F8020E94E4
:1047A00017096093F9027093FA028093FB029093C9
:1047B000FC02112351F08091F702811106C00E9482
:1047C0008A1A8091F8028093F702209105023091B5
:1047D0000602A2E0BEEF0E94CC2BA50194010E942C
:1047E0001E2919012A01FFEF2F0E311C411C511CFB
:1047F000C101CB968737910508F0CBC40E942516DE
:1048000080910302909104022091010230910202F2
:104810007C01E21AF30A9093020280930102B7012D
:10482000F7FE04C0662777276E197F09072E000C54
:10483000880B990B0E949D2A20E030E040E85EE35F
:104840000E94522B0E94652A6F3071050CF0CBC478
:104850000E94181664E170E080E090E00E94E50894
:104860006114710409F453CE0E94000050CE61E03F
:1048700083E80E94490E82E90E94EC16F82EE89423
:10488000F7F8D82EDD1CDD24DD1C60E081E80E94F5
:10489000490E66E08FEF0E94490E83E80E94EC16F5
:1048A000682F6B7F83E80E94490E61E08FEF0E94C2
:1048B000490E61E080E00E94490E60E08FEF0E94A7
:1048C000490E60E080E80E94490E80910B040E942E
:1048D000F6068091090490910A04DC01ED91FC91A7
:1048E0000190F081E02D60EB199580910904909181
:1048F0000A040E94620D8093080466E080910B0414
:104900000E940E0C10921303809312038E01095E15
:104910001F4F580187E0E82EEA94EE2079F080914D
:10492000090490910A04DC01ED91FC910284F38565
:10493000E02D1995F50181935F01EECF61E08FEFD6
:104940000E94490E60E08FE40E94490E6CE28EE402
:104950000E94490E60E08FEF0E94490E64EB86EBE7
:104960000E94490EBCE0EB2ED11001C0E12C90E07A
:1049700080E0E1E0F0E0482F46954695469550E00E
:104980009801240F351FD9012C91682F67708E155F
:1049900010F0F91234C0400F511FDF0102C0AA0FFE
:1049A000BB1F6A95E2F7BD0160952623DA012C93BF
:1049B0008F5F803301F780910B040E94F60680918F
:1049C000090490910A04DC01ED91FC910190F081C1
:1049D000E02D60EB1995A7E0FA2E809109049091E3
:1049E0000A04FA94FF20A9F0F80161918F01DC011B
:1049F000ED91FC910190F081E02D1995EECF30E022
:104A000002C0359527956A95E2F720FFD1CF9F5FC9
:104A1000CFCF0E94620D8093080461E08FEF0E9467
:104A2000490E60E080E00E94490E60E08FEF0E9436
:104A3000490E60E089E00E94490E60E080E10E943A
:104A4000490E60E081E10E94490E61E084E20E942B
:104A5000490E6FEF85E20E94490E60E085E70E94F3
:104A6000490E61E08FEF0E94490E6CE28EE40E94D5
:104A7000490E60E088E40E94490E60E280E30E94F3
:104A8000490E60E08FEF0E94490E69E080E30E94CA
:104A9000490E60E084E50E94490E64E081E30E94D3
:104AA000490E63E082E30E94490E63E880E40E94BD
:104AB000490E65E286E40E94490E60E080E60E94AD
:104AC000490E60E087E20E94490E66E080E50E94A0
:104AD000490E60E081E50E94490E66E982E50E9488
:104AE000490E68E086E50E94490E60E387E50E9472
:104AF000490E60E081E60E94490E60E082E60E9475
:104B0000490E60E084E60E94490E60E085E60E945E
:104B1000490E60EA86E60E94490E61E08FEF0E942E
:104B2000490E62E382E20E94490E64E187E40E943A
:104B3000490E6FEF89E40E94490E60E08AE40E940A
:104B4000490E60E08FEF0E94490E6AE08AE70E94FA
:104B5000490E60E08BE70E94490E61E288E70E94FF
:104B6000490E61E08FEF0E94490E64E383E20E94E8
:104B7000490E60E082E40E94490E6FEF84E40E94D7
:104B8000490E66E285E40E94490E65E086E40E94D3
:104B9000490E60E480E40E94490E66E08EE00E94C7
:104BA000490E6AE180E20E94490E60E483E40E94BB
:104BB000490E60E08FEF0E94490E63E084E30E949B
:104BC000490E64E485E30E94490E61E08FEF0E9484
:104BD000490E64E081E30E94490E69E08BE40E9483
:104BE000490E65E08CE40E94490E64E08DE40E9469
:104BF000490E60E08FEF0E94490E60E084E40E945D
:104C0000490E60E285E40E94490E68E087E40E9454
:104C1000490E68E288E40E94490E60E087E60E943F
:104C2000490E64E080E70E94490E61E081E70E943E
:104C3000490E6EEF82E70E94490E60E086E70E940F
:104C4000490E60E087E70E94490E61E08FEF0E9405
:104C5000490E61E08DE00E94490E60E08FEF0E94F6
:104C6000490E61E080E80E94490E68EF81E00E94F1
:104C7000490E61E08FEF0E94490E61E08EE80E94CC
:104C8000490E61E080E00E94490E60E08FEF0E94D3
:104C9000490E60E080E80E94490E64E08AE00E94CC
:104CA000490E84E80E94EC16682F6F7E84E80E940B
:104CB000490E61E08BE00E94490ECE014D960E94A4
:104CC0001917BE016F5F7F4FCE014D960E94DD1711
:104CD0008D8D882309F4F3C08B859C85AD85BE85B9
:104CE0008C57924FAF4FBF4F2F8D222309F4ECC04A
:104CF0004B855C856D857E854E545D4F6F4F7F4F34
:104D0000440F551F661F771F840F951FA61FB71FDF
:104D100028A1222361F04F85588969897A894C56E8
:104D20005D4F6F4F7F4F840F951FA61FB71F29A19F
:104D3000222361F04B895C896D897E894A5D5D4FD4
:104D40006F4F7F4F840F951FA61FB71F80931204CC
:104D500090931304A0931404B093150468EE81E0BB
:104D60000E94490EC0901204D0901304E0901404E5
:104D7000F0901504CE014D960E941917BE016F5F89
:104D80007F4FCE014D960E94DD178D8D882309F44B
:104D9000A8C08B859C85AD85BE858C57924FAF4F43
:104DA000BF4F2F8D222309F4A1C04B855C856D85F3
:104DB0007E854E545D4F6F4F7F4F440F551F661FCA
:104DC000771F840F951FA61FB71F18A1112361F02D
:104DD0004F85588969897A894C565D4F6F4F7F4F4F
:104DE000840F951FA61FB71F29A1222309F49AC07B
:104DF0002C013D01E6E24E0EE2E05E1E611C711CDC
:104E0000C414D504E604F70408F48CC0AB81B0E008
:104E100020E03FE24AE350E00E943D294B015C0163
:104E2000F4EF8F0EF1E09F1EA11CB11CA7019601AB
:104E30002419350946095709A8EEB3E00E943D2917
:104E40002B013C01C501B40120ED37E040E050E00A
:104E50000E945029420E531E641E751EC501B401E6
:104E600028EE33E040E050E00E945029C301B20137
:104E70000E945029112331F08F819885280F391F06
:104E8000411D511D70E060E02115310541055105BE
:104E9000F1F189019A01015011092109310970E0EC
:104EA00060E0D901C8018827892B8A2B8B2B59F107
:104EB00036952795179507956F5F7F4FF2CF86E35D
:104EC0009BE0A0E0B0E010CF2E8D222309F420CF8C
:104ED0004B855C856D857E854C565D4F6F4F7F4F52
:104EE00013CF86E39BE0A0E0B0E05BCF2E8D2223C2
:104EF00009F46BCF4B855C856D857E854C565D4F87
:104F00006F4F7F4F5ECF762F6627602B712B81E727
:104F10000E94720EC0921204D0921304E092140404
:104F2000F092150461E081E00E94490E80E40E9445
:104F30003617882309F471C962E081E00E94490EA6
:104F400080E00E943617882309F467C968EE81E083
:104F50000E94490E62C94052510957FF02C04F5F7B
:104F60005F4F559547956357710977FF02C06F5F93
:104F70007F4F75956795F0E2EF2EF12C03E710E077
:104F800022EC37E0BCC961E0809196030E9496074D
:104F900061E0809197030E94960780919603082E06
:104FA000000C990BFC01EA50F34FE491F0E0EE0F96
:104FB000FF1FE458F34F2591349130939E032093C3
:104FC0009D03FC01E45CF24FE491E093A303809124
:104FD0009703082E000C990BFC01EA50F34FE49163
:104FE000F0E0EE0FFF1FE458F34FA591B491B0939A
:104FF000A003A0939F03FC01E45CF24FE491E093D3
:10500000A4038C91E82BEC9380918B0390918C03FB
:10501000892B09F434C01FB7F8948091EE028111F6
:1050200027C0EBE2FDE08491E1E7FDE09491E82FF9
:10503000F0E0EE0FFF1FEE59F34FA591B491EC9104
:10504000E92321F461E085E30E94680761E085E3DC
:105050000E9496078CB580618CBD8CB580648CBD38
:1050600061E084E30E94960761E083E30E94960773
:105070008091EE028F5F8093EE021FBF67C961E0EF
:10508000809194030E94960761E0809195030E94AD
:10509000960780919403082E000C990BFC01EA50AE
:1050A000F34FE491F0E0EE0FFF1FE458F34F25912A
:1050B000349130939A0320939903FC01E45CF24FFE
:1050C000E491E093A10380919503082E000C990BC5
:1050D000FC01EA50F34FE491F0E0EE0FFF1FE458BB
:1050E000F34FA591B491B0939C03A0939B03FC0153
:1050F000E45CF24FE491E093A2038C91E095E82305
:10510000EC9324C980918B0390918C03892B31F00F
:105110008091AE039091AF030E94B50FE0919F0381
:10512000F091A00390818091A403809589238083CE
:105130004EC98036910589F480917603909177036A
:10514000409739F480919203813029F480E1809373
:10515000AD0312E078C98FEAFACF80349105C9F720
:105160008091760390917703809799F780919203CD
:10517000813011F480E164C98FEC62C9E0919F0332
:10518000F091A00380819091A403892B8083A3C90F
:10519000FFCF12141304B4F48091040381112ECBB9
:1051A0008091FE0281112ACB61E083E00E946807B2
:1051B00060E084E00E946807B101772785E00E94E3
:1051C000D2071ECB8091F802811118CB60E083E0FA
:1051D0000E94680761E084E00E94680766277727DD
:1051E00062197309EACF8B01693C710514F008EC70
:1051F00010E01E141F046CF461E088E00E94680750
:1052000060E087E00E946807B80186E00E94D2074C
:1052100021CB60E088E00E94680761E0F2CF83E282
:1052200092E0909371038093700380918F0390912B
:105230009003009711F00C94772C0895052E97FB9E
:105240001EF400940E94352957FD07D00E94502972
:1052500007FC03D04EF40C943529509540953095B9
:1052600021953F4F4F4F5F4F0895909580957095D2
:1052700061957F4F8F4F9F4F08950E947229A59F80
:10528000900DB49F900DA49F800D911D1124089541
:10529000B7FF0C943D290E943D29821B930B089572
:1052A000A1E21A2EAA1BBB1BFD010DC0AA1FBB1F2A
:1052B000EE1FFF1FA217B307E407F50720F0A21B9C
:1052C000B30BE40BF50B661F771F881F991F1A9409
:1052D00069F760957095809590959B01AC01BD0133
:1052E000CF010895A29FB001B39FC001A39F700D8D
:1052F000811D1124911DB29F700D811D1124911DDE
:1053000008955058BB27AA270E9499290C94132B63
:105310000E94052B38F00E940C2B20F039F49F3F9F
:1053200019F426F40C94022B0EF4E095E7FB0C9490
:10533000FC2AE92F0E94242B58F3BA17620773073F
:105340008407950720F079F4A6F50C94462B0EF40B
:10535000E0950B2EBA2FA02D0B01B90190010C0185
:10536000CA01A0011124FF27591B99F0593F50F49D
:10537000503E68F11A16F040A22F232F342F4427F5
:10538000585FF3CF469537952795A795F0405395ED
:10539000C9F77EF41F16BA0B620B730B840BBAF0BD
:1053A0009150A1F0FF0FBB1F661F771F881FC2F728
:1053B0000EC0BA0F621F731F841F48F4879577953C
:1053C0006795B795F7959E3F08F0B0CF9395880FF6
:1053D00008F09927EE0F9795879508950E94D82A8F
:1053E00008F481E008950E94072A0C94132B0E9470
:1053F0000C2B58F00E94052B40F029F45F3F29F058
:105400000C94FC2A51110C94472B0C94022B0E94F3
:10541000242B68F39923B1F3552391F3951B550B76
:10542000BB27AA2762177307840738F09F5F5F4F77
:10543000220F331F441FAA1FA9F335D00E2E3AF0B6
:10544000E0E832D091505040E695001CCAF72BD0CE
:10545000FE2F29D0660F771F881FBB1F261737071F
:105460004807AB07B0E809F0BB0B802DBF01FF2751
:1054700093585F4F3AF09E3F510578F00C94FC2A08
:105480000C94472B5F3FE4F3983ED4F386957795D1
:105490006795B795F7959F5FC9F7880F911D96950A
:1054A000879597F90895E1E0660F771F881FBB1F66
:1054B000621773078407BA0720F0621B730B840B13
:1054C000BA0BEE1F88F7E09508950E946C2A689445
:1054D000B1110C94472B08950E942C2B88F09F57F4
:1054E00098F0B92F9927B751B0F0E1F0660F771F08
:1054F000881F991F1AF0BA95C9F714C0B13091F0FE
:105500000E94462BB1E008950C94462B672F782F0C
:105510008827B85F39F0B93FCCF3869577956795C2
:10552000B395D9F73EF490958095709561957F4F2E
:105530008F4F9F4F0895E89409C097FB3EF49095D4
:105540008095709561957F4F8F4F9F4F9923A9F05C
:10555000F92F96E9BB279395F695879577956795EB
:10556000B795F111F8CFFAF4BB0F11F460FF1BC02F
:105570006F5F7F4F8F4F9F4F16C0882311F096E9C2
:1055800011C0772321F09EE8872F762F05C0662370
:1055900071F096E8862F70E060E02AF09A95660F29
:1055A000771F881FDAF7880F9695879597F90895E2
:1055B000990F0008550FAA0BE0E8FEEF1616170624
:1055C000E807F907C0F012161306E407F50798F08C
:1055D000621B730B840B950B39F40A2661F0232BA5
:1055E000242B252B21F408950A2609F4A140A69521
:1055F0008FEF811D811D089597F99F6780E870E006
:1056000060E008959FEF80EC089500240A94161638
:10561000170618060906089500240A9412161306A0
:10562000140605060895092E0394000C11F488232E
:1056300052F0BB0F40F4BF2B11F460FF04C06F5F4A
:105640007F4F8F4F9F4F089557FD9058440F551F20
:1056500059F05F3F71F04795880F97FB991F61F0F4
:105660009F3F79F087950895121613061406551F6B
:10567000F2CF4695F1DF08C0161617061806991FD7
:10568000F1CF86957105610508940895E894BB27CC
:1056900066277727CB0197F908950E94D82A08F446
:1056A0008FEF08950E94652B0C94132B0E94052BFD
:1056B00038F00E940C2B20F0952311F00C94FC2A5A
:1056C0000C94022B11240C94472B0E94242B70F372
:1056D000959FC1F3950F50E0551F629FF001729F97
:1056E000BB27F00DB11D639FAA27F00DB11DAA1FA6
:1056F000649F6627B00DA11D661F829F2227B00DF3
:10570000A11D621F739FB00DA11D621F839FA00D7D
:10571000611D221F749F3327A00D611D231F849FCD
:10572000600D211D822F762F6A2F11249F57504024
:105730009AF0F1F088234AF0EE0FFF1FBB1F661F9F
:10574000771F881F91505040A9F79E3F510580F068
:105750000C94FC2A0C94472B5F3FE4F3983ED4F35F
:10576000869577956795B795F795E7959F5FC1F70C
:10577000FE2B880F911D9695879597F908950E94A5
:10578000D82A880B990B0895EE0FFF1F881F8BBF37
:105790000790F691E02D19940E947229332312F498
:1057A0008A1B9B0B0C94D62B0E947229B7FF08957D
:1057B000821B930B08950F931F93CF93DF93823037
:1057C000910510F482E090E0E0911804F091190442
:1057D00030E020E0B0E0A0E0309799F421153105E9
:1057E00009F44AC0281B390B24303105D8F58A81C9
:1057F0009B816115710589F1FB0193838283FE0111
:1058000011C0408151810281138148175907E0F08E
:105810004817590799F4109761F012960C93129754
:1058200013961C933296CF01DF91CF911F910F9168
:1058300008950093180410931904F4CF211531052D
:1058400051F04217530738F0A901DB019A01BD015D
:10585000DF01F801C1CFEF01F9CF909319048093D4
:105860001804CDCFFE01E20FF31F819391932250D4
:10587000310939832883D7CF20911604309117043A
:10588000232B41F42091090230910A02309317042E
:10589000209316042091070230910802211531054A
:1058A00041F42DB73EB740910B0250910C02241BDE
:1058B000350BE0911604F0911704E217F307A0F4FA
:1058C0002E1B3F0B2817390778F0AC014E5F5F4F56
:1058D0002417350748F04E0F5F1F5093170440936D
:1058E0001604819391939FCFF0E0E0E09CCFCF939B
:1058F000DF930097E9F0FC01329713821282A091A6
:105900001804B0911904ED0130E020E01097A1F4E3
:1059100020813181820F931F20911604309117044A
:105920002817390709F061C0F0931704E0931604B3
:10593000DF91CF910895EA01CE17DF07E8F54A819C
:105940005B819E0141155105B1F7E901FB83EA83B3
:1059500049915991C40FD51FEC17FD0761F480815F
:1059600091810296840F951FE90199838883828132
:1059700093819B838A83F0E0E0E012968D919C9165
:1059800013970097B9F52D913C911197CD0102968F
:10599000820F931F2091160430911704281739079E
:1059A00039F6309751F51092190410921804B093FB
:1059B0001704A0931604BCCFD383C28340815181C6
:1059C000840F951FC817D90761F44E5F5F4F888118
:1059D0009981480F591F518340838A819B8193830A
:1059E00082832115310509F0B0CFF0931904E093BB
:1059F00018049ECFFD01DC01C0CF13821282D7CFE5
:105A000081E090E0F8940C940C2DDC0101C06D93C2
:105A100041505040E0F7089516E0C2ECD6E000E0B7
:105A200006C0802FFE010E94C42B2196011DC33C9D
:105A3000D10780E00807A9F7F894FFCF0100020022
:105A400002000200001A04800000000000330D066E
:105A50000D15160007FF0CEC0CDD0C0000000049D2
:105A600012250915161416F90A0007EE14C614E2D9
:105A700014D614681500070F10B80F690AB20A0F80
:105A800014F2137A131B136E616E00696E66006F59
:105A900076660053544F5000474F00463A2000634B
:105AA0006D00523A20005245564552534500464F2C
:105AB00052574152440053544F50504544004C4FAC
:065AC000434B45440000C9
:020000040003F7
:10E000000D9489F10D94B2F10D94B2F10D94B2F129
