:100000000C9446010C9467010C9467010C946701F1
:100010000C9467010C9467010C9467010C946701C0
:100020000C9467010C9467010C9467010C946701B0
:100030000C9467010C9467010C9467010C946701A0
:100040000C9467010C9467010C9467010C94670190
:100050000C9467010C9467010C9467010C94810364
:100060000C9467010C9467010C9467010C94670170
:100070000C9467010C9467010C9467010C94670160
:100080000C9467010C9467010C9467010C94670150
:100090000C9467010C9467010C9467010C94670140
:1000A0000C9467010C9467010C9467010C94670130
:1000B0000C9467010C9467010C9467010C94670120
:1000C0000C9467010C9467010C9467010C94670110
:1000D0000C9467010C9467010C9467010C94670100
:1000E0000C9467010C9471020C9403030C94CF01DF
:1000F0000C94E5010C94DD010C9480020C949901A0
:100100000C94EF010C94F9020C9494020C949C0250
:100110000C94D1020C94C5010C94E5020C94D3010B
:100120000C94A4020C94D7010C94B8010C94B8025E
:100130000C94EF020C94E1010C94AE020C94C202F8
:100140000C949E010C948A020C94B4010C946902E4
:100150000C94DB020C94C9010C94B0010C9476024F
:100160000C94EB010C94BF010C94BC010000210025
:10017000240027002A002D00300033000101000078
:10018000040107010A0100002200250028002B00BD
:100190002E003100340002010000050108010B01AE
:1001A00000000A0B02090C0D0E08070304010000F1
:1001B000000000000000000000000000000000003F
:1001C00000000000000000000000000012111000FC
:1001D000000000000000000000000000000000001F
:1001E000000000000000000020002300260029007D
:1001F0002C002F003200000100000301060109015C
:1002000005050505070508080808020202020A0A92
:1002100008080404040401010101010101010303B0
:10022000030303030303040707070C0C0C0C0C0C5B
:100230000C0C0202020206060606060606060B0B58
:100240000B0B0B0B0B0B0102102020080810204099
:10025000102040800201020108040201010204088A
:100260001020408080402010080402018004020118
:100270008040201008040201080402010102040861
:1002800010204080010204081020408011241FBE6D
:10029000CFEFD1E2DEBFCDBF00E00CBF12E0A0E0A7
:1002A000B2E0ECE6FFE000E00BBF02C007900D9269
:1002B000A630B107D9F722E0A6E0B2E001C01D9256
:1002C000A531B207E1F70E9410040C94B4070C9416
:1002D0000000282F30E0F901E056FE4F9491F9011B
:1002E000EA5BFD4F449120503E4FF90124912223B7
:1002F00009F435C0992311F191509231F8F4E92FA6
:10030000F0E08827E957FE4F8F4F0C949D07B80106
:10031000BC019901B001B4019E01BF01C501C90131
:10032000CF01D301D701DD01E1019E01E501EB0120
:10033000EF01809180008F7780938000E22FF0E0C2
:10034000EE0FFF1FEA57FE4FA591B4918FB7F894B7
:10035000EC91611148C040954E234C938FBF089596
:10036000809180008F7DE8CF80918000877FE4CFEF
:1003700084B58F7784BDE2CF84B58F7DFBCF80912C
:10038000B0008F778093B000D9CF8091B0008F7D7F
:10039000F9CF809190008F7780939000CFCF80919C
:1003A00090008F7DF9CF80919000877FF5CF80916D
:1003B000A0008F778093A000C1CF8091A0008F7D97
:1003C000F9CF8091A000877FF5CF809120018F77B2
:1003D00080932001B3CF809120018F7DF9CF809150
:1003E0002001877FF5CF4E2BB8CFCF93DF9390E0DE
:1003F000FC01EA5BFD4F249180509E4FFC018491EB
:100400008823C9F090E0880F991FFC01E459FE4F42
:10041000A591B491FC01EA57FE4FC591D4916111A9
:100420000DC09FB7F8948C91209582238C9388817E
:10043000282328839FBFDF91CF910895623051F424
:100440009FB7F8943C91822F809583238C93E88109
:100450002E2BEFCF8FB7F894EC912E2B2C938FBFD0
:10046000EACF1F93CF93DF93182FEB0161E00E9437
:10047000F501209739F460E0812FDF91CF911F9132
:100480000C946901CF3FD10511F461E0F5CFE12F64
:10049000F0E0E056FE4FE491E150E23108F0B3C0E5
:1004A000F0E08827E95AFD4F8F4F0C949D076902B1
:1004B0007102760280028A02030394029C02A40263
:1004C000AE02B802C202D102DB020303E502EF0270
:1004D000F90284B5806884BDC7BDDF91CF911F91BB
:1004E000089584B5806284BDC8BDF7CF8091800037
:1004F000806880938000D0938900C0938800EDCFFE
:1005000080918000806280938000D0938B00C093A4
:100510008A00E3CF80918000886080938000D09330
:100520008D00C0938C00D9CF8091B00080688093FB
:10053000B000C093B300D1CF8091B00080628093AF
:10054000B000C093B400C9CF8091900080688093C0
:100550009000D0939900C0939800BFCF80919000F5
:10056000806280939000D0939B00C0939A00B5CF97
:1005700080919000886080939000D0939D00C093FC
:100580009C00ABCF8091A00080688093A0008091F8
:10059000A0008F7B8093A000D093A900C093A800F7
:1005A0009CCF8091A00080628093A000D093AB008C
:1005B000C093AA0092CF8091A00088608093A00091
:1005C000D093AD00C093AC0088CF809120018068AB
:1005D00080932001D0932901C09328017ECF809180
:1005E0002001806280932001D0932B01C0932A01C7
:1005F00074CF80912001886080932001D0932D01D9
:10060000C0932C016ACFC038D1050CF03ECF33CF58
:1006100090917B00977F90937B00865380648093BA
:100620007C0080917A00806480937A0080917A00C7
:1006300086FDFCCF809178009091790008953FB7B6
:10064000F8948091110290911202A0911302B0913E
:10065000140226B5A89B05C02F3F19F00196A11DD5
:10066000B11D3FBFBA2FA92F982F8827BC01CD01FC
:10067000620F711D811D911D42E0660F771F881F5B
:10068000991F4A95D1F7089560E088E00E946901BA
:1006900060E087E00E94690170E060E086E00C9411
:1006A000310260E083E00E94690160E084E00E9422
:1006B000690170E060E085E00C9431020F931F93B4
:1006C000EFE4F2E06491E9E0F2E0E491F0E0EE0FB3
:1006D000FF1FEA51FE4F8591949100E412E42FE050
:1006E00030E040E00E94CB03611571058105910562
:1006F00029F06F5F7F4F8F4F9F4F9F701F910F911A
:1007000008951F920F920FB60F9211242F933F93CB
:100710008F939F93AF93BF9380910D0290910E02A0
:10072000A0910F02B091100230910C0223E0230F30
:100730002D3758F50196A11DB11D20930C02809311
:100740000D0290930E02A0930F02B09310028091BD
:10075000110290911202A0911302B091140201961D
:10076000A11DB11D8093110290931202A093130258
:10077000B0931402BF91AF919F918F913F912F91B0
:100780000F900FBE0F901F90189526E8230F02962A
:10079000A11DB11DD2CFCF92DF92EF92FF920F93A6
:1007A0001F93E82FF92F05C00150110921093109C4
:1007B00061F1908196239417B9F305C00150110996
:1007C0002109310911F1908196239413F7CFC12C9F
:1007D000D12CE12CF12C0AC08FEFC81AD80AE80AF4
:1007E000F80A0C151D052E053F0579F0808186233A
:1007F000841791F36C2D7D2D8E2D9F2D1F910F91C0
:10080000FF90EF90DF90CF90089560E070E080E07F
:1008100090E01F910F91FF90EF90DF90CF9008959F
:10082000789484B5826084BD84B5816084BD85B5CB
:10083000826085BD85B5816085BD80916E008160D7
:1008400080936E001092810080918100826080937D
:10085000810080918100816080938100809180007F
:100860008160809380008091B10084608093B100AA
:100870008091B00081608093B0008091910082608F
:10088000809391008091910081608093910080918C
:1008900090008160809390008091A100826080939D
:1008A000A1008091A10081608093A1008091A000AF
:1008B00081608093A000809121018260809321015A
:1008C00080912101816080932101809120018160CC
:1008D0008093200180917A00846080937A008091D7
:1008E0007A00826080937A0080917A0081608093A0
:1008F0007A0080917A00806880937A001092C1001B
:1009000062E082E00E94F50161E083E00E94F5016F
:1009100061E084E00E94F50161E085E00E94F5015C
:100920000E94510361E088E00E94F50161E087E0E8
:100930000E94F50161E086E00E94F5010E944403F7
:1009400061E08AE00E94F50161E08BE00E94F50120
:1009500061E08CE00E94F50161E08DE00E94F5010C
:1009600060E089E00E94F50161E08AE00E9469018F
:1009700060E08BE00E94690144244A9493E0592E80
:10098000612C712C00E010E02FB7F89480910D02DB
:1009900090910E02A0910F02B09110022FBF4091D2
:1009A0000702509108026091090270910A02841BAB
:1009B000950BA60BB70B893C9105A105B10508F471
:1009C0005BC060E08CE00E94690160E08DE00E9405
:1009D00069010E945E036B01EB0161E08CE00E9403
:1009E000690161E08DE00E9469010E945E034B0194
:1009F00080E0E297ECF4B601DD0C880B990B0E94C5
:100A000080066B017C01B401990C880B990B0E9444
:100A1000800623E333E343E35FE30E9408079B017F
:100A2000AC01C701B6010E944306881F8827881FB2
:100A300080930B022FB7F89480910D0290910E02D3
:100A4000A0910F02B09110022FBF809307029093E4
:100A50000802A0930902B0930A0280910B02882336
:100A600059F00E9451030E944403809106028111B3
:100A700003C081E080930602B0900B0286E30E94DF
:100A800008037C01909301028093000287E30E9497
:100A90000803EC0190930502809304029701A2E001
:100AA000BEEF0E94A507A30192010E94F305690110
:100AB0007A018FEFC80ED11CE11CF11CC601CB9648
:100AC0008737910508F053C00E94510380910202BC
:100AD000909103027E01E81AF90AD0930302C093B1
:100AE0000202B701F7FE04C0662777276E197F0957
:100AF000072E000C880B990B0E94800620E030E046
:100B000040E85EE30E9408070E9448066F307105C6
:100B10000CF04DC00E9444030E941F034B015C0176
:100B200084E1C82ED12CE12CF12C0E941F036819FE
:100B300079098A099B09683E734081059105A8F3EC
:100B400021E0C21AD108E108F10888EE880E83E09E
:100B5000981EA11CB11CC114D104E104F10429F7B1
:100B60000115110509F410CF0E9400000DCF1C14CF
:100B70001D0484F4B110A8CF61E083E00E946901F4
:100B800060E084E00E946901B601772785E00E9459
:100B900031029CCF60E083E00E94690161E084E063
:100BA0000E946901662777276C197D09EECFEB015A
:100BB000693C710514F0C8ECD0E01E141F046CF4FD
:100BC00061E088E00E94690160E087E00E946901BD
:100BD000BE0186E00E9431029FCF60E088E00E9463
:100BE000690161E0F2CF052E97FB1EF400940E948C
:100BF0000A0657FD07D00E94120607FC03D04EF4E8
:100C00000C940A0650954095309521953F4F4F4FD3
:100C10005F4F089590958095709561957F4F8F4FA8
:100C20009F4F0895A1E21A2EAA1BBB1BFD010DC008
:100C3000AA1FBB1FEE1FFF1FA217B307E407F5078C
:100C400020F0A21BB30BE40BF50B661F771F881F68
:100C5000991F1A9469F760957095809590959B01FE
:100C6000AC01BD01CF010895A29FB001B39FC001A7
:100C7000A39F700D811D1124911DB29F700D811DC8
:100C80001124911D08950E94BB0608F481E0089587
:100C90000E944F066894B1110C94020708950E94B7
:100CA000E70688F09F5798F0B92F9927B751B0F011
:100CB000E1F0660F771F881F991F1AF0BA95C9F7E0
:100CC00014C0B13091F00E940107B1E008950C9476
:100CD0000107672F782F8827B85F39F0B93FCCF329
:100CE000869577956795B395D9F73EF4909580955D
:100CF000709561957F4F8F4F9F4F0895E89409C07D
:100D000097FB3EF490958095709561957F4F8F4F3E
:100D10009F4F9923A9F0F92F96E9BB279395F69554
:100D2000879577956795B795F111F8CFFAF4BB0FD2
:100D300011F460FF1BC06F5F7F4F8F4F9F4F16C036
:100D4000882311F096E911C0772321F09EE8872FC0
:100D5000762F05C0662371F096E8862F70E060E07C
:100D60002AF09A95660F771F881FDAF7880F9695F5
:100D7000879597F90895990F0008550FAA0BE0E899
:100D8000FEEF16161706E807F907C0F0121613064D
:100D9000E407F50798F0621B730B840B950B39F48D
:100DA0000A2661F0232B242B252B21F408950A26F3
:100DB00009F4A140A6958FEF811D811D089557FD6F
:100DC0009058440F551F59F05F3F71F04795880FB9
:100DD00097FB991F61F09F3F79F087950895121650
:100DE00013061406551FF2CF4695F1DF08C01616FC
:100DF00017061806991FF1CF8695710561050894AD
:100E00000895E894BB2766277727CB0197F90895C3
:100E10000E941B070C948C070E947E0738F00E94EA
:100E2000850720F0952311F00C9475070C947B072F
:100E300011240C9402070E94DF0670F3959FC1F302
:100E4000950F50E0551F629FF001729FBB27F00D78
:100E5000B11D639FAA27F00DB11DAA1F649F6627CD
:100E6000B00DA11D661F829F2227B00DA11D621F1C
:100E7000739FB00DA11D621F839FA00D611D221FD6
:100E8000749F3327A00D611D231F849F600D211DBA
:100E9000822F762F6A2F11249F5750409AF0F1F03D
:100EA00088234AF0EE0FFF1FBB1F661F771F881FA6
:100EB00091505040A9F79E3F510580F00C94750762
:100EC0000C9402075F3FE4F3983ED4F38695779540
:100ED0006795B795F795E7959F5FC1F7FE2B880F4C
:100EE000911D9695879597F9089597F99F6780E8E2
:100EF00070E060E008959FEF80EC089500240A946C
:100F00001616170618060906089500240A941216E4
:100F10001306140605060895092E0394000C11F417
:100F2000882352F0BB0F40F4BF2B11F460FF04C0C4
:100F30006F5F7F4F8F4F9F4F0895EE0FFF1F881FEA
:100F40008BBF0790F691E02D19940E94340633234D
:100F500012F48A1B9B0B0C94AF070E943406B7FF58
:0C0F60000895821B930B0895F894FFCFB6
:060F6C0000020002000279
:00000001FF
