:020000040000FA
:100000000C9431020C9462020C9462020C94620211
:100010000C9462020C9462020C9462020C946202D0
:100020000C9462020C9462020C9462020C946202C0
:100030000C9462020C9462020C9462020C946202B0
:100040000C9462020C9462020C9462020C946202A0
:100050000C9462020C9462020C9462020C94920A58
:100060000C9462020C94060B0C94DC0A0C94620251
:100070000C9462020C9462020C9462020C94620270
:100080000C9462020C9462020C9462020C94620260
:100090000C9462020C9462020C9462020C943C0B6D
:1000A0000C9462020C9462020C9462020C94620240
:1000B0000C9462020C9462020C9462020C94620230
:1000C0000C9462020C9462020C9462020C94620220
:1000D0000C9462020C9462020C9462020C94620210
:1000E0000C9462020C949B080C9452050C94E3024D
:1000F0000C94CE070C94580A0C94C0020C9414056E
:100100000C94BA020C944A060C94BF070C94430555
:100110000C94D9020C94CC020C94AC050C94E1071D
:100120000C94ED020C94DF020C94F5020C94C402C2
:100130000C9444080C94E7020C94BE070C94FB0248
:100140000C9466050C94D5020C94F9050C94520697
:100150000C94CF020C9416050C9415050C94E8072A
:100160000C94C8020C94600C0C9474050C94150843
:100170000C94F1020C94FA020C94FF025B42483199
:100180003735305D204552524F523A20756E6465C6
:1001900066696E6564206572726F72005B424831F9
:1001A0003735305D204552524F523A206F746865A2
:1001B00072206572726F72005B4248313735305D74
:1001C000204552524F523A207265636569766564E4
:1001D000204E41434B206F6E207472616E736D69C7
:1001E00074206F662064617461005B42483137356A
:1001F000305D204552524F523A20726563656976F0
:100200006564204E41434B206F6E207472616E73A3
:100210006D6974206F662061646472657373005B3E
:100220004248313735305D204552524F523A2074A2
:100230006F6F206C6F6E6720666F72207472616ED4
:10024000736D697420627566666572005B42483141
:100250003735305D204552524F523A20756E6465F5
:1002600066696E6564206572726F72005B42483128
:100270003735305D204552524F523A206F746865D1
:1002800072206572726F72005B4248313735305DA3
:10029000204552524F523A20726563656976656413
:1002A000204E41434B206F6E207472616E736D69F6
:1002B00074206F662064617461005B424831373599
:1002C000305D204552524F523A207265636569761F
:1002D0006564204E41434B206F6E207472616E73D3
:1002E0006D6974206F662061646472657373005B6E
:1002F0004248313735305D204552524F523A2074D2
:100300006F6F206C6F6E6720666F72207472616E03
:10031000736D697420627566666572005B42483170
:100320003735305D20446576696365206973206EDA
:100330006F7420636F6E6669677572656421000073
:10034000002100240027002A002D00300033000186
:10035000010000040107010A010000220025002815
:10036000002B002E003100340002010000050108BE
:10037000010B0100000A0B02090C0D0E0807030413
:10038000010000000000000000000000000000006C
:10039000000000000000000000000000000000124B
:1003A000111000000000000000000000000000002C
:1003B00000000000000000000000002000230026D4
:1003C0000029002C002F003200000100000301066C
:1003D00001090105050505070508080808020202CC
:1003E000020A0A08080404040401010101010101D0
:1003F000010303030303030303040707070C0C0CA7
:100400000C0C0C0C0C02020202060606060606067E
:10041000060B0B0B0B0B0B0B0B010210202008081B
:100420001020401020408002010201080402010156
:10043000020408102040808040201008040201803F
:100440000402018040201008040201080402010196
:10045000020408102040800102040810204080009F
:10046000600C11241FBECFEFD1E2DEBFCDBF00E094
:100470000CBF12E0A0E0B2E0E0E3FCE200E00BBF62
:1004800002C007900D92A03EB107D9F724E0A0EE7C
:10049000B2E001C01D92AE38B207E1F712E0C1E34D
:1004A000D2E000E006C021970109802FFE010E94E2
:1004B000D514C033D10780E00807A9F70E94F10CDA
:1004C0000C9416160C940000CF92DF92EF92FF92DC
:1004D000CF93DF93B0917E04A0E08111AB2F809188
:1004E0007F0490E0880F991FAC0147545C4FC09087
:1004F0008404D0908504E0908604F090870430E076
:1005000020E0FA01C591D491E881B90190E080E042
:10051000EB23EA130AC02F5F3F4F6C157D058E0554
:100520009F0578F36FEF7FEFCB01DF91CF91FF90C5
:10053000EF90DF90CF9008958150823108F05AC03B
:10054000E82FF0E08827E855FD4F8F4F0C94D51425
:10055000C802CC02BA02C002C402FA02CF02D5021B
:10056000D902DF02E302E702ED02F102FA02F5022C
:10057000FB02FF02809180008F77809380000895B6
:10058000809180008F7DF9CF80918000877FF5CFAB
:1005900084B58F7784BD089584B58F7DFBCF80911E
:1005A000B0008F778093B00008958091B0008F7D68
:1005B000F9CF809190008F7780939000089580917B
:1005C00090008F7DF9CF80919000877FF5CF80914B
:1005D000A0008F778093A00008958091A0008F7D68
:1005E000F9CF8091A000877FF5CF809120018F7790
:1005F000809320010895809120018F7DF9CF809113
:100600002001877FF5CFCF93DF93282F30E0F901CA
:10061000ED58FC4F8491F901E75EFB4FD491F9014D
:10062000ED52FC4FC491CC23A1F081110E949C0299
:10063000EC2FF0E0EE0FFF1FE754FC4FA591B491B3
:10064000EC91ED2381E090E009F480E0DF91CF911F
:10065000089580E090E0FACF1F93CF93DF93282F87
:1006600030E0F901ED58FC4F8491F901E75EFB4F52
:10067000D491F901ED52FC4FC491CC23A9F0162F6F
:1006800081110E949C02EC2FF0E0EE0FFF1FE75A51
:10069000FC4FA591B4918FB7F894EC91111108C05B
:1006A000D095DE23DC938FBFDF91CF911F9108950A
:1006B000DE2BF8CFCF93DF9390E0FC01E75EFB4F9A
:1006C00024918D529C4FFC0184918823C9F090E0C5
:1006D000880F991FFC01E15CFC4FA591B491FC01CE
:1006E000E75AFC4FC591D49161110DC09FB7F894A2
:1006F0008C91209582238C938881282328839FBF07
:10070000DF91CF910895623051F49FB7F8943C91F6
:10071000822F809583238C93E8812E2BEFCF8FB788
:10072000F894EC912E2B2C938FBFEACF90917B0005
:10073000977F90937B008653806480937C008091A8
:100740007A00806480937A0080917A0086FDFCCFE5
:10075000809178009091790008953FB7F894809146
:100760004E0390914F03A0915003B091510326B5D1
:10077000A89B05C02F3F19F00196A11DB11D3FBFD9
:10078000BA2FA92F982F8827BC01CD01620F711DA8
:10079000811D911D42E0660F771F881F991F4A95A2
:1007A000D1F708958F929F92AF92BF92CF92DF922E
:1007B000EF92FF926B017C010E94AD034B015C0143
:1007C000C114D104E104F104B9F00E94AD03681929
:1007D00079098A099B09683E73408105910580F378
:1007E00021E0C21AD108E108F10888EE880E83E002
:1007F000981EA11CB11CE4CFFF90EF90DF90CF902A
:10080000BF90AF909F908F900895CF92DF92EF921C
:10081000FF920F931F93CF93DF93CDB7DEB7C054F2
:10082000D1400FB6F894DEBF0FBECDBF2FB7F894FE
:100830008091520390915303A0915403B0915503BA
:100840002FBF409180045091810460918204709187
:1008500083048C019D01041B150B260B370BB9017A
:10086000A801403D57406105710590F480918804CE
:10087000C05CDE4F0FB6F894DEBF0FBECDBFDF9178
:10088000CF911F910F91FF90EF90DF90CF9008953F
:100890008093800490938104A0938204B093830496
:1008A00010927B0410927A041092790410927804CA
:1008B0001092770462E080917C040E945A0361E008
:1008C00070E080E090E00E94D20361E080917C04BF
:1008D0000E945A0360E080917C040E942C03809166
:1008E0007D048551823020F58BE291E10197F1F78B
:1008F00062E080917C040E945A038091890490E018
:100900008230910538F0880F991F880F991F05973D
:100910000197F1F7F89480E00E9464026F3F7F4FE7
:100920008F4F9F4F61F410928804789480E0A0CF9D
:1009300064E170E080E090E00E94D203D9CF81E0D2
:100940000E9464026F3F7F4F8F4F9F4F61F38E0174
:100950000F5F1F4F6E018FEBC81A8EEFD80A780118
:1009600080E00E946402F701608371838283938335
:1009700081E00E946402F701648375838683978314
:10098000F8E0EF0EF11CEC14FD0451F7789430E020
:1009900020E0F801C080D180E280F380448155815D
:1009A00066817781FFEFCF16DF06EF06FF0631F095
:1009B0004F3F8FEF58076807780719F410928804A3
:1009C000B5CFF90183E0F595E7958A95E1F7E95808
:1009D000FB4F8081880FC416D506E606F70610F196
:1009E00080832F5F3F4F085F1F4F2832310589F604
:1009F00040917B042091770480917804280F33275D
:100A0000331F80917904280F311D80917A04820F61
:100A1000932F911D99274817190681F681E080933D
:100A2000880426CF8160DCCF08950895AF92BF92ED
:100A3000CF92DF92EF92FF920F931F93CF93DF93AA
:100A40006C017B018B01040F151FEB015E01AE18D9
:100A5000BF08C017D10759F06991D601ED91FC91FB
:100A60000190F081E02DC6011995892B79F7C50118
:100A7000DF91CF911F910F91FF90EF90DF90CF907A
:100A8000BF90AF900895FC01538D448D252F30E029
:100A9000842F90E0821B930B541710F0CF9608958B
:100AA00001970895FC01918D828D981761F0A28DB8
:100AB000AE0FBF2FB11D5D968C91928D9F5F9F737E
:100AC000928F90E008958FEF9FEF0895FC01918D34
:100AD000828D981731F0828DE80FF11D858D90E0A1
:100AE00008958FEF9FEF0895FC01918D228D892F3E
:100AF00090E0805C9F4F821B91098F739927089526
:100B000086EA93E00E94740521E0892B09F420E035
:100B1000822F0895FC01A48DA80FB92FB11DA35AEF
:100B2000BF4F2C91848D90E001968F739927848F0D
:100B3000A689B7892C93A089B1898C918370806430
:100B40008C93938D848D981306C00288F389E02DD1
:100B500080818F7D80830895EF92FF920F931F9382
:100B6000CF93DF93EC0181E0888F9B8D8C8D981360
:100B70001AC0E889F989808185FF15C09FB7F8946C
:100B8000EE89FF896083E889F989808183708064B8
:100B900080839FBF81E090E0DF91CF911F910F9103
:100BA000FF90EF900895F62E0B8D10E00F5F1F4F12
:100BB0000F731127E02E8C8D8E110CC00FB607FC21
:100BC000FACFE889F989808185FFF5CFCE010E94AF
:100BD0008A05F1CFEB8DEC0FFD2FF11DE35AFF4F8E
:100BE000F0829FB7F8940B8FEA89FB89808180623D
:100BF000CFCFCF93DF93EC01888D8823B9F0AA89FA
:100C0000BB89E889F9898C9185FD03C0808186FDC7
:100C10000DC00FB607FCF7CF8C9185FFF2CF808116
:100C200085FFEDCFCE010E948A05E9CFDF91CF91FC
:100C3000089580E090E0892B29F00E9480058111C1
:100C40000E94000080E090E0892B49F080E090E075
:100C5000892B29F00E94000081110E94000080E091
:100C600090E0892B49F080E090E0892B29F00E94E8
:100C7000000081110E94000080E090E0892B49F083
:100C800080E090E0892B29F00E94000081110C94F3
:100C9000000008950895DC01ED91FC910190F08130
:100CA000E02D1994089520910103260F3327331F57
:100CB00021323105ECF420917C03FC0190E080E0CE
:100CC000243069F082E00895A09101032191AC01E4
:100CD0004F515D4FA40FB52FB11D2C930196861770
:100CE00098F380910103680F6093010380E00895F9
:100CF00081E0089510927C0381E080937B03109241
:100D0000560361E084E10E942C0361E085E10E94CA
:100D10002C03E9EBF0E080818E7F808380818D7FE2
:100D2000808388E48093B80085E48093BC000895B4
:100D3000CF93DF9391E09093E0028823B9F0C091C4
:100D4000B800D091BA008091BC008A7B8093BC002F
:100D500060E084E10E942C0360E085E10E942C03A6
:100D60000E947A06D093BA00C093B800DF91CF9169
:100D700008958F929F92AF92BF92CF92DF92EF929F
:100D8000FF920F931F93CF93DF93D091A503D1329E
:100D900008F0D7C0182FC091A4030E94AD036B01C7
:100DA0007C0180917C0381116BC082E080937C0385
:100DB00010937B038FEF80937A0310927903D09383
:100DC0007803A4E8B3E0E8E5F3E080E0D81391C04D
:100DD0001092570380915703CC0FC82BC093570331
:100DE00080915603813009F088C0109256030E940A
:100DF000AD036B017C01809157038093BB00809110
:100E00007E0390917F03A0918003B0918103892B91
:100E10008A2B8B2BA1F00E94AD0300917E031091D1
:100E20007F0320918003309181036C197D098E0925
:100E30009F09061717072807390708F442C0809151
:100E4000BC0083FDD8CF85EC8093BC000E94AD032D
:100E50006B017C0180917C03823009F450C0809149
:100E60007A038F3F09F46FC080917A03803209F4CE
:100E70006CC080917A03803309F469C084E026C095
:100E800080917E0390917F03A0918003B0918103B4
:100E9000892B8A2B8B2B09F484CF0E94AD03809081
:100EA0007E0390907F03A0908003B09081036C1923
:100EB0007D098E099F0986169706A806B90608F0CF
:100EC00070CF80917D030E94980685E01092830385
:100ED0001092A50310928203DF91CF911F910F9181
:100EE000FF90EF90DF90CF90BF90AF909F908F904A
:100EF00008959D9191938F5F69CF85EEA5CF8091E5
:100F00007E0390917F03A0918003B0918103892B90
:100F10008A2B8B2B09F49ECF0E94AD0300917E0398
:100F200010917F0320918003309181036C197D091A
:100F30008E099F09061717072807390708F08ACF77
:100F4000C0CF81E0C3CF80E0C1CF82E0BFCF83E0DC
:100F5000BDCFFC01248131E0309382032093A403B0
:100F6000109283031092A5038485682B70E083E4BC
:100F700094E00E944B0681E00C94B9060895E0913C
:100F8000290380912803E81730F4F0E0E65DFC4F78
:100F9000808190E008958FEF9FEF0895909129034D
:100FA000809128032FEF3FEF981748F4E92FF0E0E6
:100FB000E65DFC4F208130E09F5F90932903C901DB
:100FC00008958091280390912903891B990B089516
:100FD000CF92DF92EF92FF920F931F93CF93DF9305
:100FE0007C01CB018A0120918203222389F0EB014D
:100FF0006B01C40ED51ECC15DD0569F06991D701D2
:10100000ED91FC910190F081E02DC7011995F3CF8E
:10101000642F0E945306C801DF91CF911F910F9159
:10102000FF90EF90DF90CF900895CF93DF931F92C2
:10103000CDB7DEB76983209182032223F9F0209196
:10104000A503203258F021E030E0FC0133832283F5
:1010500090E080E00F90DF91CF910895809183031D
:10106000E82FF0E0EC57FC4F998190838F5F8093DD
:1010700083038093A50381E090E0ECCF61E0CE0193
:1010800001960E945306F7CF90E080E00895FF920A
:101090000F931F93CF93DF93F82E062FC7E0D0E076
:1010A00010E061E0802F0E942C038F2D0E9403032B
:1010B0000C2E01C0880F0A94EAF7182B60E0802FED
:1010C0000E942C03219768F7812FDF91CF911F9108
:1010D0000F91FF9008950F931F93CF938C01C62F0C
:1010E0000E94A9076C2F6460C8010E94A9076C2F99
:1010F0006B7FC8010E94A90783EC90E00197F1F78C
:10110000CF911F910F9108950F931F93CF93DF936A
:101110008C01D62FC42F607F642B0E946B0880E166
:10112000D89FB00111246C2BC801DF91CF911F9182
:101130000F910C946B0841E00E94840881E090E0DC
:101140000895CF93DF9300D000D01F921F92CDB7A8
:10115000DEB798E0E6E0F2E0DE01119601900D9234
:101160009A95E1F790915704981708F48FEF90E063
:10117000880F991F21E030E02C0F3D1F820F931F35
:10118000FC016081606840E08FE494E028960FB62F
:10119000F894DEBF0FBECDBFDF91CF910C948408D1
:1011A00040E061E08FE494E00E9484088BE39FE1DB
:1011B0000197F1F780915804882319F080E00C948E
:1011C000A1080895FB0101900020E9F73197AF01D4
:1011D000461B570BDC01ED91FC910280F381E02D61
:1011E00019948F929F92AF92BF920F931F93CF93B8
:1011F000DF93CDB7DEB7A1970FB6F894DEBF0FBE71
:10120000CDBF19A2423008F44AE08E010F5D1F4F96
:10121000842E912CB12CA12CA50194010E94B31411
:10122000E62FB901CA01EA3004F5E05DD801EE937A
:101230008D01232B242B252B79F790E080E010974C
:1012400029F0BD018FE494E00E94E208A1960FB658
:10125000F894DEBF0FBECDBFDF91CF911F910F91EC
:10126000BF90AF909F908F900895E95CDFCFCF92B1
:10127000DF92EF92FF926B017C0141E06DE28FE41F
:1012800094E00E94840866277727CB016C197D09BA
:101290008E099F094AE00E94F1080196FF90EF90A5
:1012A000DF90CF900895BC018FE494E00C94E208A5
:1012B0000F931F93CF93DF938C01D0E0C0E0F80130
:1012C000EC0FFD1F6491662341F086EA93E00E94D3
:1012D000AC05892B11F02196F2CF66E472E086EA24
:1012E00093E00E94E2088C0F9D1FDF91CF911F9128
:1012F0000F9108954F925F926F927F928F929F927B
:10130000AF92BF92CF92DF92EF92FF920F931F9313
:10131000CF936B017C01742EAC019B010E949A1447
:1013200069E472E0811126C046015701E894B7F8DC
:101330002FEF3FEF4FE75FE7C501B4010E949A141A
:1013400081110CC02FEF3FEF4FE75FE7C501B401FC
:101350000E94D0126DE472E0181664F02FEF3FEF98
:101360004FE75FE4C701B6010E9428141816ACF4D9
:1013700061E572E08FE494E0CF911F910F91FF90AF
:10138000EF90DF90CF90BF90AF909F908F907F9025
:101390006F905F904F900C94E2082FEF3FEF4FE774
:1013A0005FECC701B6010E94D01287FDE1CF20E0BB
:1013B00030E0A901C701B6010E94D01210E000E0A0
:1013C00087FF0CC041E06DE28FE494E00E94840846
:1013D000F7FAF094F7F8F09401E010E0C0E060E074
:1013E00070E080E09FE37C1641F020E030E040E2D6
:1013F00051E40E94D512CF5FF6CFA70196010E945B
:1014000064124B015C010E9447132B013C014AE02E
:101410000E94F108080F191FCC23C9F1C301B201C2
:101420000E9476139B01AC01C501B4010E946312B6
:101430004B015C0141E06EE28FE494E00E9484087D
:101440000F5F1F4FC15018F120E030E040E251E43F
:10145000C501B4010E942D142B013C010E944713C9
:101460004B01B12CA12C4AE0C501B4010E94F10846
:10147000080F191FC501B4010E9476139B01AC012E
:10148000C301B2010E9463124B015C01DBCFC801B2
:10149000CF911F910F91FF90EF90DF90CF90BF9071
:1014A000AF909F908F907F906F905F904F90089536
:1014B0000C948D1585ED8093BC0080917E039091F6
:1014C0007F03A0918003B09181030796A11DB11DF8
:1014D00023E0B695A795979587952A95D1F7209102
:1014E000BC0024FD03C010927C03089540917E034C
:1014F00050917F036091800370918103452B462BAF
:10150000472B69F30097A105B10541F02AE22A951E
:10151000F1F700C00197A109B109E1CF80917D03E6
:101520000C9498061F920F920FB60F9211242F93CE
:101530003F938F939F93AF93BF938091520390916A
:101540005303A0915403B091550330914D0323E010
:10155000230F2D3758F50196A11DB11D20934D0382
:101560008093520390935303A0935403B093550375
:1015700080914E0390914F03A0915003B09151037D
:101580000196A11DB11D80934E0390934F03A0932C
:101590005003B0935103BF91AF919F918F913F91B1
:1015A0002F910F900FBE0F901F90189526E8230FD4
:1015B0000296A11DB11DD2CF1F920F920FB60F92AE
:1015C00011240BB60F922F933F934F935F936F931A
:1015D0007F938F939F93AF93BF93EF93FF9386EA8D
:1015E00093E00E948A05FF91EF91BF91AF919F9187
:1015F0008F917F916F915F914F913F912F910F90BC
:101600000BBE0F900FBE0F901F9018951F920F9258
:101610000FB60F9211240BB60F922F938F939F93B7
:10162000EF93FF93E091B603F091B7038081E091CF
:10163000BC03F091BD0382FD1DC090818091BF036A
:101640008F5F8F732091C003821741F0E091BF0339
:10165000F0E0EA55FC4F958F8093BF03FF91EF9127
:101660009F918F912F910F900BBE0F900FBE0F90F7
:101670001F9018958081F2CF1F920F920FB60F9294
:1016800011240BB60F922F933F934F935F936F9359
:101690007F938F939F93AF93BF93EF93FF9380912B
:1016A000B900887F803609F44DC008F040C0883208
:1016B00009F4A9C028F5803109F49DC0C8F4882335
:1016C00009F4FBC0883009F496C0FF91EF91BF91F7
:1016D000AF919F918F917F916F915F914F913F91CA
:1016E0002F910F900BBE0F900FBE0F901F9018956B
:1016F000883109F488C0803241F780937A0314C09E
:10170000803409F49DC040F48033B9F38833E9F69E
:1017100080937A0385ECB0C0803509F485C08835A4
:1017200009F496C0883489F60E945A0ACECF8839C7
:1017300009F48CC038F5883729F050F4883611F058
:10174000803719F683E080937C031092230357C0FF
:10175000883809F47BC0803919F0803809F0B5CF9A
:1017600080912303803208F071C0E091230381E06F
:101770008E0F809323038091BB00F0E0ED5FFC4F60
:1017800080833DC0803B39F0E0F4803A09F479C0B1
:10179000883A09F09ACF84E080937C031092020388
:1017A00010920103E0912603F0912703199580918F
:1017B000010381110FC081E0809301031092E102C7
:1017C00009C0803C09F4A6CF883C09F4A3CF883B2C
:1017D00009F07BCFE091020381E08E0F809302033A
:1017E000F0E0EF51FD4F80818093BB0090910203A8
:1017F0008091010329C0809157038093BB0085EC41
:101800008093BC0062CF9091790380917803981700
:1018100058F5E091790381E08E0F80937903F0E031
:10182000E85AFC4F8081E9CFE091790381E08E0F87
:10183000809379038091BB00F0E0E85AFC4F8083ED
:1018400090917903809178039817C8F285E8D8CFF2
:10185000E091790381E08E0F809379038091BB0042
:10186000F0E0E85AFC4F808380917B0381115CCFCC
:1018700081E08093560384EA8093BC0010927C033D
:1018800024CF85EC8093BC0010927C0380912303CD
:10189000803230F4E0912303F0E0ED5FFC4F1082E2
:1018A0006091230370E0E0912403F091250383E02D
:1018B00093E019951092230308CF10927A0334CF46
:1018C000CF93DF93E6EAF3E01382128288EE93E08F
:1018D000A0E0B0E084839583A683B78322E132E061
:1018E0003183208325EC30E03587248724EC30E0F9
:1018F0003787268720EC30E0318B208B21EC30E0DD
:10190000338B228B22EC30E0358B248B26EC30E0BD
:10191000378B268B118E128E138E148EC3E4D4E077
:101920001B821A828C839D83AE83BF8384E292E004
:1019300099838883A7E7B4E083E015968C93159785
:1019400086E116968C931697ECE1F4E0E4911796F5
:10195000EC931797E6EDF3E0E4911896EC93189763
:1019600040E85EE360E070E01D964D935D936D93FB
:101970007C935097EAE6F4E082E492E091838083DE
:10198000158216821782108680E090E0A0E8BFE3FF
:1019900081879287A387B487ECE5F4E085E48183AF
:1019A0008AE999E9A9E9BFE382839383A483B58394
:1019B0001782168283E28083D187C087EFE4F4E048
:1019C0001382128286E392E091838083118687E2FC
:1019D000848380E1828782E083871486DF91CF91C0
:1019E0000895789484B5826084BD84B5816084BD97
:1019F00085B5826085BD85B5816085BD80916E00AD
:101A0000816080936E0010928100809181008260DD
:101A1000809381008091810081608093810080911A
:101A200080008160809380008091B1008460809309
:101A3000B1008091B00081608093B00080919100EE
:101A400082608093910080919100816080939100E9
:101A5000809190008160809390008091A1008260CD
:101A60008093A1008091A10081608093A10080916A
:101A7000A00081608093A00080912101826080930A
:101A800021018091210181608093210180912001B9
:101A900081608093200180917A00846080937A0035
:101AA00080917A00826080937A0080917A008160D0
:101AB00080937A0080917A00806880937A001092F7
:101AC000C100E091B603F091B70382E08083E0911A
:101AD000B203F091B3031082E091B403F091B50327
:101AE0008FEC80831092BE03E091BA03F091BB03A8
:101AF00086E08083E091B803F091B9038081806132
:101B00008083E091B803F091B9038081886080837D
:101B1000E091B803F091B903808180688083E091FF
:101B2000B803F091B90380818F7D808360E082E00B
:101B30000E945A0362E080917C040E945A032FB7EE
:101B4000F8948091520390915303A0915403B09163
:101B500055032FBF805D9740A109B1098093800490
:101B600090938104A0938204B093830487E38093CD
:101B7000890485E080936C0484E080936D0461E0C7
:101B800085E00E945A0360E080916D040E945A0330
:101B9000D1E0D0936E0423E220935C04809164042E
:101BA00090916504D09382032093A4031092830341
:101BB0001092A503DC01ED91FC910190F081E02DE4
:101BC00060E1199581E00E94B906C82F6AE070E0D3
:101BD00080E090E00E94D203C23009F491C048F442
:101BE000CC2391F08FEE92E0C13059F08CE492E07A
:101BF00008C088E892E0C33021F08CE692E0C4305F
:101C0000A9F70E94580982C080E190E09093630494
:101C1000809362042FB7F8948091520390915303FC
:101C2000A0915403B09155032FBF80936604909305
:101C30006704A0936804B093690480916404909150
:101C4000650420915C04D09382032093A403109236
:101C500083031092A50362E470E00E944B0681E0CA
:101C60000E94B906C82F8091640490916504209168
:101C70005C04D09382032093A403109283031092F8
:101C8000A50365E670E00E944B0681E00E94B9065C
:101C9000C82B809164049091650420915C04D093DA
:101CA00082032093A403109283031092A5036091F2
:101CB0006204709163040E944B0681E00E94B906A1
:101CC000C82B6AE070E080E090E00E94D203C2304E
:101CD00009F4E6C050F4CC23B1F08FE192E0C130BA
:101CE00009F48FCF8CE791E08CCF88EB91E0C33083
:101CF00009F487CF8CE991E0C43009F482CFF2CFA8
:101D00008AEB92E07ECF85E480935D0410922903F4
:101D100010922803109283031092A5030E947A0662
:101D200084E195E0909327038093260385E195E075
:101D300090932503809324031092540480915A04B5
:101D4000823018F098E0909354048093570462E333
:101D500070E080E090E00E94D20360915B048FE429
:101D600094E00E94A90768EE73E080E090E00E9492
:101D7000D20360E38FE494E00E946B08CBE4D6E4E6
:101D8000CE010197F1F760E38FE494E00E946B08C5
:101D90002197F1F760E38FE494E00E946B0883E5FC
:101DA00092E00197F1F760E28FE494E00E946B0803
:101DB00060915404606240E08FE494E00E948408E3
:101DC00084E08093550440E06CE08FE494E00E944E
:101DD00084080E94D00882E08093560440E066E0C8
:101DE0008FE494E00E94840840E062E08FE494E095
:101DF0000E9484088BE39FE10197F1F788E08093CC
:101E00005B0460E08FE494E00E94A90786E692E01C
:101E10000E94530960ED77E080E090E00E94D203D9
:101E20000E94D008A6E0AA2EB12CC1E033243A9437
:101E3000B5EE8B2ED5EC9D2E86E30E9496037C0199
:101E400080914A0390914B03B0E9EB16B1E0FB0699
:101E500054F520914C030196222379F180E9E81A88
:101E600081E0F80AA9ECEA16F10410F410924C0390
:101E700080914A0390914B038230910509F480C010
:101E800044F5009709F44BC0019709F45FC068EC72
:101E900070E080E090E00E94D2030E941906CCCF4F
:101EA0008AEE91E0AECE29E5E21622E0F206B4F227
:101EB00020914C032111D2CF0596B5010E949F14A9
:101EC00090934B0380934A03C0934C030E94D00825
:101ED000C5CF8430910509F448C10CF42FC1059792
:101EE000B1F680E00E94A1088AEC92E00E945309BA
:101EF00081E00E94A10880916D040E940303892B58
:101F000009F0DEC280916D040E940303892B09F45D
:101F10008CC260E070E0CB010E94D203F3CF80E07E
:101F20000E94A10886E792E00E94530981E00E9486
:101F3000A10882E00E940303892B29F085E592E045
:101F40000E945309A4CF8DE592E0FACF80E00E9471
:101F5000A10885E892E00E94530981E00E94A1084F
:101F600081E992E00E94530986E30E949603BC0136
:101F7000990F880B990B97FF9FC20E94370987CF53
:101F80000E940504882349F080917D048B3028F05D
:101F90008D3050F085518230C0F1412C512CF0EC45
:101FA0006F2EFFE77F2E1EC06091780470E090E0F6
:101FB00080E00E9478132DEC3CEC4CEC5DE30E9439
:101FC0002D146B017C016091770470E090E080E05B
:101FD0000E9478139B01AC01C701B6010E946412F4
:101FE0002B013C010E940504882341F080917D046F
:101FF0008C3009F47EC0D8F48B3091F1C12CD12CF7
:1020000060ECE62E6FE7F62E55C060917704709174
:10201000780476276727762790E080E00E94761381
:102020002DEC3CEC4CEC5DE30E942D14D9CF855196
:10203000823020F7D09179046D2F70E0762F6627DB
:1020400066277F7780917A04682B90E080E00E9479
:1020500076132DEC3CEC4CEC5DE30E942D1465C036
:102060006091790470E090E080E00E9476136B014B
:102070007C01D0917A04D7FF0AC0AC019B0160E0DB
:1020800070E080E89FEB0E9463126B017C01DF70BF
:102090006D2F70E090E080E00E9478132DEC3CEC16
:1020A0004CEC5DE30E942D14A70196010E9464127E
:1020B0006B017C0180E00E94A10889E992E00E9406
:1020C000530942E0C701B6010E947A0980EA92E012
:1020D0000E94530981E00E94A10882EA92E00E94D6
:1020E000530942E0C301B2010E947A0988EA92E0F2
:1020F00027CFD09179046D2F70E090E080E00E94AE
:1021000076136B017C0160917A046F7070E090E04F
:1021100080E00E9478132DEC3CEC4CEC5DE30E94D7
:102120002D14A70196010E9464126B017C01D7FF58
:10213000C1CFF7FAF094F7F8F094BCCF87E30E9490
:1021400096037C0180E00E94A1088AEA92E00E9446
:10215000530981E00E94A10881E992E00E9453099D
:10216000B701FF0C880B990B06CF80916204909108
:102170006304892BD9F48CE193E00E945809C12CA7
:10218000D12CE12C50ECF52E80E00E94A10889EBC7
:1021900092E00E94530981E00E94A10842E0C70139
:1021A000B6010E947A0986EC92E0CACED0915C0416
:1021B0000E94AD036B017C0180917C03811162C0A0
:1021C000C0937C03C0937B0330927A03109279030F
:1021D000C0937803C093570380915703DD0FD82B2A
:1021E000D093570380915603813009F0F7C01092C5
:1021F00056030E94AD036B017C01809157038093CD
:10220000BB0080917E0390917F03A0918003B091E9
:102210008103892B8A2B8B2BA1F00E94AD03409068
:102220007E0350907F0360908003709081036C194F
:102230007D098E099F09461657066806790608F437
:1022400042C08091BC0083FDD8CF9092BC000E9418
:10225000AD036B017C0180917C03813009F4C1C026
:1022600080917903823008F0DEC080917903E8E53F
:10227000F3E0AAE2B3E090E0981751F121912D9399
:102280009F5FFACF80917E0390917F03A09180039E
:10229000B0918103892B8A2B8B2B09F48DCF0E945F
:1022A000AD0340907E0350907F0360908003709058
:1022B00081036C197D098E099F0946165706680629
:1022C000790608F079CF80917D030E94980680E01E
:1022D0001092290380932803C12CD12C40E8E42ECE
:1022E0004FEBF42E823009F58091640490916504DF
:1022F000DC01ED91FC910284F385E02D1995182FF6
:1023000000E08091640490916504DC01ED91FC9102
:102310000284F385E02D1995802B912BBC0190E070
:1023200080E00E9476136B017C012FB7F8948091B6
:10233000520390915303A0915403B09155032FBFC2
:102340008093660490936704A0936804B093690433
:1023500020E030E040E85FEBC701B6010E94D012F8
:10236000882309F411CF60915D046534A9F070E011
:1023700090E080E00E9476139B01AC0160E070E089
:102380008AE892E40E94D5129B01AC01C701B60114
:102390000E942D146B017C01809162049091630472
:1023A0008132910511F0419751F420E030E040E096
:1023B0005FE3C701B6010E942D146B017C012091DF
:1023C0005E0430915F044091600450916104C70144
:1023D000B6010E94D5126B017C01D6CE8092BC0062
:1023E00036CF80917E0390917F03A0918003B091BE
:1023F0008103892B8A2B8B2B09F42DCF0E94AD03EF
:1024000040907E0350907F03609080037090810322
:102410006C197D098E099F094616570668067906CC
:1024200008F019CF50CF82E022CF7FB6F8946091A8
:102430006C0480916D040E944708D82F60916C0451
:1024400080916D040E944708C82E60916C048091B1
:102450006D040E944708D82EF12CE12C80916E0467
:102460008E151F0479F070F061E080916C040E9479
:102470002C0360E080916C040E942C03BFEFEB1AE8
:10248000FB0AECCF7FBE6C2D70E090E080E0982FCF
:10249000872F762F66278D2B6D29DD0FDD0BCD2E37
:1024A000D12CF12CE12CFC2CEE24DD24CC246C2945
:1024B0007D298E299F295FCD4AE00E94F108E7CC53
:1024C00085ED92E03DCD5058BB27AA270E947B1294
:1024D0000C94EE130E94E01338F00E94E71320F0F2
:1024E00039F49F3F19F426F40C94DD130EF4E095B3
:1024F000E7FB0C94D713E92F0E94FF1358F3BA1788
:10250000620773078407950720F079F4A6F50C9409
:1025100021140EF4E0950B2EBA2FA02D0B01B9015A
:1025200090010C01CA01A0011124FF27591B99F049
:10253000593F50F4503E68F11A16F040A22F232F55
:10254000342F4427585FF3CF469537952795A795A5
:10255000F0405395C9F77EF41F16BA0B620B730B4C
:10256000840BBAF09150A1F0FF0FBB1F661F771FBD
:10257000881FC2F70EC0BA0F621F731F841F48F472
:10258000879577956795B795F7959E3F08F0B0CFFB
:102590009395880F08F09927EE0F979587950895E2
:1025A0000E94B31308F481E008950E94E9120C948C
:1025B000EE130E94E71358F00E94E01340F029F454
:1025C0005F3F29F00C94D71351110C9422140C94F2
:1025D000DD130E94FF1368F39923B1F3552391F3A0
:1025E000951B550BBB27AA2762177307840738F082
:1025F0009F5F5F4F220F331F441FAA1FA9F335D0DF
:102600000E2E3AF0E0E832D091505040E695001C92
:10261000CAF72BD0FE2F29D0660F771F881FBB1F4C
:10262000261737074807AB07B0E809F0BB0B802D2A
:10263000BF01FF2793585F4F3AF09E3F510578F056
:102640000C94D7130C9422145F3FE4F3983ED4F318
:10265000869577956795B795F7959F5FC9F7880F2A
:10266000911D9695879597F90895E1E0660F771F7C
:10267000881FBB1F621773078407BA0720F0621B0D
:10268000730B840BBA0BEE1F88F7E09508950E9438
:10269000071488F09F5798F0B92F9927B751B0F0D9
:1026A000E1F0660F771F881F991F1AF0BA95C9F7D6
:1026B00014C0B13091F00E942114B1E008950C943F
:1026C0002114672F782F8827B85F39F0B93FCCF3F2
:1026D000869577956795B395D9F73EF49095809553
:1026E000709561957F4F8F4F9F4F0895E89409C073
:1026F00097FB3EF490958095709561957F4F8F4F35
:102700009F4F9923A9F0F92F96E9BB279395F6954A
:10271000879577956795B795F111F8CFFAF4BB0FC8
:1027200011F460FF1BC06F5F7F4F8F4F9F4F16C02C
:10273000882311F096E911C0772321F09EE8872FB6
:10274000762F05C0662371F096E8862F70E060E072
:102750002AF09A95660F771F881FDAF7880F9695EB
:10276000879597F90895990F0008550FAA0BE0E88F
:10277000FEEF16161706E807F907C0F01216130643
:10278000E407F50798F0621B730B840B950B39F483
:102790000A2661F0232B242B252B21F408950A26E9
:1027A00009F4A140A6958FEF811D811D089597F929
:1027B0009F6780E870E060E008959FEF80EC0895E7
:1027C00000240A9416161706180609060895002410
:1027D0000A9412161306140605060895092E03948A
:1027E000000C11F4882352F0BB0F40F4BF2B11F4FE
:1027F00060FF04C06F5F7F4F8F4F9F4F089557FD5D
:102800009058440F551F59F05F3F71F04795880F5E
:1028100097FB991F61F09F3F79F0879508951216F5
:1028200013061406551FF2CF4695F1DF08C01616A1
:1028300017061806991FF1CF869571056105089452
:102840000895E894BB2766277727CB0197F9089569
:102850000E94B31308F48FEF08950E9440140C9463
:10286000EE130E94E01338F00E94E71320F0952346
:1028700011F00C94D7130C94DD1311240C94221432
:102880000E94FF1370F3959FC1F3950F50E0551F01
:10289000629FF001729FBB27F00DB11D639FAA27B5
:1028A000F00DB11DAA1F649F6627B00DA11D661F04
:1028B000829F2227B00DA11D621F739FB00DA11D25
:1028C000621F839FA00D611D221F749F3327A00DDF
:1028D000611D231F849F600D211D822F762F6A2F7B
:1028E00011249F5750409AF0F1F088234AF0EE0FE0
:1028F000FF1FBB1F661F771F881F91505040A9F70D
:102900009E3F510580F00C94D7130C9422145F3F26
:10291000E4F3983ED4F3869577956795B795F79548
:10292000E7959F5FC1F7FE2B880F911D96958795C0
:1029300097F908950E94B313880B990B089597FB9C
:10294000072E16F4009407D077FD09D00E94DD14FD
:1029500007FC05D03EF4909581959F4F08957095A2
:1029600061957F4F0895A1E21A2EAA1BBB1BFD01A2
:102970000DC0AA1FBB1FEE1FFF1FA217B307E4075E
:10298000F50720F0A21BB30BE40BF50B661F771FB6
:10299000881F991F1A9469F7609570958095909596
:1029A0009B01AC01BD01CF010895EE0FFF1F881FF1
:1029B0008BBF0790F691E02D1994AA1BBB1B51E128
:1029C00007C0AA1FBB1FA617B70710F0A61BB70B9F
:1029D000881F991F5A95A9F780959095BC01CD0144
:1029E00008950F931F93CF93DF938230910510F4D6
:1029F00082E090E0E0918C04F0918D0430E020E0E2
:102A0000B0E0A0E0309799F42115310509F44AC0EF
:102A1000281B390B24303105D8F58A819B8161153B
:102A2000710589F1FB0193838283FE0111C040810E
:102A300051810281138148175907E0F0481759075F
:102A400099F4109761F012960C93129713961C93B9
:102A50003296CF01DF91CF911F910F91089500938E
:102A60008C0410938D04F4CF2115310551F04217D9
:102A7000530738F0A901DB019A01BD01DF01F8011C
:102A8000C1CFEF01F9CF90938D0480938C04CDCF0B
:102A9000FE01E20FF31F8193919322503109398394
:102AA0002883D7CF20918A0430918B04232B41F4C3
:102AB000209102023091030230938B0420938A0408
:102AC00020910002309101022115310541F42DB70A
:102AD0003EB74091040250910502241B350BE09152
:102AE0008A04F0918B04E217F307A0F42E1B3F0B2E
:102AF0002817390778F0AC014E5F5F4F2417350770
:102B000048F04E0F5F1F50938B0440938A048193CB
:102B100091939FCFF0E0E0E09CCFCF93DF930097BD
:102B2000E9F0FC01329713821282A0918C04B091DB
:102B30008D04ED0130E020E01097A1F42081318177
:102B4000820F931F20918A0430918B042817390734
:102B500009F061C0F0938B04E0938A04DF91CF9178
:102B60000895EA01CE17DF07E8F54A815B819E01EF
:102B700041155105B1F7E901FB83EA834991599168
:102B8000C40FD51FEC17FD0761F480819181029677
:102B9000840F951FE90199838883828193819B83A8
:102BA0008A83F0E0E0E012968D919C911397009754
:102BB000B9F52D913C911197CD010296820F931F8B
:102BC00020918A0430918B042817390739F6309701
:102BD00051F510928D0410928C04B0938B04A09345
:102BE0008A04BCCFD383C28340815181840F951F57
:102BF000C817D90761F44E5F5F4F88819981480FEC
:102C0000591F518340838A819B819383828321153D
:102C1000310509F0B0CFF0938D04E0938C049ECF82
:102C2000FD01DC01C0CF13821282D7CFF894FFCF11
:102C300000008E04800000004000140054000000DA
:102C40000000AC0516054305F90574055205660537
:102C5000000000001508E8074408BE07E107CE079A
:102C6000BF07000000009B0816054408520600003C
:102C700000004A06580A0D0A006E616E00696E6611
:102C8000006F7666004143544956452000494E4145
:102C9000435449564500496E697469616C697A69A3
:102CA0006E672E2E2E00546F7563682053656E7309
:102CB0006F723A20004A6F79737469636B20593AD6
:102CC0000056616C75653A200054656D703A2000BD
:102CD000430048756D3A200025004D513820483298
:102CE0002053656E736F723A00496C6C756D696E36
:102CF000616E63653A00206C78004C6F616420431C
:102D0000656C6C3A004E6F742072656164790000E6
:020000040003F7
:10E000000D9489F10D94B2F10D94B2F10D94B2F129
:10E010000D94B2F10D94B2F10D94B2F10D94B2F1F0
:10E020000D94B2F10D94B2F10D94B2F10D94B2F1E0
:10E030000D94B2F10D94B2F10D94B2F10D94B2F1D0
:10E040000D94B2F10D94B2F10D94B2F10D94B2F1C0
:10E050000D94B2F10D94B2F10D94B2F10D94B2F1B0
:10E060000D94B2F10D94B2F10D94B2F10D94B2F1A0
:10E070000D94B2F10D94B2F10D94B2F10D94B2F190
:10E080000D94B2F10D94B2F10D94B2F10D94B2F180
:10E090000D94B2F10D94B2F10D94B2F10D94B2F170
:10E0A0000D94B2F10D94B2F10D94B2F10D94B2F160
:10E0B0000D94B2F10D94B2F10D94B2F10D94B2F150
:10E0C0000D94B2F10D94B2F10D94B2F10D94B2F140
:10E0D0000D94B2F10D94B2F10D94B2F10D94B2F130
:10E0E0000D94B2F141546D656761323536300041AF
:10E0F000726475696E6F206578706C6F72657220DE
:10E1000073746B3530305632206279204D4C530099
:10E11000426F6F746C6F616465723E004875683F52
:10E1200000436F6D70696C6564206F6E203D200048
:10E130004350552054797065202020203D20005FF9
:10E140005F4156525F415243485F5F3D2000415658
:10E1500052204C696243205665723D20004743437C
:10E160002056657273696F6E203D20004350552024
:10E1700049442020202020203D20004C6F7720663D
:10E18000757365202020203D20004869676820665F
:10E190007573652020203D200045787420667573D6
:10E1A00065202020203D20004C6F636B2066757336
:10E1B000652020203D20004D617220203720323024
:10E1C000313300312E362E3800342E332E350056A2
:10E1D00023202020414444522020206F7020636F70
:10E1E00064652020202020696E73747275637469E1
:10E1F0006F6E2061646472202020496E74657272B3
:10E20000757074006E6F20766563746F7200726A49
:10E210006D702020006A6D70200057686174207056
:10E220006F72743A00506F7274206E6F7420737541
:10E2300070706F72746564004D7573742062652030
:10E2400061206C6574746572002000577269747483
:10E25000696E672045450052656164696E672045B7
:10E26000450045452065727220636E743D00504F35
:10E27000525400303D5A65726F2061646472003FF1
:10E280003D43505520737461747300403D454550C3
:10E29000524F4D207465737400423D426C696E6B41
:10E2A000204C454400453D44756D70204545505215
:10E2B0004F4D00463D44756D7020464C415348001B
:10E2C000483D48656C70004C3D4C69737420492F83
:10E2D0004F20506F72747300513D51756974005234
:10E2E0003D44756D702052414D00563D73686F7707
:10E2F00020696E7465727275707420566563746FF0
:10E30000727300593D506F727420626C696E6B00BD
:10E310002A0011241FBECFEFD1E2DEBFCDBF01E046
:10E320000CBF12E0A0E0B2E0EEE1FDEF03E00BBFB6
:10E3300002C007900D92A030B107D9F712E0A0E01B
:10E34000B2E001C01D92AE30B107E1F70F9460F367
:10E350000D948DFE01E20EBF0FEF0DBF11241FBE05
:10E360000D9460F30D9400F020E030E040ED57E0B4
:10E3700005C0FA013197F1F72F5F3F4F2817390792
:10E38000C0F308959C01260F311DC901A0E0B0E043
:10E390002F5F3F4FABBFFC018791882361F08093D3
:10E3A000C6008091C00086FFFCCF8091C0008064D1
:10E3B0008093C000EACF08958DE08093C6008091DD
:10E3C000C00086FFFCCF8091C00080648093C000B5
:10E3D0008AE08093C6008091C00086FFFCCF8091C8
:10E3E000C00080648093C00008950F94C2F10F9420
:10E3F000DCF10895FC019081992359F09093C600B7
:10E400008091C00086FFFCCF8091C0008064809323
:10E41000C0003196992379F70895282F982F929567
:10E420009F70892F805D8A3308F0895F8093C600D2
:10E430008091C00086FFFCCF8091C00080648093F3
:10E44000C000822F8F70982F905D9A3308F0995FEB
:10E450009093C6008091C00086FFFCCF8091C000E1
:10E4600080648093C00008959C01FB01853691056E
:10E470001CF46330710594F0C90164E670E00F94F8
:10E480002EFE605D7F4F6093C6008091C00086FFC6
:10E49000FCCF8091C00080648093C0002B30310598
:10E4A00014F43297B4F0C90164E670E00F942EFEC4
:10E4B0006AE070E00F942EFE605D7F4F6093C600AF
:10E4C0008091C00086FFFCCF8091C0008064809363
:10E4D000C000C9016AE070E00F942EFEC0968093E0
:10E4E000C6008091C00086FFFCCF8091C000806490
:10E4F0008093C00008951F93182F8EE692EE60E07F
:10E500000F94C2F11093C6008091C00086FFFCCF2B
:10E510008091C00080648093C0000F94DCF11F9153
:10E5200008952F923F924F925F926F927F928F92B7
:10E530009F92AF92BF92CF92DF92EF92FF920F9392
:10E540001F93DF93CF93CDB7DEB762970FB6F894E2
:10E55000DEBF0FBECDBF382E622ECA01DB015C01CB
:10E560006D01772420E2222E2E010894411C511CBB
:10E570008BC081E0A81680E0B80681E0C80680E084
:10E58000D80628F0C601AA27BB270F940DF2BB2797
:10E59000AD2D9C2D8B2D0F940DF28A2D0F940DF225
:10E5A0002092C6008091C00086FFFCCF8091C00001
:10E5B00080648093C0009DE29093C6008091C0006B
:10E5C00086FFFCCF8091C00080648093C0002092C1
:10E5D000C6008091C00086FFFCCF8091C00080649F
:10E5E0008093C00019828601750188249924A1E0D6
:10E5F0003A1651F03A1620F0B2E03B1661F409C029
:10E600000BBFF701779007C0C7010F9477FE782EF4
:10E6100002C0F7017080872D0F940DF22092C60082
:10E620008091C00086FFFCCF8091C0008064809301
:10E63000C000872D8052F401EF70F0708F3520F408
:10E64000E40DF51D708204C0E40DF51D8EE280839B
:10E650000894E11CF11C011D111D0894811C911CE2
:10E6600090E18916910409F0C2CF80E190E0A0E02A
:10E67000B0E0A80EB91ECA1EDB1E198AC2010F9493
:10E68000FAF10F94DCF16A94662009F072CF629679
:10E690000FB6F894DEBF0FBECDBFCF91DF911F91B3
:10E6A0000F91FF90EF90DF90CF90BF90AF909F9031
:10E6B0008F907F906F905F904F903F902F90089534
:10E6C0002F923F924F925F926F927F928F929F9282
:10E6D000AF92BF92CF92DF92EF92FF920F931F9370
:10E6E000DF93CF93CDB7DEB7CD53D1400FB6F894BB
:10E6F000DEBF0FBECDBF01E20EBF0FEF0DBF94B75F
:10E70000F894A89514BE80916000886180936000A1
:10E7100010926000789493FF05C0E0910002F091A0
:10E7200001021995279A2F9A8091C00082608093E8
:10E73000C00080E18093C40088E18093C1000000A4
:10E74000EE24FF24870144E0A42EB12CCC24DD2448
:10E7500024C0C5010197F1F70894E11CF11C011DCB
:10E76000111D21E2E2162EE4F20620E0020720E06D
:10E77000120718F031E0C32ED12CC801B70127ECE5
:10E780003BE140E050E00F9441FE611571058105C9
:10E79000910519F485B1805885B98091C00087FD35
:10E7A00003C0C114D104A9F2A6014F5F5F4FC25E3E
:10E7B000DE4F59834883CE51D140C25EDE4F8881FF
:10E7C0009981CE51D140019711F00D9410FEC05D9A
:10E7D000DE4F19821882C053D14060E0C15DDE4F28
:10E7E0001882CF52D14088249924C35DDE4F19820C
:10E7F0001882CD52D140C05EDE4F188219821A8233
:10E800001B82C052D140CE5CDE4F188219821A8220
:10E810001B82C253D140EE24FF2487010BBFF701B6
:10E8200007911691C45CDE4F19830883CC53D14005
:10E830000D940BFEC25EDE4F28813981CE51D1404E
:10E840002130310509F52091C600C25EDE4F1982E4
:10E850001882CE51D14022C02F5F3F4F4F4F5F4FA4
:10E86000213082E138078AE7480780E0580780F0C6
:10E87000C45CDE4FE881F981CC53D140EF5FFF4F9C
:10E8800019F0EE27FF27099420E030E040E050E047
:10E890008091C00087FFE0CF2091C600C35DDE4FAE
:10E8A00048815981CD52D1404F5F5F4FC35DDE4FEC
:10E8B00059834883CD52D140213209F063C64A3092
:10E8C000510508F05FC60894811C911C53E0851621
:10E8D000910409F059C600E010E018C081E280936D
:10E8E000C6008091C00086FFFCCF8091C00080648C
:10E8F0008093C0002F5F3F4F2931310579F70F9486
:10E90000DCF10F5F1F4F0530110519F020E030E0FA
:10E91000E5CF10920A0210920B0210920C02109294
:10E920000D02109206021092070210920802109235
:10E930000902109202021092030210920402109235
:10E9400005028FEE90EE60E00F94F5F180E191EE1C
:10E9500060E00F94C2F18091C00087FFFCCF9091DE
:10E96000C600903608F09F759032B8F09093C600BC
:10E970008091C00086FFFCCF8091C00080648093AE
:10E98000C000A0E2A093C6008091C00086FFFCCF2B
:10E990008091C00080648093C000983409F4D7C18E
:10E9A0009934B8F4923409F459C1933458F490333B
:10E9B00019F1903308F4E3C59F33A1F1903409F0C5
:10E9C000DEC5BDC0953409F470C1963409F0D7C5D1
:10E9D00098C1923509F42BC2933538F49C3409F46C
:10E9E000F5C1913509F0CBC518C2963509F445C279
:10E9F000993509F0C4C567C483E792EE62E00F94CD
:10EA0000F5F110920602109207021092080210927D
:10EA1000090210920A0210920B0210920C0210923C
:10EA20000D0213C18FE792EE62E00F94F5F18FEEC5
:10EA300090EE60E00F94F5F181E291EE60E00F94CA
:10EA4000C2F187EB91EE60E00F94F5F180E391EE77
:10EA500060E00F94C2F184EE90EE60E00F94F5F167
:10EA60008FE391EE60E00F94C2F186E090E061E008
:10EA700070E00F9434F20F94DCF18DE591EE60E0DC
:10EA80000F94C2F189EC91EE60E00F94F5F18EE401
:10EA900091EE60E00F94C2F183EC91EE60E00F9490
:10EAA000F5F18CE691EE60E00F94C2F18EE10F94E7
:10EAB0000DF288E90F940DF281E00F940DF20F949E
:10EAC000DCF18BE791EE60E00F94C2F119E0E0E039
:10EAD000F0E010935700E4918E2F0F940DF20F94F5
:10EAE000DCF18AE891EE60E00F94C2F1E3E0F0E03F
:10EAF00010935700E4918E2F0F940DF20F94DCF1D8
:10EB000089E991EE60E00F94C2F1E2E0F0E0109349
:10EB10005700E4918E2F0F940DF20F94DCF188EAE8
:10EB200091EE60E00F94C2F1E1E0F0E01093570045
:10EB30001491812F0F940DF20F94DCF107CF8BE825
:10EB400092EE62E00F94F5F18BE492EE60E00F94A8
:10EB5000F5F10F94DCF100E010E019C0C8016F2D51
:10EB60000F947FFEFF2031F489E492EE60E00F9471
:10EB7000C2F10BC0F092C6008091C00086FFFCCFAE
:10EB80008091C00080648093C0000F5F1F4FC80158
:10EB900081519F41A0E0B0E0ABBFFC01F790BAE229
:10EBA000FB1621F0E2E000301E07C1F60F94DCF105
:10EBB0000F94DCF187E592EE60E00F94F5F10F948D
:10EBC000DCF1CC24DD2400E010E01EC0C8010F946D
:10EBD00077FEF82E882331F489E492EE60E00F94FA
:10EBE000C2F10BC08093C6008091C00086FFFCCFAD
:10EBF0008091C00080648093C000FE1419F00894D6
:10EC0000C11CD11C0F5F1F4FC80181519F41A0E063
:10EC1000B0E0ABBFFC01E790FAE2EF1621F022E092
:10EC20000030120799F60F94DCF10F94DCF182E6C4
:10EC300092EE60E00F94C2F1C60161E070E00F94C3
:10EC400034F20F94DCF10F94DCF110920202109276
:10EC50000302109204021092050278CE89E992EE26
:10EC600062E00F94F5F1279A2F9A16C02F9880E052
:10EC700090E0E0EDF7E03197F1F7019684369105E9
:10EC8000C1F72F9A80E090E0E0EDF7E03197F1F7DF
:10EC9000019684369105C1F78091C00087FFE6CFC9
:10ECA0008091C00087FFFCCF64C485EA92EE62E0E9
:10ECB0000F94F5F140910202509103026091040219
:10ECC0007091050281E020E10F9491F2809102029F
:10ECD00090910302A0910402B091050280509F4FD1
:10ECE000AF4FBF4F8093020290930302A0930402A0
:10ECF000B093050280509041A040B04008F426CE69
:10ED0000A4CF83EB92EE62E00F94F5F140910602FE
:10ED100050910702609108027091090280E020E1A1
:10ED20000F9491F28091060290910702A09108023F
:10ED3000B091090280509F4FAF4FBF4F80930602A2
:10ED400090930702A0930802B0930902FFCD80ECD4
:10ED500092EE62E00F94F5F183E792EE60E00F949B
:10ED6000F5F18FE792EE60E00F94F5F18BE892EE0B
:10ED700060E00F94F5F189E992EE60E00F94F5F10F
:10ED800085EA92EE60E00F94F5F183EB92EE60E09D
:10ED90000F94F5F180EC92EE60E00F94F5F187ECC2
:10EDA00092EE60E00F94F5F188ED92EE60E00F9442
:10EDB000F5F18FED92EE60E00F94F5F18AEE92EEB0
:10EDC00060E00F94F5F183E093EEBDCD87EC92EE19
:10EDD00062E00F94F5F181E40F947BF282E40F94EA
:10EDE0007BF283E40F947BF284E40F947BF285E45E
:10EDF0000F947BF286E40F947BF287E40F947BF20E
:10EE000088E40F947BF28AE40F947BF28BE40F94F6
:10EE10007BF28CE40F947BF299CD88ED92EE62E068
:10EE20000F94F5F1772473948824992409C48FED05
:10EE300092EE62E00F94F5F140910A0250910B02BC
:10EE400060910C0270910D0282E020E10F9491F22A
:10EE500080910A0290910B02A0910C02B0910D02D8
:10EE600080509F4FAF4FBF4F80930A0290930B0289
:10EE7000A0930C02B0930D0269CD8AEE92EE62E08F
:10EE80000F94F5F184EE90EE60E00F94F5F18FECC5
:10EE900091EE60E00F94F5F1662477244301CC5D98
:10EEA000DE4F19821882C452D140D401C301B695F5
:10EEB000A79597958795CA5DDE4F88839983AA8326
:10EEC000BB83C652D140CC5DDE4FA881B981C4520C
:10EED000D1401196CC5DDE4FB983A883C452D14096
:10EEE000CD0162E070E00F9434F2B0E2B093C6005E
:10EEF0008091C00086FFFCCF8091C0008064809329
:10EF0000C000EDE2E093C6008091C00086FFFCCF18
:10EF10008091C00080648093C000F0E2F093C6004E
:10EF20008091C00086FFFCCF8091C00080648093F8
:10EF3000C000CA5DDE4FE880F9800A811B81C6529D
:10EF4000D140BB27A12F902F8F2D0F940DF2CA5DBA
:10EF5000DE4F8881C652D1400F940DF2B0E2FB2EF5
:10EF6000F092C6008091C00086FFFCCF8091C00067
:10EF700080648093C0000DE30093C6008091C000C0
:10EF800086FFFCCF8091C00080648093C00010E2B7
:10EF90001093C6008091C00086FFFCCF8091C00016
:10EFA00080648093C0008BBEF3012791C65DDE4F65
:10EFB0002883CA52D140A22EBB24CC24DD2408943D
:10EFC000611C711C811C911C8BBEF3018791282E42
:10EFD0003324442455240894611C711C811C911C09
:10EFE0008BBEF3013791C55DDE4F3883CB52D140E4
:10EFF0000894611C711C811C911C8BBEF30147910C
:10F00000C45DDE4F4883CC52D140ADEFEA2EAFEF66
:10F01000FA2EAFEF0A2FAFEF1A2F6E0C7F1C801E57
:10F02000911E142D032DF22CEE24EA0CFB1C0C1D5A
:10F030001D1D0F940DF220E22093C6008091C000A8
:10F0400086FFFCCF8091C00080648093C000C65DC5
:10F05000DE4F8881CA52D1400F940DF230E23093D6
:10F06000C6008091C00086FFFCCF8091C000806404
:10F070008093C000C45DDE4F8881CC52D1400F9494
:10F080000DF240E24093C6008091C00086FFFCCFA5
:10F090008091C00080648093C000C55DDE4F888190
:10F0A000CB52D1400F940DF250E25093C6008091A4
:10F0B000C00086FFFCCF8091C00080648093C000B8
:10F0C0008FEFE8168FEFF80680E0080780E018075A
:10F0D00031F484E092EE60E00F94C2F1DFC0D80119
:10F0E000C7018070907CA070B0708050904CA040A0
:10F0F000B040D1F52FEF3FE340E050E0E222F322B1
:10F1000004231523CA5DDE4FA880B980CA80DB8046
:10F11000C652D140AE0CBF1CC01ED11EAA0CBB1CD7
:10F12000CC1CDD1C8EE092EE60E00F94C2F1BB2798
:10F13000A12F902F8F2D0F940DF28E2D0F940DF285
:10F1400030E23093C6008091C00086FFFCCF8091F2
:10F15000C00080648093C0004EE34093C60080915D
:10F16000C00086FFFCCF87C08EE09EEFA0E0B0E03D
:10F17000E822F9220A231B239CE0E91694E9F90608
:10F1800090E0090790E0190709F088C0C45DDE4FE0
:10F19000A881CC52D140EA2EFF2400E010E0102FCD
:10F1A0000F2DFE2CEE24C55DDE4FB881CB52D14031
:10F1B000EB0EF11C011D111DD601C501817090706F
:10F1C000A070B070DC0199278827E80EF91E0A1F8D
:10F1D0001B1F20EF30E040E050E0A222B322C42207
:10F1E000D52241E1AA0CBB1CCC1CDD1C4A95D1F7F1
:10F1F000EA0CFB1C0C1D1D1D81E090E0A0E0B0E0BE
:10F20000282239224A225B2235E1220C331C441C7D
:10F21000551C3A95D1F7E20CF31C041D151D57013E
:10F220006801AA0CBB1CCC1CDD1C85E192EE60E0E1
:10F230000F94C2F1C801AA27BB270F940DF2BB2778
:10F24000A12F902F8F2D0F940DF28E2D0F940DF274
:10F2500090E29093C6008091C00086FFFCCF809121
:10F26000C00080648093C000AEE3A093C60080918C
:10F27000C00086FFFCCF8091C00080648093C000F6
:10F28000C601AA27BB270F940DF2BB27AD2D9C2DDD
:10F290008B2D0F940DF28A2D0F940DF20F94DCF14B
:10F2A000CC5DDE4FE881F981C452D140F99709F471
:10F2B0004DCBF4E0EF2EF12C012D112D6E0C7F1CA7
:10F2C000801E911EF2CD83E093EE62E00F94F5F183
:10F2D0008AE192EE60E00F94C2F18091C00087FF56
:10F2E000FCCF1091C6001F751093C6008091C0001E
:10F2F00086FFFCCF8091C00080648093C0000F9493
:10F30000DCF1812F81548A3108F036C1163409F4BA
:10F3100095C0173490F4133409F44EC0143430F40B
:10F320001134F1F0123409F01DC130C0143409F465
:10F3300059C0153409F016C16BC01A3409F4C4C0A1
:10F340001B3438F4173409F48FC0183409F00AC19B
:10F35000A1C01B3409F4D2C01C3409F003C1E8C0B9
:10F360008FEF81B90DC082B1809582B980E090E0C5
:10F37000E0EDF7E03197F1F70196883C9105C1F790
:10F380008091C00087FFEFCF12B8EFC08FEF84B934
:10F390000DC085B1809585B980E090E0E0EDF7E0A3
:10F3A0003197F1F70196883C9105C1F78091C00033
:10F3B00087FFEFCF15B8D9C08FEF87B90DC088B1DF
:10F3C000809588B980E090E0E0EDF7E03197F1F7C3
:10F3D0000196883C9105C1F78091C00087FFEFCF6F
:10F3E00018B8C3C08FEF8AB90DC08BB180958BB9A7
:10F3F00080E090E0E0EDF7E03197F1F70196883C8E
:10F400009105C1F78091C00087FFEFCF1BB8ADC059
:10F410008FEF8DB90DC08EB180958EB980E090E0F0
:10F42000E0EDF7E03197F1F70196883C9105C1F7DF
:10F430008091C00087FFEFCF1EB897C08FEF80BBD1
:10F440000DC081B3809581BB80E090E0E0EDF7E0F6
:10F450003197F1F70196883C9105C1F78091C00082
:10F4600087FFEFCF11BA81C08FEF83BB0DC084B38C
:10F47000809584BB80E090E0E0EDF7E03197F1F714
:10F480000196883C9105C1F78091C00087FFEFCFBE
:10F4900014BA6BC08FEF809301010FC080910201FD
:10F4A00080958093020180E090E0E0EDF7E03197F5
:10F4B000F1F70196883C9105C1F78091C00087FF64
:10F4C000EDCF1092020151C08FEF809304010FC065
:10F4D0008091050180958093050180E090E0E0ED4A
:10F4E000F7E03197F1F70196883C9105C1F78091DB
:10F4F000C00087FFEDCF1092050137C08FEF8093DA
:10F5000007010FC08091080180958093080180E079
:10F5100090E0E0EDF7E03197F1F70196883C910536
:10F52000C1F78091C00087FFEDCF109208011DC088
:10F530008FEF80930A010FC080910B01809580931B
:10F540000B0180E090E0E0EDF7E03197F1F70196F4
:10F55000883C9105C1F78091C00087FFEDCF1092E4
:10F560000B0103C085E292EEEEC98091C00087FFD7
:10F57000FCCF8091C600EAC988E392EEE4C98CE131
:10F5800091EEE1C988249924933011F1943028F444
:10F59000913089F09230B8F408C0953061F195301F
:10F5A000F0F0963009F048C043C02B3109F042C951
:10F5B00091E06BE13FC96227C15DDE4F2883CF52E6
:10F5C000D14092E037C9B22FA0E0622793E032C960
:10F5D000822F90E0A82BB92B622794E02BC92E3004
:10F5E00009F039C3622795E0C05DDE4F19821882A9
:10F5F000C053D1401FC9E1E0F0E0EC0FFD1FC05D3A
:10F60000DE4F08811981C053D140E00FF11F2083E4
:10F610000F5F1F4FC05DDE4F19830883C053D14079
:10F6200062270A171B0709F005C9D80196E002C92D
:10F63000261709F010C303C0973009F0FBC87724E0
:10F640009981933109F412C19431C8F4963009F4C8
:10F65000D8C0973050F4923009F406C1933009F4C1
:10F660006DC0913009F059C253C0913109F477C08F
:10F67000923108F0BBC0903109F04FC2F5C098310B
:10F6800009F487C0993150F4953109F4EFC09531F0
:10F6900008F4C6C1963109F040C2C2C19A3109F4DA
:10F6A0006CC09A3108F491C09B3109F45BC09D3164
:10F6B00009F033C29D81903359F48F81882311F46E
:10F6C0009EE11CC0813011F091E018C098E916C08D
:10F6D000892F807591F0903539F4E0E0F0E089E011
:10F6E0008093570094910AC0983539F4E3E0F0E034
:10F6F00089E080935700949101C090E01A821B82A8
:10F700008D818C831D829E831F8227E030E009C299
:10F710001A8288E08B8381E48C8386E58D8382E581
:10F720008E8389E48F8383E5888780E589878FE5E9
:10F730008A8782E38B872BE030E0F3C18A818139AD
:10F7400041F0823941F0803911F48FE005C080E04A
:10F7500003C082E001C08AE01A828B8344C0772410
:10F76000739482C08D81882311F48EE12CC0813086
:10F7700011F081E028C088E926C01A82E1E0F0E0BB
:10F7800089E08093570084918B831C8224E030E0D1
:10F79000C8C18B81803589F48C81883039F4E2E0EE
:10F7A000F0E089E08093570084910DC0E0E0F0E044
:10F7B00089E080935700849106C0E3E0F0E089E09F
:10F7C0008093570084911A82DFCF8D81836C99E0FA
:10F7D000E1E0F0E0082E90935700E89507B600FCB2
:10F7E000FDCF1A821B8223E030E09BC180EC8A832C
:10F7F000CE5CDE4F188219821A821B82C253D1401E
:10F800008EC18A8190E0A0E0B0E0582F44273327D2
:10F8100022278B8190E0A0E0B0E0DC0199278827C7
:10F82000282B392B4A2B5B2B8D8190E0A0E0B0E098
:10F83000282B392B4A2B5B2B8C8190E0A0E0B0E089
:10F84000BA2FA92F982F8827282B392B4A2B5B2BCF
:10F85000220F331F441F551FC05EDE4F288339839C
:10F860004A835B83C052D1401A8259C13A81C95C34
:10F87000DE4F3883C753D140CA5CDE4F1882C6536F
:10F88000D1408B81C82EDD24CA5CDE4F488159816E
:10F89000C653D140C42AD52A933109F082C0CE5C28
:10F8A000DE4F88819981AA81BB81C253D1408050AB
:10F8B000904CA340B04030F583E0CE5CDE4FE88052
:10F8C000F9800A811B81C253D140F70100935B008C
:10F8D00080935700E89507B600FCFDCFCE5CDE4F65
:10F8E000088119812A813B81C253D14000501F4FAA
:10F8F0002F4F3F4FCE5CDE4F088319832A833B8313
:10F90000C253D140C05EDE4F488159816A817B81FC
:10F91000C052D140DE011B9631E08C9111962C91A2
:10F9200011971296C75CDE4F2883C953D140C85C3B
:10F93000DE4F1882C853D14090E0C85CDE4FE881AA
:10F94000F981C853D1408E2B9F2B0C01FA01609393
:10F950005B0030935700E89511244E5F5F4F6F4F67
:10F960007F4F0EEFE02E0FEFF02ECE0CDF1CC114F8
:10F97000D10499F685E0C05EDE4F088119812A81A5
:10F980003B81C052D140F80120935B008093570027
:10F99000E89507B600FCFDCF81E180935700E8951C
:10F9A00035C0C05EDE4F88819981AA81BB81C0527B
:10F9B000D140B695A795979587957C018601ABE0D8
:10F9C000AA2EB12CAC0EBD1E0BC0D5016D915D01F0
:10F9D000C7010F947FFE0894E11CF11C01501040F8
:10F9E0000115110591F7A60160E070E0440F551F65
:10F9F000661F771FC05EDE4FE880F9800A811B8199
:10FA0000C052D1404E0D5F1D601F711F1A82C05E33
:10FA1000DE4F488359836A837B83C052D1407FC0C5
:10FA2000FA80C55CDE4FF882CB53D140C65CDE4F16
:10FA30001882CA53D1408B81C82EDD24C65CDE4FAC
:10FA400008811981CA53D140C02AD12A1A828981DA
:10FA5000BE016D5F7F4F843121F59601C05EDE4FA0
:10FA6000E880F9800A811B81C052D1400BBFF701A9
:10FA700087919691DB018C9311969C936E5F7F4FDB
:10FA8000D801C7010296A11DB11DC05EDE4F88835B
:10FA90009983AA83BB83C052D14022503040F1F6F3
:10FAA00036C0C05EDE4F288139814A815B81C052F9
:10FAB000D1400894C108D108760100E010E0089414
:10FAC000C11CD11C0894E11CF11C011D111DE20E8A
:10FAD000F31E041F151F21BDBB27A52F942F832FB5
:10FAE00082BD2F5F3F4F4F4F5F4FF89A80B5DB01CC
:10FAF0008D93BD012E153F054007510761F7C05E8C
:10FB0000DE4F288339834A835B83C052D1409601FC
:10FB10002D5F3F4FFB01108204C080EC8A8322E0FE
:10FB200030E08BE18093C6008091C00086FFFCCF5F
:10FB30008091C00080648093C000C15DDE4FF88179
:10FB4000CF52D140F093C6008091C00086FFFCCF19
:10FB50008091C00080648093C000432F3093C60022
:10FB60008091C00086FFFCCF8091C00080648093AC
:10FB7000C000922F2093C6008091C00086FFFCCF6A
:10FB80008091C00080648093C0008EE08093C600A6
:10FB90008091C00086FFFCCF8091C000806480937C
:10FBA000C00065E1C15DDE4FE880CF52D1406E25D7
:10FBB00069276427FE01319610C090819093C6009A
:10FBC0008091C00086FFFCCF31968091C000806498
:10FBD0008093C0006927215030402115310569F715
:10FBE0006093C6008091C00086FFFCCF8091C0006A
:10FBF00080648093C00085B1805885B9772081F4F6
:10FC0000C15DDE4F0881CF52D1400F5FC15DDE4F35
:10FC10000883CF52D14090E0A0E0B0E00D941AF4F8
:10FC200027982F9880E090E020ED37E0F901319798
:10FC3000F1F7019684369105C9F700008091C00064
:10FC40008D7F8093C00081E180935700E895EE2777
:10FC5000FF270994FFCF90E00D941AF497FB092E2B
:10FC600007260AD077FD04D02ED006D000201AF443
:10FC7000709561957F4F0895F6F7909581959F4F08
:10FC80000895A1E21A2EAA1BBB1BFD010DC0AA1FDD
:10FC9000BB1FEE1FFF1FA217B307E407F50720F0F5
:10FCA000A21BB30BE40BF50B661F771F881F991F70
:10FCB0001A9469F760957095809590959B01AC01B9
:10FCC000BD01CF010895AA1BBB1B51E107C0AA1FAC
:10FCD000BB1FA617B70710F0A61BB70B881F991FED
:10FCE0005A95A9F780959095BC01CD010895F99991
:10FCF000FECF92BD81BDF89A992780B50895262F31
:10FD0000F999FECF1FBA92BD81BD20BD0FB6F89400
:0EFD1000FA9AF99A0FBE01960895F894FFCF63
:00000001FF
