:100000000C9462000C948A000C948A000C948A0070
:100010000C948A000C948A000C948A000C948A0038
:100020000C948A000C948A000C948A000C948A0028
:100030000C948A000C948A000C948A000C948A0018
:100040000C948B060C948A000C948A000C948A0001
:100050000C948A000C948A000C948A000C948A00F8
:100060000C948A000C948A000000000023002600F3
:10007000290000000008000201000003040700003E
:1000800000000000000000000000250028002B00F8
:1000900000000000240027002A00040404040404D3
:1000A0000404020202020202030303030303010227
:1000B00004081020408001020408102001020408F6
:1000C0001020D50611241FBECFEFD8E0DEBFCDBF74
:1000D00021E0A6E3B1E001C01D92A93CB207E1F71F
:1000E00011E0A0E0B1E0E6E2F2E102C005900D927D
:1000F000A633B107D9F710E0C2E6D0E004C02197DB
:10010000FE010E94FF08C136D107C9F70E94F5061B
:100110000C9411090C940000CF93DF9390E0FC0144
:10012000E255FF4F249186569F4FFC01849188230E
:10013000C1F090E0880F991FFC01E057FF4FC59177
:10014000D491FC01EA57FF4FA591B4919FB7F89461
:100150003881822F809583238883EC91E22BEC9366
:100160009FBFDF91CF91089590E0FC01EE58FF4FC3
:100170002491FC01E255FF4F3491FC01E656FF4FFC
:10018000E491EE23C1F1222339F02330E9F090F419
:10019000213001F1223011F1F0E0EE0FFF1FE8599C
:1001A000FF4FA591B491EC91E32381E090E029F514
:1001B00080E008952730A9F02830C9F0243061F795
:1001C000809180008F7D03C0809180008F77809325
:1001D0008000E2CF84B58F7784BDDECF84B58F7D7C
:1001E000FBCF8091B0008F778093B000D5CF809106
:1001F000B0008F7DF9CF80E090E008953FB7F8948C
:100200008091950190919601A0919701B0919801EC
:1002100026B5A89B05C02F3F19F00196A11DB11D61
:100220003FBFBA2FA92F982F8827BC01CD01620F9D
:10023000711D811D911D42E0660F771F881F991F58
:100240004A95D1F70895AF92BF92DF92EF92FF9255
:100250000F931F93CF93DF93D82E8091BC01909181
:10026000BD01A091BE01B091BF01892B8A2B8B2BC0
:10027000D9F00E94FE000091B5011091B6012091C5
:10028000B7013091B801601B710B820B930B009189
:10029000BC011091BD012091BE013091BF016017DA
:1002A000710782079307C8F20E94FE006093B501B0
:1002B0007093B6018093B7019093B801E091C401A7
:1002C000F091C501309759F04091C0015091C101A2
:1002D0006091C2017091C3018D2D0995D82EC091F6
:1002E000B301D091B40183EAE82E81E0F82E8701B2
:1002F000209749F181E0033B180729F18D85882378
:10030000F1F0E881F981A284B3840680F781E02DC1
:10031000CE010995BC01CE01F5010995F801918343
:1003200080838091BA019091BB018436910508F4D5
:100330001C860C80DD81C02D0E5F1F4FD9CFF801C8
:1003400011821082EECFC091B301D091B40108E0C8
:1003500010E02097A9F08D85882361F04E855F8598
:100360006A817B81E881F9810280F381E02D2D2D66
:10037000CE0109950C80DD81C02D0150110949F78E
:10038000C091B301D091B4012097C9F0F3EBEF16FF
:10039000F1E0FF06A1F08D85882351F0F70160811F
:1003A0007181E881F9810484F585E02DCE010995FC
:1003B0000C80DD81C02DF2E0EF0EF11CE5CF8091C5
:1003C000A1019091A2019C012F5F3F4F3093A201A8
:1003D0002093A10149970CF44AC08FB7F89420915B
:1003E000990130919A0140919B0150919C018FBFDE
:1003F00080919D0190919E01A0919F01B091A001DB
:10040000281B390B4A0B5B0B21F421E030E040E064
:1004100050E0E091A101F091A20188EE93E0E89F05
:10042000B001E99F700DF89F700D1124072E000C8C
:10043000880B990B0E94A8083093BB012093BA0146
:100440001092A2011092A1012FB7F8948091990106
:1004500090919A01A0919B01B0919C012FBF809334
:100460009D0190939E01A0939F01B093A001DF9105
:10047000CF911F910F91FF90EF90DF90BF90AF90C1
:1004800008958F929F92AF92BF92CF92DF92EF9298
:10049000FF920E94FE004B015C0188ECC82ED12C1B
:1004A000E12CF12C0E94FE00681979098A099B0948
:1004B000683E734081059105A8F321E0C21AD10876
:1004C000E108F10888EE880E83E0981EA11CB11C9B
:1004D000C114D104E104F10429F7FF90EF90DF90FB
:1004E000CF90BF90AF909F908F90089580E991E05A
:1004F0000895AF92BF92CF92DF92EF92FF920F9347
:100500001F93CF93DF9300D01F92CDB7DEB75A0170
:1005100019821A821B82882361F18B01E1E0F0E0ED
:10052000E82EF12CD8012D918D012223F1F06F01DD
:10053000B1E0CB1AD108D501AC0DBD1D4C914423BF
:10054000A1F030E02F5F3F4FD7010E94CA08A42FCF
:10055000B0E011969B01AC010E94E008A1E0B0E080
:10056000AC0FBD1FAC0DBD1D8C933196E430F10571
:10057000C9F669817A818B810F900F900F90DF917E
:10058000CF911F910F91FF90EF90DF90CF90BF9090
:10059000AF90089581E090E008950F931F93CF935B
:1005A000DF9320913B012F5F322F377030933B0157
:1005B00020FF2BC020E831FD2064347009F0206258
:1005C000205FFC01EC01239600E011E067856623C3
:1005D00029F070E0C8010E9494086F5F6187822F44
:1005E000869F080E80E0811D1124811110C01682A3
:1005F000662311F0615061873196EC17FD0731F7E2
:10060000DF91CF911F910F91089520E0D4CF8150B9
:100610008683EECF4F925F927F928F929F92AF929E
:10062000BF92CF92DF92EF92FF920F931F93CF93DF
:10063000DF932C01EB010E94FE00F201268937892D
:10064000621B730B6A307105B0F3F8948A819B8149
:10065000181619060CF0CDC1E881F9816BB1862E10
:10066000689486F83BB13F7B3BB9DA848F812D2DAE
:10067000281B822F2F834C85042E000C550BAA813A
:10068000BB817889FF84E9887F5FF394E3949E813E
:100690009884B984AB841181C12C6C2D0C2D2C2D28
:1006A0002181112788942111280F08F42FEF8195BB
:1006B000889470FD120F1795889471FD120F17958D
:1006C000889472FD120F1795889473FD120F179579
:1006D000889474FD120F1795889475FD120F179565
:1006E000889476FD120F1795889477FD120F179551
:1006F0008894622F7111612F8D0D162F002C8BB8ED
:1007000000C017FF3BB920816627889400C000C055
:10071000002C3BB92111290F00C0002C8BB800C060
:1007200016FF3BB908F42FEF9195889400C000C0E4
:10073000002C3BB9F0FC620F00C0002C8BB800C04D
:1007400015FF3BB967958894F1FC620F00C000C0AB
:10075000002C3BB96795889400C0002C8BB800C072
:1007600014FF3BB9F2FC620F6795889400C000C08B
:10077000002C3BB9F3FC620F00C0002C8BB800C00A
:1007800013FF3BB967958894F4FC620F00C000C06A
:10079000002C3BB96795889400C0002C8BB800C032
:1007A00012FF3BB9F5FC620F6795889400C000C04A
:1007B000002C3BB9F6FC620F00C0002C8BB800C0C7
:1007C00011FF3BB967958894F7FC620F00C000C029
:1007D000002C3BB96795889400C0002C8BB800C0F2
:1007E00010FF3BB9122FF110162F9B0D00C000C057
:1007F000002C3BB900C000C0002C8BB800C017FF14
:100800003BB922816627889400C000C0002C3BB908
:100810002111290D00C0002C8BB800C016FF3BB978
:1008200008F42FEFE40FF51F00C000C0002C3BB907
:10083000E0FC620F00C0002C8BB800C015FF3BB974
:1008400067958894E1FC620F00C000C0002C3BB9A2
:100850006795889400C0002C8BB800C014FF3BB98A
:10086000E2FC620F6795889400C000C0002C3BB981
:10087000E3FC620F00C0002C8BB800C013FF3BB933
:1008800067958894E4FC620F00C000C0002C3BB95F
:100890006795889400C0002C8BB800C012FF3BB94C
:1008A000E5FC620F6795889400C000C0002C3BB93E
:1008B000E6FC620F00C0002C8BB800C011FF3BB9F2
:1008C00067958894E7FC620F00C000C0002C3BB91C
:1008D0006795889400C0002C8BB800C010FF3BB90E
:1008E000122FE110162F919400C000C0002C3BB9CC
:1008F0009A0C00C000C08BB800C017FF3BB9218123
:100900006627889400C000C0002C3BB92111280F35
:1009100000C0002C8BB800C016FF3BB908F42FEFC5
:100920008195889400C000C0002C3BB970FD620F17
:1009300000C0002C8BB800C015FF3BB967958894A8
:1009400071FD620F00C000C0002C3BB96795889410
:1009500000C0002C8BB800C014FF3BB972FD620FC1
:100960006795889400C000C0002C3BB973FD620FEE
:1009700000C0002C8BB800C013FF3BB9679588946A
:1009800074FD620F00C000C0002C3BB967958894CD
:1009900000C0002C8BB800C012FF3BB975FD620F80
:1009A0006795889400C000C0002C3BB976FD620FAB
:1009B00000C0002C8BB800C011FF3BB9679588942C
:1009C00077FD620F00C000C0002C3BB9679588948A
:1009D00000C0002C8BB800C010FF3BB9122F711162
:1009E000162F8D0D00C000C0002C3BB9119709F0E7
:1009F00086CEEA81FB812EE130E0DF010E94D9083A
:100A000030E020E0A901AAE9EA9F0E0E411DFA9FFD
:100A1000400D511D11244F0F511DDC01CB01840FDE
:100A2000951FA11DB11D893E43E09407A105B105A5
:100A300008F434C0885E9340A109B10942E0B6953C
:100A4000A795979587954A95D1F747E0849F080E1B
:100A5000211D949F200D311D1124290F311D6091FE
:100A60003A0170E0860F971F820F931F4091990102
:100A700050919A0160919B0170919C01292F33271D
:100A8000420F531F611D711D4093990150939A01AC
:100A900060939B0170939C0180933A0178940E942B
:100AA000FE00F201778B668BDF91CF911F910F9142
:100AB000FF90EF90DF90CF90BF90AF909F908F907E
:100AC0007F905F904F900895569A08956F927F920D
:100AD0008F92CF92DF92EF92FF920F931F93CF935B
:100AE000DF93CDB7DEB762970FB6F894DEBF0FBEC7
:100AF000CDBF8C016B017A01822FA801475F5F4F48
:100B0000B8016A5F7F4F0E9479023B01882ED801AD
:100B10001C962C91C701F7FE04C0882799278E19CF
:100B20009F09DA82C9829C838B839E838D83688A26
:100B3000798A8A8A213049F5CE0101960E94CD0238
:100B400083E08D871F861E86F7FE02C08DEF8D879E
:100B5000D801ED91FC910088F189E02DBE016F5F15
:100B60007F4FC801099562960FB6F894DEBF0FBE9D
:100B7000CDBFDF91CF911F910F91FF90EF90DF904C
:100B8000CF908F907F906F9008951C861B861A8659
:100B9000198618861F82D4CFCF92DF92EF92FF92F0
:100BA0000F931F93CF93DF93CDB7DEB762970FB646
:100BB000F894DEBF0FBECDBF8C016B017A01822F8E
:100BC000A801475F5F4FB8016A5F7F4F0E947902BB
:100BD0009B01482FD8011C968C91DA82C982FC8235
:100BE000EB82FE82ED82288B398B4A8B813009F5AE
:100BF000CE0101960E94CD021D861F861E86D80159
:100C0000ED91FC910088F189E02DBE016F5F7F4F6F
:100C1000C801099562960FB6F894DEBF0FBECDBF2E
:100C2000DF91CF911F910F91FF90EF90DF90CF90C8
:100C300008951C861B861A86198618861F82DCCFAB
:100C40000895EEE5F1E0DC012D913D914C91219369
:100C500031934193B1E0EE38FB07A9F78091B901D8
:100C60000C942301CF93DF9300D01F92CDB7DEB752
:100C700069837A838B838091C60186132CC09091FF
:100C8000C7018A81981327C09091C8018B8198135E
:100C900022C080919301811127C081E0809393014C
:100CA00080938E012FB7F8948091990190919A01C9
:100CB000A0919B01B0919C012FBF80938F019093D5
:100CC0009001A0939101B09392010F900F900F901B
:100CD000DF91CF91089589819A81AB818093C6017C
:100CE0009093C701A093C80110929301CE01019681
:100CF0000E942106EACF90E080E00895FC0164871D
:100D00000895FC01848590E00895FC01868597850F
:100D100008950E9405091F920F920FB60F92112499
:100D20002F933F938F939F93AF93BF93809199019C
:100D300090919A01A0919B01B0919C0130919401F6
:100D400023E0230F2D3758F50196A11DB11D2093E7
:100D500094018093990190939A01A0939B01B09381
:100D60009C018091950190919601A0919701B0917D
:100D700098010196A11DB11D809395019093960154
:100D8000A0939701B0939801BF91AF919F918F91DC
:100D90003F912F910F900FBE0F901F90189526E84E
:100DA000230F0296A11DB11DD2CFE9EBF1E08FEF29
:100DB000808312821182148613868FEF9FEFDC01ED
:100DC00087839087A187B287138214821582168247
:100DD0008091330190913401A09135018093C60137
:100DE0009093C701A093C8010895CF93DF93CDB727
:100DF000DEB72E970FB6F894DEBF0FBECDBF789446
:100E000084B5826084BD84B5816084BD85B582600F
:100E100085BD85B5816085BD80916E0081608093C0
:100E20006E00109281008091810082608093810029
:100E30008091810081608093810080918000816039
:100E4000809380008091B10084608093B100809194
:100E5000B00081608093B00080917A0084608093BC
:100E60007A0080917A00826080937A0080917A0083
:100E7000816080937A0080917A00806880937A0004
:100E80001092C10080915601811157C0109241010A
:100E9000109240018FEF809344018093450180932D
:100EA000460180934701809348018093490181E086
:100EB00080934A0180934B0110924D0110924C0196
:100EC00080E797E190934F0180934E0183E090E09B
:100ED000909351018093500110925301109252014E
:100EE00010924301109242018091B3019091B4019C
:100EF000892B31F48EE391E09093B4018093B30198
:100F0000E0913C01F0913D01309721F08EE391E0BA
:100F1000958384838EE391E090933D0180933C011F
:100F2000109255011092540188E191E090933F0195
:100F300080933E0181E080935601569A8EE591E0C0
:100F4000909341018093400180E190E090934D01A6
:100F500080934C018091BC019091BD01A091BE0194
:100F6000B091BF01843C29E09207A105B10520F4AE
:100F700084EC99E0A0E0B0E08093BC019093BD01C7
:100F8000A093BE01B093BF010091B3011091B401D1
:100F900001151105B9F0D80112968D919C91139706
:100FA000009761F01E962D913C91A901440F551FA9
:100FB000420F531F70E060E00E940A09F8010481AB
:100FC0001581E6CF8091B9010E94230182E00E9441
:100FD0008C0083E00E948C0084E00E948C0085E0FD
:100FE0000E948C0019821A821B82CE0101960E94F7
:100FF0002106C0903301D0903401E090350160901B
:101000003001709031018090320120902D0130909C
:101010002E0140902F0120912A0130912B01409107
:101020002C012C833D834E83FF24F39400E010E0D9
:1010300082E00E94B400892B09F56C817D818E814C
:101040000E9432060E94410280919301882361F040
:101050008091C60181112AC08091C701811126C0EB
:101060008091C801811122C08091B9010E942301A1
:1010700001151105E9F20E940000DACF83E00E9419
:10108000B400892B19F4842DB101DACF84E00E94D9
:10109000B400892B19F4882DB301D2CF85E00E94CA
:1010A000B400892B89F68E2DB601CACF2FB7F894DC
:1010B0008091990190919A01A0919B01B0919C011E
:1010C0008B879C87AD87BE872FBF20918F01309182
:1010D00090014091910150919201821B930BA40BBE
:1010E000B50B843F9140A105B10510F28B859C851D
:1010F000AD85BE8580938F0190939001A09391015F
:10110000B093920180918E018F2580938E01882368
:1011100029F086EC91E00E942106AACF19821A825A
:101120001B82CE010196F7CF97FB072E16F4009491
:1011300007D077FD09D00E94EB0807FC05D03EF4EC
:10114000909581959F4F0895709561957F4F089573
:10115000A1E21A2EAA1BBB1BFD010DC0AA1FBB1FBB
:10116000EE1FFF1FA217B307E407F50720F0A21B2D
:10117000B30BE40BF50B661F771F881F991F1A949A
:1011800069F760957095809590959B01AC01BD01C4
:10119000CF010895A29FB001B39FC001A39F700D1E
:1011A000811D1124911DB29F700D811D1124911D6F
:1011B00008950E94CA08B7FF0895821B930B0895F3
:1011C0000E94CA08A59F900DB49F900DA49F800D0A
:1011D000911D11240895AA1BBB1B51E107C0AA1F32
:1011E000BB1FA617B70710F0A61BB70B881F991FC8
:1011F0005A95A9F780959095BC01CD010895EE0F01
:10120000FF1F0590F491E02D099481E090E0F8949F
:101210000C941109DC0101C06D9341505040E0F77E
:061220000895F894FFCFD1
:10122600000000008906890689068506CA0281062D
:101236007E067B0600000000CC0566056405850673
:10124600CA0281067E0676020A03008000FFFF00BE
:06125600FF000000000093
:00000001FF
