:100000000C9424010C9445010C9445010C94450179
:100010000C9445010C9445010C9445010C94450148
:100020000C9445010C9445010C9445010C94450138
:100030000C9445010C9445010C9445010C94450128
:100040000C9445010C9445010C9445010C94450118
:100050000C9445010C9445010C9445010C943A0212
:100060000C9445010C9445010C9445010C944501F8
:100070000C9445010C9445010C9445010C944501E8
:100080000C9445010C9445010C9445010C944501D8
:100090000C9445010C9445010C9445010C944501C8
:1000A0000C9445010C9445010C9445010C944501B8
:1000B0000C9445010C9445010C9445010C944501A8
:1000C0000C9445010C9445010C9445010C94450198
:1000D0000C9445010C9445010C9445010C94450188
:1000E0000C9445010C9492010C94AA010C9480018B
:1000F0000C947A010C94A6010C948A010C9498013A
:100100000C9477010C94A5010C9484010C94650166
:100110000C946F010C948E010C946B010C94A00153
:100120000C949C010C947301000020002300260015
:1001300029002C002F0032000001000003010601FD
:10014000090100002100240027002A002D003000B2
:10015000330001010000040107010A010000220030
:10016000250028002B002E00310034000201000081
:10017000050108010B010505050507050808080824
:10018000020202020A0A080804040404010101012F
:10019000010101010303030303030303040707072A
:1001A0000C0C0C0C0C0C0C0C0202020206060606CF
:1001B000060606060B0B0B0B0B0B0B0B010210209C
:1001C000200808102040102040800201020108048D
:1001D0000201010204081020408080402010080421
:1001E000020180040201804020100804020108047A
:1001F00002010102040810204080010204081020BE
:10020000408000000A0B02090C0D0E0807030401D0
:1002100000000000000000000000000000000000DE
:1002200000000000000000000000000000001211AB
:1002300010000000000000000000000000000000AE
:10024000000000000000000011241FBECFEFD1E22B
:10025000DEBFCDBF00E00CBF12E0A0E0B2E0EEEDEB
:10026000F9E000E00BBF02C007900D92A230B10789
:10027000D9F722E0A2E0B2E001C01D92AF31B2078F
:10028000E1F70E9484020C94ED040C94000081506C
:10029000823108F05AC0E82FF0E08827ED5AFE4F6F
:1002A0008F4F0C94E5047301770165016B016F01B9
:1002B000A5017A01800184018A018E0192019801D1
:1002C0009C01A501A001A601AA01809180008F7761
:1002D000809380000895809180008F7DF9CF809178
:1002E0008000877FF5CF84B58F7784BD089584B56E
:1002F0008F7DFBCF8091B0008F778093B000089501
:100300008091B0008F7DF9CF809190008F7780939E
:1003100090000895809190008F7DF9CF809190009A
:10032000877FF5CF8091A0008F778093A0000895FC
:100330008091A0008F7DF9CF8091A000877FF5CFBD
:10034000809120018F778093200108958091200172
:100350008F7DF9CF80912001877FF5CF1F93CF93B9
:10036000DF93282F30E0F901EE5FFD4F8491F90112
:10037000E454FE4FD491F901EA58FE4FC491CC23C6
:10038000A9F0162F81110E944701EC2FF0E0EE0F2B
:10039000FF1FE45AFE4FA591B4918FB7F894EC91EA
:1003A000111108C0D095DE23DC938FBFDF91CF9170
:1003B0001F910895DE2BF8CFCF93DF9390E0FC01DF
:1003C000E454FE4F24918A589E4FFC018491882367
:1003D000D1F090E0880F991FFC01EE5BFE4FA591D4
:1003E000B491FC01E45AFE4FC591D491623071F48E
:1003F0009FB7F8943C91822F809583238C93E8815A
:100400002E2B28839FBFDF91CF9108958FB7F8944B
:10041000EC912E2B2C938FBFF6CF3FB7F8948091A1
:100420001B0290911C02A0911D02B0911E0226B5E4
:10043000A89B05C02F3F19F00196A11DB11D3FBF1C
:10044000BA2FA92F982F8827BC01CD01620F711DEB
:10045000811D911D42E0660F771F881F991F4A95E5
:10046000D1F7089560E083E00E94AE0160E084E08F
:100470000C94AE011F920F920FB60F9211242F937E
:100480003F938F939F93AF93BF9380911702909167
:100490001802A0911902B0911A023091160223E0BD
:1004A000230F2D3758F50196A11DB11D209316027B
:1004B0008093170290931802A0931902B0931A0226
:1004C00080911B0290911C02A0911D02B0911E020E
:1004D0000196A11DB11D80931B0290931C02A09355
:1004E0001D02B0931E02BF91AF919F918F913F91DA
:1004F0002F910F900FBE0F901F90189526E8230F95
:100500000296A11DB11DD2CF789484B5826084BDBE
:1005100084B5816084BD85B5826085BD85B5816007
:1005200085BD80916E00816080936E001092810085
:100530008091810082608093810080918100816040
:100540008093810080918000816080938000809101
:10055000B10084608093B1008091B000816080938D
:10056000B000809191008260809391008091910011
:1005700081608093910080919000816080939000D1
:100580008091A10082608093A1008091A100816090
:100590008093A1008091A00081608093A000809151
:1005A00021018260809321018091210181608093EB
:1005B00021018091200181608093200180917A0047
:1005C000846080937A0080917A00826080937A00C0
:1005D00080917A00816080937A0080917A008068AF
:1005E00080937A001092C10062E082E00E94DC01F8
:1005F00061E083E00E94DC0161E084E00E94DC01B4
:100600000E94320220E0222E20E0322E01E010E093
:1006100030E1432E37E2532E612C712CC2E0D0E042
:10062000E4E0F2E08491EEEBF1E0F490E8E7F1E051
:10063000E490EE2009F49EC081110E944701EE2D46
:10064000F0E0EE0FFF1FE85DFE4FA591B4918C9195
:10065000F82291E080E009F490E0E92EF82EC7013D
:10066000F1E08F27282F2170B22E80917B00877FA9
:1006700080937B0040E440937C0080917A0080640A
:1006800080937A0080917A0086FDFCCF809178007B
:1006900090917900CC24C3948039E1E09E070CF05E
:1006A000C12CDD24D3948935F2E09F070CF4D12CC2
:1006B0002091130230911402803941E094070CF02C
:1006C0005CC0809115028111A8C0232B09F04EC097
:1006D00080910F0290911002A0911102B09112022C
:1006E0008031E7E29E07A105B10508F06AC1809359
:1006F0000B0290930C02A0930D02B0930E022FB741
:10070000F8948091170290911802A0911902B0916B
:100710001A022FBF8093070290930802A093090248
:10072000B0930A02805F984DAF4FBF4F40910B02CC
:1007300050910C0260910D0270910E02841B950B7A
:10074000A60BB70B8093030290930402A0930502BB
:10075000B0930602109314020093130261E083E049
:100760000E94AE0160E084E00E94AE01EF2809F033
:10077000ABC056C0F12CE12C72CF893592400CF4FD
:100780004CC080910202811148C0232B79F78091DF
:100790000F0290911002A0911102B09112020097E5
:1007A000A105B10509F40DC180930B0290930C02D1
:1007B000A0930D02B0930E028FB7F89440911702E8
:1007C000509118026091190270911A028FBF4093E4
:1007D0000702509308026093090270930A02809105
:1007E0000B0290910C02A0910D02B0910E02840FA9
:1007F000951FA61FB71F8093030290930402A09336
:100800000502B0930602D0931402C093130260E075
:1008100083E00E94AE0161E0A6CFEF2809F04EC050
:100820008091000281114AC08091130290911402BC
:10083000892B09F476C02FB7F89480911702909114
:100840001802A0911902B0911A022FBF409107021D
:10085000509108026091090270910A02841B950B65
:10086000A60BB70B209113023091140240910B029A
:1008700050910C0260910D0270910E0221303105F1
:1008800009F080C0840F951FA61FB71F813127E292
:100890009207A105B10520F080E197E2A0E0B0E069
:1008A00080930F0290931002A0931102B093120252
:1008B0000E943202109214021092130280911302CD
:1008C00090911402892B69F12FB7F8948091170247
:1008D00090911802A0911902B0911A022FBF409175
:1008E0000302509104026091050270910602841780
:1008F0009507A607B707A8F08091130290911402FC
:10090000019709F055C040920F0250921002609278
:100910001102709212020E9432021092140210927E
:100920001302C0921502D0920202B09200020E94FD
:100930000D024B015C018AE0C82ED12CE12CF12C78
:100940000E940D02681979098A099B09683E734063
:1009500081059105A8F341E0C41AD108E108F10826
:1009600088EE880E83E0981EA11CB11CC114D1042E
:10097000E104F10429F72114310409F451CE0E9455
:1009800000004ECE84179507A607B70768F4481BEA
:10099000590B6A0B7B0B40930F025093100260932C
:1009A00011027093120284CF40E050E0BA01F3CFFD
:1009B00010920F0210921002109211021092120265
:1009C000AACFEF2809F0ADCF2BCFEE0FFF1F881F66
:0E09D0008BBF0790F691E02D1994F894FFCF9D
:0209DE00010016
:00000001FF
